{"contracts/v2/AtomicSwapV2.sol":{"AtomicSwapV2":{"abi":[{"anonymous":false,"inputs":[{"indexed":false,"internalType":"string","name":"msg","type":"string"}],"name":"ASSERT","type":"event"},{"anonymous":false,"inputs":[{"indexed":false,"internalType":"address","name":"previousAdmin","type":"address"},{"indexed":false,"internalType":"address","name":"newAdmin","type":"address"}],"name":"AdminChanged","type":"event"},{"anonymous":false,"inputs":[{"indexed":true,"internalType":"address","name":"beacon","type":"address"}],"name":"BeaconUpgraded","type":"event"},{"anonymous":false,"inputs":[],"name":"EIP712DomainChanged","type":"event"},{"anonymous":false,"inputs":[{"indexed":false,"internalType":"uint8","name":"version","type":"uint8"}],"name":"Initialized","type":"event"},{"anonymous":false,"inputs":[{"indexed":false,"internalType":"address","name":"account","type":"address"}],"name":"Paused","type":"event"},{"anonymous":false,"inputs":[{"indexed":true,"internalType":"address","name":"payer","type":"address"},{"indexed":false,"internalType":"uint256","name":"amount","type":"uint256"},{"indexed":false,"internalType":"uint256","name":"daoShare","type":"uint256"},{"indexed":false,"internalType":"uint256","name":"burned","type":"uint256"}],"name":"PaymentReceived","type":"event"},{"anonymous":false,"inputs":[{"indexed":true,"internalType":"bytes32","name":"role","type":"bytes32"},{"indexed":true,"internalType":"bytes32","name":"previousAdminRole","type":"bytes32"},{"indexed":true,"internalType":"bytes32","name":"newAdminRole","type":"bytes32"}],"name":"RoleAdminChanged","type":"event"},{"anonymous":false,"inputs":[{"indexed":true,"internalType":"bytes32","name":"role","type":"bytes32"},{"indexed":true,"internalType":"address","name":"account","type":"address"},{"indexed":true,"internalType":"address","name":"sender","type":"address"}],"name":"RoleGranted","type":"event"},{"anonymous":false,"inputs":[{"indexed":true,"internalType":"bytes32","name":"role","type":"bytes32"},{"indexed":true,"internalType":"address","name":"account","type":"address"},{"indexed":true,"internalType":"address","name":"sender","type":"address"}],"name":"RoleRevoked","type":"event"},{"anonymous":false,"inputs":[{"indexed":false,"internalType":"address","name":"account","type":"address"}],"name":"Unpaused","type":"event"},{"anonymous":false,"inputs":[{"indexed":true,"internalType":"address","name":"implementation","type":"address"}],"name":"Upgraded","type":"event"},{"inputs":[],"name":"DEFAULT_ADMIN_ROLE","outputs":[{"internalType":"bytes32","name":"","type":"bytes32"}],"stateMutability":"view","type":"function"},{"inputs":[],"name":"DOMAIN_SEPARATOR","outputs":[{"internalType":"bytes32","name":"","type":"bytes32"}],"stateMutability":"view","type":"function"},{"inputs":[],"name":"EIP712_DOMAIN_TYPEHASH","outputs":[{"internalType":"string","name":"","type":"string"}],"stateMutability":"view","type":"function"},{"inputs":[],"name":"PAUSER_ROLE","outputs":[{"internalType":"bytes32","name":"","type":"bytes32"}],"stateMutability":"view","type":"function"},{"inputs":[],"name":"PAYMENT_TYPEHASH","outputs":[{"internalType":"bytes32","name":"","type":"bytes32"}],"stateMutability":"view","type":"function"},{"inputs":[{"internalType":"address","name":"_account","type":"address"}],"name":"addAdmin","outputs":[],"stateMutability":"nonpayable","type":"function"},{"inputs":[{"internalType":"address","name":"_account","type":"address"}],"name":"addPauser","outputs":[],"stateMutability":"nonpayable","type":"function"},{"inputs":[{"components":[{"internalType":"bytes32","name":"order_id","type":"bytes32"},{"internalType":"address","name":"maker","type":"address"},{"internalType":"uint256","name":"created_at","type":"uint256"}],"internalType":"struct IAtomicSwap.CancelSwapMsg","name":"makeswap","type":"tuple"}],"name":"cancelSwap","outputs":[],"stateMutability":"payable","type":"function"},{"inputs":[],"name":"eip712Domain","outputs":[{"internalType":"bytes1","name":"fields","type":"bytes1"},{"internalType":"string","name":"name","type":"string"},{"internalType":"string","name":"version","type":"string"},{"internalType":"uint256","name":"chainId","type":"uint256"},{"internalType":"address","name":"verifyingContract","type":"address"},{"internalType":"bytes32","name":"salt","type":"bytes32"},{"internalType":"uint256[]","name":"extensions","type":"uint256[]"}],"stateMutability":"view","type":"function"},{"inputs":[{"internalType":"bytes32","name":"role","type":"bytes32"}],"name":"getRoleAdmin","outputs":[{"internalType":"bytes32","name":"","type":"bytes32"}],"stateMutability":"view","type":"function"},{"inputs":[{"internalType":"bytes32","name":"role","type":"bytes32"},{"internalType":"address","name":"account","type":"address"}],"name":"grantRole","outputs":[],"stateMutability":"nonpayable","type":"function"},{"inputs":[{"internalType":"bytes32","name":"role","type":"bytes32"},{"internalType":"address","name":"account","type":"address"}],"name":"hasRole","outputs":[{"internalType":"bool","name":"","type":"bool"}],"stateMutability":"view","type":"function"},{"inputs":[{"internalType":"address","name":"_admin","type":"address"}],"name":"initialize","outputs":[],"stateMutability":"nonpayable","type":"function"},{"inputs":[{"internalType":"address","name":"_account","type":"address"}],"name":"isAdmin","outputs":[{"internalType":"bool","name":"","type":"bool"}],"stateMutability":"view","type":"function"},{"inputs":[{"internalType":"address","name":"_account","type":"address"}],"name":"isPauser","outputs":[{"internalType":"bool","name":"","type":"bool"}],"stateMutability":"view","type":"function"},{"inputs":[{"components":[{"components":[{"internalType":"address","name":"token","type":"address"},{"internalType":"address","name":"amount","type":"address"}],"internalType":"struct IAtomicSwap.Coin","name":"sell_token","type":"tuple"},{"components":[{"internalType":"address","name":"token","type":"address"},{"internalType":"address","name":"amount","type":"address"}],"internalType":"struct IAtomicSwap.Coin","name":"buy_token","type":"tuple"},{"internalType":"address","name":"maker_sender","type":"address"},{"internalType":"address","name":"maker_receiver","type":"address"},{"internalType":"address","name":"desired_taker","type":"address"},{"internalType":"uint256","name":"created_at","type":"uint256"},{"internalType":"uint256","name":"expire_at","type":"uint256"}],"internalType":"struct IAtomicSwap.MakeSwapMsg","name":"makeswap","type":"tuple"}],"name":"makeSwap","outputs":[],"stateMutability":"payable","type":"function"},{"inputs":[{"internalType":"address","name":"","type":"address"}],"name":"nonces","outputs":[{"internalType":"uint256","name":"","type":"uint256"}],"stateMutability":"view","type":"function"},{"inputs":[],"name":"paginationSize","outputs":[{"internalType":"uint256","name":"","type":"uint256"}],"stateMutability":"view","type":"function"},{"inputs":[],"name":"pause","outputs":[],"stateMutability":"nonpayable","type":"function"},{"inputs":[],"name":"paused","outputs":[{"internalType":"bool","name":"","type":"bool"}],"stateMutability":"view","type":"function"},{"inputs":[],"name":"proxiableUUID","outputs":[{"internalType":"bytes32","name":"","type":"bytes32"}],"stateMutability":"view","type":"function"},{"inputs":[{"internalType":"address","name":"_account","type":"address"}],"name":"removeAdmin","outputs":[],"stateMutability":"nonpayable","type":"function"},{"inputs":[{"internalType":"address","name":"_account","type":"address"}],"name":"removePauser","outputs":[],"stateMutability":"nonpayable","type":"function"},{"inputs":[{"internalType":"bytes32","name":"role","type":"bytes32"},{"internalType":"address","name":"account","type":"address"}],"name":"renounceRole","outputs":[],"stateMutability":"nonpayable","type":"function"},{"inputs":[{"internalType":"bytes32","name":"role","type":"bytes32"},{"internalType":"address","name":"account","type":"address"}],"name":"revokeRole","outputs":[],"stateMutability":"nonpayable","type":"function"},{"inputs":[{"internalType":"uint256","name":"_paginationSize","type":"uint256"}],"name":"setPaginationSize","outputs":[],"stateMutability":"nonpayable","type":"function"},{"inputs":[{"internalType":"bytes4","name":"interfaceId","type":"bytes4"}],"name":"supportsInterface","outputs":[{"internalType":"bool","name":"","type":"bool"}],"stateMutability":"view","type":"function"},{"inputs":[{"components":[{"internalType":"bytes32","name":"order_id","type":"bytes32"},{"components":[{"internalType":"address","name":"token","type":"address"},{"internalType":"address","name":"amount","type":"address"}],"internalType":"struct IAtomicSwap.Coin","name":"sell_token","type":"tuple"},{"internalType":"address","name":"taker","type":"address"},{"internalType":"address","name":"taker_receiving_address","type":"address"},{"internalType":"address","name":"created_at","type":"address"}],"internalType":"struct IAtomicSwap.TakeSwapMsg","name":"makeswap","type":"tuple"}],"name":"takeSwap","outputs":[],"stateMutability":"payable","type":"function"},{"inputs":[],"name":"unpause","outputs":[],"stateMutability":"nonpayable","type":"function"},{"inputs":[{"internalType":"address","name":"newImplementation","type":"address"}],"name":"upgradeTo","outputs":[],"stateMutability":"nonpayable","type":"function"},{"inputs":[{"internalType":"address","name":"newImplementation","type":"address"},{"internalType":"bytes","name":"data","type":"bytes"}],"name":"upgradeToAndCall","outputs":[],"stateMutability":"payable","type":"function"}],"evm":{"bytecode":{"linkReferences":{},"object":"60a06040523073ffffffffffffffffffffffffffffffffffffffff1660809073ffffffffffffffffffffffffffffffffffffffff1681525034801561004357600080fd5b5060805161386161007b6000396000818161087a0152818161090901528181610abb01528181610b4a0152610bfa01526138616000f3fe6080604052600436106101d85760003560e01c80635c975abb1161010257806391d1485411610095578063d547741f11610064578063d547741f14610673578063d55a57781461069c578063e63ab1e9146106b8578063f2407ca4146106e3576101d8565b806391d14854146105b7578063a217fddf146105f4578063c4d66de81461061f578063c7977be714610648576101d8565b80637ecebe00116100d15780637ecebe001461050957806382dc1ec4146105465780638456cb591461056f57806384b0196e14610586576101d8565b80635c975abb146104615780636b2c0f551461048c5780636d3298cb146104b557806370480275146104e0576101d8565b80633659cfe61161017a57806346fbf68e1161014957806346fbf68e146103c15780634f1ef286146103fe57806352d1902d1461041a5780635752c59a14610445576101d8565b80633659cfe61461033a5780633d17cac7146103635780633d538ecf1461037f5780633f4ba83a146103aa576101d8565b806324d7806c116101b657806324d7806c146102805780632f2ff15d146102bd5780633644e515146102e657806336568abe14610311576101d8565b806301ffc9a7146101dd5780631785f53c1461021a578063248a9ca314610243575b600080fd5b3480156101e957600080fd5b5061020460048036038101906101ff91906124c2565b61070c565b604051610211919061250a565b60405180910390f35b34801561022657600080fd5b50610241600480360381019061023c9190612583565b610786565b005b34801561024f57600080fd5b5061026a600480360381019061026591906125e6565b610796565b6040516102779190612622565b60405180910390f35b34801561028c57600080fd5b506102a760048036038101906102a29190612583565b6107b7565b6040516102b4919061250a565b60405180910390f35b3480156102c957600080fd5b506102e460048036038101906102df919061263d565b6107cd565b005b3480156102f257600080fd5b506102fb6107ee565b6040516103089190612622565b60405180910390f35b34801561031d57600080fd5b506103386004803603810190610333919061263d565b6107f5565b005b34801561034657600080fd5b50610361600480360381019061035c9190612583565b610878565b005b61037d600480360381019061037891906126a1565b610a01565b005b34801561038b57600080fd5b50610394610a0c565b6040516103a191906126e7565b60405180910390f35b3480156103b657600080fd5b506103bf610a13565b005b3480156103cd57600080fd5b506103e860048036038101906103e39190612583565b610a86565b6040516103f5919061250a565b60405180910390f35b61041860048036038101906104139190612848565b610ab9565b005b34801561042657600080fd5b5061042f610bf6565b60405161043c9190612622565b60405180910390f35b61045f600480360381019061045a91906128c3565b610caf565b005b34801561046d57600080fd5b50610476610cba565b604051610483919061250a565b60405180910390f35b34801561049857600080fd5b506104b360048036038101906104ae9190612583565b610cd1565b005b3480156104c157600080fd5b506104ca610cfe565b6040516104d79190612622565b60405180910390f35b3480156104ec57600080fd5b5061050760048036038101906105029190612583565b610d22565b005b34801561051557600080fd5b50610530600480360381019061052b9190612583565b610d32565b60405161053d91906126e7565b60405180910390f35b34801561055257600080fd5b5061056d60048036038101906105689190612583565b610d4b565b005b34801561057b57600080fd5b50610584610d78565b005b34801561059257600080fd5b5061059b610deb565b6040516105ae9796959493929190612a80565b60405180910390f35b3480156105c357600080fd5b506105de60048036038101906105d9919061263d565b610eec565b6040516105eb919061250a565b60405180910390f35b34801561060057600080fd5b50610609610f58565b6040516106169190612622565b60405180910390f35b34801561062b57600080fd5b5061064660048036038101906106419190612583565b610f5f565b005b34801561065457600080fd5b5061065d611113565b60405161066a9190612b04565b60405180910390f35b34801561067f57600080fd5b5061069a6004803603810190610695919061263d565b61112f565b005b6106b660048036038101906106b19190612b46565b611150565b005b3480156106c457600080fd5b506106cd61115b565b6040516106da9190612622565b60405180910390f35b3480156106ef57600080fd5b5061070a60048036038101906107059190612ba0565b61117f565b005b60007f7965db0b000000000000000000000000000000000000000000000000000000007bffffffffffffffffffffffffffffffffffffffffffffffffffffffff1916827bffffffffffffffffffffffffffffffffffffffffffffffffffffffff1916148061077f575061077e82611219565b5b9050919050565b6107936000801b8261112f565b50565b600061012f6000838152602001908152602001600020600101549050919050565b60006107c66000801b83610eec565b9050919050565b6107d682610796565b6107df81611283565b6107e98383611297565b505050565b6101655481565b6107fd611379565b73ffffffffffffffffffffffffffffffffffffffff168173ffffffffffffffffffffffffffffffffffffffff161461086a576040517f08c379a000000000000000000000000000000000000000000000000000000000815260040161086190612c3f565b60405180910390fd5b6108748282611381565b5050565b7f000000000000000000000000000000000000000000000000000000000000000073ffffffffffffffffffffffffffffffffffffffff163073ffffffffffffffffffffffffffffffffffffffff161415610907576040517f08c379a00000000000000000000000000000000000000000000000000000000081526004016108fe90612cd1565b60405180910390fd5b7f000000000000000000000000000000000000000000000000000000000000000073ffffffffffffffffffffffffffffffffffffffff16610946611464565b73ffffffffffffffffffffffffffffffffffffffff161461099c576040517f08c379a000000000000000000000000000000000000000000000000000000000815260040161099390612d63565b60405180910390fd5b6109a5816114bb565b6109fe81600067ffffffffffffffff8111156109c4576109c361271d565b5b6040519080825280601f01601f1916602001820160405280156109f65781602001600182028036833780820191505090505b50600061150a565b50565b610a09611687565b50565b6101615481565b610a3d7f65d7a28e3265b37a6474929f336521b332c1681b933f6cb9f3376673440d862a33610eec565b610a7c576040517f08c379a0000000000000000000000000000000000000000000000000000000008152600401610a7390612dcf565b60405180910390fd5b610a846116d1565b565b6000610ab27f65d7a28e3265b37a6474929f336521b332c1681b933f6cb9f3376673440d862a83610eec565b9050919050565b7f000000000000000000000000000000000000000000000000000000000000000073ffffffffffffffffffffffffffffffffffffffff163073ffffffffffffffffffffffffffffffffffffffff161415610b48576040517f08c379a0000000000000000000000000000000000000000000000000000000008152600401610b3f90612cd1565b60405180910390fd5b7f000000000000000000000000000000000000000000000000000000000000000073ffffffffffffffffffffffffffffffffffffffff16610b87611464565b73ffffffffffffffffffffffffffffffffffffffff1614610bdd576040517f08c379a0000000000000000000000000000000000000000000000000000000008152600401610bd490612d63565b60405180910390fd5b610be6826114bb565b610bf28282600161150a565b5050565b60007f000000000000000000000000000000000000000000000000000000000000000073ffffffffffffffffffffffffffffffffffffffff163073ffffffffffffffffffffffffffffffffffffffff1614610c86576040517f08c379a0000000000000000000000000000000000000000000000000000000008152600401610c7d90612e61565b60405180910390fd5b7f360894a13ba1a3210667c828492db98dca3e2076cc3735a920a3ca505d382bbc60001b905090565b610cb7611687565b50565b600060cb60009054906101000a900460ff16905090565b610cfb7f65d7a28e3265b37a6474929f336521b332c1681b933f6cb9f3376673440d862a8261112f565b50565b7f7271d42ac43a92de4c013ad7baaac1c52a4b3b8b6c855f239cf9e6efaf0a6b7681565b610d2f6000801b826107cd565b50565b6101666020528060005260406000206000915090505481565b610d757f65d7a28e3265b37a6474929f336521b332c1681b933f6cb9f3376673440d862a826107cd565b50565b610da27f65d7a28e3265b37a6474929f336521b332c1681b933f6cb9f3376673440d862a33610eec565b610de1576040517f08c379a0000000000000000000000000000000000000000000000000000000008152600401610dd890612dcf565b60405180910390fd5b610de9611734565b565b6000606080600080600060606000801b606554148015610e0f57506000801b606654145b610e4e576040517f08c379a0000000000000000000000000000000000000000000000000000000008152600401610e4590612ecd565b60405180910390fd5b610e56611797565b610e5e611829565b46306000801b600067ffffffffffffffff811115610e7f57610e7e61271d565b5b604051908082528060200260200182016040528015610ead5781602001602082028036833780820191505090505b507f0f00000000000000000000000000000000000000000000000000000000000000959493929190965096509650965096509650965090919293949596565b600061012f600084815260200190815260200160002060000160008373ffffffffffffffffffffffffffffffffffffffff1673ffffffffffffffffffffffffffffffffffffffff16815260200190815260200160002060009054906101000a900460ff16905092915050565b6000801b81565b60008060019054906101000a900460ff16159050808015610f905750600160008054906101000a900460ff1660ff16105b80610fbd5750610f9f306118bb565b158015610fbc5750600160008054906101000a900460ff1660ff16145b5b610ffc576040517f08c379a0000000000000000000000000000000000000000000000000000000008152600401610ff390612f5f565b60405180910390fd5b60016000806101000a81548160ff021916908360ff1602179055508015611039576001600060016101000a81548160ff0219169083151502179055505b611042826118de565b6110b66040518060400160405280600a81526020017f41544f4d494353574150000000000000000000000000000000000000000000008152506040518060400160405280600181526020017f3100000000000000000000000000000000000000000000000000000000000000815250611a3f565b801561110f5760008060016101000a81548160ff0219169083151502179055507f7f26b83ff96e1f2b6a682f133852f6798a09c465da95921460cefb384740249860016040516111069190612fd1565b60405180910390a15b5050565b6040518060800160405280605281526020016137b36052913981565b61113882610796565b61114181611283565b61114b8383611381565b505050565b611158611687565b50565b7f65d7a28e3265b37a6474929f336521b332c1681b933f6cb9f3376673440d862a81565b61118c6000801b33610eec565b6111cb576040517f08c379a00000000000000000000000000000000000000000000000000000000081526004016111c290612dcf565b60405180910390fd5b6000811161120e576040517f08c379a000000000000000000000000000000000000000000000000000000000815260040161120590613038565b60405180910390fd5b806101618190555050565b60007f01ffc9a7000000000000000000000000000000000000000000000000000000007bffffffffffffffffffffffffffffffffffffffffffffffffffffffff1916827bffffffffffffffffffffffffffffffffffffffffffffffffffffffff1916149050919050565b6112948161128f611379565b611a9c565b50565b6112a18282610eec565b61137557600161012f600084815260200190815260200160002060000160008373ffffffffffffffffffffffffffffffffffffffff1673ffffffffffffffffffffffffffffffffffffffff16815260200190815260200160002060006101000a81548160ff02191690831515021790555061131a611379565b73ffffffffffffffffffffffffffffffffffffffff168173ffffffffffffffffffffffffffffffffffffffff16837f2f8788117e7eff1d82e926ec794901d17c78024a50270940304540a733656f0d60405160405180910390a45b5050565b600033905090565b61138b8282610eec565b1561146057600061012f600084815260200190815260200160002060000160008373ffffffffffffffffffffffffffffffffffffffff1673ffffffffffffffffffffffffffffffffffffffff16815260200190815260200160002060006101000a81548160ff021916908315150217905550611405611379565b73ffffffffffffffffffffffffffffffffffffffff168173ffffffffffffffffffffffffffffffffffffffff16837ff6391f5c32d9c69d2a47ea670b442974b53935d1edc7fd64eb21e047a839171b60405160405180910390a45b5050565b60006114927f360894a13ba1a3210667c828492db98dca3e2076cc3735a920a3ca505d382bbc60001b611b21565b60000160009054906101000a900473ffffffffffffffffffffffffffffffffffffffff16905090565b6114c86000801b33610eec565b611507576040517f08c379a00000000000000000000000000000000000000000000000000000000081526004016114fe90612dcf565b60405180910390fd5b50565b6115367f4910fdfa16fed3260ed0e7147f7cc6da11a60208b5b9406d12a635614ffd914360001b611b2b565b60000160009054906101000a900460ff161561155a5761155583611b35565b611682565b8273ffffffffffffffffffffffffffffffffffffffff166352d1902d6040518163ffffffff1660e01b815260040160206040518083038186803b1580156115a057600080fd5b505afa9250505080156115d157506040513d601f19601f820116820180604052508101906115ce919061306d565b60015b611610576040517f08c379a00000000000000000000000000000000000000000000000000000000081526004016116079061310c565b60405180910390fd5b7f360894a13ba1a3210667c828492db98dca3e2076cc3735a920a3ca505d382bbc60001b8114611675576040517f08c379a000000000000000000000000000000000000000000000000000000000815260040161166c9061319e565b60405180910390fd5b50611681838383611bee565b5b505050565b61168f610cba565b156116cf576040517f08c379a00000000000000000000000000000000000000000000000000000000081526004016116c69061320a565b60405180910390fd5b565b6116d9611c1a565b600060cb60006101000a81548160ff0219169083151502179055507f5db9ee0a495bf2e6ff9c91a7834c1ba4fdd244a5e8aa4e537bd38aeae4b073aa61171d611379565b60405161172a919061322a565b60405180910390a1565b61173c611687565b600160cb60006101000a81548160ff0219169083151502179055507f62e78cea01bee320cd4e420270b5ea74000d11b0c9f74754ebdbfc544b05a258611780611379565b60405161178d919061322a565b60405180910390a1565b6060606780546117a690613274565b80601f01602080910402602001604051908101604052809291908181526020018280546117d290613274565b801561181f5780601f106117f45761010080835404028352916020019161181f565b820191906000526020600020905b81548152906001019060200180831161180257829003601f168201915b5050505050905090565b60606068805461183890613274565b80601f016020809104026020016040519081016040528092919081815260200182805461186490613274565b80156118b15780601f10611886576101008083540402835291602001916118b1565b820191906000526020600020905b81548152906001019060200180831161189457829003601f168201915b5050505050905090565b6000808273ffffffffffffffffffffffffffffffffffffffff163b119050919050565b60008060019054906101000a900460ff1615905080801561190f5750600160008054906101000a900460ff1660ff16105b8061193c575061191e306118bb565b15801561193b5750600160008054906101000a900460ff1660ff16145b5b61197b576040517f08c379a000000000000000000000000000000000000000000000000000000000815260040161197290612f5f565b60405180910390fd5b60016000806101000a81548160ff021916908360ff16021790555080156119b8576001600060016101000a81548160ff0219169083151502179055505b6119c0611c63565b6119c8611cb4565b6119d0611d05565b6119d982611d71565b6064610161819055508015611a3b5760008060016101000a81548160ff0219169083151502179055507f7f26b83ff96e1f2b6a682f133852f6798a09c465da95921460cefb38474024986001604051611a329190612fd1565b60405180910390a15b5050565b600060019054906101000a900460ff16611a8e576040517f08c379a0000000000000000000000000000000000000000000000000000000008152600401611a8590613318565b60405180910390fd5b611a988282611edf565b5050565b611aa68282610eec565b611b1d57611ab381611f74565b611ac18360001c6020611fa1565b604051602001611ad292919061340c565b6040516020818303038152906040526040517f08c379a0000000000000000000000000000000000000000000000000000000008152600401611b149190612b04565b60405180910390fd5b5050565b6000819050919050565b6000819050919050565b611b3e816118bb565b611b7d576040517f08c379a0000000000000000000000000000000000000000000000000000000008152600401611b74906134b8565b60405180910390fd5b80611baa7f360894a13ba1a3210667c828492db98dca3e2076cc3735a920a3ca505d382bbc60001b611b21565b60000160006101000a81548173ffffffffffffffffffffffffffffffffffffffff021916908373ffffffffffffffffffffffffffffffffffffffff16021790555050565b611bf7836121dd565b600082511180611c045750805b15611c1557611c13838361222c565b505b505050565b611c22610cba565b611c61576040517f08c379a0000000000000000000000000000000000000000000000000000000008152600401611c5890613524565b60405180910390fd5b565b600060019054906101000a900460ff16611cb2576040517f08c379a0000000000000000000000000000000000000000000000000000000008152600401611ca990613318565b60405180910390fd5b565b600060019054906101000a900460ff16611d03576040517f08c379a0000000000000000000000000000000000000000000000000000000008152600401611cfa90613318565b60405180910390fd5b565b600060019054906101000a900460ff16611d54576040517f08c379a0000000000000000000000000000000000000000000000000000000008152600401611d4b90613318565b60405180910390fd5b600060cb60006101000a81548160ff021916908315150217905550565b60008060019054906101000a900460ff16159050808015611da25750600160008054906101000a900460ff1660ff16105b80611dcf5750611db1306118bb565b158015611dce5750600160008054906101000a900460ff1660ff16145b5b611e0e576040517f08c379a0000000000000000000000000000000000000000000000000000000008152600401611e0590612f5f565b60405180910390fd5b60016000806101000a81548160ff021916908360ff1602179055508015611e4b576001600060016101000a81548160ff0219169083151502179055505b611e586000801b83612259565b611e827f65d7a28e3265b37a6474929f336521b332c1681b933f6cb9f3376673440d862a83612259565b8015611edb5760008060016101000a81548160ff0219169083151502179055507f7f26b83ff96e1f2b6a682f133852f6798a09c465da95921460cefb38474024986001604051611ed29190612fd1565b60405180910390a15b5050565b600060019054906101000a900460ff16611f2e576040517f08c379a0000000000000000000000000000000000000000000000000000000008152600401611f2590613318565b60405180910390fd5b8160679080519060200190611f449291906123b3565b508060689080519060200190611f5b9291906123b3565b506000801b6065819055506000801b6066819055505050565b6060611f9a8273ffffffffffffffffffffffffffffffffffffffff16601460ff16611fa1565b9050919050565b606060006002836002611fb49190613573565b611fbe91906135cd565b67ffffffffffffffff811115611fd757611fd661271d565b5b6040519080825280601f01601f1916602001820160405280156120095781602001600182028036833780820191505090505b5090507f30000000000000000000000000000000000000000000000000000000000000008160008151811061204157612040613623565b5b60200101907effffffffffffffffffffffffffffffffffffffffffffffffffffffffffffff1916908160001a9053507f7800000000000000000000000000000000000000000000000000000000000000816001815181106120a5576120a4613623565b5b60200101907effffffffffffffffffffffffffffffffffffffffffffffffffffffffffffff1916908160001a905350600060018460026120e59190613573565b6120ef91906135cd565b90505b600181111561218f577f3031323334353637383961626364656600000000000000000000000000000000600f86166010811061213157612130613623565b5b1a60f81b82828151811061214857612147613623565b5b60200101907effffffffffffffffffffffffffffffffffffffffffffffffffffffffffffff1916908160001a905350600485901c94508061218890613652565b90506120f2565b50600084146121d3576040517f08c379a00000000000000000000000000000000000000000000000000000000081526004016121ca906136c8565b60405180910390fd5b8091505092915050565b6121e681611b35565b8073ffffffffffffffffffffffffffffffffffffffff167fbc7cd75a20ee27fd9adebab32041f755214dbc6bffa90cc0225b39da2e5c2d3b60405160405180910390a250565b6060612251838360405180606001604052806027815260200161380560279139612267565b905092915050565b6122638282611297565b5050565b60606000808573ffffffffffffffffffffffffffffffffffffffff1685604051612291919061372f565b600060405180830381855af49150503d80600081146122cc576040519150601f19603f3d011682016040523d82523d6000602084013e6122d1565b606091505b50915091506122e2868383876122ed565b925050509392505050565b606083156123505760008351141561234857612308856118bb565b612347576040517f08c379a000000000000000000000000000000000000000000000000000000000815260040161233e90613792565b60405180910390fd5b5b82905061235b565b61235a8383612363565b5b949350505050565b6000825111156123765781518083602001fd5b806040517f08c379a00000000000000000000000000000000000000000000000000000000081526004016123aa9190612b04565b60405180910390fd5b8280546123bf90613274565b90600052602060002090601f0160209004810192826123e15760008555612428565b82601f106123fa57805160ff1916838001178555612428565b82800160010185558215612428579182015b8281111561242757825182559160200191906001019061240c565b5b5090506124359190612439565b5090565b5b8082111561245257600081600090555060010161243a565b5090565b6000604051905090565b600080fd5b600080fd5b60007fffffffff0000000000000000000000000000000000000000000000000000000082169050919050565b61249f8161246a565b81146124aa57600080fd5b50565b6000813590506124bc81612496565b92915050565b6000602082840312156124d8576124d7612460565b5b60006124e6848285016124ad565b91505092915050565b60008115159050919050565b612504816124ef565b82525050565b600060208201905061251f60008301846124fb565b92915050565b600073ffffffffffffffffffffffffffffffffffffffff82169050919050565b600061255082612525565b9050919050565b61256081612545565b811461256b57600080fd5b50565b60008135905061257d81612557565b92915050565b60006020828403121561259957612598612460565b5b60006125a78482850161256e565b91505092915050565b6000819050919050565b6125c3816125b0565b81146125ce57600080fd5b50565b6000813590506125e0816125ba565b92915050565b6000602082840312156125fc576125fb612460565b5b600061260a848285016125d1565b91505092915050565b61261c816125b0565b82525050565b60006020820190506126376000830184612613565b92915050565b6000806040838503121561265457612653612460565b5b6000612662858286016125d1565b92505060206126738582860161256e565b9150509250929050565b600080fd5b600060c082840312156126985761269761267d565b5b81905092915050565b600060c082840312156126b7576126b6612460565b5b60006126c584828501612682565b91505092915050565b6000819050919050565b6126e1816126ce565b82525050565b60006020820190506126fc60008301846126d8565b92915050565b600080fd5b600080fd5b6000601f19601f8301169050919050565b7f4e487b7100000000000000000000000000000000000000000000000000000000600052604160045260246000fd5b6127558261270c565b810181811067ffffffffffffffff821117156127745761277361271d565b5b80604052505050565b6000612787612456565b9050612793828261274c565b919050565b600067ffffffffffffffff8211156127b3576127b261271d565b5b6127bc8261270c565b9050602081019050919050565b82818337600083830152505050565b60006127eb6127e684612798565b61277d565b90508281526020810184848401111561280757612806612707565b5b6128128482856127c9565b509392505050565b600082601f83011261282f5761282e612702565b5b813561283f8482602086016127d8565b91505092915050565b6000806040838503121561285f5761285e612460565b5b600061286d8582860161256e565b925050602083013567ffffffffffffffff81111561288e5761288d612465565b5b61289a8582860161281a565b9150509250929050565b6000606082840312156128ba576128b961267d565b5b81905092915050565b6000606082840312156128d9576128d8612460565b5b60006128e7848285016128a4565b91505092915050565b60007fff0000000000000000000000000000000000000000000000000000000000000082169050919050565b612925816128f0565b82525050565b600081519050919050565b600082825260208201905092915050565b60005b8381101561296557808201518184015260208101905061294a565b83811115612974576000848401525b50505050565b60006129858261292b565b61298f8185612936565b935061299f818560208601612947565b6129a88161270c565b840191505092915050565b6129bc81612545565b82525050565b600081519050919050565b600082825260208201905092915050565b6000819050602082019050919050565b6129f7816126ce565b82525050565b6000612a0983836129ee565b60208301905092915050565b6000602082019050919050565b6000612a2d826129c2565b612a3781856129cd565b9350612a42836129de565b8060005b83811015612a73578151612a5a88826129fd565b9750612a6583612a15565b925050600181019050612a46565b5085935050505092915050565b600060e082019050612a95600083018a61291c565b8181036020830152612aa7818961297a565b90508181036040830152612abb818861297a565b9050612aca60608301876126d8565b612ad760808301866129b3565b612ae460a0830185612613565b81810360c0830152612af68184612a22565b905098975050505050505050565b60006020820190508181036000830152612b1e818461297a565b905092915050565b60006101208284031215612b3d57612b3c61267d565b5b81905092915050565b60006101208284031215612b5d57612b5c612460565b5b6000612b6b84828501612b26565b91505092915050565b612b7d816126ce565b8114612b8857600080fd5b50565b600081359050612b9a81612b74565b92915050565b600060208284031215612bb657612bb5612460565b5b6000612bc484828501612b8b565b91505092915050565b7f416363657373436f6e74726f6c3a2063616e206f6e6c792072656e6f756e636560008201527f20726f6c657320666f722073656c660000000000000000000000000000000000602082015250565b6000612c29602f83612936565b9150612c3482612bcd565b604082019050919050565b60006020820190508181036000830152612c5881612c1c565b9050919050565b7f46756e6374696f6e206d7573742062652063616c6c6564207468726f7567682060008201527f64656c656761746563616c6c0000000000000000000000000000000000000000602082015250565b6000612cbb602c83612936565b9150612cc682612c5f565b604082019050919050565b60006020820190508181036000830152612cea81612cae565b9050919050565b7f46756e6374696f6e206d7573742062652063616c6c6564207468726f7567682060008201527f6163746976652070726f78790000000000000000000000000000000000000000602082015250565b6000612d4d602c83612936565b9150612d5882612cf1565b604082019050919050565b60006020820190508181036000830152612d7c81612d40565b9050919050565b7f4f776e61626c655061757361626c653a206163636573732064656e6965640000600082015250565b6000612db9601e83612936565b9150612dc482612d83565b602082019050919050565b60006020820190508181036000830152612de881612dac565b9050919050565b7f555550535570677261646561626c653a206d757374206e6f742062652063616c60008201527f6c6564207468726f7567682064656c656761746563616c6c0000000000000000602082015250565b6000612e4b603883612936565b9150612e5682612def565b604082019050919050565b60006020820190508181036000830152612e7a81612e3e565b9050919050565b7f4549503731323a20556e696e697469616c697a65640000000000000000000000600082015250565b6000612eb7601583612936565b9150612ec282612e81565b602082019050919050565b60006020820190508181036000830152612ee681612eaa565b9050919050565b7f496e697469616c697a61626c653a20636f6e747261637420697320616c72656160008201527f647920696e697469616c697a6564000000000000000000000000000000000000602082015250565b6000612f49602e83612936565b9150612f5482612eed565b604082019050919050565b60006020820190508181036000830152612f7881612f3c565b9050919050565b6000819050919050565b600060ff82169050919050565b6000819050919050565b6000612fbb612fb6612fb184612f7f565b612f96565b612f89565b9050919050565b612fcb81612fa0565b82525050565b6000602082019050612fe66000830184612fc2565b92915050565b7f4d6f726967696e4170703a20696e76616c69642076616c756521000000000000600082015250565b6000613022601a83612936565b915061302d82612fec565b602082019050919050565b6000602082019050818103600083015261305181613015565b9050919050565b600081519050613067816125ba565b92915050565b60006020828403121561308357613082612460565b5b600061309184828501613058565b91505092915050565b7f45524331393637557067726164653a206e657720696d706c656d656e7461746960008201527f6f6e206973206e6f742055555053000000000000000000000000000000000000602082015250565b60006130f6602e83612936565b91506131018261309a565b604082019050919050565b60006020820190508181036000830152613125816130e9565b9050919050565b7f45524331393637557067726164653a20756e737570706f727465642070726f7860008201527f6961626c65555549440000000000000000000000000000000000000000000000602082015250565b6000613188602983612936565b91506131938261312c565b604082019050919050565b600060208201905081810360008301526131b78161317b565b9050919050565b7f5061757361626c653a2070617573656400000000000000000000000000000000600082015250565b60006131f4601083612936565b91506131ff826131be565b602082019050919050565b60006020820190508181036000830152613223816131e7565b9050919050565b600060208201905061323f60008301846129b3565b92915050565b7f4e487b7100000000000000000000000000000000000000000000000000000000600052602260045260246000fd5b6000600282049050600182168061328c57607f821691505b602082108114156132a05761329f613245565b5b50919050565b7f496e697469616c697a61626c653a20636f6e7472616374206973206e6f74206960008201527f6e697469616c697a696e67000000000000000000000000000000000000000000602082015250565b6000613302602b83612936565b915061330d826132a6565b604082019050919050565b60006020820190508181036000830152613331816132f5565b9050919050565b600081905092915050565b7f416363657373436f6e74726f6c3a206163636f756e7420000000000000000000600082015250565b6000613379601783613338565b915061338482613343565b601782019050919050565b600061339a8261292b565b6133a48185613338565b93506133b4818560208601612947565b80840191505092915050565b7f206973206d697373696e6720726f6c6520000000000000000000000000000000600082015250565b60006133f6601183613338565b9150613401826133c0565b601182019050919050565b60006134178261336c565b9150613423828561338f565b915061342e826133e9565b915061343a828461338f565b91508190509392505050565b7f455243313936373a206e657720696d706c656d656e746174696f6e206973206e60008201527f6f74206120636f6e747261637400000000000000000000000000000000000000602082015250565b60006134a2602d83612936565b91506134ad82613446565b604082019050919050565b600060208201905081810360008301526134d181613495565b9050919050565b7f5061757361626c653a206e6f7420706175736564000000000000000000000000600082015250565b600061350e601483612936565b9150613519826134d8565b602082019050919050565b6000602082019050818103600083015261353d81613501565b9050919050565b7f4e487b7100000000000000000000000000000000000000000000000000000000600052601160045260246000fd5b600061357e826126ce565b9150613589836126ce565b9250817fffffffffffffffffffffffffffffffffffffffffffffffffffffffffffffffff04831182151516156135c2576135c1613544565b5b828202905092915050565b60006135d8826126ce565b91506135e3836126ce565b9250827fffffffffffffffffffffffffffffffffffffffffffffffffffffffffffffffff0382111561361857613617613544565b5b828201905092915050565b7f4e487b7100000000000000000000000000000000000000000000000000000000600052603260045260246000fd5b600061365d826126ce565b9150600082141561367157613670613544565b5b600182039050919050565b7f537472696e67733a20686578206c656e67746820696e73756666696369656e74600082015250565b60006136b2602083612936565b91506136bd8261367c565b602082019050919050565b600060208201905081810360008301526136e1816136a5565b9050919050565b600081519050919050565b600081905092915050565b6000613709826136e8565b61371381856136f3565b9350613723818560208601612947565b80840191505092915050565b600061373b82846136fe565b915081905092915050565b7f416464726573733a2063616c6c20746f206e6f6e2d636f6e7472616374000000600082015250565b600061377c601d83612936565b915061378782613746565b602082019050919050565b600060208201905081810360008301526137ab8161376f565b905091905056fe454950373132446f6d61696e28737472696e67206e616d652c737472696e672076657273696f6e2c75696e7432353620636861696e49642c6164647265737320766572696679696e67436f6e747261637429416464726573733a206c6f772d6c6576656c2064656c65676174652063616c6c206661696c6564a26469706673582212209f1959a494d9d8f876f1a5a83d7a4878527d0b2d19b3677b5e32c9f6db3ad10b64736f6c63430008090033","opcodes":"PUSH1 0xA0 PUSH1 0x40 MSTORE ADDRESS PUSH20 0xFFFFFFFFFFFFFFFFFFFFFFFFFFFFFFFFFFFFFFFF AND PUSH1 0x80 SWAP1 PUSH20 0xFFFFFFFFFFFFFFFFFFFFFFFFFFFFFFFFFFFFFFFF AND DUP2 MSTORE POP CALLVALUE DUP1 ISZERO PUSH2 0x43 JUMPI PUSH1 0x0 DUP1 REVERT JUMPDEST POP PUSH1 0x80 MLOAD PUSH2 0x3861 PUSH2 0x7B PUSH1 0x0 CODECOPY PUSH1 0x0 DUP2 DUP2 PUSH2 0x87A ADD MSTORE DUP2 DUP2 PUSH2 0x909 ADD MSTORE DUP2 DUP2 PUSH2 0xABB ADD MSTORE DUP2 DUP2 PUSH2 0xB4A ADD MSTORE PUSH2 0xBFA ADD MSTORE PUSH2 0x3861 PUSH1 0x0 RETURN INVALID PUSH1 0x80 PUSH1 0x40 MSTORE PUSH1 0x4 CALLDATASIZE LT PUSH2 0x1D8 JUMPI PUSH1 0x0 CALLDATALOAD PUSH1 0xE0 SHR DUP1 PUSH4 0x5C975ABB GT PUSH2 0x102 JUMPI DUP1 PUSH4 0x91D14854 GT PUSH2 0x95 JUMPI DUP1 PUSH4 0xD547741F GT PUSH2 0x64 JUMPI DUP1 PUSH4 0xD547741F EQ PUSH2 0x673 JUMPI DUP1 PUSH4 0xD55A5778 EQ PUSH2 0x69C JUMPI DUP1 PUSH4 0xE63AB1E9 EQ PUSH2 0x6B8 JUMPI DUP1 PUSH4 0xF2407CA4 EQ PUSH2 0x6E3 JUMPI PUSH2 0x1D8 JUMP JUMPDEST DUP1 PUSH4 0x91D14854 EQ PUSH2 0x5B7 JUMPI DUP1 PUSH4 0xA217FDDF EQ PUSH2 0x5F4 JUMPI DUP1 PUSH4 0xC4D66DE8 EQ PUSH2 0x61F JUMPI DUP1 PUSH4 0xC7977BE7 EQ PUSH2 0x648 JUMPI PUSH2 0x1D8 JUMP JUMPDEST DUP1 PUSH4 0x7ECEBE00 GT PUSH2 0xD1 JUMPI DUP1 PUSH4 0x7ECEBE00 EQ PUSH2 0x509 JUMPI DUP1 PUSH4 0x82DC1EC4 EQ PUSH2 0x546 JUMPI DUP1 PUSH4 0x8456CB59 EQ PUSH2 0x56F JUMPI DUP1 PUSH4 0x84B0196E EQ PUSH2 0x586 JUMPI PUSH2 0x1D8 JUMP JUMPDEST DUP1 PUSH4 0x5C975ABB EQ PUSH2 0x461 JUMPI DUP1 PUSH4 0x6B2C0F55 EQ PUSH2 0x48C JUMPI DUP1 PUSH4 0x6D3298CB EQ PUSH2 0x4B5 JUMPI DUP1 PUSH4 0x70480275 EQ PUSH2 0x4E0 JUMPI PUSH2 0x1D8 JUMP JUMPDEST DUP1 PUSH4 0x3659CFE6 GT PUSH2 0x17A JUMPI DUP1 PUSH4 0x46FBF68E GT PUSH2 0x149 JUMPI DUP1 PUSH4 0x46FBF68E EQ PUSH2 0x3C1 JUMPI DUP1 PUSH4 0x4F1EF286 EQ PUSH2 0x3FE JUMPI DUP1 PUSH4 0x52D1902D EQ PUSH2 0x41A JUMPI DUP1 PUSH4 0x5752C59A EQ PUSH2 0x445 JUMPI PUSH2 0x1D8 JUMP JUMPDEST DUP1 PUSH4 0x3659CFE6 EQ PUSH2 0x33A JUMPI DUP1 PUSH4 0x3D17CAC7 EQ PUSH2 0x363 JUMPI DUP1 PUSH4 0x3D538ECF EQ PUSH2 0x37F JUMPI DUP1 PUSH4 0x3F4BA83A EQ PUSH2 0x3AA JUMPI PUSH2 0x1D8 JUMP JUMPDEST DUP1 PUSH4 0x24D7806C GT PUSH2 0x1B6 JUMPI DUP1 PUSH4 0x24D7806C EQ PUSH2 0x280 JUMPI DUP1 PUSH4 0x2F2FF15D EQ PUSH2 0x2BD JUMPI DUP1 PUSH4 0x3644E515 EQ PUSH2 0x2E6 JUMPI DUP1 PUSH4 0x36568ABE EQ PUSH2 0x311 JUMPI PUSH2 0x1D8 JUMP JUMPDEST DUP1 PUSH4 0x1FFC9A7 EQ PUSH2 0x1DD JUMPI DUP1 PUSH4 0x1785F53C EQ PUSH2 0x21A JUMPI DUP1 PUSH4 0x248A9CA3 EQ PUSH2 0x243 JUMPI JUMPDEST PUSH1 0x0 DUP1 REVERT JUMPDEST CALLVALUE DUP1 ISZERO PUSH2 0x1E9 JUMPI PUSH1 0x0 DUP1 REVERT JUMPDEST POP PUSH2 0x204 PUSH1 0x4 DUP1 CALLDATASIZE SUB DUP2 ADD SWAP1 PUSH2 0x1FF SWAP2 SWAP1 PUSH2 0x24C2 JUMP JUMPDEST PUSH2 0x70C JUMP JUMPDEST PUSH1 0x40 MLOAD PUSH2 0x211 SWAP2 SWAP1 PUSH2 0x250A JUMP JUMPDEST PUSH1 0x40 MLOAD DUP1 SWAP2 SUB SWAP1 RETURN JUMPDEST CALLVALUE DUP1 ISZERO PUSH2 0x226 JUMPI PUSH1 0x0 DUP1 REVERT JUMPDEST POP PUSH2 0x241 PUSH1 0x4 DUP1 CALLDATASIZE SUB DUP2 ADD SWAP1 PUSH2 0x23C SWAP2 SWAP1 PUSH2 0x2583 JUMP JUMPDEST PUSH2 0x786 JUMP JUMPDEST STOP JUMPDEST CALLVALUE DUP1 ISZERO PUSH2 0x24F JUMPI PUSH1 0x0 DUP1 REVERT JUMPDEST POP PUSH2 0x26A PUSH1 0x4 DUP1 CALLDATASIZE SUB DUP2 ADD SWAP1 PUSH2 0x265 SWAP2 SWAP1 PUSH2 0x25E6 JUMP JUMPDEST PUSH2 0x796 JUMP JUMPDEST PUSH1 0x40 MLOAD PUSH2 0x277 SWAP2 SWAP1 PUSH2 0x2622 JUMP JUMPDEST PUSH1 0x40 MLOAD DUP1 SWAP2 SUB SWAP1 RETURN JUMPDEST CALLVALUE DUP1 ISZERO PUSH2 0x28C JUMPI PUSH1 0x0 DUP1 REVERT JUMPDEST POP PUSH2 0x2A7 PUSH1 0x4 DUP1 CALLDATASIZE SUB DUP2 ADD SWAP1 PUSH2 0x2A2 SWAP2 SWAP1 PUSH2 0x2583 JUMP JUMPDEST PUSH2 0x7B7 JUMP JUMPDEST PUSH1 0x40 MLOAD PUSH2 0x2B4 SWAP2 SWAP1 PUSH2 0x250A JUMP JUMPDEST PUSH1 0x40 MLOAD DUP1 SWAP2 SUB SWAP1 RETURN JUMPDEST CALLVALUE DUP1 ISZERO PUSH2 0x2C9 JUMPI PUSH1 0x0 DUP1 REVERT JUMPDEST POP PUSH2 0x2E4 PUSH1 0x4 DUP1 CALLDATASIZE SUB DUP2 ADD SWAP1 PUSH2 0x2DF SWAP2 SWAP1 PUSH2 0x263D JUMP JUMPDEST PUSH2 0x7CD JUMP JUMPDEST STOP JUMPDEST CALLVALUE DUP1 ISZERO PUSH2 0x2F2 JUMPI PUSH1 0x0 DUP1 REVERT JUMPDEST POP PUSH2 0x2FB PUSH2 0x7EE JUMP JUMPDEST PUSH1 0x40 MLOAD PUSH2 0x308 SWAP2 SWAP1 PUSH2 0x2622 JUMP JUMPDEST PUSH1 0x40 MLOAD DUP1 SWAP2 SUB SWAP1 RETURN JUMPDEST CALLVALUE DUP1 ISZERO PUSH2 0x31D JUMPI PUSH1 0x0 DUP1 REVERT JUMPDEST POP PUSH2 0x338 PUSH1 0x4 DUP1 CALLDATASIZE SUB DUP2 ADD SWAP1 PUSH2 0x333 SWAP2 SWAP1 PUSH2 0x263D JUMP JUMPDEST PUSH2 0x7F5 JUMP JUMPDEST STOP JUMPDEST CALLVALUE DUP1 ISZERO PUSH2 0x346 JUMPI PUSH1 0x0 DUP1 REVERT JUMPDEST POP PUSH2 0x361 PUSH1 0x4 DUP1 CALLDATASIZE SUB DUP2 ADD SWAP1 PUSH2 0x35C SWAP2 SWAP1 PUSH2 0x2583 JUMP JUMPDEST PUSH2 0x878 JUMP JUMPDEST STOP JUMPDEST PUSH2 0x37D PUSH1 0x4 DUP1 CALLDATASIZE SUB DUP2 ADD SWAP1 PUSH2 0x378 SWAP2 SWAP1 PUSH2 0x26A1 JUMP JUMPDEST PUSH2 0xA01 JUMP JUMPDEST STOP JUMPDEST CALLVALUE DUP1 ISZERO PUSH2 0x38B JUMPI PUSH1 0x0 DUP1 REVERT JUMPDEST POP PUSH2 0x394 PUSH2 0xA0C JUMP JUMPDEST PUSH1 0x40 MLOAD PUSH2 0x3A1 SWAP2 SWAP1 PUSH2 0x26E7 JUMP JUMPDEST PUSH1 0x40 MLOAD DUP1 SWAP2 SUB SWAP1 RETURN JUMPDEST CALLVALUE DUP1 ISZERO PUSH2 0x3B6 JUMPI PUSH1 0x0 DUP1 REVERT JUMPDEST POP PUSH2 0x3BF PUSH2 0xA13 JUMP JUMPDEST STOP JUMPDEST CALLVALUE DUP1 ISZERO PUSH2 0x3CD JUMPI PUSH1 0x0 DUP1 REVERT JUMPDEST POP PUSH2 0x3E8 PUSH1 0x4 DUP1 CALLDATASIZE SUB DUP2 ADD SWAP1 PUSH2 0x3E3 SWAP2 SWAP1 PUSH2 0x2583 JUMP JUMPDEST PUSH2 0xA86 JUMP JUMPDEST PUSH1 0x40 MLOAD PUSH2 0x3F5 SWAP2 SWAP1 PUSH2 0x250A JUMP JUMPDEST PUSH1 0x40 MLOAD DUP1 SWAP2 SUB SWAP1 RETURN JUMPDEST PUSH2 0x418 PUSH1 0x4 DUP1 CALLDATASIZE SUB DUP2 ADD SWAP1 PUSH2 0x413 SWAP2 SWAP1 PUSH2 0x2848 JUMP JUMPDEST PUSH2 0xAB9 JUMP JUMPDEST STOP JUMPDEST CALLVALUE DUP1 ISZERO PUSH2 0x426 JUMPI PUSH1 0x0 DUP1 REVERT JUMPDEST POP PUSH2 0x42F PUSH2 0xBF6 JUMP JUMPDEST PUSH1 0x40 MLOAD PUSH2 0x43C SWAP2 SWAP1 PUSH2 0x2622 JUMP JUMPDEST PUSH1 0x40 MLOAD DUP1 SWAP2 SUB SWAP1 RETURN JUMPDEST PUSH2 0x45F PUSH1 0x4 DUP1 CALLDATASIZE SUB DUP2 ADD SWAP1 PUSH2 0x45A SWAP2 SWAP1 PUSH2 0x28C3 JUMP JUMPDEST PUSH2 0xCAF JUMP JUMPDEST STOP JUMPDEST CALLVALUE DUP1 ISZERO PUSH2 0x46D JUMPI PUSH1 0x0 DUP1 REVERT JUMPDEST POP PUSH2 0x476 PUSH2 0xCBA JUMP JUMPDEST PUSH1 0x40 MLOAD PUSH2 0x483 SWAP2 SWAP1 PUSH2 0x250A JUMP JUMPDEST PUSH1 0x40 MLOAD DUP1 SWAP2 SUB SWAP1 RETURN JUMPDEST CALLVALUE DUP1 ISZERO PUSH2 0x498 JUMPI PUSH1 0x0 DUP1 REVERT JUMPDEST POP PUSH2 0x4B3 PUSH1 0x4 DUP1 CALLDATASIZE SUB DUP2 ADD SWAP1 PUSH2 0x4AE SWAP2 SWAP1 PUSH2 0x2583 JUMP JUMPDEST PUSH2 0xCD1 JUMP JUMPDEST STOP JUMPDEST CALLVALUE DUP1 ISZERO PUSH2 0x4C1 JUMPI PUSH1 0x0 DUP1 REVERT JUMPDEST POP PUSH2 0x4CA PUSH2 0xCFE JUMP JUMPDEST PUSH1 0x40 MLOAD PUSH2 0x4D7 SWAP2 SWAP1 PUSH2 0x2622 JUMP JUMPDEST PUSH1 0x40 MLOAD DUP1 SWAP2 SUB SWAP1 RETURN JUMPDEST CALLVALUE DUP1 ISZERO PUSH2 0x4EC JUMPI PUSH1 0x0 DUP1 REVERT JUMPDEST POP PUSH2 0x507 PUSH1 0x4 DUP1 CALLDATASIZE SUB DUP2 ADD SWAP1 PUSH2 0x502 SWAP2 SWAP1 PUSH2 0x2583 JUMP JUMPDEST PUSH2 0xD22 JUMP JUMPDEST STOP JUMPDEST CALLVALUE DUP1 ISZERO PUSH2 0x515 JUMPI PUSH1 0x0 DUP1 REVERT JUMPDEST POP PUSH2 0x530 PUSH1 0x4 DUP1 CALLDATASIZE SUB DUP2 ADD SWAP1 PUSH2 0x52B SWAP2 SWAP1 PUSH2 0x2583 JUMP JUMPDEST PUSH2 0xD32 JUMP JUMPDEST PUSH1 0x40 MLOAD PUSH2 0x53D SWAP2 SWAP1 PUSH2 0x26E7 JUMP JUMPDEST PUSH1 0x40 MLOAD DUP1 SWAP2 SUB SWAP1 RETURN JUMPDEST CALLVALUE DUP1 ISZERO PUSH2 0x552 JUMPI PUSH1 0x0 DUP1 REVERT JUMPDEST POP PUSH2 0x56D PUSH1 0x4 DUP1 CALLDATASIZE SUB DUP2 ADD SWAP1 PUSH2 0x568 SWAP2 SWAP1 PUSH2 0x2583 JUMP JUMPDEST PUSH2 0xD4B JUMP JUMPDEST STOP JUMPDEST CALLVALUE DUP1 ISZERO PUSH2 0x57B JUMPI PUSH1 0x0 DUP1 REVERT JUMPDEST POP PUSH2 0x584 PUSH2 0xD78 JUMP JUMPDEST STOP JUMPDEST CALLVALUE DUP1 ISZERO PUSH2 0x592 JUMPI PUSH1 0x0 DUP1 REVERT JUMPDEST POP PUSH2 0x59B PUSH2 0xDEB JUMP JUMPDEST PUSH1 0x40 MLOAD PUSH2 0x5AE SWAP8 SWAP7 SWAP6 SWAP5 SWAP4 SWAP3 SWAP2 SWAP1 PUSH2 0x2A80 JUMP JUMPDEST PUSH1 0x40 MLOAD DUP1 SWAP2 SUB SWAP1 RETURN JUMPDEST CALLVALUE DUP1 ISZERO PUSH2 0x5C3 JUMPI PUSH1 0x0 DUP1 REVERT JUMPDEST POP PUSH2 0x5DE PUSH1 0x4 DUP1 CALLDATASIZE SUB DUP2 ADD SWAP1 PUSH2 0x5D9 SWAP2 SWAP1 PUSH2 0x263D JUMP JUMPDEST PUSH2 0xEEC JUMP JUMPDEST PUSH1 0x40 MLOAD PUSH2 0x5EB SWAP2 SWAP1 PUSH2 0x250A JUMP JUMPDEST PUSH1 0x40 MLOAD DUP1 SWAP2 SUB SWAP1 RETURN JUMPDEST CALLVALUE DUP1 ISZERO PUSH2 0x600 JUMPI PUSH1 0x0 DUP1 REVERT JUMPDEST POP PUSH2 0x609 PUSH2 0xF58 JUMP JUMPDEST PUSH1 0x40 MLOAD PUSH2 0x616 SWAP2 SWAP1 PUSH2 0x2622 JUMP JUMPDEST PUSH1 0x40 MLOAD DUP1 SWAP2 SUB SWAP1 RETURN JUMPDEST CALLVALUE DUP1 ISZERO PUSH2 0x62B JUMPI PUSH1 0x0 DUP1 REVERT JUMPDEST POP PUSH2 0x646 PUSH1 0x4 DUP1 CALLDATASIZE SUB DUP2 ADD SWAP1 PUSH2 0x641 SWAP2 SWAP1 PUSH2 0x2583 JUMP JUMPDEST PUSH2 0xF5F JUMP JUMPDEST STOP JUMPDEST CALLVALUE DUP1 ISZERO PUSH2 0x654 JUMPI PUSH1 0x0 DUP1 REVERT JUMPDEST POP PUSH2 0x65D PUSH2 0x1113 JUMP JUMPDEST PUSH1 0x40 MLOAD PUSH2 0x66A SWAP2 SWAP1 PUSH2 0x2B04 JUMP JUMPDEST PUSH1 0x40 MLOAD DUP1 SWAP2 SUB SWAP1 RETURN JUMPDEST CALLVALUE DUP1 ISZERO PUSH2 0x67F JUMPI PUSH1 0x0 DUP1 REVERT JUMPDEST POP PUSH2 0x69A PUSH1 0x4 DUP1 CALLDATASIZE SUB DUP2 ADD SWAP1 PUSH2 0x695 SWAP2 SWAP1 PUSH2 0x263D JUMP JUMPDEST PUSH2 0x112F JUMP JUMPDEST STOP JUMPDEST PUSH2 0x6B6 PUSH1 0x4 DUP1 CALLDATASIZE SUB DUP2 ADD SWAP1 PUSH2 0x6B1 SWAP2 SWAP1 PUSH2 0x2B46 JUMP JUMPDEST PUSH2 0x1150 JUMP JUMPDEST STOP JUMPDEST CALLVALUE DUP1 ISZERO PUSH2 0x6C4 JUMPI PUSH1 0x0 DUP1 REVERT JUMPDEST POP PUSH2 0x6CD PUSH2 0x115B JUMP JUMPDEST PUSH1 0x40 MLOAD PUSH2 0x6DA SWAP2 SWAP1 PUSH2 0x2622 JUMP JUMPDEST PUSH1 0x40 MLOAD DUP1 SWAP2 SUB SWAP1 RETURN JUMPDEST CALLVALUE DUP1 ISZERO PUSH2 0x6EF JUMPI PUSH1 0x0 DUP1 REVERT JUMPDEST POP PUSH2 0x70A PUSH1 0x4 DUP1 CALLDATASIZE SUB DUP2 ADD SWAP1 PUSH2 0x705 SWAP2 SWAP1 PUSH2 0x2BA0 JUMP JUMPDEST PUSH2 0x117F JUMP JUMPDEST STOP JUMPDEST PUSH1 0x0 PUSH32 0x7965DB0B00000000000000000000000000000000000000000000000000000000 PUSH28 0xFFFFFFFFFFFFFFFFFFFFFFFFFFFFFFFFFFFFFFFFFFFFFFFFFFFFFFFF NOT AND DUP3 PUSH28 0xFFFFFFFFFFFFFFFFFFFFFFFFFFFFFFFFFFFFFFFFFFFFFFFFFFFFFFFF NOT AND EQ DUP1 PUSH2 0x77F JUMPI POP PUSH2 0x77E DUP3 PUSH2 0x1219 JUMP JUMPDEST JUMPDEST SWAP1 POP SWAP2 SWAP1 POP JUMP JUMPDEST PUSH2 0x793 PUSH1 0x0 DUP1 SHL DUP3 PUSH2 0x112F JUMP JUMPDEST POP JUMP JUMPDEST PUSH1 0x0 PUSH2 0x12F PUSH1 0x0 DUP4 DUP2 MSTORE PUSH1 0x20 ADD SWAP1 DUP2 MSTORE PUSH1 0x20 ADD PUSH1 0x0 KECCAK256 PUSH1 0x1 ADD SLOAD SWAP1 POP SWAP2 SWAP1 POP JUMP JUMPDEST PUSH1 0x0 PUSH2 0x7C6 PUSH1 0x0 DUP1 SHL DUP4 PUSH2 0xEEC JUMP JUMPDEST SWAP1 POP SWAP2 SWAP1 POP JUMP JUMPDEST PUSH2 0x7D6 DUP3 PUSH2 0x796 JUMP JUMPDEST PUSH2 0x7DF DUP2 PUSH2 0x1283 JUMP JUMPDEST PUSH2 0x7E9 DUP4 DUP4 PUSH2 0x1297 JUMP JUMPDEST POP POP POP JUMP JUMPDEST PUSH2 0x165 SLOAD DUP2 JUMP JUMPDEST PUSH2 0x7FD PUSH2 0x1379 JUMP JUMPDEST PUSH20 0xFFFFFFFFFFFFFFFFFFFFFFFFFFFFFFFFFFFFFFFF AND DUP2 PUSH20 0xFFFFFFFFFFFFFFFFFFFFFFFFFFFFFFFFFFFFFFFF AND EQ PUSH2 0x86A JUMPI PUSH1 0x40 MLOAD PUSH32 0x8C379A000000000000000000000000000000000000000000000000000000000 DUP2 MSTORE PUSH1 0x4 ADD PUSH2 0x861 SWAP1 PUSH2 0x2C3F JUMP JUMPDEST PUSH1 0x40 MLOAD DUP1 SWAP2 SUB SWAP1 REVERT JUMPDEST PUSH2 0x874 DUP3 DUP3 PUSH2 0x1381 JUMP JUMPDEST POP POP JUMP JUMPDEST PUSH32 0x0 PUSH20 0xFFFFFFFFFFFFFFFFFFFFFFFFFFFFFFFFFFFFFFFF AND ADDRESS PUSH20 0xFFFFFFFFFFFFFFFFFFFFFFFFFFFFFFFFFFFFFFFF AND EQ ISZERO PUSH2 0x907 JUMPI PUSH1 0x40 MLOAD PUSH32 0x8C379A000000000000000000000000000000000000000000000000000000000 DUP2 MSTORE PUSH1 0x4 ADD PUSH2 0x8FE SWAP1 PUSH2 0x2CD1 JUMP JUMPDEST PUSH1 0x40 MLOAD DUP1 SWAP2 SUB SWAP1 REVERT JUMPDEST PUSH32 0x0 PUSH20 0xFFFFFFFFFFFFFFFFFFFFFFFFFFFFFFFFFFFFFFFF AND PUSH2 0x946 PUSH2 0x1464 JUMP JUMPDEST PUSH20 0xFFFFFFFFFFFFFFFFFFFFFFFFFFFFFFFFFFFFFFFF AND EQ PUSH2 0x99C JUMPI PUSH1 0x40 MLOAD PUSH32 0x8C379A000000000000000000000000000000000000000000000000000000000 DUP2 MSTORE PUSH1 0x4 ADD PUSH2 0x993 SWAP1 PUSH2 0x2D63 JUMP JUMPDEST PUSH1 0x40 MLOAD DUP1 SWAP2 SUB SWAP1 REVERT JUMPDEST PUSH2 0x9A5 DUP2 PUSH2 0x14BB JUMP JUMPDEST PUSH2 0x9FE DUP2 PUSH1 0x0 PUSH8 0xFFFFFFFFFFFFFFFF DUP2 GT ISZERO PUSH2 0x9C4 JUMPI PUSH2 0x9C3 PUSH2 0x271D JUMP JUMPDEST JUMPDEST PUSH1 0x40 MLOAD SWAP1 DUP1 DUP3 MSTORE DUP1 PUSH1 0x1F ADD PUSH1 0x1F NOT AND PUSH1 0x20 ADD DUP3 ADD PUSH1 0x40 MSTORE DUP1 ISZERO PUSH2 0x9F6 JUMPI DUP2 PUSH1 0x20 ADD PUSH1 0x1 DUP3 MUL DUP1 CALLDATASIZE DUP4 CALLDATACOPY DUP1 DUP3 ADD SWAP2 POP POP SWAP1 POP JUMPDEST POP PUSH1 0x0 PUSH2 0x150A JUMP JUMPDEST POP JUMP JUMPDEST PUSH2 0xA09 PUSH2 0x1687 JUMP JUMPDEST POP JUMP JUMPDEST PUSH2 0x161 SLOAD DUP2 JUMP JUMPDEST PUSH2 0xA3D PUSH32 0x65D7A28E3265B37A6474929F336521B332C1681B933F6CB9F3376673440D862A CALLER PUSH2 0xEEC JUMP JUMPDEST PUSH2 0xA7C JUMPI PUSH1 0x40 MLOAD PUSH32 0x8C379A000000000000000000000000000000000000000000000000000000000 DUP2 MSTORE PUSH1 0x4 ADD PUSH2 0xA73 SWAP1 PUSH2 0x2DCF JUMP JUMPDEST PUSH1 0x40 MLOAD DUP1 SWAP2 SUB SWAP1 REVERT JUMPDEST PUSH2 0xA84 PUSH2 0x16D1 JUMP JUMPDEST JUMP JUMPDEST PUSH1 0x0 PUSH2 0xAB2 PUSH32 0x65D7A28E3265B37A6474929F336521B332C1681B933F6CB9F3376673440D862A DUP4 PUSH2 0xEEC JUMP JUMPDEST SWAP1 POP SWAP2 SWAP1 POP JUMP JUMPDEST PUSH32 0x0 PUSH20 0xFFFFFFFFFFFFFFFFFFFFFFFFFFFFFFFFFFFFFFFF AND ADDRESS PUSH20 0xFFFFFFFFFFFFFFFFFFFFFFFFFFFFFFFFFFFFFFFF AND EQ ISZERO PUSH2 0xB48 JUMPI PUSH1 0x40 MLOAD PUSH32 0x8C379A000000000000000000000000000000000000000000000000000000000 DUP2 MSTORE PUSH1 0x4 ADD PUSH2 0xB3F SWAP1 PUSH2 0x2CD1 JUMP JUMPDEST PUSH1 0x40 MLOAD DUP1 SWAP2 SUB SWAP1 REVERT JUMPDEST PUSH32 0x0 PUSH20 0xFFFFFFFFFFFFFFFFFFFFFFFFFFFFFFFFFFFFFFFF AND PUSH2 0xB87 PUSH2 0x1464 JUMP JUMPDEST PUSH20 0xFFFFFFFFFFFFFFFFFFFFFFFFFFFFFFFFFFFFFFFF AND EQ PUSH2 0xBDD JUMPI PUSH1 0x40 MLOAD PUSH32 0x8C379A000000000000000000000000000000000000000000000000000000000 DUP2 MSTORE PUSH1 0x4 ADD PUSH2 0xBD4 SWAP1 PUSH2 0x2D63 JUMP JUMPDEST PUSH1 0x40 MLOAD DUP1 SWAP2 SUB SWAP1 REVERT JUMPDEST PUSH2 0xBE6 DUP3 PUSH2 0x14BB JUMP JUMPDEST PUSH2 0xBF2 DUP3 DUP3 PUSH1 0x1 PUSH2 0x150A JUMP JUMPDEST POP POP JUMP JUMPDEST PUSH1 0x0 PUSH32 0x0 PUSH20 0xFFFFFFFFFFFFFFFFFFFFFFFFFFFFFFFFFFFFFFFF AND ADDRESS PUSH20 0xFFFFFFFFFFFFFFFFFFFFFFFFFFFFFFFFFFFFFFFF AND EQ PUSH2 0xC86 JUMPI PUSH1 0x40 MLOAD PUSH32 0x8C379A000000000000000000000000000000000000000000000000000000000 DUP2 MSTORE PUSH1 0x4 ADD PUSH2 0xC7D SWAP1 PUSH2 0x2E61 JUMP JUMPDEST PUSH1 0x40 MLOAD DUP1 SWAP2 SUB SWAP1 REVERT JUMPDEST PUSH32 0x360894A13BA1A3210667C828492DB98DCA3E2076CC3735A920A3CA505D382BBC PUSH1 0x0 SHL SWAP1 POP SWAP1 JUMP JUMPDEST PUSH2 0xCB7 PUSH2 0x1687 JUMP JUMPDEST POP JUMP JUMPDEST PUSH1 0x0 PUSH1 0xCB PUSH1 0x0 SWAP1 SLOAD SWAP1 PUSH2 0x100 EXP SWAP1 DIV PUSH1 0xFF AND SWAP1 POP SWAP1 JUMP JUMPDEST PUSH2 0xCFB PUSH32 0x65D7A28E3265B37A6474929F336521B332C1681B933F6CB9F3376673440D862A DUP3 PUSH2 0x112F JUMP JUMPDEST POP JUMP JUMPDEST PUSH32 0x7271D42AC43A92DE4C013AD7BAAAC1C52A4B3B8B6C855F239CF9E6EFAF0A6B76 DUP2 JUMP JUMPDEST PUSH2 0xD2F PUSH1 0x0 DUP1 SHL DUP3 PUSH2 0x7CD JUMP JUMPDEST POP JUMP JUMPDEST PUSH2 0x166 PUSH1 0x20 MSTORE DUP1 PUSH1 0x0 MSTORE PUSH1 0x40 PUSH1 0x0 KECCAK256 PUSH1 0x0 SWAP2 POP SWAP1 POP SLOAD DUP2 JUMP JUMPDEST PUSH2 0xD75 PUSH32 0x65D7A28E3265B37A6474929F336521B332C1681B933F6CB9F3376673440D862A DUP3 PUSH2 0x7CD JUMP JUMPDEST POP JUMP JUMPDEST PUSH2 0xDA2 PUSH32 0x65D7A28E3265B37A6474929F336521B332C1681B933F6CB9F3376673440D862A CALLER PUSH2 0xEEC JUMP JUMPDEST PUSH2 0xDE1 JUMPI PUSH1 0x40 MLOAD PUSH32 0x8C379A000000000000000000000000000000000000000000000000000000000 DUP2 MSTORE PUSH1 0x4 ADD PUSH2 0xDD8 SWAP1 PUSH2 0x2DCF JUMP JUMPDEST PUSH1 0x40 MLOAD DUP1 SWAP2 SUB SWAP1 REVERT JUMPDEST PUSH2 0xDE9 PUSH2 0x1734 JUMP JUMPDEST JUMP JUMPDEST PUSH1 0x0 PUSH1 0x60 DUP1 PUSH1 0x0 DUP1 PUSH1 0x0 PUSH1 0x60 PUSH1 0x0 DUP1 SHL PUSH1 0x65 SLOAD EQ DUP1 ISZERO PUSH2 0xE0F JUMPI POP PUSH1 0x0 DUP1 SHL PUSH1 0x66 SLOAD EQ JUMPDEST PUSH2 0xE4E JUMPI PUSH1 0x40 MLOAD PUSH32 0x8C379A000000000000000000000000000000000000000000000000000000000 DUP2 MSTORE PUSH1 0x4 ADD PUSH2 0xE45 SWAP1 PUSH2 0x2ECD JUMP JUMPDEST PUSH1 0x40 MLOAD DUP1 SWAP2 SUB SWAP1 REVERT JUMPDEST PUSH2 0xE56 PUSH2 0x1797 JUMP JUMPDEST PUSH2 0xE5E PUSH2 0x1829 JUMP JUMPDEST CHAINID ADDRESS PUSH1 0x0 DUP1 SHL PUSH1 0x0 PUSH8 0xFFFFFFFFFFFFFFFF DUP2 GT ISZERO PUSH2 0xE7F JUMPI PUSH2 0xE7E PUSH2 0x271D JUMP JUMPDEST JUMPDEST PUSH1 0x40 MLOAD SWAP1 DUP1 DUP3 MSTORE DUP1 PUSH1 0x20 MUL PUSH1 0x20 ADD DUP3 ADD PUSH1 0x40 MSTORE DUP1 ISZERO PUSH2 0xEAD JUMPI DUP2 PUSH1 0x20 ADD PUSH1 0x20 DUP3 MUL DUP1 CALLDATASIZE DUP4 CALLDATACOPY DUP1 DUP3 ADD SWAP2 POP POP SWAP1 POP JUMPDEST POP PUSH32 0xF00000000000000000000000000000000000000000000000000000000000000 SWAP6 SWAP5 SWAP4 SWAP3 SWAP2 SWAP1 SWAP7 POP SWAP7 POP SWAP7 POP SWAP7 POP SWAP7 POP SWAP7 POP SWAP7 POP SWAP1 SWAP2 SWAP3 SWAP4 SWAP5 SWAP6 SWAP7 JUMP JUMPDEST PUSH1 0x0 PUSH2 0x12F PUSH1 0x0 DUP5 DUP2 MSTORE PUSH1 0x20 ADD SWAP1 DUP2 MSTORE PUSH1 0x20 ADD PUSH1 0x0 KECCAK256 PUSH1 0x0 ADD PUSH1 0x0 DUP4 PUSH20 0xFFFFFFFFFFFFFFFFFFFFFFFFFFFFFFFFFFFFFFFF AND PUSH20 0xFFFFFFFFFFFFFFFFFFFFFFFFFFFFFFFFFFFFFFFF AND DUP2 MSTORE PUSH1 0x20 ADD SWAP1 DUP2 MSTORE PUSH1 0x20 ADD PUSH1 0x0 KECCAK256 PUSH1 0x0 SWAP1 SLOAD SWAP1 PUSH2 0x100 EXP SWAP1 DIV PUSH1 0xFF AND SWAP1 POP SWAP3 SWAP2 POP POP JUMP JUMPDEST PUSH1 0x0 DUP1 SHL DUP2 JUMP JUMPDEST PUSH1 0x0 DUP1 PUSH1 0x1 SWAP1 SLOAD SWAP1 PUSH2 0x100 EXP SWAP1 DIV PUSH1 0xFF AND ISZERO SWAP1 POP DUP1 DUP1 ISZERO PUSH2 0xF90 JUMPI POP PUSH1 0x1 PUSH1 0x0 DUP1 SLOAD SWAP1 PUSH2 0x100 EXP SWAP1 DIV PUSH1 0xFF AND PUSH1 0xFF AND LT JUMPDEST DUP1 PUSH2 0xFBD JUMPI POP PUSH2 0xF9F ADDRESS PUSH2 0x18BB JUMP JUMPDEST ISZERO DUP1 ISZERO PUSH2 0xFBC JUMPI POP PUSH1 0x1 PUSH1 0x0 DUP1 SLOAD SWAP1 PUSH2 0x100 EXP SWAP1 DIV PUSH1 0xFF AND PUSH1 0xFF AND EQ JUMPDEST JUMPDEST PUSH2 0xFFC JUMPI PUSH1 0x40 MLOAD PUSH32 0x8C379A000000000000000000000000000000000000000000000000000000000 DUP2 MSTORE PUSH1 0x4 ADD PUSH2 0xFF3 SWAP1 PUSH2 0x2F5F JUMP JUMPDEST PUSH1 0x40 MLOAD DUP1 SWAP2 SUB SWAP1 REVERT JUMPDEST PUSH1 0x1 PUSH1 0x0 DUP1 PUSH2 0x100 EXP DUP2 SLOAD DUP2 PUSH1 0xFF MUL NOT AND SWAP1 DUP4 PUSH1 0xFF AND MUL OR SWAP1 SSTORE POP DUP1 ISZERO PUSH2 0x1039 JUMPI PUSH1 0x1 PUSH1 0x0 PUSH1 0x1 PUSH2 0x100 EXP DUP2 SLOAD DUP2 PUSH1 0xFF MUL NOT AND SWAP1 DUP4 ISZERO ISZERO MUL OR SWAP1 SSTORE POP JUMPDEST PUSH2 0x1042 DUP3 PUSH2 0x18DE JUMP JUMPDEST PUSH2 0x10B6 PUSH1 0x40 MLOAD DUP1 PUSH1 0x40 ADD PUSH1 0x40 MSTORE DUP1 PUSH1 0xA DUP2 MSTORE PUSH1 0x20 ADD PUSH32 0x41544F4D49435357415000000000000000000000000000000000000000000000 DUP2 MSTORE POP PUSH1 0x40 MLOAD DUP1 PUSH1 0x40 ADD PUSH1 0x40 MSTORE DUP1 PUSH1 0x1 DUP2 MSTORE PUSH1 0x20 ADD PUSH32 0x3100000000000000000000000000000000000000000000000000000000000000 DUP2 MSTORE POP PUSH2 0x1A3F JUMP JUMPDEST DUP1 ISZERO PUSH2 0x110F JUMPI PUSH1 0x0 DUP1 PUSH1 0x1 PUSH2 0x100 EXP DUP2 SLOAD DUP2 PUSH1 0xFF MUL NOT AND SWAP1 DUP4 ISZERO ISZERO MUL OR SWAP1 SSTORE POP PUSH32 0x7F26B83FF96E1F2B6A682F133852F6798A09C465DA95921460CEFB3847402498 PUSH1 0x1 PUSH1 0x40 MLOAD PUSH2 0x1106 SWAP2 SWAP1 PUSH2 0x2FD1 JUMP JUMPDEST PUSH1 0x40 MLOAD DUP1 SWAP2 SUB SWAP1 LOG1 JUMPDEST POP POP JUMP JUMPDEST PUSH1 0x40 MLOAD DUP1 PUSH1 0x80 ADD PUSH1 0x40 MSTORE DUP1 PUSH1 0x52 DUP2 MSTORE PUSH1 0x20 ADD PUSH2 0x37B3 PUSH1 0x52 SWAP2 CODECOPY DUP2 JUMP JUMPDEST PUSH2 0x1138 DUP3 PUSH2 0x796 JUMP JUMPDEST PUSH2 0x1141 DUP2 PUSH2 0x1283 JUMP JUMPDEST PUSH2 0x114B DUP4 DUP4 PUSH2 0x1381 JUMP JUMPDEST POP POP POP JUMP JUMPDEST PUSH2 0x1158 PUSH2 0x1687 JUMP JUMPDEST POP JUMP JUMPDEST PUSH32 0x65D7A28E3265B37A6474929F336521B332C1681B933F6CB9F3376673440D862A DUP2 JUMP JUMPDEST PUSH2 0x118C PUSH1 0x0 DUP1 SHL CALLER PUSH2 0xEEC JUMP JUMPDEST PUSH2 0x11CB JUMPI PUSH1 0x40 MLOAD PUSH32 0x8C379A000000000000000000000000000000000000000000000000000000000 DUP2 MSTORE PUSH1 0x4 ADD PUSH2 0x11C2 SWAP1 PUSH2 0x2DCF JUMP JUMPDEST PUSH1 0x40 MLOAD DUP1 SWAP2 SUB SWAP1 REVERT JUMPDEST PUSH1 0x0 DUP2 GT PUSH2 0x120E JUMPI PUSH1 0x40 MLOAD PUSH32 0x8C379A000000000000000000000000000000000000000000000000000000000 DUP2 MSTORE PUSH1 0x4 ADD PUSH2 0x1205 SWAP1 PUSH2 0x3038 JUMP JUMPDEST PUSH1 0x40 MLOAD DUP1 SWAP2 SUB SWAP1 REVERT JUMPDEST DUP1 PUSH2 0x161 DUP2 SWAP1 SSTORE POP POP JUMP JUMPDEST PUSH1 0x0 PUSH32 0x1FFC9A700000000000000000000000000000000000000000000000000000000 PUSH28 0xFFFFFFFFFFFFFFFFFFFFFFFFFFFFFFFFFFFFFFFFFFFFFFFFFFFFFFFF NOT AND DUP3 PUSH28 0xFFFFFFFFFFFFFFFFFFFFFFFFFFFFFFFFFFFFFFFFFFFFFFFFFFFFFFFF NOT AND EQ SWAP1 POP SWAP2 SWAP1 POP JUMP JUMPDEST PUSH2 0x1294 DUP2 PUSH2 0x128F PUSH2 0x1379 JUMP JUMPDEST PUSH2 0x1A9C JUMP JUMPDEST POP JUMP JUMPDEST PUSH2 0x12A1 DUP3 DUP3 PUSH2 0xEEC JUMP JUMPDEST PUSH2 0x1375 JUMPI PUSH1 0x1 PUSH2 0x12F PUSH1 0x0 DUP5 DUP2 MSTORE PUSH1 0x20 ADD SWAP1 DUP2 MSTORE PUSH1 0x20 ADD PUSH1 0x0 KECCAK256 PUSH1 0x0 ADD PUSH1 0x0 DUP4 PUSH20 0xFFFFFFFFFFFFFFFFFFFFFFFFFFFFFFFFFFFFFFFF AND PUSH20 0xFFFFFFFFFFFFFFFFFFFFFFFFFFFFFFFFFFFFFFFF AND DUP2 MSTORE PUSH1 0x20 ADD SWAP1 DUP2 MSTORE PUSH1 0x20 ADD PUSH1 0x0 KECCAK256 PUSH1 0x0 PUSH2 0x100 EXP DUP2 SLOAD DUP2 PUSH1 0xFF MUL NOT AND SWAP1 DUP4 ISZERO ISZERO MUL OR SWAP1 SSTORE POP PUSH2 0x131A PUSH2 0x1379 JUMP JUMPDEST PUSH20 0xFFFFFFFFFFFFFFFFFFFFFFFFFFFFFFFFFFFFFFFF AND DUP2 PUSH20 0xFFFFFFFFFFFFFFFFFFFFFFFFFFFFFFFFFFFFFFFF AND DUP4 PUSH32 0x2F8788117E7EFF1D82E926EC794901D17C78024A50270940304540A733656F0D PUSH1 0x40 MLOAD PUSH1 0x40 MLOAD DUP1 SWAP2 SUB SWAP1 LOG4 JUMPDEST POP POP JUMP JUMPDEST PUSH1 0x0 CALLER SWAP1 POP SWAP1 JUMP JUMPDEST PUSH2 0x138B DUP3 DUP3 PUSH2 0xEEC JUMP JUMPDEST ISZERO PUSH2 0x1460 JUMPI PUSH1 0x0 PUSH2 0x12F PUSH1 0x0 DUP5 DUP2 MSTORE PUSH1 0x20 ADD SWAP1 DUP2 MSTORE PUSH1 0x20 ADD PUSH1 0x0 KECCAK256 PUSH1 0x0 ADD PUSH1 0x0 DUP4 PUSH20 0xFFFFFFFFFFFFFFFFFFFFFFFFFFFFFFFFFFFFFFFF AND PUSH20 0xFFFFFFFFFFFFFFFFFFFFFFFFFFFFFFFFFFFFFFFF AND DUP2 MSTORE PUSH1 0x20 ADD SWAP1 DUP2 MSTORE PUSH1 0x20 ADD PUSH1 0x0 KECCAK256 PUSH1 0x0 PUSH2 0x100 EXP DUP2 SLOAD DUP2 PUSH1 0xFF MUL NOT AND SWAP1 DUP4 ISZERO ISZERO MUL OR SWAP1 SSTORE POP PUSH2 0x1405 PUSH2 0x1379 JUMP JUMPDEST PUSH20 0xFFFFFFFFFFFFFFFFFFFFFFFFFFFFFFFFFFFFFFFF AND DUP2 PUSH20 0xFFFFFFFFFFFFFFFFFFFFFFFFFFFFFFFFFFFFFFFF AND DUP4 PUSH32 0xF6391F5C32D9C69D2A47EA670B442974B53935D1EDC7FD64EB21E047A839171B PUSH1 0x40 MLOAD PUSH1 0x40 MLOAD DUP1 SWAP2 SUB SWAP1 LOG4 JUMPDEST POP POP JUMP JUMPDEST PUSH1 0x0 PUSH2 0x1492 PUSH32 0x360894A13BA1A3210667C828492DB98DCA3E2076CC3735A920A3CA505D382BBC PUSH1 0x0 SHL PUSH2 0x1B21 JUMP JUMPDEST PUSH1 0x0 ADD PUSH1 0x0 SWAP1 SLOAD SWAP1 PUSH2 0x100 EXP SWAP1 DIV PUSH20 0xFFFFFFFFFFFFFFFFFFFFFFFFFFFFFFFFFFFFFFFF AND SWAP1 POP SWAP1 JUMP JUMPDEST PUSH2 0x14C8 PUSH1 0x0 DUP1 SHL CALLER PUSH2 0xEEC JUMP JUMPDEST PUSH2 0x1507 JUMPI PUSH1 0x40 MLOAD PUSH32 0x8C379A000000000000000000000000000000000000000000000000000000000 DUP2 MSTORE PUSH1 0x4 ADD PUSH2 0x14FE SWAP1 PUSH2 0x2DCF JUMP JUMPDEST PUSH1 0x40 MLOAD DUP1 SWAP2 SUB SWAP1 REVERT JUMPDEST POP JUMP JUMPDEST PUSH2 0x1536 PUSH32 0x4910FDFA16FED3260ED0E7147F7CC6DA11A60208B5B9406D12A635614FFD9143 PUSH1 0x0 SHL PUSH2 0x1B2B JUMP JUMPDEST PUSH1 0x0 ADD PUSH1 0x0 SWAP1 SLOAD SWAP1 PUSH2 0x100 EXP SWAP1 DIV PUSH1 0xFF AND ISZERO PUSH2 0x155A JUMPI PUSH2 0x1555 DUP4 PUSH2 0x1B35 JUMP JUMPDEST PUSH2 0x1682 JUMP JUMPDEST DUP3 PUSH20 0xFFFFFFFFFFFFFFFFFFFFFFFFFFFFFFFFFFFFFFFF AND PUSH4 0x52D1902D PUSH1 0x40 MLOAD DUP2 PUSH4 0xFFFFFFFF AND PUSH1 0xE0 SHL DUP2 MSTORE PUSH1 0x4 ADD PUSH1 0x20 PUSH1 0x40 MLOAD DUP1 DUP4 SUB DUP2 DUP7 DUP1 EXTCODESIZE ISZERO DUP1 ISZERO PUSH2 0x15A0 JUMPI PUSH1 0x0 DUP1 REVERT JUMPDEST POP GAS STATICCALL SWAP3 POP POP POP DUP1 ISZERO PUSH2 0x15D1 JUMPI POP PUSH1 0x40 MLOAD RETURNDATASIZE PUSH1 0x1F NOT PUSH1 0x1F DUP3 ADD AND DUP3 ADD DUP1 PUSH1 0x40 MSTORE POP DUP2 ADD SWAP1 PUSH2 0x15CE SWAP2 SWAP1 PUSH2 0x306D JUMP JUMPDEST PUSH1 0x1 JUMPDEST PUSH2 0x1610 JUMPI PUSH1 0x40 MLOAD PUSH32 0x8C379A000000000000000000000000000000000000000000000000000000000 DUP2 MSTORE PUSH1 0x4 ADD PUSH2 0x1607 SWAP1 PUSH2 0x310C JUMP JUMPDEST PUSH1 0x40 MLOAD DUP1 SWAP2 SUB SWAP1 REVERT JUMPDEST PUSH32 0x360894A13BA1A3210667C828492DB98DCA3E2076CC3735A920A3CA505D382BBC PUSH1 0x0 SHL DUP2 EQ PUSH2 0x1675 JUMPI PUSH1 0x40 MLOAD PUSH32 0x8C379A000000000000000000000000000000000000000000000000000000000 DUP2 MSTORE PUSH1 0x4 ADD PUSH2 0x166C SWAP1 PUSH2 0x319E JUMP JUMPDEST PUSH1 0x40 MLOAD DUP1 SWAP2 SUB SWAP1 REVERT JUMPDEST POP PUSH2 0x1681 DUP4 DUP4 DUP4 PUSH2 0x1BEE JUMP JUMPDEST JUMPDEST POP POP POP JUMP JUMPDEST PUSH2 0x168F PUSH2 0xCBA JUMP JUMPDEST ISZERO PUSH2 0x16CF JUMPI PUSH1 0x40 MLOAD PUSH32 0x8C379A000000000000000000000000000000000000000000000000000000000 DUP2 MSTORE PUSH1 0x4 ADD PUSH2 0x16C6 SWAP1 PUSH2 0x320A JUMP JUMPDEST PUSH1 0x40 MLOAD DUP1 SWAP2 SUB SWAP1 REVERT JUMPDEST JUMP JUMPDEST PUSH2 0x16D9 PUSH2 0x1C1A JUMP JUMPDEST PUSH1 0x0 PUSH1 0xCB PUSH1 0x0 PUSH2 0x100 EXP DUP2 SLOAD DUP2 PUSH1 0xFF MUL NOT AND SWAP1 DUP4 ISZERO ISZERO MUL OR SWAP1 SSTORE POP PUSH32 0x5DB9EE0A495BF2E6FF9C91A7834C1BA4FDD244A5E8AA4E537BD38AEAE4B073AA PUSH2 0x171D PUSH2 0x1379 JUMP JUMPDEST PUSH1 0x40 MLOAD PUSH2 0x172A SWAP2 SWAP1 PUSH2 0x322A JUMP JUMPDEST PUSH1 0x40 MLOAD DUP1 SWAP2 SUB SWAP1 LOG1 JUMP JUMPDEST PUSH2 0x173C PUSH2 0x1687 JUMP JUMPDEST PUSH1 0x1 PUSH1 0xCB PUSH1 0x0 PUSH2 0x100 EXP DUP2 SLOAD DUP2 PUSH1 0xFF MUL NOT AND SWAP1 DUP4 ISZERO ISZERO MUL OR SWAP1 SSTORE POP PUSH32 0x62E78CEA01BEE320CD4E420270B5EA74000D11B0C9F74754EBDBFC544B05A258 PUSH2 0x1780 PUSH2 0x1379 JUMP JUMPDEST PUSH1 0x40 MLOAD PUSH2 0x178D SWAP2 SWAP1 PUSH2 0x322A JUMP JUMPDEST PUSH1 0x40 MLOAD DUP1 SWAP2 SUB SWAP1 LOG1 JUMP JUMPDEST PUSH1 0x60 PUSH1 0x67 DUP1 SLOAD PUSH2 0x17A6 SWAP1 PUSH2 0x3274 JUMP JUMPDEST DUP1 PUSH1 0x1F ADD PUSH1 0x20 DUP1 SWAP2 DIV MUL PUSH1 0x20 ADD PUSH1 0x40 MLOAD SWAP1 DUP2 ADD PUSH1 0x40 MSTORE DUP1 SWAP3 SWAP2 SWAP1 DUP2 DUP2 MSTORE PUSH1 0x20 ADD DUP3 DUP1 SLOAD PUSH2 0x17D2 SWAP1 PUSH2 0x3274 JUMP JUMPDEST DUP1 ISZERO PUSH2 0x181F JUMPI DUP1 PUSH1 0x1F LT PUSH2 0x17F4 JUMPI PUSH2 0x100 DUP1 DUP4 SLOAD DIV MUL DUP4 MSTORE SWAP2 PUSH1 0x20 ADD SWAP2 PUSH2 0x181F JUMP JUMPDEST DUP3 ADD SWAP2 SWAP1 PUSH1 0x0 MSTORE PUSH1 0x20 PUSH1 0x0 KECCAK256 SWAP1 JUMPDEST DUP2 SLOAD DUP2 MSTORE SWAP1 PUSH1 0x1 ADD SWAP1 PUSH1 0x20 ADD DUP1 DUP4 GT PUSH2 0x1802 JUMPI DUP3 SWAP1 SUB PUSH1 0x1F AND DUP3 ADD SWAP2 JUMPDEST POP POP POP POP POP SWAP1 POP SWAP1 JUMP JUMPDEST PUSH1 0x60 PUSH1 0x68 DUP1 SLOAD PUSH2 0x1838 SWAP1 PUSH2 0x3274 JUMP JUMPDEST DUP1 PUSH1 0x1F ADD PUSH1 0x20 DUP1 SWAP2 DIV MUL PUSH1 0x20 ADD PUSH1 0x40 MLOAD SWAP1 DUP2 ADD PUSH1 0x40 MSTORE DUP1 SWAP3 SWAP2 SWAP1 DUP2 DUP2 MSTORE PUSH1 0x20 ADD DUP3 DUP1 SLOAD PUSH2 0x1864 SWAP1 PUSH2 0x3274 JUMP JUMPDEST DUP1 ISZERO PUSH2 0x18B1 JUMPI DUP1 PUSH1 0x1F LT PUSH2 0x1886 JUMPI PUSH2 0x100 DUP1 DUP4 SLOAD DIV MUL DUP4 MSTORE SWAP2 PUSH1 0x20 ADD SWAP2 PUSH2 0x18B1 JUMP JUMPDEST DUP3 ADD SWAP2 SWAP1 PUSH1 0x0 MSTORE PUSH1 0x20 PUSH1 0x0 KECCAK256 SWAP1 JUMPDEST DUP2 SLOAD DUP2 MSTORE SWAP1 PUSH1 0x1 ADD SWAP1 PUSH1 0x20 ADD DUP1 DUP4 GT PUSH2 0x1894 JUMPI DUP3 SWAP1 SUB PUSH1 0x1F AND DUP3 ADD SWAP2 JUMPDEST POP POP POP POP POP SWAP1 POP SWAP1 JUMP JUMPDEST PUSH1 0x0 DUP1 DUP3 PUSH20 0xFFFFFFFFFFFFFFFFFFFFFFFFFFFFFFFFFFFFFFFF AND EXTCODESIZE GT SWAP1 POP SWAP2 SWAP1 POP JUMP JUMPDEST PUSH1 0x0 DUP1 PUSH1 0x1 SWAP1 SLOAD SWAP1 PUSH2 0x100 EXP SWAP1 DIV PUSH1 0xFF AND ISZERO SWAP1 POP DUP1 DUP1 ISZERO PUSH2 0x190F JUMPI POP PUSH1 0x1 PUSH1 0x0 DUP1 SLOAD SWAP1 PUSH2 0x100 EXP SWAP1 DIV PUSH1 0xFF AND PUSH1 0xFF AND LT JUMPDEST DUP1 PUSH2 0x193C JUMPI POP PUSH2 0x191E ADDRESS PUSH2 0x18BB JUMP JUMPDEST ISZERO DUP1 ISZERO PUSH2 0x193B JUMPI POP PUSH1 0x1 PUSH1 0x0 DUP1 SLOAD SWAP1 PUSH2 0x100 EXP SWAP1 DIV PUSH1 0xFF AND PUSH1 0xFF AND EQ JUMPDEST JUMPDEST PUSH2 0x197B JUMPI PUSH1 0x40 MLOAD PUSH32 0x8C379A000000000000000000000000000000000000000000000000000000000 DUP2 MSTORE PUSH1 0x4 ADD PUSH2 0x1972 SWAP1 PUSH2 0x2F5F JUMP JUMPDEST PUSH1 0x40 MLOAD DUP1 SWAP2 SUB SWAP1 REVERT JUMPDEST PUSH1 0x1 PUSH1 0x0 DUP1 PUSH2 0x100 EXP DUP2 SLOAD DUP2 PUSH1 0xFF MUL NOT AND SWAP1 DUP4 PUSH1 0xFF AND MUL OR SWAP1 SSTORE POP DUP1 ISZERO PUSH2 0x19B8 JUMPI PUSH1 0x1 PUSH1 0x0 PUSH1 0x1 PUSH2 0x100 EXP DUP2 SLOAD DUP2 PUSH1 0xFF MUL NOT AND SWAP1 DUP4 ISZERO ISZERO MUL OR SWAP1 SSTORE POP JUMPDEST PUSH2 0x19C0 PUSH2 0x1C63 JUMP JUMPDEST PUSH2 0x19C8 PUSH2 0x1CB4 JUMP JUMPDEST PUSH2 0x19D0 PUSH2 0x1D05 JUMP JUMPDEST PUSH2 0x19D9 DUP3 PUSH2 0x1D71 JUMP JUMPDEST PUSH1 0x64 PUSH2 0x161 DUP2 SWAP1 SSTORE POP DUP1 ISZERO PUSH2 0x1A3B JUMPI PUSH1 0x0 DUP1 PUSH1 0x1 PUSH2 0x100 EXP DUP2 SLOAD DUP2 PUSH1 0xFF MUL NOT AND SWAP1 DUP4 ISZERO ISZERO MUL OR SWAP1 SSTORE POP PUSH32 0x7F26B83FF96E1F2B6A682F133852F6798A09C465DA95921460CEFB3847402498 PUSH1 0x1 PUSH1 0x40 MLOAD PUSH2 0x1A32 SWAP2 SWAP1 PUSH2 0x2FD1 JUMP JUMPDEST PUSH1 0x40 MLOAD DUP1 SWAP2 SUB SWAP1 LOG1 JUMPDEST POP POP JUMP JUMPDEST PUSH1 0x0 PUSH1 0x1 SWAP1 SLOAD SWAP1 PUSH2 0x100 EXP SWAP1 DIV PUSH1 0xFF AND PUSH2 0x1A8E JUMPI PUSH1 0x40 MLOAD PUSH32 0x8C379A000000000000000000000000000000000000000000000000000000000 DUP2 MSTORE PUSH1 0x4 ADD PUSH2 0x1A85 SWAP1 PUSH2 0x3318 JUMP JUMPDEST PUSH1 0x40 MLOAD DUP1 SWAP2 SUB SWAP1 REVERT JUMPDEST PUSH2 0x1A98 DUP3 DUP3 PUSH2 0x1EDF JUMP JUMPDEST POP POP JUMP JUMPDEST PUSH2 0x1AA6 DUP3 DUP3 PUSH2 0xEEC JUMP JUMPDEST PUSH2 0x1B1D JUMPI PUSH2 0x1AB3 DUP2 PUSH2 0x1F74 JUMP JUMPDEST PUSH2 0x1AC1 DUP4 PUSH1 0x0 SHR PUSH1 0x20 PUSH2 0x1FA1 JUMP JUMPDEST PUSH1 0x40 MLOAD PUSH1 0x20 ADD PUSH2 0x1AD2 SWAP3 SWAP2 SWAP1 PUSH2 0x340C JUMP JUMPDEST PUSH1 0x40 MLOAD PUSH1 0x20 DUP2 DUP4 SUB SUB DUP2 MSTORE SWAP1 PUSH1 0x40 MSTORE PUSH1 0x40 MLOAD PUSH32 0x8C379A000000000000000000000000000000000000000000000000000000000 DUP2 MSTORE PUSH1 0x4 ADD PUSH2 0x1B14 SWAP2 SWAP1 PUSH2 0x2B04 JUMP JUMPDEST PUSH1 0x40 MLOAD DUP1 SWAP2 SUB SWAP1 REVERT JUMPDEST POP POP JUMP JUMPDEST PUSH1 0x0 DUP2 SWAP1 POP SWAP2 SWAP1 POP JUMP JUMPDEST PUSH1 0x0 DUP2 SWAP1 POP SWAP2 SWAP1 POP JUMP JUMPDEST PUSH2 0x1B3E DUP2 PUSH2 0x18BB JUMP JUMPDEST PUSH2 0x1B7D JUMPI PUSH1 0x40 MLOAD PUSH32 0x8C379A000000000000000000000000000000000000000000000000000000000 DUP2 MSTORE PUSH1 0x4 ADD PUSH2 0x1B74 SWAP1 PUSH2 0x34B8 JUMP JUMPDEST PUSH1 0x40 MLOAD DUP1 SWAP2 SUB SWAP1 REVERT JUMPDEST DUP1 PUSH2 0x1BAA PUSH32 0x360894A13BA1A3210667C828492DB98DCA3E2076CC3735A920A3CA505D382BBC PUSH1 0x0 SHL PUSH2 0x1B21 JUMP JUMPDEST PUSH1 0x0 ADD PUSH1 0x0 PUSH2 0x100 EXP DUP2 SLOAD DUP2 PUSH20 0xFFFFFFFFFFFFFFFFFFFFFFFFFFFFFFFFFFFFFFFF MUL NOT AND SWAP1 DUP4 PUSH20 0xFFFFFFFFFFFFFFFFFFFFFFFFFFFFFFFFFFFFFFFF AND MUL OR SWAP1 SSTORE POP POP JUMP JUMPDEST PUSH2 0x1BF7 DUP4 PUSH2 0x21DD JUMP JUMPDEST PUSH1 0x0 DUP3 MLOAD GT DUP1 PUSH2 0x1C04 JUMPI POP DUP1 JUMPDEST ISZERO PUSH2 0x1C15 JUMPI PUSH2 0x1C13 DUP4 DUP4 PUSH2 0x222C JUMP JUMPDEST POP JUMPDEST POP POP POP JUMP JUMPDEST PUSH2 0x1C22 PUSH2 0xCBA JUMP JUMPDEST PUSH2 0x1C61 JUMPI PUSH1 0x40 MLOAD PUSH32 0x8C379A000000000000000000000000000000000000000000000000000000000 DUP2 MSTORE PUSH1 0x4 ADD PUSH2 0x1C58 SWAP1 PUSH2 0x3524 JUMP JUMPDEST PUSH1 0x40 MLOAD DUP1 SWAP2 SUB SWAP1 REVERT JUMPDEST JUMP JUMPDEST PUSH1 0x0 PUSH1 0x1 SWAP1 SLOAD SWAP1 PUSH2 0x100 EXP SWAP1 DIV PUSH1 0xFF AND PUSH2 0x1CB2 JUMPI PUSH1 0x40 MLOAD PUSH32 0x8C379A000000000000000000000000000000000000000000000000000000000 DUP2 MSTORE PUSH1 0x4 ADD PUSH2 0x1CA9 SWAP1 PUSH2 0x3318 JUMP JUMPDEST PUSH1 0x40 MLOAD DUP1 SWAP2 SUB SWAP1 REVERT JUMPDEST JUMP JUMPDEST PUSH1 0x0 PUSH1 0x1 SWAP1 SLOAD SWAP1 PUSH2 0x100 EXP SWAP1 DIV PUSH1 0xFF AND PUSH2 0x1D03 JUMPI PUSH1 0x40 MLOAD PUSH32 0x8C379A000000000000000000000000000000000000000000000000000000000 DUP2 MSTORE PUSH1 0x4 ADD PUSH2 0x1CFA SWAP1 PUSH2 0x3318 JUMP JUMPDEST PUSH1 0x40 MLOAD DUP1 SWAP2 SUB SWAP1 REVERT JUMPDEST JUMP JUMPDEST PUSH1 0x0 PUSH1 0x1 SWAP1 SLOAD SWAP1 PUSH2 0x100 EXP SWAP1 DIV PUSH1 0xFF AND PUSH2 0x1D54 JUMPI PUSH1 0x40 MLOAD PUSH32 0x8C379A000000000000000000000000000000000000000000000000000000000 DUP2 MSTORE PUSH1 0x4 ADD PUSH2 0x1D4B SWAP1 PUSH2 0x3318 JUMP JUMPDEST PUSH1 0x40 MLOAD DUP1 SWAP2 SUB SWAP1 REVERT JUMPDEST PUSH1 0x0 PUSH1 0xCB PUSH1 0x0 PUSH2 0x100 EXP DUP2 SLOAD DUP2 PUSH1 0xFF MUL NOT AND SWAP1 DUP4 ISZERO ISZERO MUL OR SWAP1 SSTORE POP JUMP JUMPDEST PUSH1 0x0 DUP1 PUSH1 0x1 SWAP1 SLOAD SWAP1 PUSH2 0x100 EXP SWAP1 DIV PUSH1 0xFF AND ISZERO SWAP1 POP DUP1 DUP1 ISZERO PUSH2 0x1DA2 JUMPI POP PUSH1 0x1 PUSH1 0x0 DUP1 SLOAD SWAP1 PUSH2 0x100 EXP SWAP1 DIV PUSH1 0xFF AND PUSH1 0xFF AND LT JUMPDEST DUP1 PUSH2 0x1DCF JUMPI POP PUSH2 0x1DB1 ADDRESS PUSH2 0x18BB JUMP JUMPDEST ISZERO DUP1 ISZERO PUSH2 0x1DCE JUMPI POP PUSH1 0x1 PUSH1 0x0 DUP1 SLOAD SWAP1 PUSH2 0x100 EXP SWAP1 DIV PUSH1 0xFF AND PUSH1 0xFF AND EQ JUMPDEST JUMPDEST PUSH2 0x1E0E JUMPI PUSH1 0x40 MLOAD PUSH32 0x8C379A000000000000000000000000000000000000000000000000000000000 DUP2 MSTORE PUSH1 0x4 ADD PUSH2 0x1E05 SWAP1 PUSH2 0x2F5F JUMP JUMPDEST PUSH1 0x40 MLOAD DUP1 SWAP2 SUB SWAP1 REVERT JUMPDEST PUSH1 0x1 PUSH1 0x0 DUP1 PUSH2 0x100 EXP DUP2 SLOAD DUP2 PUSH1 0xFF MUL NOT AND SWAP1 DUP4 PUSH1 0xFF AND MUL OR SWAP1 SSTORE POP DUP1 ISZERO PUSH2 0x1E4B JUMPI PUSH1 0x1 PUSH1 0x0 PUSH1 0x1 PUSH2 0x100 EXP DUP2 SLOAD DUP2 PUSH1 0xFF MUL NOT AND SWAP1 DUP4 ISZERO ISZERO MUL OR SWAP1 SSTORE POP JUMPDEST PUSH2 0x1E58 PUSH1 0x0 DUP1 SHL DUP4 PUSH2 0x2259 JUMP JUMPDEST PUSH2 0x1E82 PUSH32 0x65D7A28E3265B37A6474929F336521B332C1681B933F6CB9F3376673440D862A DUP4 PUSH2 0x2259 JUMP JUMPDEST DUP1 ISZERO PUSH2 0x1EDB JUMPI PUSH1 0x0 DUP1 PUSH1 0x1 PUSH2 0x100 EXP DUP2 SLOAD DUP2 PUSH1 0xFF MUL NOT AND SWAP1 DUP4 ISZERO ISZERO MUL OR SWAP1 SSTORE POP PUSH32 0x7F26B83FF96E1F2B6A682F133852F6798A09C465DA95921460CEFB3847402498 PUSH1 0x1 PUSH1 0x40 MLOAD PUSH2 0x1ED2 SWAP2 SWAP1 PUSH2 0x2FD1 JUMP JUMPDEST PUSH1 0x40 MLOAD DUP1 SWAP2 SUB SWAP1 LOG1 JUMPDEST POP POP JUMP JUMPDEST PUSH1 0x0 PUSH1 0x1 SWAP1 SLOAD SWAP1 PUSH2 0x100 EXP SWAP1 DIV PUSH1 0xFF AND PUSH2 0x1F2E JUMPI PUSH1 0x40 MLOAD PUSH32 0x8C379A000000000000000000000000000000000000000000000000000000000 DUP2 MSTORE PUSH1 0x4 ADD PUSH2 0x1F25 SWAP1 PUSH2 0x3318 JUMP JUMPDEST PUSH1 0x40 MLOAD DUP1 SWAP2 SUB SWAP1 REVERT JUMPDEST DUP2 PUSH1 0x67 SWAP1 DUP1 MLOAD SWAP1 PUSH1 0x20 ADD SWAP1 PUSH2 0x1F44 SWAP3 SWAP2 SWAP1 PUSH2 0x23B3 JUMP JUMPDEST POP DUP1 PUSH1 0x68 SWAP1 DUP1 MLOAD SWAP1 PUSH1 0x20 ADD SWAP1 PUSH2 0x1F5B SWAP3 SWAP2 SWAP1 PUSH2 0x23B3 JUMP JUMPDEST POP PUSH1 0x0 DUP1 SHL PUSH1 0x65 DUP2 SWAP1 SSTORE POP PUSH1 0x0 DUP1 SHL PUSH1 0x66 DUP2 SWAP1 SSTORE POP POP POP JUMP JUMPDEST PUSH1 0x60 PUSH2 0x1F9A DUP3 PUSH20 0xFFFFFFFFFFFFFFFFFFFFFFFFFFFFFFFFFFFFFFFF AND PUSH1 0x14 PUSH1 0xFF AND PUSH2 0x1FA1 JUMP JUMPDEST SWAP1 POP SWAP2 SWAP1 POP JUMP JUMPDEST PUSH1 0x60 PUSH1 0x0 PUSH1 0x2 DUP4 PUSH1 0x2 PUSH2 0x1FB4 SWAP2 SWAP1 PUSH2 0x3573 JUMP JUMPDEST PUSH2 0x1FBE SWAP2 SWAP1 PUSH2 0x35CD JUMP JUMPDEST PUSH8 0xFFFFFFFFFFFFFFFF DUP2 GT ISZERO PUSH2 0x1FD7 JUMPI PUSH2 0x1FD6 PUSH2 0x271D JUMP JUMPDEST JUMPDEST PUSH1 0x40 MLOAD SWAP1 DUP1 DUP3 MSTORE DUP1 PUSH1 0x1F ADD PUSH1 0x1F NOT AND PUSH1 0x20 ADD DUP3 ADD PUSH1 0x40 MSTORE DUP1 ISZERO PUSH2 0x2009 JUMPI DUP2 PUSH1 0x20 ADD PUSH1 0x1 DUP3 MUL DUP1 CALLDATASIZE DUP4 CALLDATACOPY DUP1 DUP3 ADD SWAP2 POP POP SWAP1 POP JUMPDEST POP SWAP1 POP PUSH32 0x3000000000000000000000000000000000000000000000000000000000000000 DUP2 PUSH1 0x0 DUP2 MLOAD DUP2 LT PUSH2 0x2041 JUMPI PUSH2 0x2040 PUSH2 0x3623 JUMP JUMPDEST JUMPDEST PUSH1 0x20 ADD ADD SWAP1 PUSH31 0xFFFFFFFFFFFFFFFFFFFFFFFFFFFFFFFFFFFFFFFFFFFFFFFFFFFFFFFFFFFFFF NOT AND SWAP1 DUP2 PUSH1 0x0 BYTE SWAP1 MSTORE8 POP PUSH32 0x7800000000000000000000000000000000000000000000000000000000000000 DUP2 PUSH1 0x1 DUP2 MLOAD DUP2 LT PUSH2 0x20A5 JUMPI PUSH2 0x20A4 PUSH2 0x3623 JUMP JUMPDEST JUMPDEST PUSH1 0x20 ADD ADD SWAP1 PUSH31 0xFFFFFFFFFFFFFFFFFFFFFFFFFFFFFFFFFFFFFFFFFFFFFFFFFFFFFFFFFFFFFF NOT AND SWAP1 DUP2 PUSH1 0x0 BYTE SWAP1 MSTORE8 POP PUSH1 0x0 PUSH1 0x1 DUP5 PUSH1 0x2 PUSH2 0x20E5 SWAP2 SWAP1 PUSH2 0x3573 JUMP JUMPDEST PUSH2 0x20EF SWAP2 SWAP1 PUSH2 0x35CD JUMP JUMPDEST SWAP1 POP JUMPDEST PUSH1 0x1 DUP2 GT ISZERO PUSH2 0x218F JUMPI PUSH32 0x3031323334353637383961626364656600000000000000000000000000000000 PUSH1 0xF DUP7 AND PUSH1 0x10 DUP2 LT PUSH2 0x2131 JUMPI PUSH2 0x2130 PUSH2 0x3623 JUMP JUMPDEST JUMPDEST BYTE PUSH1 0xF8 SHL DUP3 DUP3 DUP2 MLOAD DUP2 LT PUSH2 0x2148 JUMPI PUSH2 0x2147 PUSH2 0x3623 JUMP JUMPDEST JUMPDEST PUSH1 0x20 ADD ADD SWAP1 PUSH31 0xFFFFFFFFFFFFFFFFFFFFFFFFFFFFFFFFFFFFFFFFFFFFFFFFFFFFFFFFFFFFFF NOT AND SWAP1 DUP2 PUSH1 0x0 BYTE SWAP1 MSTORE8 POP PUSH1 0x4 DUP6 SWAP1 SHR SWAP5 POP DUP1 PUSH2 0x2188 SWAP1 PUSH2 0x3652 JUMP JUMPDEST SWAP1 POP PUSH2 0x20F2 JUMP JUMPDEST POP PUSH1 0x0 DUP5 EQ PUSH2 0x21D3 JUMPI PUSH1 0x40 MLOAD PUSH32 0x8C379A000000000000000000000000000000000000000000000000000000000 DUP2 MSTORE PUSH1 0x4 ADD PUSH2 0x21CA SWAP1 PUSH2 0x36C8 JUMP JUMPDEST PUSH1 0x40 MLOAD DUP1 SWAP2 SUB SWAP1 REVERT JUMPDEST DUP1 SWAP2 POP POP SWAP3 SWAP2 POP POP JUMP JUMPDEST PUSH2 0x21E6 DUP2 PUSH2 0x1B35 JUMP JUMPDEST DUP1 PUSH20 0xFFFFFFFFFFFFFFFFFFFFFFFFFFFFFFFFFFFFFFFF AND PUSH32 0xBC7CD75A20EE27FD9ADEBAB32041F755214DBC6BFFA90CC0225B39DA2E5C2D3B PUSH1 0x40 MLOAD PUSH1 0x40 MLOAD DUP1 SWAP2 SUB SWAP1 LOG2 POP JUMP JUMPDEST PUSH1 0x60 PUSH2 0x2251 DUP4 DUP4 PUSH1 0x40 MLOAD DUP1 PUSH1 0x60 ADD PUSH1 0x40 MSTORE DUP1 PUSH1 0x27 DUP2 MSTORE PUSH1 0x20 ADD PUSH2 0x3805 PUSH1 0x27 SWAP2 CODECOPY PUSH2 0x2267 JUMP JUMPDEST SWAP1 POP SWAP3 SWAP2 POP POP JUMP JUMPDEST PUSH2 0x2263 DUP3 DUP3 PUSH2 0x1297 JUMP JUMPDEST POP POP JUMP JUMPDEST PUSH1 0x60 PUSH1 0x0 DUP1 DUP6 PUSH20 0xFFFFFFFFFFFFFFFFFFFFFFFFFFFFFFFFFFFFFFFF AND DUP6 PUSH1 0x40 MLOAD PUSH2 0x2291 SWAP2 SWAP1 PUSH2 0x372F JUMP JUMPDEST PUSH1 0x0 PUSH1 0x40 MLOAD DUP1 DUP4 SUB DUP2 DUP6 GAS DELEGATECALL SWAP2 POP POP RETURNDATASIZE DUP1 PUSH1 0x0 DUP2 EQ PUSH2 0x22CC JUMPI PUSH1 0x40 MLOAD SWAP2 POP PUSH1 0x1F NOT PUSH1 0x3F RETURNDATASIZE ADD AND DUP3 ADD PUSH1 0x40 MSTORE RETURNDATASIZE DUP3 MSTORE RETURNDATASIZE PUSH1 0x0 PUSH1 0x20 DUP5 ADD RETURNDATACOPY PUSH2 0x22D1 JUMP JUMPDEST PUSH1 0x60 SWAP2 POP JUMPDEST POP SWAP2 POP SWAP2 POP PUSH2 0x22E2 DUP7 DUP4 DUP4 DUP8 PUSH2 0x22ED JUMP JUMPDEST SWAP3 POP POP POP SWAP4 SWAP3 POP POP POP JUMP JUMPDEST PUSH1 0x60 DUP4 ISZERO PUSH2 0x2350 JUMPI PUSH1 0x0 DUP4 MLOAD EQ ISZERO PUSH2 0x2348 JUMPI PUSH2 0x2308 DUP6 PUSH2 0x18BB JUMP JUMPDEST PUSH2 0x2347 JUMPI PUSH1 0x40 MLOAD PUSH32 0x8C379A000000000000000000000000000000000000000000000000000000000 DUP2 MSTORE PUSH1 0x4 ADD PUSH2 0x233E SWAP1 PUSH2 0x3792 JUMP JUMPDEST PUSH1 0x40 MLOAD DUP1 SWAP2 SUB SWAP1 REVERT JUMPDEST JUMPDEST DUP3 SWAP1 POP PUSH2 0x235B JUMP JUMPDEST PUSH2 0x235A DUP4 DUP4 PUSH2 0x2363 JUMP JUMPDEST JUMPDEST SWAP5 SWAP4 POP POP POP POP JUMP JUMPDEST PUSH1 0x0 DUP3 MLOAD GT ISZERO PUSH2 0x2376 JUMPI DUP2 MLOAD DUP1 DUP4 PUSH1 0x20 ADD REVERT JUMPDEST DUP1 PUSH1 0x40 MLOAD PUSH32 0x8C379A000000000000000000000000000000000000000000000000000000000 DUP2 MSTORE PUSH1 0x4 ADD PUSH2 0x23AA SWAP2 SWAP1 PUSH2 0x2B04 JUMP JUMPDEST PUSH1 0x40 MLOAD DUP1 SWAP2 SUB SWAP1 REVERT JUMPDEST DUP3 DUP1 SLOAD PUSH2 0x23BF SWAP1 PUSH2 0x3274 JUMP JUMPDEST SWAP1 PUSH1 0x0 MSTORE PUSH1 0x20 PUSH1 0x0 KECCAK256 SWAP1 PUSH1 0x1F ADD PUSH1 0x20 SWAP1 DIV DUP2 ADD SWAP3 DUP3 PUSH2 0x23E1 JUMPI PUSH1 0x0 DUP6 SSTORE PUSH2 0x2428 JUMP JUMPDEST DUP3 PUSH1 0x1F LT PUSH2 0x23FA JUMPI DUP1 MLOAD PUSH1 0xFF NOT AND DUP4 DUP1 ADD OR DUP6 SSTORE PUSH2 0x2428 JUMP JUMPDEST DUP3 DUP1 ADD PUSH1 0x1 ADD DUP6 SSTORE DUP3 ISZERO PUSH2 0x2428 JUMPI SWAP2 DUP3 ADD JUMPDEST DUP3 DUP2 GT ISZERO PUSH2 0x2427 JUMPI DUP3 MLOAD DUP3 SSTORE SWAP2 PUSH1 0x20 ADD SWAP2 SWAP1 PUSH1 0x1 ADD SWAP1 PUSH2 0x240C JUMP JUMPDEST JUMPDEST POP SWAP1 POP PUSH2 0x2435 SWAP2 SWAP1 PUSH2 0x2439 JUMP JUMPDEST POP SWAP1 JUMP JUMPDEST JUMPDEST DUP1 DUP3 GT ISZERO PUSH2 0x2452 JUMPI PUSH1 0x0 DUP2 PUSH1 0x0 SWAP1 SSTORE POP PUSH1 0x1 ADD PUSH2 0x243A JUMP JUMPDEST POP SWAP1 JUMP JUMPDEST PUSH1 0x0 PUSH1 0x40 MLOAD SWAP1 POP SWAP1 JUMP JUMPDEST PUSH1 0x0 DUP1 REVERT JUMPDEST PUSH1 0x0 DUP1 REVERT JUMPDEST PUSH1 0x0 PUSH32 0xFFFFFFFF00000000000000000000000000000000000000000000000000000000 DUP3 AND SWAP1 POP SWAP2 SWAP1 POP JUMP JUMPDEST PUSH2 0x249F DUP2 PUSH2 0x246A JUMP JUMPDEST DUP2 EQ PUSH2 0x24AA JUMPI PUSH1 0x0 DUP1 REVERT JUMPDEST POP JUMP JUMPDEST PUSH1 0x0 DUP2 CALLDATALOAD SWAP1 POP PUSH2 0x24BC DUP2 PUSH2 0x2496 JUMP JUMPDEST SWAP3 SWAP2 POP POP JUMP JUMPDEST PUSH1 0x0 PUSH1 0x20 DUP3 DUP5 SUB SLT ISZERO PUSH2 0x24D8 JUMPI PUSH2 0x24D7 PUSH2 0x2460 JUMP JUMPDEST JUMPDEST PUSH1 0x0 PUSH2 0x24E6 DUP5 DUP3 DUP6 ADD PUSH2 0x24AD JUMP JUMPDEST SWAP2 POP POP SWAP3 SWAP2 POP POP JUMP JUMPDEST PUSH1 0x0 DUP2 ISZERO ISZERO SWAP1 POP SWAP2 SWAP1 POP JUMP JUMPDEST PUSH2 0x2504 DUP2 PUSH2 0x24EF JUMP JUMPDEST DUP3 MSTORE POP POP JUMP JUMPDEST PUSH1 0x0 PUSH1 0x20 DUP3 ADD SWAP1 POP PUSH2 0x251F PUSH1 0x0 DUP4 ADD DUP5 PUSH2 0x24FB JUMP JUMPDEST SWAP3 SWAP2 POP POP JUMP JUMPDEST PUSH1 0x0 PUSH20 0xFFFFFFFFFFFFFFFFFFFFFFFFFFFFFFFFFFFFFFFF DUP3 AND SWAP1 POP SWAP2 SWAP1 POP JUMP JUMPDEST PUSH1 0x0 PUSH2 0x2550 DUP3 PUSH2 0x2525 JUMP JUMPDEST SWAP1 POP SWAP2 SWAP1 POP JUMP JUMPDEST PUSH2 0x2560 DUP2 PUSH2 0x2545 JUMP JUMPDEST DUP2 EQ PUSH2 0x256B JUMPI PUSH1 0x0 DUP1 REVERT JUMPDEST POP JUMP JUMPDEST PUSH1 0x0 DUP2 CALLDATALOAD SWAP1 POP PUSH2 0x257D DUP2 PUSH2 0x2557 JUMP JUMPDEST SWAP3 SWAP2 POP POP JUMP JUMPDEST PUSH1 0x0 PUSH1 0x20 DUP3 DUP5 SUB SLT ISZERO PUSH2 0x2599 JUMPI PUSH2 0x2598 PUSH2 0x2460 JUMP JUMPDEST JUMPDEST PUSH1 0x0 PUSH2 0x25A7 DUP5 DUP3 DUP6 ADD PUSH2 0x256E JUMP JUMPDEST SWAP2 POP POP SWAP3 SWAP2 POP POP JUMP JUMPDEST PUSH1 0x0 DUP2 SWAP1 POP SWAP2 SWAP1 POP JUMP JUMPDEST PUSH2 0x25C3 DUP2 PUSH2 0x25B0 JUMP JUMPDEST DUP2 EQ PUSH2 0x25CE JUMPI PUSH1 0x0 DUP1 REVERT JUMPDEST POP JUMP JUMPDEST PUSH1 0x0 DUP2 CALLDATALOAD SWAP1 POP PUSH2 0x25E0 DUP2 PUSH2 0x25BA JUMP JUMPDEST SWAP3 SWAP2 POP POP JUMP JUMPDEST PUSH1 0x0 PUSH1 0x20 DUP3 DUP5 SUB SLT ISZERO PUSH2 0x25FC JUMPI PUSH2 0x25FB PUSH2 0x2460 JUMP JUMPDEST JUMPDEST PUSH1 0x0 PUSH2 0x260A DUP5 DUP3 DUP6 ADD PUSH2 0x25D1 JUMP JUMPDEST SWAP2 POP POP SWAP3 SWAP2 POP POP JUMP JUMPDEST PUSH2 0x261C DUP2 PUSH2 0x25B0 JUMP JUMPDEST DUP3 MSTORE POP POP JUMP JUMPDEST PUSH1 0x0 PUSH1 0x20 DUP3 ADD SWAP1 POP PUSH2 0x2637 PUSH1 0x0 DUP4 ADD DUP5 PUSH2 0x2613 JUMP JUMPDEST SWAP3 SWAP2 POP POP JUMP JUMPDEST PUSH1 0x0 DUP1 PUSH1 0x40 DUP4 DUP6 SUB SLT ISZERO PUSH2 0x2654 JUMPI PUSH2 0x2653 PUSH2 0x2460 JUMP JUMPDEST JUMPDEST PUSH1 0x0 PUSH2 0x2662 DUP6 DUP3 DUP7 ADD PUSH2 0x25D1 JUMP JUMPDEST SWAP3 POP POP PUSH1 0x20 PUSH2 0x2673 DUP6 DUP3 DUP7 ADD PUSH2 0x256E JUMP JUMPDEST SWAP2 POP POP SWAP3 POP SWAP3 SWAP1 POP JUMP JUMPDEST PUSH1 0x0 DUP1 REVERT JUMPDEST PUSH1 0x0 PUSH1 0xC0 DUP3 DUP5 SUB SLT ISZERO PUSH2 0x2698 JUMPI PUSH2 0x2697 PUSH2 0x267D JUMP JUMPDEST JUMPDEST DUP2 SWAP1 POP SWAP3 SWAP2 POP POP JUMP JUMPDEST PUSH1 0x0 PUSH1 0xC0 DUP3 DUP5 SUB SLT ISZERO PUSH2 0x26B7 JUMPI PUSH2 0x26B6 PUSH2 0x2460 JUMP JUMPDEST JUMPDEST PUSH1 0x0 PUSH2 0x26C5 DUP5 DUP3 DUP6 ADD PUSH2 0x2682 JUMP JUMPDEST SWAP2 POP POP SWAP3 SWAP2 POP POP JUMP JUMPDEST PUSH1 0x0 DUP2 SWAP1 POP SWAP2 SWAP1 POP JUMP JUMPDEST PUSH2 0x26E1 DUP2 PUSH2 0x26CE JUMP JUMPDEST DUP3 MSTORE POP POP JUMP JUMPDEST PUSH1 0x0 PUSH1 0x20 DUP3 ADD SWAP1 POP PUSH2 0x26FC PUSH1 0x0 DUP4 ADD DUP5 PUSH2 0x26D8 JUMP JUMPDEST SWAP3 SWAP2 POP POP JUMP JUMPDEST PUSH1 0x0 DUP1 REVERT JUMPDEST PUSH1 0x0 DUP1 REVERT JUMPDEST PUSH1 0x0 PUSH1 0x1F NOT PUSH1 0x1F DUP4 ADD AND SWAP1 POP SWAP2 SWAP1 POP JUMP JUMPDEST PUSH32 0x4E487B7100000000000000000000000000000000000000000000000000000000 PUSH1 0x0 MSTORE PUSH1 0x41 PUSH1 0x4 MSTORE PUSH1 0x24 PUSH1 0x0 REVERT JUMPDEST PUSH2 0x2755 DUP3 PUSH2 0x270C JUMP JUMPDEST DUP2 ADD DUP2 DUP2 LT PUSH8 0xFFFFFFFFFFFFFFFF DUP3 GT OR ISZERO PUSH2 0x2774 JUMPI PUSH2 0x2773 PUSH2 0x271D JUMP JUMPDEST JUMPDEST DUP1 PUSH1 0x40 MSTORE POP POP POP JUMP JUMPDEST PUSH1 0x0 PUSH2 0x2787 PUSH2 0x2456 JUMP JUMPDEST SWAP1 POP PUSH2 0x2793 DUP3 DUP3 PUSH2 0x274C JUMP JUMPDEST SWAP2 SWAP1 POP JUMP JUMPDEST PUSH1 0x0 PUSH8 0xFFFFFFFFFFFFFFFF DUP3 GT ISZERO PUSH2 0x27B3 JUMPI PUSH2 0x27B2 PUSH2 0x271D JUMP JUMPDEST JUMPDEST PUSH2 0x27BC DUP3 PUSH2 0x270C JUMP JUMPDEST SWAP1 POP PUSH1 0x20 DUP2 ADD SWAP1 POP SWAP2 SWAP1 POP JUMP JUMPDEST DUP3 DUP2 DUP4 CALLDATACOPY PUSH1 0x0 DUP4 DUP4 ADD MSTORE POP POP POP JUMP JUMPDEST PUSH1 0x0 PUSH2 0x27EB PUSH2 0x27E6 DUP5 PUSH2 0x2798 JUMP JUMPDEST PUSH2 0x277D JUMP JUMPDEST SWAP1 POP DUP3 DUP2 MSTORE PUSH1 0x20 DUP2 ADD DUP5 DUP5 DUP5 ADD GT ISZERO PUSH2 0x2807 JUMPI PUSH2 0x2806 PUSH2 0x2707 JUMP JUMPDEST JUMPDEST PUSH2 0x2812 DUP5 DUP3 DUP6 PUSH2 0x27C9 JUMP JUMPDEST POP SWAP4 SWAP3 POP POP POP JUMP JUMPDEST PUSH1 0x0 DUP3 PUSH1 0x1F DUP4 ADD SLT PUSH2 0x282F JUMPI PUSH2 0x282E PUSH2 0x2702 JUMP JUMPDEST JUMPDEST DUP2 CALLDATALOAD PUSH2 0x283F DUP5 DUP3 PUSH1 0x20 DUP7 ADD PUSH2 0x27D8 JUMP JUMPDEST SWAP2 POP POP SWAP3 SWAP2 POP POP JUMP JUMPDEST PUSH1 0x0 DUP1 PUSH1 0x40 DUP4 DUP6 SUB SLT ISZERO PUSH2 0x285F JUMPI PUSH2 0x285E PUSH2 0x2460 JUMP JUMPDEST JUMPDEST PUSH1 0x0 PUSH2 0x286D DUP6 DUP3 DUP7 ADD PUSH2 0x256E JUMP JUMPDEST SWAP3 POP POP PUSH1 0x20 DUP4 ADD CALLDATALOAD PUSH8 0xFFFFFFFFFFFFFFFF DUP2 GT ISZERO PUSH2 0x288E JUMPI PUSH2 0x288D PUSH2 0x2465 JUMP JUMPDEST JUMPDEST PUSH2 0x289A DUP6 DUP3 DUP7 ADD PUSH2 0x281A JUMP JUMPDEST SWAP2 POP POP SWAP3 POP SWAP3 SWAP1 POP JUMP JUMPDEST PUSH1 0x0 PUSH1 0x60 DUP3 DUP5 SUB SLT ISZERO PUSH2 0x28BA JUMPI PUSH2 0x28B9 PUSH2 0x267D JUMP JUMPDEST JUMPDEST DUP2 SWAP1 POP SWAP3 SWAP2 POP POP JUMP JUMPDEST PUSH1 0x0 PUSH1 0x60 DUP3 DUP5 SUB SLT ISZERO PUSH2 0x28D9 JUMPI PUSH2 0x28D8 PUSH2 0x2460 JUMP JUMPDEST JUMPDEST PUSH1 0x0 PUSH2 0x28E7 DUP5 DUP3 DUP6 ADD PUSH2 0x28A4 JUMP JUMPDEST SWAP2 POP POP SWAP3 SWAP2 POP POP JUMP JUMPDEST PUSH1 0x0 PUSH32 0xFF00000000000000000000000000000000000000000000000000000000000000 DUP3 AND SWAP1 POP SWAP2 SWAP1 POP JUMP JUMPDEST PUSH2 0x2925 DUP2 PUSH2 0x28F0 JUMP JUMPDEST DUP3 MSTORE POP POP JUMP JUMPDEST PUSH1 0x0 DUP2 MLOAD SWAP1 POP SWAP2 SWAP1 POP JUMP JUMPDEST PUSH1 0x0 DUP3 DUP3 MSTORE PUSH1 0x20 DUP3 ADD SWAP1 POP SWAP3 SWAP2 POP POP JUMP JUMPDEST PUSH1 0x0 JUMPDEST DUP4 DUP2 LT ISZERO PUSH2 0x2965 JUMPI DUP1 DUP3 ADD MLOAD DUP2 DUP5 ADD MSTORE PUSH1 0x20 DUP2 ADD SWAP1 POP PUSH2 0x294A JUMP JUMPDEST DUP4 DUP2 GT ISZERO PUSH2 0x2974 JUMPI PUSH1 0x0 DUP5 DUP5 ADD MSTORE JUMPDEST POP POP POP POP JUMP JUMPDEST PUSH1 0x0 PUSH2 0x2985 DUP3 PUSH2 0x292B JUMP JUMPDEST PUSH2 0x298F DUP2 DUP6 PUSH2 0x2936 JUMP JUMPDEST SWAP4 POP PUSH2 0x299F DUP2 DUP6 PUSH1 0x20 DUP7 ADD PUSH2 0x2947 JUMP JUMPDEST PUSH2 0x29A8 DUP2 PUSH2 0x270C JUMP JUMPDEST DUP5 ADD SWAP2 POP POP SWAP3 SWAP2 POP POP JUMP JUMPDEST PUSH2 0x29BC DUP2 PUSH2 0x2545 JUMP JUMPDEST DUP3 MSTORE POP POP JUMP JUMPDEST PUSH1 0x0 DUP2 MLOAD SWAP1 POP SWAP2 SWAP1 POP JUMP JUMPDEST PUSH1 0x0 DUP3 DUP3 MSTORE PUSH1 0x20 DUP3 ADD SWAP1 POP SWAP3 SWAP2 POP POP JUMP JUMPDEST PUSH1 0x0 DUP2 SWAP1 POP PUSH1 0x20 DUP3 ADD SWAP1 POP SWAP2 SWAP1 POP JUMP JUMPDEST PUSH2 0x29F7 DUP2 PUSH2 0x26CE JUMP JUMPDEST DUP3 MSTORE POP POP JUMP JUMPDEST PUSH1 0x0 PUSH2 0x2A09 DUP4 DUP4 PUSH2 0x29EE JUMP JUMPDEST PUSH1 0x20 DUP4 ADD SWAP1 POP SWAP3 SWAP2 POP POP JUMP JUMPDEST PUSH1 0x0 PUSH1 0x20 DUP3 ADD SWAP1 POP SWAP2 SWAP1 POP JUMP JUMPDEST PUSH1 0x0 PUSH2 0x2A2D DUP3 PUSH2 0x29C2 JUMP JUMPDEST PUSH2 0x2A37 DUP2 DUP6 PUSH2 0x29CD JUMP JUMPDEST SWAP4 POP PUSH2 0x2A42 DUP4 PUSH2 0x29DE JUMP JUMPDEST DUP1 PUSH1 0x0 JUMPDEST DUP4 DUP2 LT ISZERO PUSH2 0x2A73 JUMPI DUP2 MLOAD PUSH2 0x2A5A DUP9 DUP3 PUSH2 0x29FD JUMP JUMPDEST SWAP8 POP PUSH2 0x2A65 DUP4 PUSH2 0x2A15 JUMP JUMPDEST SWAP3 POP POP PUSH1 0x1 DUP2 ADD SWAP1 POP PUSH2 0x2A46 JUMP JUMPDEST POP DUP6 SWAP4 POP POP POP POP SWAP3 SWAP2 POP POP JUMP JUMPDEST PUSH1 0x0 PUSH1 0xE0 DUP3 ADD SWAP1 POP PUSH2 0x2A95 PUSH1 0x0 DUP4 ADD DUP11 PUSH2 0x291C JUMP JUMPDEST DUP2 DUP2 SUB PUSH1 0x20 DUP4 ADD MSTORE PUSH2 0x2AA7 DUP2 DUP10 PUSH2 0x297A JUMP JUMPDEST SWAP1 POP DUP2 DUP2 SUB PUSH1 0x40 DUP4 ADD MSTORE PUSH2 0x2ABB DUP2 DUP9 PUSH2 0x297A JUMP JUMPDEST SWAP1 POP PUSH2 0x2ACA PUSH1 0x60 DUP4 ADD DUP8 PUSH2 0x26D8 JUMP JUMPDEST PUSH2 0x2AD7 PUSH1 0x80 DUP4 ADD DUP7 PUSH2 0x29B3 JUMP JUMPDEST PUSH2 0x2AE4 PUSH1 0xA0 DUP4 ADD DUP6 PUSH2 0x2613 JUMP JUMPDEST DUP2 DUP2 SUB PUSH1 0xC0 DUP4 ADD MSTORE PUSH2 0x2AF6 DUP2 DUP5 PUSH2 0x2A22 JUMP JUMPDEST SWAP1 POP SWAP9 SWAP8 POP POP POP POP POP POP POP POP JUMP JUMPDEST PUSH1 0x0 PUSH1 0x20 DUP3 ADD SWAP1 POP DUP2 DUP2 SUB PUSH1 0x0 DUP4 ADD MSTORE PUSH2 0x2B1E DUP2 DUP5 PUSH2 0x297A JUMP JUMPDEST SWAP1 POP SWAP3 SWAP2 POP POP JUMP JUMPDEST PUSH1 0x0 PUSH2 0x120 DUP3 DUP5 SUB SLT ISZERO PUSH2 0x2B3D JUMPI PUSH2 0x2B3C PUSH2 0x267D JUMP JUMPDEST JUMPDEST DUP2 SWAP1 POP SWAP3 SWAP2 POP POP JUMP JUMPDEST PUSH1 0x0 PUSH2 0x120 DUP3 DUP5 SUB SLT ISZERO PUSH2 0x2B5D JUMPI PUSH2 0x2B5C PUSH2 0x2460 JUMP JUMPDEST JUMPDEST PUSH1 0x0 PUSH2 0x2B6B DUP5 DUP3 DUP6 ADD PUSH2 0x2B26 JUMP JUMPDEST SWAP2 POP POP SWAP3 SWAP2 POP POP JUMP JUMPDEST PUSH2 0x2B7D DUP2 PUSH2 0x26CE JUMP JUMPDEST DUP2 EQ PUSH2 0x2B88 JUMPI PUSH1 0x0 DUP1 REVERT JUMPDEST POP JUMP JUMPDEST PUSH1 0x0 DUP2 CALLDATALOAD SWAP1 POP PUSH2 0x2B9A DUP2 PUSH2 0x2B74 JUMP JUMPDEST SWAP3 SWAP2 POP POP JUMP JUMPDEST PUSH1 0x0 PUSH1 0x20 DUP3 DUP5 SUB SLT ISZERO PUSH2 0x2BB6 JUMPI PUSH2 0x2BB5 PUSH2 0x2460 JUMP JUMPDEST JUMPDEST PUSH1 0x0 PUSH2 0x2BC4 DUP5 DUP3 DUP6 ADD PUSH2 0x2B8B JUMP JUMPDEST SWAP2 POP POP SWAP3 SWAP2 POP POP JUMP JUMPDEST PUSH32 0x416363657373436F6E74726F6C3A2063616E206F6E6C792072656E6F756E6365 PUSH1 0x0 DUP3 ADD MSTORE PUSH32 0x20726F6C657320666F722073656C660000000000000000000000000000000000 PUSH1 0x20 DUP3 ADD MSTORE POP JUMP JUMPDEST PUSH1 0x0 PUSH2 0x2C29 PUSH1 0x2F DUP4 PUSH2 0x2936 JUMP JUMPDEST SWAP2 POP PUSH2 0x2C34 DUP3 PUSH2 0x2BCD JUMP JUMPDEST PUSH1 0x40 DUP3 ADD SWAP1 POP SWAP2 SWAP1 POP JUMP JUMPDEST PUSH1 0x0 PUSH1 0x20 DUP3 ADD SWAP1 POP DUP2 DUP2 SUB PUSH1 0x0 DUP4 ADD MSTORE PUSH2 0x2C58 DUP2 PUSH2 0x2C1C JUMP JUMPDEST SWAP1 POP SWAP2 SWAP1 POP JUMP JUMPDEST PUSH32 0x46756E6374696F6E206D7573742062652063616C6C6564207468726F75676820 PUSH1 0x0 DUP3 ADD MSTORE PUSH32 0x64656C656761746563616C6C0000000000000000000000000000000000000000 PUSH1 0x20 DUP3 ADD MSTORE POP JUMP JUMPDEST PUSH1 0x0 PUSH2 0x2CBB PUSH1 0x2C DUP4 PUSH2 0x2936 JUMP JUMPDEST SWAP2 POP PUSH2 0x2CC6 DUP3 PUSH2 0x2C5F JUMP JUMPDEST PUSH1 0x40 DUP3 ADD SWAP1 POP SWAP2 SWAP1 POP JUMP JUMPDEST PUSH1 0x0 PUSH1 0x20 DUP3 ADD SWAP1 POP DUP2 DUP2 SUB PUSH1 0x0 DUP4 ADD MSTORE PUSH2 0x2CEA DUP2 PUSH2 0x2CAE JUMP JUMPDEST SWAP1 POP SWAP2 SWAP1 POP JUMP JUMPDEST PUSH32 0x46756E6374696F6E206D7573742062652063616C6C6564207468726F75676820 PUSH1 0x0 DUP3 ADD MSTORE PUSH32 0x6163746976652070726F78790000000000000000000000000000000000000000 PUSH1 0x20 DUP3 ADD MSTORE POP JUMP JUMPDEST PUSH1 0x0 PUSH2 0x2D4D PUSH1 0x2C DUP4 PUSH2 0x2936 JUMP JUMPDEST SWAP2 POP PUSH2 0x2D58 DUP3 PUSH2 0x2CF1 JUMP JUMPDEST PUSH1 0x40 DUP3 ADD SWAP1 POP SWAP2 SWAP1 POP JUMP JUMPDEST PUSH1 0x0 PUSH1 0x20 DUP3 ADD SWAP1 POP DUP2 DUP2 SUB PUSH1 0x0 DUP4 ADD MSTORE PUSH2 0x2D7C DUP2 PUSH2 0x2D40 JUMP JUMPDEST SWAP1 POP SWAP2 SWAP1 POP JUMP JUMPDEST PUSH32 0x4F776E61626C655061757361626C653A206163636573732064656E6965640000 PUSH1 0x0 DUP3 ADD MSTORE POP JUMP JUMPDEST PUSH1 0x0 PUSH2 0x2DB9 PUSH1 0x1E DUP4 PUSH2 0x2936 JUMP JUMPDEST SWAP2 POP PUSH2 0x2DC4 DUP3 PUSH2 0x2D83 JUMP JUMPDEST PUSH1 0x20 DUP3 ADD SWAP1 POP SWAP2 SWAP1 POP JUMP JUMPDEST PUSH1 0x0 PUSH1 0x20 DUP3 ADD SWAP1 POP DUP2 DUP2 SUB PUSH1 0x0 DUP4 ADD MSTORE PUSH2 0x2DE8 DUP2 PUSH2 0x2DAC JUMP JUMPDEST SWAP1 POP SWAP2 SWAP1 POP JUMP JUMPDEST PUSH32 0x555550535570677261646561626C653A206D757374206E6F742062652063616C PUSH1 0x0 DUP3 ADD MSTORE PUSH32 0x6C6564207468726F7567682064656C656761746563616C6C0000000000000000 PUSH1 0x20 DUP3 ADD MSTORE POP JUMP JUMPDEST PUSH1 0x0 PUSH2 0x2E4B PUSH1 0x38 DUP4 PUSH2 0x2936 JUMP JUMPDEST SWAP2 POP PUSH2 0x2E56 DUP3 PUSH2 0x2DEF JUMP JUMPDEST PUSH1 0x40 DUP3 ADD SWAP1 POP SWAP2 SWAP1 POP JUMP JUMPDEST PUSH1 0x0 PUSH1 0x20 DUP3 ADD SWAP1 POP DUP2 DUP2 SUB PUSH1 0x0 DUP4 ADD MSTORE PUSH2 0x2E7A DUP2 PUSH2 0x2E3E JUMP JUMPDEST SWAP1 POP SWAP2 SWAP1 POP JUMP JUMPDEST PUSH32 0x4549503731323A20556E696E697469616C697A65640000000000000000000000 PUSH1 0x0 DUP3 ADD MSTORE POP JUMP JUMPDEST PUSH1 0x0 PUSH2 0x2EB7 PUSH1 0x15 DUP4 PUSH2 0x2936 JUMP JUMPDEST SWAP2 POP PUSH2 0x2EC2 DUP3 PUSH2 0x2E81 JUMP JUMPDEST PUSH1 0x20 DUP3 ADD SWAP1 POP SWAP2 SWAP1 POP JUMP JUMPDEST PUSH1 0x0 PUSH1 0x20 DUP3 ADD SWAP1 POP DUP2 DUP2 SUB PUSH1 0x0 DUP4 ADD MSTORE PUSH2 0x2EE6 DUP2 PUSH2 0x2EAA JUMP JUMPDEST SWAP1 POP SWAP2 SWAP1 POP JUMP JUMPDEST PUSH32 0x496E697469616C697A61626C653A20636F6E747261637420697320616C726561 PUSH1 0x0 DUP3 ADD MSTORE PUSH32 0x647920696E697469616C697A6564000000000000000000000000000000000000 PUSH1 0x20 DUP3 ADD MSTORE POP JUMP JUMPDEST PUSH1 0x0 PUSH2 0x2F49 PUSH1 0x2E DUP4 PUSH2 0x2936 JUMP JUMPDEST SWAP2 POP PUSH2 0x2F54 DUP3 PUSH2 0x2EED JUMP JUMPDEST PUSH1 0x40 DUP3 ADD SWAP1 POP SWAP2 SWAP1 POP JUMP JUMPDEST PUSH1 0x0 PUSH1 0x20 DUP3 ADD SWAP1 POP DUP2 DUP2 SUB PUSH1 0x0 DUP4 ADD MSTORE PUSH2 0x2F78 DUP2 PUSH2 0x2F3C JUMP JUMPDEST SWAP1 POP SWAP2 SWAP1 POP JUMP JUMPDEST PUSH1 0x0 DUP2 SWAP1 POP SWAP2 SWAP1 POP JUMP JUMPDEST PUSH1 0x0 PUSH1 0xFF DUP3 AND SWAP1 POP SWAP2 SWAP1 POP JUMP JUMPDEST PUSH1 0x0 DUP2 SWAP1 POP SWAP2 SWAP1 POP JUMP JUMPDEST PUSH1 0x0 PUSH2 0x2FBB PUSH2 0x2FB6 PUSH2 0x2FB1 DUP5 PUSH2 0x2F7F JUMP JUMPDEST PUSH2 0x2F96 JUMP JUMPDEST PUSH2 0x2F89 JUMP JUMPDEST SWAP1 POP SWAP2 SWAP1 POP JUMP JUMPDEST PUSH2 0x2FCB DUP2 PUSH2 0x2FA0 JUMP JUMPDEST DUP3 MSTORE POP POP JUMP JUMPDEST PUSH1 0x0 PUSH1 0x20 DUP3 ADD SWAP1 POP PUSH2 0x2FE6 PUSH1 0x0 DUP4 ADD DUP5 PUSH2 0x2FC2 JUMP JUMPDEST SWAP3 SWAP2 POP POP JUMP JUMPDEST PUSH32 0x4D6F726967696E4170703A20696E76616C69642076616C756521000000000000 PUSH1 0x0 DUP3 ADD MSTORE POP JUMP JUMPDEST PUSH1 0x0 PUSH2 0x3022 PUSH1 0x1A DUP4 PUSH2 0x2936 JUMP JUMPDEST SWAP2 POP PUSH2 0x302D DUP3 PUSH2 0x2FEC JUMP JUMPDEST PUSH1 0x20 DUP3 ADD SWAP1 POP SWAP2 SWAP1 POP JUMP JUMPDEST PUSH1 0x0 PUSH1 0x20 DUP3 ADD SWAP1 POP DUP2 DUP2 SUB PUSH1 0x0 DUP4 ADD MSTORE PUSH2 0x3051 DUP2 PUSH2 0x3015 JUMP JUMPDEST SWAP1 POP SWAP2 SWAP1 POP JUMP JUMPDEST PUSH1 0x0 DUP2 MLOAD SWAP1 POP PUSH2 0x3067 DUP2 PUSH2 0x25BA JUMP JUMPDEST SWAP3 SWAP2 POP POP JUMP JUMPDEST PUSH1 0x0 PUSH1 0x20 DUP3 DUP5 SUB SLT ISZERO PUSH2 0x3083 JUMPI PUSH2 0x3082 PUSH2 0x2460 JUMP JUMPDEST JUMPDEST PUSH1 0x0 PUSH2 0x3091 DUP5 DUP3 DUP6 ADD PUSH2 0x3058 JUMP JUMPDEST SWAP2 POP POP SWAP3 SWAP2 POP POP JUMP JUMPDEST PUSH32 0x45524331393637557067726164653A206E657720696D706C656D656E74617469 PUSH1 0x0 DUP3 ADD MSTORE PUSH32 0x6F6E206973206E6F742055555053000000000000000000000000000000000000 PUSH1 0x20 DUP3 ADD MSTORE POP JUMP JUMPDEST PUSH1 0x0 PUSH2 0x30F6 PUSH1 0x2E DUP4 PUSH2 0x2936 JUMP JUMPDEST SWAP2 POP PUSH2 0x3101 DUP3 PUSH2 0x309A JUMP JUMPDEST PUSH1 0x40 DUP3 ADD SWAP1 POP SWAP2 SWAP1 POP JUMP JUMPDEST PUSH1 0x0 PUSH1 0x20 DUP3 ADD SWAP1 POP DUP2 DUP2 SUB PUSH1 0x0 DUP4 ADD MSTORE PUSH2 0x3125 DUP2 PUSH2 0x30E9 JUMP JUMPDEST SWAP1 POP SWAP2 SWAP1 POP JUMP JUMPDEST PUSH32 0x45524331393637557067726164653A20756E737570706F727465642070726F78 PUSH1 0x0 DUP3 ADD MSTORE PUSH32 0x6961626C65555549440000000000000000000000000000000000000000000000 PUSH1 0x20 DUP3 ADD MSTORE POP JUMP JUMPDEST PUSH1 0x0 PUSH2 0x3188 PUSH1 0x29 DUP4 PUSH2 0x2936 JUMP JUMPDEST SWAP2 POP PUSH2 0x3193 DUP3 PUSH2 0x312C JUMP JUMPDEST PUSH1 0x40 DUP3 ADD SWAP1 POP SWAP2 SWAP1 POP JUMP JUMPDEST PUSH1 0x0 PUSH1 0x20 DUP3 ADD SWAP1 POP DUP2 DUP2 SUB PUSH1 0x0 DUP4 ADD MSTORE PUSH2 0x31B7 DUP2 PUSH2 0x317B JUMP JUMPDEST SWAP1 POP SWAP2 SWAP1 POP JUMP JUMPDEST PUSH32 0x5061757361626C653A2070617573656400000000000000000000000000000000 PUSH1 0x0 DUP3 ADD MSTORE POP JUMP JUMPDEST PUSH1 0x0 PUSH2 0x31F4 PUSH1 0x10 DUP4 PUSH2 0x2936 JUMP JUMPDEST SWAP2 POP PUSH2 0x31FF DUP3 PUSH2 0x31BE JUMP JUMPDEST PUSH1 0x20 DUP3 ADD SWAP1 POP SWAP2 SWAP1 POP JUMP JUMPDEST PUSH1 0x0 PUSH1 0x20 DUP3 ADD SWAP1 POP DUP2 DUP2 SUB PUSH1 0x0 DUP4 ADD MSTORE PUSH2 0x3223 DUP2 PUSH2 0x31E7 JUMP JUMPDEST SWAP1 POP SWAP2 SWAP1 POP JUMP JUMPDEST PUSH1 0x0 PUSH1 0x20 DUP3 ADD SWAP1 POP PUSH2 0x323F PUSH1 0x0 DUP4 ADD DUP5 PUSH2 0x29B3 JUMP JUMPDEST SWAP3 SWAP2 POP POP JUMP JUMPDEST PUSH32 0x4E487B7100000000000000000000000000000000000000000000000000000000 PUSH1 0x0 MSTORE PUSH1 0x22 PUSH1 0x4 MSTORE PUSH1 0x24 PUSH1 0x0 REVERT JUMPDEST PUSH1 0x0 PUSH1 0x2 DUP3 DIV SWAP1 POP PUSH1 0x1 DUP3 AND DUP1 PUSH2 0x328C JUMPI PUSH1 0x7F DUP3 AND SWAP2 POP JUMPDEST PUSH1 0x20 DUP3 LT DUP2 EQ ISZERO PUSH2 0x32A0 JUMPI PUSH2 0x329F PUSH2 0x3245 JUMP JUMPDEST JUMPDEST POP SWAP2 SWAP1 POP JUMP JUMPDEST PUSH32 0x496E697469616C697A61626C653A20636F6E7472616374206973206E6F742069 PUSH1 0x0 DUP3 ADD MSTORE PUSH32 0x6E697469616C697A696E67000000000000000000000000000000000000000000 PUSH1 0x20 DUP3 ADD MSTORE POP JUMP JUMPDEST PUSH1 0x0 PUSH2 0x3302 PUSH1 0x2B DUP4 PUSH2 0x2936 JUMP JUMPDEST SWAP2 POP PUSH2 0x330D DUP3 PUSH2 0x32A6 JUMP JUMPDEST PUSH1 0x40 DUP3 ADD SWAP1 POP SWAP2 SWAP1 POP JUMP JUMPDEST PUSH1 0x0 PUSH1 0x20 DUP3 ADD SWAP1 POP DUP2 DUP2 SUB PUSH1 0x0 DUP4 ADD MSTORE PUSH2 0x3331 DUP2 PUSH2 0x32F5 JUMP JUMPDEST SWAP1 POP SWAP2 SWAP1 POP JUMP JUMPDEST PUSH1 0x0 DUP2 SWAP1 POP SWAP3 SWAP2 POP POP JUMP JUMPDEST PUSH32 0x416363657373436F6E74726F6C3A206163636F756E7420000000000000000000 PUSH1 0x0 DUP3 ADD MSTORE POP JUMP JUMPDEST PUSH1 0x0 PUSH2 0x3379 PUSH1 0x17 DUP4 PUSH2 0x3338 JUMP JUMPDEST SWAP2 POP PUSH2 0x3384 DUP3 PUSH2 0x3343 JUMP JUMPDEST PUSH1 0x17 DUP3 ADD SWAP1 POP SWAP2 SWAP1 POP JUMP JUMPDEST PUSH1 0x0 PUSH2 0x339A DUP3 PUSH2 0x292B JUMP JUMPDEST PUSH2 0x33A4 DUP2 DUP6 PUSH2 0x3338 JUMP JUMPDEST SWAP4 POP PUSH2 0x33B4 DUP2 DUP6 PUSH1 0x20 DUP7 ADD PUSH2 0x2947 JUMP JUMPDEST DUP1 DUP5 ADD SWAP2 POP POP SWAP3 SWAP2 POP POP JUMP JUMPDEST PUSH32 0x206973206D697373696E6720726F6C6520000000000000000000000000000000 PUSH1 0x0 DUP3 ADD MSTORE POP JUMP JUMPDEST PUSH1 0x0 PUSH2 0x33F6 PUSH1 0x11 DUP4 PUSH2 0x3338 JUMP JUMPDEST SWAP2 POP PUSH2 0x3401 DUP3 PUSH2 0x33C0 JUMP JUMPDEST PUSH1 0x11 DUP3 ADD SWAP1 POP SWAP2 SWAP1 POP JUMP JUMPDEST PUSH1 0x0 PUSH2 0x3417 DUP3 PUSH2 0x336C JUMP JUMPDEST SWAP2 POP PUSH2 0x3423 DUP3 DUP6 PUSH2 0x338F JUMP JUMPDEST SWAP2 POP PUSH2 0x342E DUP3 PUSH2 0x33E9 JUMP JUMPDEST SWAP2 POP PUSH2 0x343A DUP3 DUP5 PUSH2 0x338F JUMP JUMPDEST SWAP2 POP DUP2 SWAP1 POP SWAP4 SWAP3 POP POP POP JUMP JUMPDEST PUSH32 0x455243313936373A206E657720696D706C656D656E746174696F6E206973206E PUSH1 0x0 DUP3 ADD MSTORE PUSH32 0x6F74206120636F6E747261637400000000000000000000000000000000000000 PUSH1 0x20 DUP3 ADD MSTORE POP JUMP JUMPDEST PUSH1 0x0 PUSH2 0x34A2 PUSH1 0x2D DUP4 PUSH2 0x2936 JUMP JUMPDEST SWAP2 POP PUSH2 0x34AD DUP3 PUSH2 0x3446 JUMP JUMPDEST PUSH1 0x40 DUP3 ADD SWAP1 POP SWAP2 SWAP1 POP JUMP JUMPDEST PUSH1 0x0 PUSH1 0x20 DUP3 ADD SWAP1 POP DUP2 DUP2 SUB PUSH1 0x0 DUP4 ADD MSTORE PUSH2 0x34D1 DUP2 PUSH2 0x3495 JUMP JUMPDEST SWAP1 POP SWAP2 SWAP1 POP JUMP JUMPDEST PUSH32 0x5061757361626C653A206E6F7420706175736564000000000000000000000000 PUSH1 0x0 DUP3 ADD MSTORE POP JUMP JUMPDEST PUSH1 0x0 PUSH2 0x350E PUSH1 0x14 DUP4 PUSH2 0x2936 JUMP JUMPDEST SWAP2 POP PUSH2 0x3519 DUP3 PUSH2 0x34D8 JUMP JUMPDEST PUSH1 0x20 DUP3 ADD SWAP1 POP SWAP2 SWAP1 POP JUMP JUMPDEST PUSH1 0x0 PUSH1 0x20 DUP3 ADD SWAP1 POP DUP2 DUP2 SUB PUSH1 0x0 DUP4 ADD MSTORE PUSH2 0x353D DUP2 PUSH2 0x3501 JUMP JUMPDEST SWAP1 POP SWAP2 SWAP1 POP JUMP JUMPDEST PUSH32 0x4E487B7100000000000000000000000000000000000000000000000000000000 PUSH1 0x0 MSTORE PUSH1 0x11 PUSH1 0x4 MSTORE PUSH1 0x24 PUSH1 0x0 REVERT JUMPDEST PUSH1 0x0 PUSH2 0x357E DUP3 PUSH2 0x26CE JUMP JUMPDEST SWAP2 POP PUSH2 0x3589 DUP4 PUSH2 0x26CE JUMP JUMPDEST SWAP3 POP DUP2 PUSH32 0xFFFFFFFFFFFFFFFFFFFFFFFFFFFFFFFFFFFFFFFFFFFFFFFFFFFFFFFFFFFFFFFF DIV DUP4 GT DUP3 ISZERO ISZERO AND ISZERO PUSH2 0x35C2 JUMPI PUSH2 0x35C1 PUSH2 0x3544 JUMP JUMPDEST JUMPDEST DUP3 DUP3 MUL SWAP1 POP SWAP3 SWAP2 POP POP JUMP JUMPDEST PUSH1 0x0 PUSH2 0x35D8 DUP3 PUSH2 0x26CE JUMP JUMPDEST SWAP2 POP PUSH2 0x35E3 DUP4 PUSH2 0x26CE JUMP JUMPDEST SWAP3 POP DUP3 PUSH32 0xFFFFFFFFFFFFFFFFFFFFFFFFFFFFFFFFFFFFFFFFFFFFFFFFFFFFFFFFFFFFFFFF SUB DUP3 GT ISZERO PUSH2 0x3618 JUMPI PUSH2 0x3617 PUSH2 0x3544 JUMP JUMPDEST JUMPDEST DUP3 DUP3 ADD SWAP1 POP SWAP3 SWAP2 POP POP JUMP JUMPDEST PUSH32 0x4E487B7100000000000000000000000000000000000000000000000000000000 PUSH1 0x0 MSTORE PUSH1 0x32 PUSH1 0x4 MSTORE PUSH1 0x24 PUSH1 0x0 REVERT JUMPDEST PUSH1 0x0 PUSH2 0x365D DUP3 PUSH2 0x26CE JUMP JUMPDEST SWAP2 POP PUSH1 0x0 DUP3 EQ ISZERO PUSH2 0x3671 JUMPI PUSH2 0x3670 PUSH2 0x3544 JUMP JUMPDEST JUMPDEST PUSH1 0x1 DUP3 SUB SWAP1 POP SWAP2 SWAP1 POP JUMP JUMPDEST PUSH32 0x537472696E67733A20686578206C656E67746820696E73756666696369656E74 PUSH1 0x0 DUP3 ADD MSTORE POP JUMP JUMPDEST PUSH1 0x0 PUSH2 0x36B2 PUSH1 0x20 DUP4 PUSH2 0x2936 JUMP JUMPDEST SWAP2 POP PUSH2 0x36BD DUP3 PUSH2 0x367C JUMP JUMPDEST PUSH1 0x20 DUP3 ADD SWAP1 POP SWAP2 SWAP1 POP JUMP JUMPDEST PUSH1 0x0 PUSH1 0x20 DUP3 ADD SWAP1 POP DUP2 DUP2 SUB PUSH1 0x0 DUP4 ADD MSTORE PUSH2 0x36E1 DUP2 PUSH2 0x36A5 JUMP JUMPDEST SWAP1 POP SWAP2 SWAP1 POP JUMP JUMPDEST PUSH1 0x0 DUP2 MLOAD SWAP1 POP SWAP2 SWAP1 POP JUMP JUMPDEST PUSH1 0x0 DUP2 SWAP1 POP SWAP3 SWAP2 POP POP JUMP JUMPDEST PUSH1 0x0 PUSH2 0x3709 DUP3 PUSH2 0x36E8 JUMP JUMPDEST PUSH2 0x3713 DUP2 DUP6 PUSH2 0x36F3 JUMP JUMPDEST SWAP4 POP PUSH2 0x3723 DUP2 DUP6 PUSH1 0x20 DUP7 ADD PUSH2 0x2947 JUMP JUMPDEST DUP1 DUP5 ADD SWAP2 POP POP SWAP3 SWAP2 POP POP JUMP JUMPDEST PUSH1 0x0 PUSH2 0x373B DUP3 DUP5 PUSH2 0x36FE JUMP JUMPDEST SWAP2 POP DUP2 SWAP1 POP SWAP3 SWAP2 POP POP JUMP JUMPDEST PUSH32 0x416464726573733A2063616C6C20746F206E6F6E2D636F6E7472616374000000 PUSH1 0x0 DUP3 ADD MSTORE POP JUMP JUMPDEST PUSH1 0x0 PUSH2 0x377C PUSH1 0x1D DUP4 PUSH2 0x2936 JUMP JUMPDEST SWAP2 POP PUSH2 0x3787 DUP3 PUSH2 0x3746 JUMP JUMPDEST PUSH1 0x20 DUP3 ADD SWAP1 POP SWAP2 SWAP1 POP JUMP JUMPDEST PUSH1 0x0 PUSH1 0x20 DUP3 ADD SWAP1 POP DUP2 DUP2 SUB PUSH1 0x0 DUP4 ADD MSTORE PUSH2 0x37AB DUP2 PUSH2 0x376F JUMP JUMPDEST SWAP1 POP SWAP2 SWAP1 POP JUMP INVALID GASLIMIT 0x49 POP CALLDATACOPY BALANCE ORIGIN DIFFICULTY PUSH16 0x6D61696E28737472696E67206E616D65 0x2C PUSH20 0x7472696E672076657273696F6E2C75696E743235 CALLDATASIZE KECCAK256 PUSH4 0x6861696E 0x49 PUSH5 0x2C61646472 PUSH6 0x737320766572 PUSH10 0x6679696E67436F6E7472 PUSH2 0x6374 0x29 COINBASE PUSH5 0x6472657373 GASPRICE KECCAK256 PUSH13 0x6F772D6C6576656C2064656C65 PUSH8 0x6174652063616C6C KECCAK256 PUSH7 0x61696C6564A264 PUSH10 0x706673582212209F1959 LOG4 SWAP5 0xD9 0xD8 0xF8 PUSH23 0xF1A5A83D7A4878527D0B2D19B3677B5E32C9F6DB3AD10B PUSH5 0x736F6C6343 STOP ADDMOD MULMOD STOP CALLER "},"methodIdentifiers":{"DEFAULT_ADMIN_ROLE()":"a217fddf","DOMAIN_SEPARATOR()":"3644e515","EIP712_DOMAIN_TYPEHASH()":"c7977be7","PAUSER_ROLE()":"e63ab1e9","PAYMENT_TYPEHASH()":"6d3298cb","addAdmin(address)":"70480275","addPauser(address)":"82dc1ec4","cancelSwap((bytes32,address,uint256))":"5752c59a","eip712Domain()":"84b0196e","getRoleAdmin(bytes32)":"248a9ca3","grantRole(bytes32,address)":"2f2ff15d","hasRole(bytes32,address)":"91d14854","initialize(address)":"c4d66de8","isAdmin(address)":"24d7806c","isPauser(address)":"46fbf68e","makeSwap(((address,address),(address,address),address,address,address,uint256,uint256))":"d55a5778","nonces(address)":"7ecebe00","paginationSize()":"3d538ecf","pause()":"8456cb59","paused()":"5c975abb","proxiableUUID()":"52d1902d","removeAdmin(address)":"1785f53c","removePauser(address)":"6b2c0f55","renounceRole(bytes32,address)":"36568abe","revokeRole(bytes32,address)":"d547741f","setPaginationSize(uint256)":"f2407ca4","supportsInterface(bytes4)":"01ffc9a7","takeSwap((bytes32,(address,address),address,address,address))":"3d17cac7","unpause()":"3f4ba83a","upgradeTo(address)":"3659cfe6","upgradeToAndCall(address,bytes)":"4f1ef286"}},"storageLayout":{"storage":[{"astId":851,"contract":"contracts/v2/AtomicSwapV2.sol:AtomicSwapV2","label":"_initialized","offset":0,"slot":"0","type":"t_uint8"},{"astId":854,"contract":"contracts/v2/AtomicSwapV2.sol:AtomicSwapV2","label":"_initializing","offset":1,"slot":"0","type":"t_bool"},{"astId":833,"contract":"contracts/v2/AtomicSwapV2.sol:AtomicSwapV2","label":"__gap","offset":0,"slot":"1","type":"t_array(t_uint256)50_storage"},{"astId":1148,"contract":"contracts/v2/AtomicSwapV2.sol:AtomicSwapV2","label":"__gap","offset":0,"slot":"51","type":"t_array(t_uint256)50_storage"},{"astId":2371,"contract":"contracts/v2/AtomicSwapV2.sol:AtomicSwapV2","label":"_hashedName","offset":0,"slot":"101","type":"t_bytes32"},{"astId":2374,"contract":"contracts/v2/AtomicSwapV2.sol:AtomicSwapV2","label":"_hashedVersion","offset":0,"slot":"102","type":"t_bytes32"},{"astId":2376,"contract":"contracts/v2/AtomicSwapV2.sol:AtomicSwapV2","label":"_name","offset":0,"slot":"103","type":"t_string_storage"},{"astId":2378,"contract":"contracts/v2/AtomicSwapV2.sol:AtomicSwapV2","label":"_version","offset":0,"slot":"104","type":"t_string_storage"},{"astId":2636,"contract":"contracts/v2/AtomicSwapV2.sol:AtomicSwapV2","label":"__gap","offset":0,"slot":"105","type":"t_array(t_uint256)48_storage"},{"astId":1647,"contract":"contracts/v2/AtomicSwapV2.sol:AtomicSwapV2","label":"__gap","offset":0,"slot":"153","type":"t_array(t_uint256)50_storage"},{"astId":1170,"contract":"contracts/v2/AtomicSwapV2.sol:AtomicSwapV2","label":"_paused","offset":0,"slot":"203","type":"t_bool"},{"astId":1275,"contract":"contracts/v2/AtomicSwapV2.sol:AtomicSwapV2","label":"__gap","offset":0,"slot":"204","type":"t_array(t_uint256)49_storage"},{"astId":2683,"contract":"contracts/v2/AtomicSwapV2.sol:AtomicSwapV2","label":"__gap","offset":0,"slot":"253","type":"t_array(t_uint256)50_storage"},{"astId":85,"contract":"contracts/v2/AtomicSwapV2.sol:AtomicSwapV2","label":"_roles","offset":0,"slot":"303","type":"t_mapping(t_bytes32,t_struct(RoleData)80_storage)"},{"astId":380,"contract":"contracts/v2/AtomicSwapV2.sol:AtomicSwapV2","label":"__gap","offset":0,"slot":"304","type":"t_array(t_uint256)49_storage"},{"astId":4765,"contract":"contracts/v2/AtomicSwapV2.sol:AtomicSwapV2","label":"paginationSize","offset":0,"slot":"353","type":"t_uint256"},{"astId":4386,"contract":"contracts/v2/AtomicSwapV2.sol:AtomicSwapV2","label":"swap_order_ids","offset":0,"slot":"354","type":"t_struct(Set)3678_storage"},{"astId":4390,"contract":"contracts/v2/AtomicSwapV2.sol:AtomicSwapV2","label":"swap_orders","offset":0,"slot":"356","type":"t_array(t_struct(AtomicSwapOrder)4539_storage)dyn_storage"},{"astId":4392,"contract":"contracts/v2/AtomicSwapV2.sol:AtomicSwapV2","label":"DOMAIN_SEPARATOR","offset":0,"slot":"357","type":"t_bytes32"},{"astId":4404,"contract":"contracts/v2/AtomicSwapV2.sol:AtomicSwapV2","label":"nonces","offset":0,"slot":"358","type":"t_mapping(t_address,t_uint256)"}],"types":{"t_address":{"encoding":"inplace","label":"address","numberOfBytes":"20"},"t_array(t_bytes32)dyn_storage":{"base":"t_bytes32","encoding":"dynamic_array","label":"bytes32[]","numberOfBytes":"32"},"t_array(t_struct(AtomicSwapOrder)4539_storage)dyn_storage":{"base":"t_struct(AtomicSwapOrder)4539_storage","encoding":"dynamic_array","label":"struct IAtomicSwap.AtomicSwapOrder[]","numberOfBytes":"32"},"t_array(t_uint256)48_storage":{"base":"t_uint256","encoding":"inplace","label":"uint256[48]","numberOfBytes":"1536"},"t_array(t_uint256)49_storage":{"base":"t_uint256","encoding":"inplace","label":"uint256[49]","numberOfBytes":"1568"},"t_array(t_uint256)50_storage":{"base":"t_uint256","encoding":"inplace","label":"uint256[50]","numberOfBytes":"1600"},"t_bool":{"encoding":"inplace","label":"bool","numberOfBytes":"1"},"t_bytes32":{"encoding":"inplace","label":"bytes32","numberOfBytes":"32"},"t_enum(Side)4510":{"encoding":"inplace","label":"enum IAtomicSwap.Side","numberOfBytes":"1"},"t_enum(Status)4516":{"encoding":"inplace","label":"enum IAtomicSwap.Status","numberOfBytes":"1"},"t_mapping(t_address,t_bool)":{"encoding":"mapping","key":"t_address","label":"mapping(address => bool)","numberOfBytes":"32","value":"t_bool"},"t_mapping(t_address,t_uint256)":{"encoding":"mapping","key":"t_address","label":"mapping(address => uint256)","numberOfBytes":"32","value":"t_uint256"},"t_mapping(t_bytes32,t_struct(RoleData)80_storage)":{"encoding":"mapping","key":"t_bytes32","label":"mapping(bytes32 => struct AccessControlUpgradeable.RoleData)","numberOfBytes":"32","value":"t_struct(RoleData)80_storage"},"t_mapping(t_bytes32,t_uint256)":{"encoding":"mapping","key":"t_bytes32","label":"mapping(bytes32 => uint256)","numberOfBytes":"32","value":"t_uint256"},"t_string_storage":{"encoding":"bytes","label":"string","numberOfBytes":"32"},"t_struct(AtomicSwapOrder)4539_storage":{"encoding":"inplace","label":"struct IAtomicSwap.AtomicSwapOrder","members":[{"astId":4518,"contract":"contracts/v2/AtomicSwapV2.sol:AtomicSwapV2","label":"id","offset":0,"slot":"0","type":"t_bytes32"},{"astId":4521,"contract":"contracts/v2/AtomicSwapV2.sol:AtomicSwapV2","label":"side","offset":0,"slot":"1","type":"t_enum(Side)4510"},{"astId":4524,"contract":"contracts/v2/AtomicSwapV2.sol:AtomicSwapV2","label":"maker","offset":0,"slot":"2","type":"t_struct(MakeSwapMsg)4561_storage"},{"astId":4527,"contract":"contracts/v2/AtomicSwapV2.sol:AtomicSwapV2","label":"status","offset":0,"slot":"11","type":"t_enum(Status)4516"},{"astId":4530,"contract":"contracts/v2/AtomicSwapV2.sol:AtomicSwapV2","label":"taker","offset":0,"slot":"12","type":"t_struct(TakeSwapMsg)4573_storage"},{"astId":4532,"contract":"contracts/v2/AtomicSwapV2.sol:AtomicSwapV2","label":"bridge","offset":0,"slot":"18","type":"t_address"},{"astId":4534,"contract":"contracts/v2/AtomicSwapV2.sol:AtomicSwapV2","label":"create_at","offset":0,"slot":"19","type":"t_uint256"},{"astId":4536,"contract":"contracts/v2/AtomicSwapV2.sol:AtomicSwapV2","label":"cancel_at","offset":0,"slot":"20","type":"t_uint256"},{"astId":4538,"contract":"contracts/v2/AtomicSwapV2.sol:AtomicSwapV2","label":"complete_at","offset":0,"slot":"21","type":"t_uint256"}],"numberOfBytes":"704"},"t_struct(Coin)4544_storage":{"encoding":"inplace","label":"struct IAtomicSwap.Coin","members":[{"astId":4541,"contract":"contracts/v2/AtomicSwapV2.sol:AtomicSwapV2","label":"token","offset":0,"slot":"0","type":"t_address"},{"astId":4543,"contract":"contracts/v2/AtomicSwapV2.sol:AtomicSwapV2","label":"amount","offset":0,"slot":"1","type":"t_address"}],"numberOfBytes":"64"},"t_struct(MakeSwapMsg)4561_storage":{"encoding":"inplace","label":"struct IAtomicSwap.MakeSwapMsg","members":[{"astId":4547,"contract":"contracts/v2/AtomicSwapV2.sol:AtomicSwapV2","label":"sell_token","offset":0,"slot":"0","type":"t_struct(Coin)4544_storage"},{"astId":4550,"contract":"contracts/v2/AtomicSwapV2.sol:AtomicSwapV2","label":"buy_token","offset":0,"slot":"2","type":"t_struct(Coin)4544_storage"},{"astId":4552,"contract":"contracts/v2/AtomicSwapV2.sol:AtomicSwapV2","label":"maker_sender","offset":0,"slot":"4","type":"t_address"},{"astId":4554,"contract":"contracts/v2/AtomicSwapV2.sol:AtomicSwapV2","label":"maker_receiver","offset":0,"slot":"5","type":"t_address"},{"astId":4556,"contract":"contracts/v2/AtomicSwapV2.sol:AtomicSwapV2","label":"desired_taker","offset":0,"slot":"6","type":"t_address"},{"astId":4558,"contract":"contracts/v2/AtomicSwapV2.sol:AtomicSwapV2","label":"created_at","offset":0,"slot":"7","type":"t_uint256"},{"astId":4560,"contract":"contracts/v2/AtomicSwapV2.sol:AtomicSwapV2","label":"expire_at","offset":0,"slot":"8","type":"t_uint256"}],"numberOfBytes":"288"},"t_struct(RoleData)80_storage":{"encoding":"inplace","label":"struct AccessControlUpgradeable.RoleData","members":[{"astId":77,"contract":"contracts/v2/AtomicSwapV2.sol:AtomicSwapV2","label":"members","offset":0,"slot":"0","type":"t_mapping(t_address,t_bool)"},{"astId":79,"contract":"contracts/v2/AtomicSwapV2.sol:AtomicSwapV2","label":"adminRole","offset":0,"slot":"1","type":"t_bytes32"}],"numberOfBytes":"64"},"t_struct(Set)3678_storage":{"encoding":"inplace","label":"struct EnumerableSetUpgradeable.Set","members":[{"astId":3673,"contract":"contracts/v2/AtomicSwapV2.sol:AtomicSwapV2","label":"_values","offset":0,"slot":"0","type":"t_array(t_bytes32)dyn_storage"},{"astId":3677,"contract":"contracts/v2/AtomicSwapV2.sol:AtomicSwapV2","label":"_indexes","offset":0,"slot":"1","type":"t_mapping(t_bytes32,t_uint256)"}],"numberOfBytes":"64"},"t_struct(TakeSwapMsg)4573_storage":{"encoding":"inplace","label":"struct IAtomicSwap.TakeSwapMsg","members":[{"astId":4563,"contract":"contracts/v2/AtomicSwapV2.sol:AtomicSwapV2","label":"order_id","offset":0,"slot":"0","type":"t_bytes32"},{"astId":4566,"contract":"contracts/v2/AtomicSwapV2.sol:AtomicSwapV2","label":"sell_token","offset":0,"slot":"1","type":"t_struct(Coin)4544_storage"},{"astId":4568,"contract":"contracts/v2/AtomicSwapV2.sol:AtomicSwapV2","label":"taker","offset":0,"slot":"3","type":"t_address"},{"astId":4570,"contract":"contracts/v2/AtomicSwapV2.sol:AtomicSwapV2","label":"taker_receiving_address","offset":0,"slot":"4","type":"t_address"},{"astId":4572,"contract":"contracts/v2/AtomicSwapV2.sol:AtomicSwapV2","label":"created_at","offset":0,"slot":"5","type":"t_address"}],"numberOfBytes":"192"},"t_uint256":{"encoding":"inplace","label":"uint256","numberOfBytes":"32"},"t_uint8":{"encoding":"inplace","label":"uint8","numberOfBytes":"1"}}}}}}