{"contracts/InterchainSwap.sol":{"InterchainSwap":{"abi":[{"anonymous":false,"inputs":[{"indexed":false,"internalType":"address","name":"previousAdmin","type":"address"},{"indexed":false,"internalType":"address","name":"newAdmin","type":"address"}],"name":"AdminChanged","type":"event"},{"anonymous":false,"inputs":[{"indexed":true,"internalType":"address","name":"beacon","type":"address"}],"name":"BeaconUpgraded","type":"event"},{"anonymous":false,"inputs":[],"name":"EIP712DomainChanged","type":"event"},{"anonymous":false,"inputs":[{"indexed":false,"internalType":"uint8","name":"version","type":"uint8"}],"name":"Initialized","type":"event"},{"anonymous":false,"inputs":[{"indexed":false,"internalType":"address","name":"account","type":"address"}],"name":"Paused","type":"event"},{"anonymous":false,"inputs":[{"indexed":true,"internalType":"address","name":"payer","type":"address"},{"indexed":false,"internalType":"uint256","name":"amount","type":"uint256"},{"indexed":false,"internalType":"uint256","name":"daoShare","type":"uint256"},{"indexed":false,"internalType":"uint256","name":"burned","type":"uint256"}],"name":"PaymentReceived","type":"event"},{"anonymous":false,"inputs":[{"indexed":true,"internalType":"bytes32","name":"role","type":"bytes32"},{"indexed":true,"internalType":"bytes32","name":"previousAdminRole","type":"bytes32"},{"indexed":true,"internalType":"bytes32","name":"newAdminRole","type":"bytes32"}],"name":"RoleAdminChanged","type":"event"},{"anonymous":false,"inputs":[{"indexed":true,"internalType":"bytes32","name":"role","type":"bytes32"},{"indexed":true,"internalType":"address","name":"account","type":"address"},{"indexed":true,"internalType":"address","name":"sender","type":"address"}],"name":"RoleGranted","type":"event"},{"anonymous":false,"inputs":[{"indexed":true,"internalType":"bytes32","name":"role","type":"bytes32"},{"indexed":true,"internalType":"address","name":"account","type":"address"},{"indexed":true,"internalType":"address","name":"sender","type":"address"}],"name":"RoleRevoked","type":"event"},{"anonymous":false,"inputs":[{"indexed":false,"internalType":"address","name":"account","type":"address"}],"name":"Unpaused","type":"event"},{"anonymous":false,"inputs":[{"indexed":true,"internalType":"address","name":"implementation","type":"address"}],"name":"Upgraded","type":"event"},{"inputs":[],"name":"DEFAULT_ADMIN_ROLE","outputs":[{"internalType":"bytes32","name":"","type":"bytes32"}],"stateMutability":"view","type":"function"},{"inputs":[],"name":"PAUSER_ROLE","outputs":[{"internalType":"bytes32","name":"","type":"bytes32"}],"stateMutability":"view","type":"function"},{"inputs":[{"internalType":"address","name":"_account","type":"address"}],"name":"addAdmin","outputs":[],"stateMutability":"nonpayable","type":"function"},{"inputs":[{"internalType":"address","name":"_account","type":"address"}],"name":"addPauser","outputs":[],"stateMutability":"nonpayable","type":"function"},{"inputs":[],"name":"eip712Domain","outputs":[{"internalType":"bytes1","name":"fields","type":"bytes1"},{"internalType":"string","name":"name","type":"string"},{"internalType":"string","name":"version","type":"string"},{"internalType":"uint256","name":"chainId","type":"uint256"},{"internalType":"address","name":"verifyingContract","type":"address"},{"internalType":"bytes32","name":"salt","type":"bytes32"},{"internalType":"uint256[]","name":"extensions","type":"uint256[]"}],"stateMutability":"view","type":"function"},{"inputs":[{"internalType":"bytes32","name":"role","type":"bytes32"}],"name":"getRoleAdmin","outputs":[{"internalType":"bytes32","name":"","type":"bytes32"}],"stateMutability":"view","type":"function"},{"inputs":[{"internalType":"bytes32","name":"role","type":"bytes32"},{"internalType":"address","name":"account","type":"address"}],"name":"grantRole","outputs":[],"stateMutability":"nonpayable","type":"function"},{"inputs":[{"internalType":"bytes32","name":"role","type":"bytes32"},{"internalType":"address","name":"account","type":"address"}],"name":"hasRole","outputs":[{"internalType":"bool","name":"","type":"bool"}],"stateMutability":"view","type":"function"},{"inputs":[{"internalType":"address","name":"_admin","type":"address"}],"name":"initialize","outputs":[],"stateMutability":"nonpayable","type":"function"},{"inputs":[{"internalType":"address","name":"_account","type":"address"}],"name":"isAdmin","outputs":[{"internalType":"bool","name":"","type":"bool"}],"stateMutability":"view","type":"function"},{"inputs":[{"internalType":"address","name":"_account","type":"address"}],"name":"isPauser","outputs":[{"internalType":"bool","name":"","type":"bool"}],"stateMutability":"view","type":"function"},{"inputs":[],"name":"paginationSize","outputs":[{"internalType":"uint256","name":"","type":"uint256"}],"stateMutability":"view","type":"function"},{"inputs":[],"name":"pause","outputs":[],"stateMutability":"nonpayable","type":"function"},{"inputs":[],"name":"paused","outputs":[{"internalType":"bool","name":"","type":"bool"}],"stateMutability":"view","type":"function"},{"inputs":[],"name":"proxiableUUID","outputs":[{"internalType":"bytes32","name":"","type":"bytes32"}],"stateMutability":"view","type":"function"},{"inputs":[{"internalType":"address","name":"_account","type":"address"}],"name":"removeAdmin","outputs":[],"stateMutability":"nonpayable","type":"function"},{"inputs":[{"internalType":"address","name":"_account","type":"address"}],"name":"removePauser","outputs":[],"stateMutability":"nonpayable","type":"function"},{"inputs":[{"internalType":"bytes32","name":"role","type":"bytes32"},{"internalType":"address","name":"account","type":"address"}],"name":"renounceRole","outputs":[],"stateMutability":"nonpayable","type":"function"},{"inputs":[{"internalType":"bytes32","name":"role","type":"bytes32"},{"internalType":"address","name":"account","type":"address"}],"name":"revokeRole","outputs":[],"stateMutability":"nonpayable","type":"function"},{"inputs":[{"internalType":"uint256","name":"_paginationSize","type":"uint256"}],"name":"setPaginationSize","outputs":[],"stateMutability":"nonpayable","type":"function"},{"inputs":[{"internalType":"bytes4","name":"interfaceId","type":"bytes4"}],"name":"supportsInterface","outputs":[{"internalType":"bool","name":"","type":"bool"}],"stateMutability":"view","type":"function"},{"inputs":[],"name":"unpause","outputs":[],"stateMutability":"nonpayable","type":"function"},{"inputs":[{"internalType":"address","name":"newImplementation","type":"address"}],"name":"upgradeTo","outputs":[],"stateMutability":"nonpayable","type":"function"},{"inputs":[{"internalType":"address","name":"newImplementation","type":"address"},{"internalType":"bytes","name":"data","type":"bytes"}],"name":"upgradeToAndCall","outputs":[],"stateMutability":"payable","type":"function"}],"evm":{"bytecode":{"linkReferences":{},"object":"60a06040523073ffffffffffffffffffffffffffffffffffffffff1660809073ffffffffffffffffffffffffffffffffffffffff1681525034801561004357600080fd5b5060805161350461007b600039600081816106d4015281816107630152818161090a015281816109990152610a4901526135046000f3fe60806040526004361061014b5760003560e01c80635c975abb116100b657806391d148541161006f57806391d148541461045f578063a217fddf1461049c578063c4d66de8146104c7578063d547741f146104f0578063e63ab1e914610519578063f2407ca4146105445761014b565b80635c975abb146103715780636b2c0f551461039c57806370480275146103c557806382dc1ec4146103ee5780638456cb591461041757806384b0196e1461042e5761014b565b80633659cfe6116101085780633659cfe6146102825780633d538ecf146102ab5780633f4ba83a146102d657806346fbf68e146102ed5780634f1ef2861461032a57806352d1902d146103465761014b565b806301ffc9a7146101505780631785f53c1461018d578063248a9ca3146101b657806324d7806c146101f35780632f2ff15d1461023057806336568abe14610259575b600080fd5b34801561015c57600080fd5b50610177600480360381019061017291906122a2565b61056d565b60405161018491906122ea565b60405180910390f35b34801561019957600080fd5b506101b460048036038101906101af9190612363565b6105e7565b005b3480156101c257600080fd5b506101dd60048036038101906101d891906123c6565b6105f7565b6040516101ea9190612402565b60405180910390f35b3480156101ff57600080fd5b5061021a60048036038101906102159190612363565b610618565b60405161022791906122ea565b60405180910390f35b34801561023c57600080fd5b506102576004803603810190610252919061241d565b61062e565b005b34801561026557600080fd5b50610280600480360381019061027b919061241d565b61064f565b005b34801561028e57600080fd5b506102a960048036038101906102a49190612363565b6106d2565b005b3480156102b757600080fd5b506102c061085b565b6040516102cd9190612476565b60405180910390f35b3480156102e257600080fd5b506102eb610862565b005b3480156102f957600080fd5b50610314600480360381019061030f9190612363565b6108d5565b60405161032191906122ea565b60405180910390f35b610344600480360381019061033f91906125d7565b610908565b005b34801561035257600080fd5b5061035b610a45565b6040516103689190612402565b60405180910390f35b34801561037d57600080fd5b50610386610afe565b60405161039391906122ea565b60405180910390f35b3480156103a857600080fd5b506103c360048036038101906103be9190612363565b610b15565b005b3480156103d157600080fd5b506103ec60048036038101906103e79190612363565b610b42565b005b3480156103fa57600080fd5b5061041560048036038101906104109190612363565b610b52565b005b34801561042357600080fd5b5061042c610b7f565b005b34801561043a57600080fd5b50610443610bf2565b60405161045697969594939291906127c3565b60405180910390f35b34801561046b57600080fd5b506104866004803603810190610481919061241d565b610cf3565b60405161049391906122ea565b60405180910390f35b3480156104a857600080fd5b506104b1610d5f565b6040516104be9190612402565b60405180910390f35b3480156104d357600080fd5b506104ee60048036038101906104e99190612363565b610d66565b005b3480156104fc57600080fd5b506105176004803603810190610512919061241d565b610f1a565b005b34801561052557600080fd5b5061052e610f3b565b60405161053b9190612402565b60405180910390f35b34801561055057600080fd5b5061056b60048036038101906105669190612873565b610f5f565b005b60007f7965db0b000000000000000000000000000000000000000000000000000000007bffffffffffffffffffffffffffffffffffffffffffffffffffffffff1916827bffffffffffffffffffffffffffffffffffffffffffffffffffffffff191614806105e057506105df82610ff9565b5b9050919050565b6105f46000801b82610f1a565b50565b600061012f6000838152602001908152602001600020600101549050919050565b60006106276000801b83610cf3565b9050919050565b610637826105f7565b61064081611063565b61064a8383611077565b505050565b610657611159565b73ffffffffffffffffffffffffffffffffffffffff168173ffffffffffffffffffffffffffffffffffffffff16146106c4576040517f08c379a00000000000000000000000000000000000000000000000000000000081526004016106bb90612912565b60405180910390fd5b6106ce8282611161565b5050565b7f000000000000000000000000000000000000000000000000000000000000000073ffffffffffffffffffffffffffffffffffffffff163073ffffffffffffffffffffffffffffffffffffffff161415610761576040517f08c379a0000000000000000000000000000000000000000000000000000000008152600401610758906129a4565b60405180910390fd5b7f000000000000000000000000000000000000000000000000000000000000000073ffffffffffffffffffffffffffffffffffffffff166107a0611244565b73ffffffffffffffffffffffffffffffffffffffff16146107f6576040517f08c379a00000000000000000000000000000000000000000000000000000000081526004016107ed90612a36565b60405180910390fd5b6107ff8161129b565b61085881600067ffffffffffffffff81111561081e5761081d6124ac565b5b6040519080825280601f01601f1916602001820160405280156108505781602001600182028036833780820191505090505b5060006112ea565b50565b6101615481565b61088c7f65d7a28e3265b37a6474929f336521b332c1681b933f6cb9f3376673440d862a33610cf3565b6108cb576040517f08c379a00000000000000000000000000000000000000000000000000000000081526004016108c290612aa2565b60405180910390fd5b6108d3611467565b565b60006109017f65d7a28e3265b37a6474929f336521b332c1681b933f6cb9f3376673440d862a83610cf3565b9050919050565b7f000000000000000000000000000000000000000000000000000000000000000073ffffffffffffffffffffffffffffffffffffffff163073ffffffffffffffffffffffffffffffffffffffff161415610997576040517f08c379a000000000000000000000000000000000000000000000000000000000815260040161098e906129a4565b60405180910390fd5b7f000000000000000000000000000000000000000000000000000000000000000073ffffffffffffffffffffffffffffffffffffffff166109d6611244565b73ffffffffffffffffffffffffffffffffffffffff1614610a2c576040517f08c379a0000000000000000000000000000000000000000000000000000000008152600401610a2390612a36565b60405180910390fd5b610a358261129b565b610a41828260016112ea565b5050565b60007f000000000000000000000000000000000000000000000000000000000000000073ffffffffffffffffffffffffffffffffffffffff163073ffffffffffffffffffffffffffffffffffffffff1614610ad5576040517f08c379a0000000000000000000000000000000000000000000000000000000008152600401610acc90612b34565b60405180910390fd5b7f360894a13ba1a3210667c828492db98dca3e2076cc3735a920a3ca505d382bbc60001b905090565b600060cb60009054906101000a900460ff16905090565b610b3f7f65d7a28e3265b37a6474929f336521b332c1681b933f6cb9f3376673440d862a82610f1a565b50565b610b4f6000801b8261062e565b50565b610b7c7f65d7a28e3265b37a6474929f336521b332c1681b933f6cb9f3376673440d862a8261062e565b50565b610ba97f65d7a28e3265b37a6474929f336521b332c1681b933f6cb9f3376673440d862a33610cf3565b610be8576040517f08c379a0000000000000000000000000000000000000000000000000000000008152600401610bdf90612aa2565b60405180910390fd5b610bf06114ca565b565b6000606080600080600060606000801b606554148015610c1657506000801b606654145b610c55576040517f08c379a0000000000000000000000000000000000000000000000000000000008152600401610c4c90612ba0565b60405180910390fd5b610c5d61152d565b610c656115bf565b46306000801b600067ffffffffffffffff811115610c8657610c856124ac565b5b604051908082528060200260200182016040528015610cb45781602001602082028036833780820191505090505b507f0f00000000000000000000000000000000000000000000000000000000000000959493929190965096509650965096509650965090919293949596565b600061012f600084815260200190815260200160002060000160008373ffffffffffffffffffffffffffffffffffffffff1673ffffffffffffffffffffffffffffffffffffffff16815260200190815260200160002060009054906101000a900460ff16905092915050565b6000801b81565b60008060019054906101000a900460ff16159050808015610d975750600160008054906101000a900460ff1660ff16105b80610dc45750610da630611651565b158015610dc35750600160008054906101000a900460ff1660ff16145b5b610e03576040517f08c379a0000000000000000000000000000000000000000000000000000000008152600401610dfa90612c32565b60405180910390fd5b60016000806101000a81548160ff021916908360ff1602179055508015610e40576001600060016101000a81548160ff0219169083151502179055505b610e4982611674565b610ebd6040518060400160405280600e81526020017f494e544552434841494e535741500000000000000000000000000000000000008152506040518060400160405280600181526020017f31000000000000000000000000000000000000000000000000000000000000008152506117d5565b8015610f165760008060016101000a81548160ff0219169083151502179055507f7f26b83ff96e1f2b6a682f133852f6798a09c465da95921460cefb38474024986001604051610f0d9190612ca4565b60405180910390a15b5050565b610f23826105f7565b610f2c81611063565b610f368383611161565b505050565b7f65d7a28e3265b37a6474929f336521b332c1681b933f6cb9f3376673440d862a81565b610f6c6000801b33610cf3565b610fab576040517f08c379a0000000000000000000000000000000000000000000000000000000008152600401610fa290612aa2565b60405180910390fd5b60008111610fee576040517f08c379a0000000000000000000000000000000000000000000000000000000008152600401610fe590612d0b565b60405180910390fd5b806101618190555050565b60007f01ffc9a7000000000000000000000000000000000000000000000000000000007bffffffffffffffffffffffffffffffffffffffffffffffffffffffff1916827bffffffffffffffffffffffffffffffffffffffffffffffffffffffff1916149050919050565b6110748161106f611159565b611832565b50565b6110818282610cf3565b61115557600161012f600084815260200190815260200160002060000160008373ffffffffffffffffffffffffffffffffffffffff1673ffffffffffffffffffffffffffffffffffffffff16815260200190815260200160002060006101000a81548160ff0219169083151502179055506110fa611159565b73ffffffffffffffffffffffffffffffffffffffff168173ffffffffffffffffffffffffffffffffffffffff16837f2f8788117e7eff1d82e926ec794901d17c78024a50270940304540a733656f0d60405160405180910390a45b5050565b600033905090565b61116b8282610cf3565b1561124057600061012f600084815260200190815260200160002060000160008373ffffffffffffffffffffffffffffffffffffffff1673ffffffffffffffffffffffffffffffffffffffff16815260200190815260200160002060006101000a81548160ff0219169083151502179055506111e5611159565b73ffffffffffffffffffffffffffffffffffffffff168173ffffffffffffffffffffffffffffffffffffffff16837ff6391f5c32d9c69d2a47ea670b442974b53935d1edc7fd64eb21e047a839171b60405160405180910390a45b5050565b60006112727f360894a13ba1a3210667c828492db98dca3e2076cc3735a920a3ca505d382bbc60001b6118b7565b60000160009054906101000a900473ffffffffffffffffffffffffffffffffffffffff16905090565b6112a86000801b33610cf3565b6112e7576040517f08c379a00000000000000000000000000000000000000000000000000000000081526004016112de90612aa2565b60405180910390fd5b50565b6113167f4910fdfa16fed3260ed0e7147f7cc6da11a60208b5b9406d12a635614ffd914360001b6118c1565b60000160009054906101000a900460ff161561133a57611335836118cb565b611462565b8273ffffffffffffffffffffffffffffffffffffffff166352d1902d6040518163ffffffff1660e01b815260040160206040518083038186803b15801561138057600080fd5b505afa9250505080156113b157506040513d601f19601f820116820180604052508101906113ae9190612d40565b60015b6113f0576040517f08c379a00000000000000000000000000000000000000000000000000000000081526004016113e790612ddf565b60405180910390fd5b7f360894a13ba1a3210667c828492db98dca3e2076cc3735a920a3ca505d382bbc60001b8114611455576040517f08c379a000000000000000000000000000000000000000000000000000000000815260040161144c90612e71565b60405180910390fd5b50611461838383611984565b5b505050565b61146f6119b0565b600060cb60006101000a81548160ff0219169083151502179055507f5db9ee0a495bf2e6ff9c91a7834c1ba4fdd244a5e8aa4e537bd38aeae4b073aa6114b3611159565b6040516114c09190612e91565b60405180910390a1565b6114d26119f9565b600160cb60006101000a81548160ff0219169083151502179055507f62e78cea01bee320cd4e420270b5ea74000d11b0c9f74754ebdbfc544b05a258611516611159565b6040516115239190612e91565b60405180910390a1565b60606067805461153c90612edb565b80601f016020809104026020016040519081016040528092919081815260200182805461156890612edb565b80156115b55780601f1061158a576101008083540402835291602001916115b5565b820191906000526020600020905b81548152906001019060200180831161159857829003601f168201915b5050505050905090565b6060606880546115ce90612edb565b80601f01602080910402602001604051908101604052809291908181526020018280546115fa90612edb565b80156116475780601f1061161c57610100808354040283529160200191611647565b820191906000526020600020905b81548152906001019060200180831161162a57829003601f168201915b5050505050905090565b6000808273ffffffffffffffffffffffffffffffffffffffff163b119050919050565b60008060019054906101000a900460ff161590508080156116a55750600160008054906101000a900460ff1660ff16105b806116d257506116b430611651565b1580156116d15750600160008054906101000a900460ff1660ff16145b5b611711576040517f08c379a000000000000000000000000000000000000000000000000000000000815260040161170890612c32565b60405180910390fd5b60016000806101000a81548160ff021916908360ff160217905550801561174e576001600060016101000a81548160ff0219169083151502179055505b611756611a43565b61175e611a94565b611766611ae5565b61176f82611b51565b60646101618190555080156117d15760008060016101000a81548160ff0219169083151502179055507f7f26b83ff96e1f2b6a682f133852f6798a09c465da95921460cefb384740249860016040516117c89190612ca4565b60405180910390a15b5050565b600060019054906101000a900460ff16611824576040517f08c379a000000000000000000000000000000000000000000000000000000000815260040161181b90612f7f565b60405180910390fd5b61182e8282611cbf565b5050565b61183c8282610cf3565b6118b35761184981611d54565b6118578360001c6020611d81565b604051602001611868929190613073565b6040516020818303038152906040526040517f08c379a00000000000000000000000000000000000000000000000000000000081526004016118aa91906130ad565b60405180910390fd5b5050565b6000819050919050565b6000819050919050565b6118d481611651565b611913576040517f08c379a000000000000000000000000000000000000000000000000000000000815260040161190a90613141565b60405180910390fd5b806119407f360894a13ba1a3210667c828492db98dca3e2076cc3735a920a3ca505d382bbc60001b6118b7565b60000160006101000a81548173ffffffffffffffffffffffffffffffffffffffff021916908373ffffffffffffffffffffffffffffffffffffffff16021790555050565b61198d83611fbd565b60008251118061199a5750805b156119ab576119a9838361200c565b505b505050565b6119b8610afe565b6119f7576040517f08c379a00000000000000000000000000000000000000000000000000000000081526004016119ee906131ad565b60405180910390fd5b565b611a01610afe565b15611a41576040517f08c379a0000000000000000000000000000000000000000000000000000000008152600401611a3890613219565b60405180910390fd5b565b600060019054906101000a900460ff16611a92576040517f08c379a0000000000000000000000000000000000000000000000000000000008152600401611a8990612f7f565b60405180910390fd5b565b600060019054906101000a900460ff16611ae3576040517f08c379a0000000000000000000000000000000000000000000000000000000008152600401611ada90612f7f565b60405180910390fd5b565b600060019054906101000a900460ff16611b34576040517f08c379a0000000000000000000000000000000000000000000000000000000008152600401611b2b90612f7f565b60405180910390fd5b600060cb60006101000a81548160ff021916908315150217905550565b60008060019054906101000a900460ff16159050808015611b825750600160008054906101000a900460ff1660ff16105b80611baf5750611b9130611651565b158015611bae5750600160008054906101000a900460ff1660ff16145b5b611bee576040517f08c379a0000000000000000000000000000000000000000000000000000000008152600401611be590612c32565b60405180910390fd5b60016000806101000a81548160ff021916908360ff1602179055508015611c2b576001600060016101000a81548160ff0219169083151502179055505b611c386000801b83612039565b611c627f65d7a28e3265b37a6474929f336521b332c1681b933f6cb9f3376673440d862a83612039565b8015611cbb5760008060016101000a81548160ff0219169083151502179055507f7f26b83ff96e1f2b6a682f133852f6798a09c465da95921460cefb38474024986001604051611cb29190612ca4565b60405180910390a15b5050565b600060019054906101000a900460ff16611d0e576040517f08c379a0000000000000000000000000000000000000000000000000000000008152600401611d0590612f7f565b60405180910390fd5b8160679080519060200190611d24929190612193565b508060689080519060200190611d3b929190612193565b506000801b6065819055506000801b6066819055505050565b6060611d7a8273ffffffffffffffffffffffffffffffffffffffff16601460ff16611d81565b9050919050565b606060006002836002611d949190613268565b611d9e91906132c2565b67ffffffffffffffff811115611db757611db66124ac565b5b6040519080825280601f01601f191660200182016040528015611de95781602001600182028036833780820191505090505b5090507f300000000000000000000000000000000000000000000000000000000000000081600081518110611e2157611e20613318565b5b60200101907effffffffffffffffffffffffffffffffffffffffffffffffffffffffffffff1916908160001a9053507f780000000000000000000000000000000000000000000000000000000000000081600181518110611e8557611e84613318565b5b60200101907effffffffffffffffffffffffffffffffffffffffffffffffffffffffffffff1916908160001a90535060006001846002611ec59190613268565b611ecf91906132c2565b90505b6001811115611f6f577f3031323334353637383961626364656600000000000000000000000000000000600f861660108110611f1157611f10613318565b5b1a60f81b828281518110611f2857611f27613318565b5b60200101907effffffffffffffffffffffffffffffffffffffffffffffffffffffffffffff1916908160001a905350600485901c945080611f6890613347565b9050611ed2565b5060008414611fb3576040517f08c379a0000000000000000000000000000000000000000000000000000000008152600401611faa906133bd565b60405180910390fd5b8091505092915050565b611fc6816118cb565b8073ffffffffffffffffffffffffffffffffffffffff167fbc7cd75a20ee27fd9adebab32041f755214dbc6bffa90cc0225b39da2e5c2d3b60405160405180910390a250565b606061203183836040518060600160405280602781526020016134a860279139612047565b905092915050565b6120438282611077565b5050565b60606000808573ffffffffffffffffffffffffffffffffffffffff16856040516120719190613424565b600060405180830381855af49150503d80600081146120ac576040519150601f19603f3d011682016040523d82523d6000602084013e6120b1565b606091505b50915091506120c2868383876120cd565b925050509392505050565b6060831561213057600083511415612128576120e885611651565b612127576040517f08c379a000000000000000000000000000000000000000000000000000000000815260040161211e90613487565b60405180910390fd5b5b82905061213b565b61213a8383612143565b5b949350505050565b6000825111156121565781518083602001fd5b806040517f08c379a000000000000000000000000000000000000000000000000000000000815260040161218a91906130ad565b60405180910390fd5b82805461219f90612edb565b90600052602060002090601f0160209004810192826121c15760008555612208565b82601f106121da57805160ff1916838001178555612208565b82800160010185558215612208579182015b828111156122075782518255916020019190600101906121ec565b5b5090506122159190612219565b5090565b5b8082111561223257600081600090555060010161221a565b5090565b6000604051905090565b600080fd5b600080fd5b60007fffffffff0000000000000000000000000000000000000000000000000000000082169050919050565b61227f8161224a565b811461228a57600080fd5b50565b60008135905061229c81612276565b92915050565b6000602082840312156122b8576122b7612240565b5b60006122c68482850161228d565b91505092915050565b60008115159050919050565b6122e4816122cf565b82525050565b60006020820190506122ff60008301846122db565b92915050565b600073ffffffffffffffffffffffffffffffffffffffff82169050919050565b600061233082612305565b9050919050565b61234081612325565b811461234b57600080fd5b50565b60008135905061235d81612337565b92915050565b60006020828403121561237957612378612240565b5b60006123878482850161234e565b91505092915050565b6000819050919050565b6123a381612390565b81146123ae57600080fd5b50565b6000813590506123c08161239a565b92915050565b6000602082840312156123dc576123db612240565b5b60006123ea848285016123b1565b91505092915050565b6123fc81612390565b82525050565b600060208201905061241760008301846123f3565b92915050565b6000806040838503121561243457612433612240565b5b6000612442858286016123b1565b92505060206124538582860161234e565b9150509250929050565b6000819050919050565b6124708161245d565b82525050565b600060208201905061248b6000830184612467565b92915050565b600080fd5b600080fd5b6000601f19601f8301169050919050565b7f4e487b7100000000000000000000000000000000000000000000000000000000600052604160045260246000fd5b6124e48261249b565b810181811067ffffffffffffffff82111715612503576125026124ac565b5b80604052505050565b6000612516612236565b905061252282826124db565b919050565b600067ffffffffffffffff821115612542576125416124ac565b5b61254b8261249b565b9050602081019050919050565b82818337600083830152505050565b600061257a61257584612527565b61250c565b90508281526020810184848401111561259657612595612496565b5b6125a1848285612558565b509392505050565b600082601f8301126125be576125bd612491565b5b81356125ce848260208601612567565b91505092915050565b600080604083850312156125ee576125ed612240565b5b60006125fc8582860161234e565b925050602083013567ffffffffffffffff81111561261d5761261c612245565b5b612629858286016125a9565b9150509250929050565b60007fff0000000000000000000000000000000000000000000000000000000000000082169050919050565b61266881612633565b82525050565b600081519050919050565b600082825260208201905092915050565b60005b838110156126a857808201518184015260208101905061268d565b838111156126b7576000848401525b50505050565b60006126c88261266e565b6126d28185612679565b93506126e281856020860161268a565b6126eb8161249b565b840191505092915050565b6126ff81612325565b82525050565b600081519050919050565b600082825260208201905092915050565b6000819050602082019050919050565b61273a8161245d565b82525050565b600061274c8383612731565b60208301905092915050565b6000602082019050919050565b600061277082612705565b61277a8185612710565b935061278583612721565b8060005b838110156127b657815161279d8882612740565b97506127a883612758565b925050600181019050612789565b5085935050505092915050565b600060e0820190506127d8600083018a61265f565b81810360208301526127ea81896126bd565b905081810360408301526127fe81886126bd565b905061280d6060830187612467565b61281a60808301866126f6565b61282760a08301856123f3565b81810360c08301526128398184612765565b905098975050505050505050565b6128508161245d565b811461285b57600080fd5b50565b60008135905061286d81612847565b92915050565b60006020828403121561288957612888612240565b5b60006128978482850161285e565b91505092915050565b7f416363657373436f6e74726f6c3a2063616e206f6e6c792072656e6f756e636560008201527f20726f6c657320666f722073656c660000000000000000000000000000000000602082015250565b60006128fc602f83612679565b9150612907826128a0565b604082019050919050565b6000602082019050818103600083015261292b816128ef565b9050919050565b7f46756e6374696f6e206d7573742062652063616c6c6564207468726f7567682060008201527f64656c656761746563616c6c0000000000000000000000000000000000000000602082015250565b600061298e602c83612679565b915061299982612932565b604082019050919050565b600060208201905081810360008301526129bd81612981565b9050919050565b7f46756e6374696f6e206d7573742062652063616c6c6564207468726f7567682060008201527f6163746976652070726f78790000000000000000000000000000000000000000602082015250565b6000612a20602c83612679565b9150612a2b826129c4565b604082019050919050565b60006020820190508181036000830152612a4f81612a13565b9050919050565b7f4f776e61626c655061757361626c653a206163636573732064656e6965640000600082015250565b6000612a8c601e83612679565b9150612a9782612a56565b602082019050919050565b60006020820190508181036000830152612abb81612a7f565b9050919050565b7f555550535570677261646561626c653a206d757374206e6f742062652063616c60008201527f6c6564207468726f7567682064656c656761746563616c6c0000000000000000602082015250565b6000612b1e603883612679565b9150612b2982612ac2565b604082019050919050565b60006020820190508181036000830152612b4d81612b11565b9050919050565b7f4549503731323a20556e696e697469616c697a65640000000000000000000000600082015250565b6000612b8a601583612679565b9150612b9582612b54565b602082019050919050565b60006020820190508181036000830152612bb981612b7d565b9050919050565b7f496e697469616c697a61626c653a20636f6e747261637420697320616c72656160008201527f647920696e697469616c697a6564000000000000000000000000000000000000602082015250565b6000612c1c602e83612679565b9150612c2782612bc0565b604082019050919050565b60006020820190508181036000830152612c4b81612c0f565b9050919050565b6000819050919050565b600060ff82169050919050565b6000819050919050565b6000612c8e612c89612c8484612c52565b612c69565b612c5c565b9050919050565b612c9e81612c73565b82525050565b6000602082019050612cb96000830184612c95565b92915050565b7f4d6f726967696e4170703a20696e76616c69642076616c756521000000000000600082015250565b6000612cf5601a83612679565b9150612d0082612cbf565b602082019050919050565b60006020820190508181036000830152612d2481612ce8565b9050919050565b600081519050612d3a8161239a565b92915050565b600060208284031215612d5657612d55612240565b5b6000612d6484828501612d2b565b91505092915050565b7f45524331393637557067726164653a206e657720696d706c656d656e7461746960008201527f6f6e206973206e6f742055555053000000000000000000000000000000000000602082015250565b6000612dc9602e83612679565b9150612dd482612d6d565b604082019050919050565b60006020820190508181036000830152612df881612dbc565b9050919050565b7f45524331393637557067726164653a20756e737570706f727465642070726f7860008201527f6961626c65555549440000000000000000000000000000000000000000000000602082015250565b6000612e5b602983612679565b9150612e6682612dff565b604082019050919050565b60006020820190508181036000830152612e8a81612e4e565b9050919050565b6000602082019050612ea660008301846126f6565b92915050565b7f4e487b7100000000000000000000000000000000000000000000000000000000600052602260045260246000fd5b60006002820490506001821680612ef357607f821691505b60208210811415612f0757612f06612eac565b5b50919050565b7f496e697469616c697a61626c653a20636f6e7472616374206973206e6f74206960008201527f6e697469616c697a696e67000000000000000000000000000000000000000000602082015250565b6000612f69602b83612679565b9150612f7482612f0d565b604082019050919050565b60006020820190508181036000830152612f9881612f5c565b9050919050565b600081905092915050565b7f416363657373436f6e74726f6c3a206163636f756e7420000000000000000000600082015250565b6000612fe0601783612f9f565b9150612feb82612faa565b601782019050919050565b60006130018261266e565b61300b8185612f9f565b935061301b81856020860161268a565b80840191505092915050565b7f206973206d697373696e6720726f6c6520000000000000000000000000000000600082015250565b600061305d601183612f9f565b915061306882613027565b601182019050919050565b600061307e82612fd3565b915061308a8285612ff6565b915061309582613050565b91506130a18284612ff6565b91508190509392505050565b600060208201905081810360008301526130c781846126bd565b905092915050565b7f455243313936373a206e657720696d706c656d656e746174696f6e206973206e60008201527f6f74206120636f6e747261637400000000000000000000000000000000000000602082015250565b600061312b602d83612679565b9150613136826130cf565b604082019050919050565b6000602082019050818103600083015261315a8161311e565b9050919050565b7f5061757361626c653a206e6f7420706175736564000000000000000000000000600082015250565b6000613197601483612679565b91506131a282613161565b602082019050919050565b600060208201905081810360008301526131c68161318a565b9050919050565b7f5061757361626c653a2070617573656400000000000000000000000000000000600082015250565b6000613203601083612679565b915061320e826131cd565b602082019050919050565b60006020820190508181036000830152613232816131f6565b9050919050565b7f4e487b7100000000000000000000000000000000000000000000000000000000600052601160045260246000fd5b60006132738261245d565b915061327e8361245d565b9250817fffffffffffffffffffffffffffffffffffffffffffffffffffffffffffffffff04831182151516156132b7576132b6613239565b5b828202905092915050565b60006132cd8261245d565b91506132d88361245d565b9250827fffffffffffffffffffffffffffffffffffffffffffffffffffffffffffffffff0382111561330d5761330c613239565b5b828201905092915050565b7f4e487b7100000000000000000000000000000000000000000000000000000000600052603260045260246000fd5b60006133528261245d565b9150600082141561336657613365613239565b5b600182039050919050565b7f537472696e67733a20686578206c656e67746820696e73756666696369656e74600082015250565b60006133a7602083612679565b91506133b282613371565b602082019050919050565b600060208201905081810360008301526133d68161339a565b9050919050565b600081519050919050565b600081905092915050565b60006133fe826133dd565b61340881856133e8565b935061341881856020860161268a565b80840191505092915050565b600061343082846133f3565b915081905092915050565b7f416464726573733a2063616c6c20746f206e6f6e2d636f6e7472616374000000600082015250565b6000613471601d83612679565b915061347c8261343b565b602082019050919050565b600060208201905081810360008301526134a081613464565b905091905056fe416464726573733a206c6f772d6c6576656c2064656c65676174652063616c6c206661696c6564a2646970667358221220c725573a1771dbfb93014dff31d838c00832f5729d107ce122ba5ca7d9bd217664736f6c63430008090033","opcodes":"PUSH1 0xA0 PUSH1 0x40 MSTORE ADDRESS PUSH20 0xFFFFFFFFFFFFFFFFFFFFFFFFFFFFFFFFFFFFFFFF AND PUSH1 0x80 SWAP1 PUSH20 0xFFFFFFFFFFFFFFFFFFFFFFFFFFFFFFFFFFFFFFFF AND DUP2 MSTORE POP CALLVALUE DUP1 ISZERO PUSH2 0x43 JUMPI PUSH1 0x0 DUP1 REVERT JUMPDEST POP PUSH1 0x80 MLOAD PUSH2 0x3504 PUSH2 0x7B PUSH1 0x0 CODECOPY PUSH1 0x0 DUP2 DUP2 PUSH2 0x6D4 ADD MSTORE DUP2 DUP2 PUSH2 0x763 ADD MSTORE DUP2 DUP2 PUSH2 0x90A ADD MSTORE DUP2 DUP2 PUSH2 0x999 ADD MSTORE PUSH2 0xA49 ADD MSTORE PUSH2 0x3504 PUSH1 0x0 RETURN INVALID PUSH1 0x80 PUSH1 0x40 MSTORE PUSH1 0x4 CALLDATASIZE LT PUSH2 0x14B JUMPI PUSH1 0x0 CALLDATALOAD PUSH1 0xE0 SHR DUP1 PUSH4 0x5C975ABB GT PUSH2 0xB6 JUMPI DUP1 PUSH4 0x91D14854 GT PUSH2 0x6F JUMPI DUP1 PUSH4 0x91D14854 EQ PUSH2 0x45F JUMPI DUP1 PUSH4 0xA217FDDF EQ PUSH2 0x49C JUMPI DUP1 PUSH4 0xC4D66DE8 EQ PUSH2 0x4C7 JUMPI DUP1 PUSH4 0xD547741F EQ PUSH2 0x4F0 JUMPI DUP1 PUSH4 0xE63AB1E9 EQ PUSH2 0x519 JUMPI DUP1 PUSH4 0xF2407CA4 EQ PUSH2 0x544 JUMPI PUSH2 0x14B JUMP JUMPDEST DUP1 PUSH4 0x5C975ABB EQ PUSH2 0x371 JUMPI DUP1 PUSH4 0x6B2C0F55 EQ PUSH2 0x39C JUMPI DUP1 PUSH4 0x70480275 EQ PUSH2 0x3C5 JUMPI DUP1 PUSH4 0x82DC1EC4 EQ PUSH2 0x3EE JUMPI DUP1 PUSH4 0x8456CB59 EQ PUSH2 0x417 JUMPI DUP1 PUSH4 0x84B0196E EQ PUSH2 0x42E JUMPI PUSH2 0x14B JUMP JUMPDEST DUP1 PUSH4 0x3659CFE6 GT PUSH2 0x108 JUMPI DUP1 PUSH4 0x3659CFE6 EQ PUSH2 0x282 JUMPI DUP1 PUSH4 0x3D538ECF EQ PUSH2 0x2AB JUMPI DUP1 PUSH4 0x3F4BA83A EQ PUSH2 0x2D6 JUMPI DUP1 PUSH4 0x46FBF68E EQ PUSH2 0x2ED JUMPI DUP1 PUSH4 0x4F1EF286 EQ PUSH2 0x32A JUMPI DUP1 PUSH4 0x52D1902D EQ PUSH2 0x346 JUMPI PUSH2 0x14B JUMP JUMPDEST DUP1 PUSH4 0x1FFC9A7 EQ PUSH2 0x150 JUMPI DUP1 PUSH4 0x1785F53C EQ PUSH2 0x18D JUMPI DUP1 PUSH4 0x248A9CA3 EQ PUSH2 0x1B6 JUMPI DUP1 PUSH4 0x24D7806C EQ PUSH2 0x1F3 JUMPI DUP1 PUSH4 0x2F2FF15D EQ PUSH2 0x230 JUMPI DUP1 PUSH4 0x36568ABE EQ PUSH2 0x259 JUMPI JUMPDEST PUSH1 0x0 DUP1 REVERT JUMPDEST CALLVALUE DUP1 ISZERO PUSH2 0x15C JUMPI PUSH1 0x0 DUP1 REVERT JUMPDEST POP PUSH2 0x177 PUSH1 0x4 DUP1 CALLDATASIZE SUB DUP2 ADD SWAP1 PUSH2 0x172 SWAP2 SWAP1 PUSH2 0x22A2 JUMP JUMPDEST PUSH2 0x56D JUMP JUMPDEST PUSH1 0x40 MLOAD PUSH2 0x184 SWAP2 SWAP1 PUSH2 0x22EA JUMP JUMPDEST PUSH1 0x40 MLOAD DUP1 SWAP2 SUB SWAP1 RETURN JUMPDEST CALLVALUE DUP1 ISZERO PUSH2 0x199 JUMPI PUSH1 0x0 DUP1 REVERT JUMPDEST POP PUSH2 0x1B4 PUSH1 0x4 DUP1 CALLDATASIZE SUB DUP2 ADD SWAP1 PUSH2 0x1AF SWAP2 SWAP1 PUSH2 0x2363 JUMP JUMPDEST PUSH2 0x5E7 JUMP JUMPDEST STOP JUMPDEST CALLVALUE DUP1 ISZERO PUSH2 0x1C2 JUMPI PUSH1 0x0 DUP1 REVERT JUMPDEST POP PUSH2 0x1DD PUSH1 0x4 DUP1 CALLDATASIZE SUB DUP2 ADD SWAP1 PUSH2 0x1D8 SWAP2 SWAP1 PUSH2 0x23C6 JUMP JUMPDEST PUSH2 0x5F7 JUMP JUMPDEST PUSH1 0x40 MLOAD PUSH2 0x1EA SWAP2 SWAP1 PUSH2 0x2402 JUMP JUMPDEST PUSH1 0x40 MLOAD DUP1 SWAP2 SUB SWAP1 RETURN JUMPDEST CALLVALUE DUP1 ISZERO PUSH2 0x1FF JUMPI PUSH1 0x0 DUP1 REVERT JUMPDEST POP PUSH2 0x21A PUSH1 0x4 DUP1 CALLDATASIZE SUB DUP2 ADD SWAP1 PUSH2 0x215 SWAP2 SWAP1 PUSH2 0x2363 JUMP JUMPDEST PUSH2 0x618 JUMP JUMPDEST PUSH1 0x40 MLOAD PUSH2 0x227 SWAP2 SWAP1 PUSH2 0x22EA JUMP JUMPDEST PUSH1 0x40 MLOAD DUP1 SWAP2 SUB SWAP1 RETURN JUMPDEST CALLVALUE DUP1 ISZERO PUSH2 0x23C JUMPI PUSH1 0x0 DUP1 REVERT JUMPDEST POP PUSH2 0x257 PUSH1 0x4 DUP1 CALLDATASIZE SUB DUP2 ADD SWAP1 PUSH2 0x252 SWAP2 SWAP1 PUSH2 0x241D JUMP JUMPDEST PUSH2 0x62E JUMP JUMPDEST STOP JUMPDEST CALLVALUE DUP1 ISZERO PUSH2 0x265 JUMPI PUSH1 0x0 DUP1 REVERT JUMPDEST POP PUSH2 0x280 PUSH1 0x4 DUP1 CALLDATASIZE SUB DUP2 ADD SWAP1 PUSH2 0x27B SWAP2 SWAP1 PUSH2 0x241D JUMP JUMPDEST PUSH2 0x64F JUMP JUMPDEST STOP JUMPDEST CALLVALUE DUP1 ISZERO PUSH2 0x28E JUMPI PUSH1 0x0 DUP1 REVERT JUMPDEST POP PUSH2 0x2A9 PUSH1 0x4 DUP1 CALLDATASIZE SUB DUP2 ADD SWAP1 PUSH2 0x2A4 SWAP2 SWAP1 PUSH2 0x2363 JUMP JUMPDEST PUSH2 0x6D2 JUMP JUMPDEST STOP JUMPDEST CALLVALUE DUP1 ISZERO PUSH2 0x2B7 JUMPI PUSH1 0x0 DUP1 REVERT JUMPDEST POP PUSH2 0x2C0 PUSH2 0x85B JUMP JUMPDEST PUSH1 0x40 MLOAD PUSH2 0x2CD SWAP2 SWAP1 PUSH2 0x2476 JUMP JUMPDEST PUSH1 0x40 MLOAD DUP1 SWAP2 SUB SWAP1 RETURN JUMPDEST CALLVALUE DUP1 ISZERO PUSH2 0x2E2 JUMPI PUSH1 0x0 DUP1 REVERT JUMPDEST POP PUSH2 0x2EB PUSH2 0x862 JUMP JUMPDEST STOP JUMPDEST CALLVALUE DUP1 ISZERO PUSH2 0x2F9 JUMPI PUSH1 0x0 DUP1 REVERT JUMPDEST POP PUSH2 0x314 PUSH1 0x4 DUP1 CALLDATASIZE SUB DUP2 ADD SWAP1 PUSH2 0x30F SWAP2 SWAP1 PUSH2 0x2363 JUMP JUMPDEST PUSH2 0x8D5 JUMP JUMPDEST PUSH1 0x40 MLOAD PUSH2 0x321 SWAP2 SWAP1 PUSH2 0x22EA JUMP JUMPDEST PUSH1 0x40 MLOAD DUP1 SWAP2 SUB SWAP1 RETURN JUMPDEST PUSH2 0x344 PUSH1 0x4 DUP1 CALLDATASIZE SUB DUP2 ADD SWAP1 PUSH2 0x33F SWAP2 SWAP1 PUSH2 0x25D7 JUMP JUMPDEST PUSH2 0x908 JUMP JUMPDEST STOP JUMPDEST CALLVALUE DUP1 ISZERO PUSH2 0x352 JUMPI PUSH1 0x0 DUP1 REVERT JUMPDEST POP PUSH2 0x35B PUSH2 0xA45 JUMP JUMPDEST PUSH1 0x40 MLOAD PUSH2 0x368 SWAP2 SWAP1 PUSH2 0x2402 JUMP JUMPDEST PUSH1 0x40 MLOAD DUP1 SWAP2 SUB SWAP1 RETURN JUMPDEST CALLVALUE DUP1 ISZERO PUSH2 0x37D JUMPI PUSH1 0x0 DUP1 REVERT JUMPDEST POP PUSH2 0x386 PUSH2 0xAFE JUMP JUMPDEST PUSH1 0x40 MLOAD PUSH2 0x393 SWAP2 SWAP1 PUSH2 0x22EA JUMP JUMPDEST PUSH1 0x40 MLOAD DUP1 SWAP2 SUB SWAP1 RETURN JUMPDEST CALLVALUE DUP1 ISZERO PUSH2 0x3A8 JUMPI PUSH1 0x0 DUP1 REVERT JUMPDEST POP PUSH2 0x3C3 PUSH1 0x4 DUP1 CALLDATASIZE SUB DUP2 ADD SWAP1 PUSH2 0x3BE SWAP2 SWAP1 PUSH2 0x2363 JUMP JUMPDEST PUSH2 0xB15 JUMP JUMPDEST STOP JUMPDEST CALLVALUE DUP1 ISZERO PUSH2 0x3D1 JUMPI PUSH1 0x0 DUP1 REVERT JUMPDEST POP PUSH2 0x3EC PUSH1 0x4 DUP1 CALLDATASIZE SUB DUP2 ADD SWAP1 PUSH2 0x3E7 SWAP2 SWAP1 PUSH2 0x2363 JUMP JUMPDEST PUSH2 0xB42 JUMP JUMPDEST STOP JUMPDEST CALLVALUE DUP1 ISZERO PUSH2 0x3FA JUMPI PUSH1 0x0 DUP1 REVERT JUMPDEST POP PUSH2 0x415 PUSH1 0x4 DUP1 CALLDATASIZE SUB DUP2 ADD SWAP1 PUSH2 0x410 SWAP2 SWAP1 PUSH2 0x2363 JUMP JUMPDEST PUSH2 0xB52 JUMP JUMPDEST STOP JUMPDEST CALLVALUE DUP1 ISZERO PUSH2 0x423 JUMPI PUSH1 0x0 DUP1 REVERT JUMPDEST POP PUSH2 0x42C PUSH2 0xB7F JUMP JUMPDEST STOP JUMPDEST CALLVALUE DUP1 ISZERO PUSH2 0x43A JUMPI PUSH1 0x0 DUP1 REVERT JUMPDEST POP PUSH2 0x443 PUSH2 0xBF2 JUMP JUMPDEST PUSH1 0x40 MLOAD PUSH2 0x456 SWAP8 SWAP7 SWAP6 SWAP5 SWAP4 SWAP3 SWAP2 SWAP1 PUSH2 0x27C3 JUMP JUMPDEST PUSH1 0x40 MLOAD DUP1 SWAP2 SUB SWAP1 RETURN JUMPDEST CALLVALUE DUP1 ISZERO PUSH2 0x46B JUMPI PUSH1 0x0 DUP1 REVERT JUMPDEST POP PUSH2 0x486 PUSH1 0x4 DUP1 CALLDATASIZE SUB DUP2 ADD SWAP1 PUSH2 0x481 SWAP2 SWAP1 PUSH2 0x241D JUMP JUMPDEST PUSH2 0xCF3 JUMP JUMPDEST PUSH1 0x40 MLOAD PUSH2 0x493 SWAP2 SWAP1 PUSH2 0x22EA JUMP JUMPDEST PUSH1 0x40 MLOAD DUP1 SWAP2 SUB SWAP1 RETURN JUMPDEST CALLVALUE DUP1 ISZERO PUSH2 0x4A8 JUMPI PUSH1 0x0 DUP1 REVERT JUMPDEST POP PUSH2 0x4B1 PUSH2 0xD5F JUMP JUMPDEST PUSH1 0x40 MLOAD PUSH2 0x4BE SWAP2 SWAP1 PUSH2 0x2402 JUMP JUMPDEST PUSH1 0x40 MLOAD DUP1 SWAP2 SUB SWAP1 RETURN JUMPDEST CALLVALUE DUP1 ISZERO PUSH2 0x4D3 JUMPI PUSH1 0x0 DUP1 REVERT JUMPDEST POP PUSH2 0x4EE PUSH1 0x4 DUP1 CALLDATASIZE SUB DUP2 ADD SWAP1 PUSH2 0x4E9 SWAP2 SWAP1 PUSH2 0x2363 JUMP JUMPDEST PUSH2 0xD66 JUMP JUMPDEST STOP JUMPDEST CALLVALUE DUP1 ISZERO PUSH2 0x4FC JUMPI PUSH1 0x0 DUP1 REVERT JUMPDEST POP PUSH2 0x517 PUSH1 0x4 DUP1 CALLDATASIZE SUB DUP2 ADD SWAP1 PUSH2 0x512 SWAP2 SWAP1 PUSH2 0x241D JUMP JUMPDEST PUSH2 0xF1A JUMP JUMPDEST STOP JUMPDEST CALLVALUE DUP1 ISZERO PUSH2 0x525 JUMPI PUSH1 0x0 DUP1 REVERT JUMPDEST POP PUSH2 0x52E PUSH2 0xF3B JUMP JUMPDEST PUSH1 0x40 MLOAD PUSH2 0x53B SWAP2 SWAP1 PUSH2 0x2402 JUMP JUMPDEST PUSH1 0x40 MLOAD DUP1 SWAP2 SUB SWAP1 RETURN JUMPDEST CALLVALUE DUP1 ISZERO PUSH2 0x550 JUMPI PUSH1 0x0 DUP1 REVERT JUMPDEST POP PUSH2 0x56B PUSH1 0x4 DUP1 CALLDATASIZE SUB DUP2 ADD SWAP1 PUSH2 0x566 SWAP2 SWAP1 PUSH2 0x2873 JUMP JUMPDEST PUSH2 0xF5F JUMP JUMPDEST STOP JUMPDEST PUSH1 0x0 PUSH32 0x7965DB0B00000000000000000000000000000000000000000000000000000000 PUSH28 0xFFFFFFFFFFFFFFFFFFFFFFFFFFFFFFFFFFFFFFFFFFFFFFFFFFFFFFFF NOT AND DUP3 PUSH28 0xFFFFFFFFFFFFFFFFFFFFFFFFFFFFFFFFFFFFFFFFFFFFFFFFFFFFFFFF NOT AND EQ DUP1 PUSH2 0x5E0 JUMPI POP PUSH2 0x5DF DUP3 PUSH2 0xFF9 JUMP JUMPDEST JUMPDEST SWAP1 POP SWAP2 SWAP1 POP JUMP JUMPDEST PUSH2 0x5F4 PUSH1 0x0 DUP1 SHL DUP3 PUSH2 0xF1A JUMP JUMPDEST POP JUMP JUMPDEST PUSH1 0x0 PUSH2 0x12F PUSH1 0x0 DUP4 DUP2 MSTORE PUSH1 0x20 ADD SWAP1 DUP2 MSTORE PUSH1 0x20 ADD PUSH1 0x0 KECCAK256 PUSH1 0x1 ADD SLOAD SWAP1 POP SWAP2 SWAP1 POP JUMP JUMPDEST PUSH1 0x0 PUSH2 0x627 PUSH1 0x0 DUP1 SHL DUP4 PUSH2 0xCF3 JUMP JUMPDEST SWAP1 POP SWAP2 SWAP1 POP JUMP JUMPDEST PUSH2 0x637 DUP3 PUSH2 0x5F7 JUMP JUMPDEST PUSH2 0x640 DUP2 PUSH2 0x1063 JUMP JUMPDEST PUSH2 0x64A DUP4 DUP4 PUSH2 0x1077 JUMP JUMPDEST POP POP POP JUMP JUMPDEST PUSH2 0x657 PUSH2 0x1159 JUMP JUMPDEST PUSH20 0xFFFFFFFFFFFFFFFFFFFFFFFFFFFFFFFFFFFFFFFF AND DUP2 PUSH20 0xFFFFFFFFFFFFFFFFFFFFFFFFFFFFFFFFFFFFFFFF AND EQ PUSH2 0x6C4 JUMPI PUSH1 0x40 MLOAD PUSH32 0x8C379A000000000000000000000000000000000000000000000000000000000 DUP2 MSTORE PUSH1 0x4 ADD PUSH2 0x6BB SWAP1 PUSH2 0x2912 JUMP JUMPDEST PUSH1 0x40 MLOAD DUP1 SWAP2 SUB SWAP1 REVERT JUMPDEST PUSH2 0x6CE DUP3 DUP3 PUSH2 0x1161 JUMP JUMPDEST POP POP JUMP JUMPDEST PUSH32 0x0 PUSH20 0xFFFFFFFFFFFFFFFFFFFFFFFFFFFFFFFFFFFFFFFF AND ADDRESS PUSH20 0xFFFFFFFFFFFFFFFFFFFFFFFFFFFFFFFFFFFFFFFF AND EQ ISZERO PUSH2 0x761 JUMPI PUSH1 0x40 MLOAD PUSH32 0x8C379A000000000000000000000000000000000000000000000000000000000 DUP2 MSTORE PUSH1 0x4 ADD PUSH2 0x758 SWAP1 PUSH2 0x29A4 JUMP JUMPDEST PUSH1 0x40 MLOAD DUP1 SWAP2 SUB SWAP1 REVERT JUMPDEST PUSH32 0x0 PUSH20 0xFFFFFFFFFFFFFFFFFFFFFFFFFFFFFFFFFFFFFFFF AND PUSH2 0x7A0 PUSH2 0x1244 JUMP JUMPDEST PUSH20 0xFFFFFFFFFFFFFFFFFFFFFFFFFFFFFFFFFFFFFFFF AND EQ PUSH2 0x7F6 JUMPI PUSH1 0x40 MLOAD PUSH32 0x8C379A000000000000000000000000000000000000000000000000000000000 DUP2 MSTORE PUSH1 0x4 ADD PUSH2 0x7ED SWAP1 PUSH2 0x2A36 JUMP JUMPDEST PUSH1 0x40 MLOAD DUP1 SWAP2 SUB SWAP1 REVERT JUMPDEST PUSH2 0x7FF DUP2 PUSH2 0x129B JUMP JUMPDEST PUSH2 0x858 DUP2 PUSH1 0x0 PUSH8 0xFFFFFFFFFFFFFFFF DUP2 GT ISZERO PUSH2 0x81E JUMPI PUSH2 0x81D PUSH2 0x24AC JUMP JUMPDEST JUMPDEST PUSH1 0x40 MLOAD SWAP1 DUP1 DUP3 MSTORE DUP1 PUSH1 0x1F ADD PUSH1 0x1F NOT AND PUSH1 0x20 ADD DUP3 ADD PUSH1 0x40 MSTORE DUP1 ISZERO PUSH2 0x850 JUMPI DUP2 PUSH1 0x20 ADD PUSH1 0x1 DUP3 MUL DUP1 CALLDATASIZE DUP4 CALLDATACOPY DUP1 DUP3 ADD SWAP2 POP POP SWAP1 POP JUMPDEST POP PUSH1 0x0 PUSH2 0x12EA JUMP JUMPDEST POP JUMP JUMPDEST PUSH2 0x161 SLOAD DUP2 JUMP JUMPDEST PUSH2 0x88C PUSH32 0x65D7A28E3265B37A6474929F336521B332C1681B933F6CB9F3376673440D862A CALLER PUSH2 0xCF3 JUMP JUMPDEST PUSH2 0x8CB JUMPI PUSH1 0x40 MLOAD PUSH32 0x8C379A000000000000000000000000000000000000000000000000000000000 DUP2 MSTORE PUSH1 0x4 ADD PUSH2 0x8C2 SWAP1 PUSH2 0x2AA2 JUMP JUMPDEST PUSH1 0x40 MLOAD DUP1 SWAP2 SUB SWAP1 REVERT JUMPDEST PUSH2 0x8D3 PUSH2 0x1467 JUMP JUMPDEST JUMP JUMPDEST PUSH1 0x0 PUSH2 0x901 PUSH32 0x65D7A28E3265B37A6474929F336521B332C1681B933F6CB9F3376673440D862A DUP4 PUSH2 0xCF3 JUMP JUMPDEST SWAP1 POP SWAP2 SWAP1 POP JUMP JUMPDEST PUSH32 0x0 PUSH20 0xFFFFFFFFFFFFFFFFFFFFFFFFFFFFFFFFFFFFFFFF AND ADDRESS PUSH20 0xFFFFFFFFFFFFFFFFFFFFFFFFFFFFFFFFFFFFFFFF AND EQ ISZERO PUSH2 0x997 JUMPI PUSH1 0x40 MLOAD PUSH32 0x8C379A000000000000000000000000000000000000000000000000000000000 DUP2 MSTORE PUSH1 0x4 ADD PUSH2 0x98E SWAP1 PUSH2 0x29A4 JUMP JUMPDEST PUSH1 0x40 MLOAD DUP1 SWAP2 SUB SWAP1 REVERT JUMPDEST PUSH32 0x0 PUSH20 0xFFFFFFFFFFFFFFFFFFFFFFFFFFFFFFFFFFFFFFFF AND PUSH2 0x9D6 PUSH2 0x1244 JUMP JUMPDEST PUSH20 0xFFFFFFFFFFFFFFFFFFFFFFFFFFFFFFFFFFFFFFFF AND EQ PUSH2 0xA2C JUMPI PUSH1 0x40 MLOAD PUSH32 0x8C379A000000000000000000000000000000000000000000000000000000000 DUP2 MSTORE PUSH1 0x4 ADD PUSH2 0xA23 SWAP1 PUSH2 0x2A36 JUMP JUMPDEST PUSH1 0x40 MLOAD DUP1 SWAP2 SUB SWAP1 REVERT JUMPDEST PUSH2 0xA35 DUP3 PUSH2 0x129B JUMP JUMPDEST PUSH2 0xA41 DUP3 DUP3 PUSH1 0x1 PUSH2 0x12EA JUMP JUMPDEST POP POP JUMP JUMPDEST PUSH1 0x0 PUSH32 0x0 PUSH20 0xFFFFFFFFFFFFFFFFFFFFFFFFFFFFFFFFFFFFFFFF AND ADDRESS PUSH20 0xFFFFFFFFFFFFFFFFFFFFFFFFFFFFFFFFFFFFFFFF AND EQ PUSH2 0xAD5 JUMPI PUSH1 0x40 MLOAD PUSH32 0x8C379A000000000000000000000000000000000000000000000000000000000 DUP2 MSTORE PUSH1 0x4 ADD PUSH2 0xACC SWAP1 PUSH2 0x2B34 JUMP JUMPDEST PUSH1 0x40 MLOAD DUP1 SWAP2 SUB SWAP1 REVERT JUMPDEST PUSH32 0x360894A13BA1A3210667C828492DB98DCA3E2076CC3735A920A3CA505D382BBC PUSH1 0x0 SHL SWAP1 POP SWAP1 JUMP JUMPDEST PUSH1 0x0 PUSH1 0xCB PUSH1 0x0 SWAP1 SLOAD SWAP1 PUSH2 0x100 EXP SWAP1 DIV PUSH1 0xFF AND SWAP1 POP SWAP1 JUMP JUMPDEST PUSH2 0xB3F PUSH32 0x65D7A28E3265B37A6474929F336521B332C1681B933F6CB9F3376673440D862A DUP3 PUSH2 0xF1A JUMP JUMPDEST POP JUMP JUMPDEST PUSH2 0xB4F PUSH1 0x0 DUP1 SHL DUP3 PUSH2 0x62E JUMP JUMPDEST POP JUMP JUMPDEST PUSH2 0xB7C PUSH32 0x65D7A28E3265B37A6474929F336521B332C1681B933F6CB9F3376673440D862A DUP3 PUSH2 0x62E JUMP JUMPDEST POP JUMP JUMPDEST PUSH2 0xBA9 PUSH32 0x65D7A28E3265B37A6474929F336521B332C1681B933F6CB9F3376673440D862A CALLER PUSH2 0xCF3 JUMP JUMPDEST PUSH2 0xBE8 JUMPI PUSH1 0x40 MLOAD PUSH32 0x8C379A000000000000000000000000000000000000000000000000000000000 DUP2 MSTORE PUSH1 0x4 ADD PUSH2 0xBDF SWAP1 PUSH2 0x2AA2 JUMP JUMPDEST PUSH1 0x40 MLOAD DUP1 SWAP2 SUB SWAP1 REVERT JUMPDEST PUSH2 0xBF0 PUSH2 0x14CA JUMP JUMPDEST JUMP JUMPDEST PUSH1 0x0 PUSH1 0x60 DUP1 PUSH1 0x0 DUP1 PUSH1 0x0 PUSH1 0x60 PUSH1 0x0 DUP1 SHL PUSH1 0x65 SLOAD EQ DUP1 ISZERO PUSH2 0xC16 JUMPI POP PUSH1 0x0 DUP1 SHL PUSH1 0x66 SLOAD EQ JUMPDEST PUSH2 0xC55 JUMPI PUSH1 0x40 MLOAD PUSH32 0x8C379A000000000000000000000000000000000000000000000000000000000 DUP2 MSTORE PUSH1 0x4 ADD PUSH2 0xC4C SWAP1 PUSH2 0x2BA0 JUMP JUMPDEST PUSH1 0x40 MLOAD DUP1 SWAP2 SUB SWAP1 REVERT JUMPDEST PUSH2 0xC5D PUSH2 0x152D JUMP JUMPDEST PUSH2 0xC65 PUSH2 0x15BF JUMP JUMPDEST CHAINID ADDRESS PUSH1 0x0 DUP1 SHL PUSH1 0x0 PUSH8 0xFFFFFFFFFFFFFFFF DUP2 GT ISZERO PUSH2 0xC86 JUMPI PUSH2 0xC85 PUSH2 0x24AC JUMP JUMPDEST JUMPDEST PUSH1 0x40 MLOAD SWAP1 DUP1 DUP3 MSTORE DUP1 PUSH1 0x20 MUL PUSH1 0x20 ADD DUP3 ADD PUSH1 0x40 MSTORE DUP1 ISZERO PUSH2 0xCB4 JUMPI DUP2 PUSH1 0x20 ADD PUSH1 0x20 DUP3 MUL DUP1 CALLDATASIZE DUP4 CALLDATACOPY DUP1 DUP3 ADD SWAP2 POP POP SWAP1 POP JUMPDEST POP PUSH32 0xF00000000000000000000000000000000000000000000000000000000000000 SWAP6 SWAP5 SWAP4 SWAP3 SWAP2 SWAP1 SWAP7 POP SWAP7 POP SWAP7 POP SWAP7 POP SWAP7 POP SWAP7 POP SWAP7 POP SWAP1 SWAP2 SWAP3 SWAP4 SWAP5 SWAP6 SWAP7 JUMP JUMPDEST PUSH1 0x0 PUSH2 0x12F PUSH1 0x0 DUP5 DUP2 MSTORE PUSH1 0x20 ADD SWAP1 DUP2 MSTORE PUSH1 0x20 ADD PUSH1 0x0 KECCAK256 PUSH1 0x0 ADD PUSH1 0x0 DUP4 PUSH20 0xFFFFFFFFFFFFFFFFFFFFFFFFFFFFFFFFFFFFFFFF AND PUSH20 0xFFFFFFFFFFFFFFFFFFFFFFFFFFFFFFFFFFFFFFFF AND DUP2 MSTORE PUSH1 0x20 ADD SWAP1 DUP2 MSTORE PUSH1 0x20 ADD PUSH1 0x0 KECCAK256 PUSH1 0x0 SWAP1 SLOAD SWAP1 PUSH2 0x100 EXP SWAP1 DIV PUSH1 0xFF AND SWAP1 POP SWAP3 SWAP2 POP POP JUMP JUMPDEST PUSH1 0x0 DUP1 SHL DUP2 JUMP JUMPDEST PUSH1 0x0 DUP1 PUSH1 0x1 SWAP1 SLOAD SWAP1 PUSH2 0x100 EXP SWAP1 DIV PUSH1 0xFF AND ISZERO SWAP1 POP DUP1 DUP1 ISZERO PUSH2 0xD97 JUMPI POP PUSH1 0x1 PUSH1 0x0 DUP1 SLOAD SWAP1 PUSH2 0x100 EXP SWAP1 DIV PUSH1 0xFF AND PUSH1 0xFF AND LT JUMPDEST DUP1 PUSH2 0xDC4 JUMPI POP PUSH2 0xDA6 ADDRESS PUSH2 0x1651 JUMP JUMPDEST ISZERO DUP1 ISZERO PUSH2 0xDC3 JUMPI POP PUSH1 0x1 PUSH1 0x0 DUP1 SLOAD SWAP1 PUSH2 0x100 EXP SWAP1 DIV PUSH1 0xFF AND PUSH1 0xFF AND EQ JUMPDEST JUMPDEST PUSH2 0xE03 JUMPI PUSH1 0x40 MLOAD PUSH32 0x8C379A000000000000000000000000000000000000000000000000000000000 DUP2 MSTORE PUSH1 0x4 ADD PUSH2 0xDFA SWAP1 PUSH2 0x2C32 JUMP JUMPDEST PUSH1 0x40 MLOAD DUP1 SWAP2 SUB SWAP1 REVERT JUMPDEST PUSH1 0x1 PUSH1 0x0 DUP1 PUSH2 0x100 EXP DUP2 SLOAD DUP2 PUSH1 0xFF MUL NOT AND SWAP1 DUP4 PUSH1 0xFF AND MUL OR SWAP1 SSTORE POP DUP1 ISZERO PUSH2 0xE40 JUMPI PUSH1 0x1 PUSH1 0x0 PUSH1 0x1 PUSH2 0x100 EXP DUP2 SLOAD DUP2 PUSH1 0xFF MUL NOT AND SWAP1 DUP4 ISZERO ISZERO MUL OR SWAP1 SSTORE POP JUMPDEST PUSH2 0xE49 DUP3 PUSH2 0x1674 JUMP JUMPDEST PUSH2 0xEBD PUSH1 0x40 MLOAD DUP1 PUSH1 0x40 ADD PUSH1 0x40 MSTORE DUP1 PUSH1 0xE DUP2 MSTORE PUSH1 0x20 ADD PUSH32 0x494E544552434841494E53574150000000000000000000000000000000000000 DUP2 MSTORE POP PUSH1 0x40 MLOAD DUP1 PUSH1 0x40 ADD PUSH1 0x40 MSTORE DUP1 PUSH1 0x1 DUP2 MSTORE PUSH1 0x20 ADD PUSH32 0x3100000000000000000000000000000000000000000000000000000000000000 DUP2 MSTORE POP PUSH2 0x17D5 JUMP JUMPDEST DUP1 ISZERO PUSH2 0xF16 JUMPI PUSH1 0x0 DUP1 PUSH1 0x1 PUSH2 0x100 EXP DUP2 SLOAD DUP2 PUSH1 0xFF MUL NOT AND SWAP1 DUP4 ISZERO ISZERO MUL OR SWAP1 SSTORE POP PUSH32 0x7F26B83FF96E1F2B6A682F133852F6798A09C465DA95921460CEFB3847402498 PUSH1 0x1 PUSH1 0x40 MLOAD PUSH2 0xF0D SWAP2 SWAP1 PUSH2 0x2CA4 JUMP JUMPDEST PUSH1 0x40 MLOAD DUP1 SWAP2 SUB SWAP1 LOG1 JUMPDEST POP POP JUMP JUMPDEST PUSH2 0xF23 DUP3 PUSH2 0x5F7 JUMP JUMPDEST PUSH2 0xF2C DUP2 PUSH2 0x1063 JUMP JUMPDEST PUSH2 0xF36 DUP4 DUP4 PUSH2 0x1161 JUMP JUMPDEST POP POP POP JUMP JUMPDEST PUSH32 0x65D7A28E3265B37A6474929F336521B332C1681B933F6CB9F3376673440D862A DUP2 JUMP JUMPDEST PUSH2 0xF6C PUSH1 0x0 DUP1 SHL CALLER PUSH2 0xCF3 JUMP JUMPDEST PUSH2 0xFAB JUMPI PUSH1 0x40 MLOAD PUSH32 0x8C379A000000000000000000000000000000000000000000000000000000000 DUP2 MSTORE PUSH1 0x4 ADD PUSH2 0xFA2 SWAP1 PUSH2 0x2AA2 JUMP JUMPDEST PUSH1 0x40 MLOAD DUP1 SWAP2 SUB SWAP1 REVERT JUMPDEST PUSH1 0x0 DUP2 GT PUSH2 0xFEE JUMPI PUSH1 0x40 MLOAD PUSH32 0x8C379A000000000000000000000000000000000000000000000000000000000 DUP2 MSTORE PUSH1 0x4 ADD PUSH2 0xFE5 SWAP1 PUSH2 0x2D0B JUMP JUMPDEST PUSH1 0x40 MLOAD DUP1 SWAP2 SUB SWAP1 REVERT JUMPDEST DUP1 PUSH2 0x161 DUP2 SWAP1 SSTORE POP POP JUMP JUMPDEST PUSH1 0x0 PUSH32 0x1FFC9A700000000000000000000000000000000000000000000000000000000 PUSH28 0xFFFFFFFFFFFFFFFFFFFFFFFFFFFFFFFFFFFFFFFFFFFFFFFFFFFFFFFF NOT AND DUP3 PUSH28 0xFFFFFFFFFFFFFFFFFFFFFFFFFFFFFFFFFFFFFFFFFFFFFFFFFFFFFFFF NOT AND EQ SWAP1 POP SWAP2 SWAP1 POP JUMP JUMPDEST PUSH2 0x1074 DUP2 PUSH2 0x106F PUSH2 0x1159 JUMP JUMPDEST PUSH2 0x1832 JUMP JUMPDEST POP JUMP JUMPDEST PUSH2 0x1081 DUP3 DUP3 PUSH2 0xCF3 JUMP JUMPDEST PUSH2 0x1155 JUMPI PUSH1 0x1 PUSH2 0x12F PUSH1 0x0 DUP5 DUP2 MSTORE PUSH1 0x20 ADD SWAP1 DUP2 MSTORE PUSH1 0x20 ADD PUSH1 0x0 KECCAK256 PUSH1 0x0 ADD PUSH1 0x0 DUP4 PUSH20 0xFFFFFFFFFFFFFFFFFFFFFFFFFFFFFFFFFFFFFFFF AND PUSH20 0xFFFFFFFFFFFFFFFFFFFFFFFFFFFFFFFFFFFFFFFF AND DUP2 MSTORE PUSH1 0x20 ADD SWAP1 DUP2 MSTORE PUSH1 0x20 ADD PUSH1 0x0 KECCAK256 PUSH1 0x0 PUSH2 0x100 EXP DUP2 SLOAD DUP2 PUSH1 0xFF MUL NOT AND SWAP1 DUP4 ISZERO ISZERO MUL OR SWAP1 SSTORE POP PUSH2 0x10FA PUSH2 0x1159 JUMP JUMPDEST PUSH20 0xFFFFFFFFFFFFFFFFFFFFFFFFFFFFFFFFFFFFFFFF AND DUP2 PUSH20 0xFFFFFFFFFFFFFFFFFFFFFFFFFFFFFFFFFFFFFFFF AND DUP4 PUSH32 0x2F8788117E7EFF1D82E926EC794901D17C78024A50270940304540A733656F0D PUSH1 0x40 MLOAD PUSH1 0x40 MLOAD DUP1 SWAP2 SUB SWAP1 LOG4 JUMPDEST POP POP JUMP JUMPDEST PUSH1 0x0 CALLER SWAP1 POP SWAP1 JUMP JUMPDEST PUSH2 0x116B DUP3 DUP3 PUSH2 0xCF3 JUMP JUMPDEST ISZERO PUSH2 0x1240 JUMPI PUSH1 0x0 PUSH2 0x12F PUSH1 0x0 DUP5 DUP2 MSTORE PUSH1 0x20 ADD SWAP1 DUP2 MSTORE PUSH1 0x20 ADD PUSH1 0x0 KECCAK256 PUSH1 0x0 ADD PUSH1 0x0 DUP4 PUSH20 0xFFFFFFFFFFFFFFFFFFFFFFFFFFFFFFFFFFFFFFFF AND PUSH20 0xFFFFFFFFFFFFFFFFFFFFFFFFFFFFFFFFFFFFFFFF AND DUP2 MSTORE PUSH1 0x20 ADD SWAP1 DUP2 MSTORE PUSH1 0x20 ADD PUSH1 0x0 KECCAK256 PUSH1 0x0 PUSH2 0x100 EXP DUP2 SLOAD DUP2 PUSH1 0xFF MUL NOT AND SWAP1 DUP4 ISZERO ISZERO MUL OR SWAP1 SSTORE POP PUSH2 0x11E5 PUSH2 0x1159 JUMP JUMPDEST PUSH20 0xFFFFFFFFFFFFFFFFFFFFFFFFFFFFFFFFFFFFFFFF AND DUP2 PUSH20 0xFFFFFFFFFFFFFFFFFFFFFFFFFFFFFFFFFFFFFFFF AND DUP4 PUSH32 0xF6391F5C32D9C69D2A47EA670B442974B53935D1EDC7FD64EB21E047A839171B PUSH1 0x40 MLOAD PUSH1 0x40 MLOAD DUP1 SWAP2 SUB SWAP1 LOG4 JUMPDEST POP POP JUMP JUMPDEST PUSH1 0x0 PUSH2 0x1272 PUSH32 0x360894A13BA1A3210667C828492DB98DCA3E2076CC3735A920A3CA505D382BBC PUSH1 0x0 SHL PUSH2 0x18B7 JUMP JUMPDEST PUSH1 0x0 ADD PUSH1 0x0 SWAP1 SLOAD SWAP1 PUSH2 0x100 EXP SWAP1 DIV PUSH20 0xFFFFFFFFFFFFFFFFFFFFFFFFFFFFFFFFFFFFFFFF AND SWAP1 POP SWAP1 JUMP JUMPDEST PUSH2 0x12A8 PUSH1 0x0 DUP1 SHL CALLER PUSH2 0xCF3 JUMP JUMPDEST PUSH2 0x12E7 JUMPI PUSH1 0x40 MLOAD PUSH32 0x8C379A000000000000000000000000000000000000000000000000000000000 DUP2 MSTORE PUSH1 0x4 ADD PUSH2 0x12DE SWAP1 PUSH2 0x2AA2 JUMP JUMPDEST PUSH1 0x40 MLOAD DUP1 SWAP2 SUB SWAP1 REVERT JUMPDEST POP JUMP JUMPDEST PUSH2 0x1316 PUSH32 0x4910FDFA16FED3260ED0E7147F7CC6DA11A60208B5B9406D12A635614FFD9143 PUSH1 0x0 SHL PUSH2 0x18C1 JUMP JUMPDEST PUSH1 0x0 ADD PUSH1 0x0 SWAP1 SLOAD SWAP1 PUSH2 0x100 EXP SWAP1 DIV PUSH1 0xFF AND ISZERO PUSH2 0x133A JUMPI PUSH2 0x1335 DUP4 PUSH2 0x18CB JUMP JUMPDEST PUSH2 0x1462 JUMP JUMPDEST DUP3 PUSH20 0xFFFFFFFFFFFFFFFFFFFFFFFFFFFFFFFFFFFFFFFF AND PUSH4 0x52D1902D PUSH1 0x40 MLOAD DUP2 PUSH4 0xFFFFFFFF AND PUSH1 0xE0 SHL DUP2 MSTORE PUSH1 0x4 ADD PUSH1 0x20 PUSH1 0x40 MLOAD DUP1 DUP4 SUB DUP2 DUP7 DUP1 EXTCODESIZE ISZERO DUP1 ISZERO PUSH2 0x1380 JUMPI PUSH1 0x0 DUP1 REVERT JUMPDEST POP GAS STATICCALL SWAP3 POP POP POP DUP1 ISZERO PUSH2 0x13B1 JUMPI POP PUSH1 0x40 MLOAD RETURNDATASIZE PUSH1 0x1F NOT PUSH1 0x1F DUP3 ADD AND DUP3 ADD DUP1 PUSH1 0x40 MSTORE POP DUP2 ADD SWAP1 PUSH2 0x13AE SWAP2 SWAP1 PUSH2 0x2D40 JUMP JUMPDEST PUSH1 0x1 JUMPDEST PUSH2 0x13F0 JUMPI PUSH1 0x40 MLOAD PUSH32 0x8C379A000000000000000000000000000000000000000000000000000000000 DUP2 MSTORE PUSH1 0x4 ADD PUSH2 0x13E7 SWAP1 PUSH2 0x2DDF JUMP JUMPDEST PUSH1 0x40 MLOAD DUP1 SWAP2 SUB SWAP1 REVERT JUMPDEST PUSH32 0x360894A13BA1A3210667C828492DB98DCA3E2076CC3735A920A3CA505D382BBC PUSH1 0x0 SHL DUP2 EQ PUSH2 0x1455 JUMPI PUSH1 0x40 MLOAD PUSH32 0x8C379A000000000000000000000000000000000000000000000000000000000 DUP2 MSTORE PUSH1 0x4 ADD PUSH2 0x144C SWAP1 PUSH2 0x2E71 JUMP JUMPDEST PUSH1 0x40 MLOAD DUP1 SWAP2 SUB SWAP1 REVERT JUMPDEST POP PUSH2 0x1461 DUP4 DUP4 DUP4 PUSH2 0x1984 JUMP JUMPDEST JUMPDEST POP POP POP JUMP JUMPDEST PUSH2 0x146F PUSH2 0x19B0 JUMP JUMPDEST PUSH1 0x0 PUSH1 0xCB PUSH1 0x0 PUSH2 0x100 EXP DUP2 SLOAD DUP2 PUSH1 0xFF MUL NOT AND SWAP1 DUP4 ISZERO ISZERO MUL OR SWAP1 SSTORE POP PUSH32 0x5DB9EE0A495BF2E6FF9C91A7834C1BA4FDD244A5E8AA4E537BD38AEAE4B073AA PUSH2 0x14B3 PUSH2 0x1159 JUMP JUMPDEST PUSH1 0x40 MLOAD PUSH2 0x14C0 SWAP2 SWAP1 PUSH2 0x2E91 JUMP JUMPDEST PUSH1 0x40 MLOAD DUP1 SWAP2 SUB SWAP1 LOG1 JUMP JUMPDEST PUSH2 0x14D2 PUSH2 0x19F9 JUMP JUMPDEST PUSH1 0x1 PUSH1 0xCB PUSH1 0x0 PUSH2 0x100 EXP DUP2 SLOAD DUP2 PUSH1 0xFF MUL NOT AND SWAP1 DUP4 ISZERO ISZERO MUL OR SWAP1 SSTORE POP PUSH32 0x62E78CEA01BEE320CD4E420270B5EA74000D11B0C9F74754EBDBFC544B05A258 PUSH2 0x1516 PUSH2 0x1159 JUMP JUMPDEST PUSH1 0x40 MLOAD PUSH2 0x1523 SWAP2 SWAP1 PUSH2 0x2E91 JUMP JUMPDEST PUSH1 0x40 MLOAD DUP1 SWAP2 SUB SWAP1 LOG1 JUMP JUMPDEST PUSH1 0x60 PUSH1 0x67 DUP1 SLOAD PUSH2 0x153C SWAP1 PUSH2 0x2EDB JUMP JUMPDEST DUP1 PUSH1 0x1F ADD PUSH1 0x20 DUP1 SWAP2 DIV MUL PUSH1 0x20 ADD PUSH1 0x40 MLOAD SWAP1 DUP2 ADD PUSH1 0x40 MSTORE DUP1 SWAP3 SWAP2 SWAP1 DUP2 DUP2 MSTORE PUSH1 0x20 ADD DUP3 DUP1 SLOAD PUSH2 0x1568 SWAP1 PUSH2 0x2EDB JUMP JUMPDEST DUP1 ISZERO PUSH2 0x15B5 JUMPI DUP1 PUSH1 0x1F LT PUSH2 0x158A JUMPI PUSH2 0x100 DUP1 DUP4 SLOAD DIV MUL DUP4 MSTORE SWAP2 PUSH1 0x20 ADD SWAP2 PUSH2 0x15B5 JUMP JUMPDEST DUP3 ADD SWAP2 SWAP1 PUSH1 0x0 MSTORE PUSH1 0x20 PUSH1 0x0 KECCAK256 SWAP1 JUMPDEST DUP2 SLOAD DUP2 MSTORE SWAP1 PUSH1 0x1 ADD SWAP1 PUSH1 0x20 ADD DUP1 DUP4 GT PUSH2 0x1598 JUMPI DUP3 SWAP1 SUB PUSH1 0x1F AND DUP3 ADD SWAP2 JUMPDEST POP POP POP POP POP SWAP1 POP SWAP1 JUMP JUMPDEST PUSH1 0x60 PUSH1 0x68 DUP1 SLOAD PUSH2 0x15CE SWAP1 PUSH2 0x2EDB JUMP JUMPDEST DUP1 PUSH1 0x1F ADD PUSH1 0x20 DUP1 SWAP2 DIV MUL PUSH1 0x20 ADD PUSH1 0x40 MLOAD SWAP1 DUP2 ADD PUSH1 0x40 MSTORE DUP1 SWAP3 SWAP2 SWAP1 DUP2 DUP2 MSTORE PUSH1 0x20 ADD DUP3 DUP1 SLOAD PUSH2 0x15FA SWAP1 PUSH2 0x2EDB JUMP JUMPDEST DUP1 ISZERO PUSH2 0x1647 JUMPI DUP1 PUSH1 0x1F LT PUSH2 0x161C JUMPI PUSH2 0x100 DUP1 DUP4 SLOAD DIV MUL DUP4 MSTORE SWAP2 PUSH1 0x20 ADD SWAP2 PUSH2 0x1647 JUMP JUMPDEST DUP3 ADD SWAP2 SWAP1 PUSH1 0x0 MSTORE PUSH1 0x20 PUSH1 0x0 KECCAK256 SWAP1 JUMPDEST DUP2 SLOAD DUP2 MSTORE SWAP1 PUSH1 0x1 ADD SWAP1 PUSH1 0x20 ADD DUP1 DUP4 GT PUSH2 0x162A JUMPI DUP3 SWAP1 SUB PUSH1 0x1F AND DUP3 ADD SWAP2 JUMPDEST POP POP POP POP POP SWAP1 POP SWAP1 JUMP JUMPDEST PUSH1 0x0 DUP1 DUP3 PUSH20 0xFFFFFFFFFFFFFFFFFFFFFFFFFFFFFFFFFFFFFFFF AND EXTCODESIZE GT SWAP1 POP SWAP2 SWAP1 POP JUMP JUMPDEST PUSH1 0x0 DUP1 PUSH1 0x1 SWAP1 SLOAD SWAP1 PUSH2 0x100 EXP SWAP1 DIV PUSH1 0xFF AND ISZERO SWAP1 POP DUP1 DUP1 ISZERO PUSH2 0x16A5 JUMPI POP PUSH1 0x1 PUSH1 0x0 DUP1 SLOAD SWAP1 PUSH2 0x100 EXP SWAP1 DIV PUSH1 0xFF AND PUSH1 0xFF AND LT JUMPDEST DUP1 PUSH2 0x16D2 JUMPI POP PUSH2 0x16B4 ADDRESS PUSH2 0x1651 JUMP JUMPDEST ISZERO DUP1 ISZERO PUSH2 0x16D1 JUMPI POP PUSH1 0x1 PUSH1 0x0 DUP1 SLOAD SWAP1 PUSH2 0x100 EXP SWAP1 DIV PUSH1 0xFF AND PUSH1 0xFF AND EQ JUMPDEST JUMPDEST PUSH2 0x1711 JUMPI PUSH1 0x40 MLOAD PUSH32 0x8C379A000000000000000000000000000000000000000000000000000000000 DUP2 MSTORE PUSH1 0x4 ADD PUSH2 0x1708 SWAP1 PUSH2 0x2C32 JUMP JUMPDEST PUSH1 0x40 MLOAD DUP1 SWAP2 SUB SWAP1 REVERT JUMPDEST PUSH1 0x1 PUSH1 0x0 DUP1 PUSH2 0x100 EXP DUP2 SLOAD DUP2 PUSH1 0xFF MUL NOT AND SWAP1 DUP4 PUSH1 0xFF AND MUL OR SWAP1 SSTORE POP DUP1 ISZERO PUSH2 0x174E JUMPI PUSH1 0x1 PUSH1 0x0 PUSH1 0x1 PUSH2 0x100 EXP DUP2 SLOAD DUP2 PUSH1 0xFF MUL NOT AND SWAP1 DUP4 ISZERO ISZERO MUL OR SWAP1 SSTORE POP JUMPDEST PUSH2 0x1756 PUSH2 0x1A43 JUMP JUMPDEST PUSH2 0x175E PUSH2 0x1A94 JUMP JUMPDEST PUSH2 0x1766 PUSH2 0x1AE5 JUMP JUMPDEST PUSH2 0x176F DUP3 PUSH2 0x1B51 JUMP JUMPDEST PUSH1 0x64 PUSH2 0x161 DUP2 SWAP1 SSTORE POP DUP1 ISZERO PUSH2 0x17D1 JUMPI PUSH1 0x0 DUP1 PUSH1 0x1 PUSH2 0x100 EXP DUP2 SLOAD DUP2 PUSH1 0xFF MUL NOT AND SWAP1 DUP4 ISZERO ISZERO MUL OR SWAP1 SSTORE POP PUSH32 0x7F26B83FF96E1F2B6A682F133852F6798A09C465DA95921460CEFB3847402498 PUSH1 0x1 PUSH1 0x40 MLOAD PUSH2 0x17C8 SWAP2 SWAP1 PUSH2 0x2CA4 JUMP JUMPDEST PUSH1 0x40 MLOAD DUP1 SWAP2 SUB SWAP1 LOG1 JUMPDEST POP POP JUMP JUMPDEST PUSH1 0x0 PUSH1 0x1 SWAP1 SLOAD SWAP1 PUSH2 0x100 EXP SWAP1 DIV PUSH1 0xFF AND PUSH2 0x1824 JUMPI PUSH1 0x40 MLOAD PUSH32 0x8C379A000000000000000000000000000000000000000000000000000000000 DUP2 MSTORE PUSH1 0x4 ADD PUSH2 0x181B SWAP1 PUSH2 0x2F7F JUMP JUMPDEST PUSH1 0x40 MLOAD DUP1 SWAP2 SUB SWAP1 REVERT JUMPDEST PUSH2 0x182E DUP3 DUP3 PUSH2 0x1CBF JUMP JUMPDEST POP POP JUMP JUMPDEST PUSH2 0x183C DUP3 DUP3 PUSH2 0xCF3 JUMP JUMPDEST PUSH2 0x18B3 JUMPI PUSH2 0x1849 DUP2 PUSH2 0x1D54 JUMP JUMPDEST PUSH2 0x1857 DUP4 PUSH1 0x0 SHR PUSH1 0x20 PUSH2 0x1D81 JUMP JUMPDEST PUSH1 0x40 MLOAD PUSH1 0x20 ADD PUSH2 0x1868 SWAP3 SWAP2 SWAP1 PUSH2 0x3073 JUMP JUMPDEST PUSH1 0x40 MLOAD PUSH1 0x20 DUP2 DUP4 SUB SUB DUP2 MSTORE SWAP1 PUSH1 0x40 MSTORE PUSH1 0x40 MLOAD PUSH32 0x8C379A000000000000000000000000000000000000000000000000000000000 DUP2 MSTORE PUSH1 0x4 ADD PUSH2 0x18AA SWAP2 SWAP1 PUSH2 0x30AD JUMP JUMPDEST PUSH1 0x40 MLOAD DUP1 SWAP2 SUB SWAP1 REVERT JUMPDEST POP POP JUMP JUMPDEST PUSH1 0x0 DUP2 SWAP1 POP SWAP2 SWAP1 POP JUMP JUMPDEST PUSH1 0x0 DUP2 SWAP1 POP SWAP2 SWAP1 POP JUMP JUMPDEST PUSH2 0x18D4 DUP2 PUSH2 0x1651 JUMP JUMPDEST PUSH2 0x1913 JUMPI PUSH1 0x40 MLOAD PUSH32 0x8C379A000000000000000000000000000000000000000000000000000000000 DUP2 MSTORE PUSH1 0x4 ADD PUSH2 0x190A SWAP1 PUSH2 0x3141 JUMP JUMPDEST PUSH1 0x40 MLOAD DUP1 SWAP2 SUB SWAP1 REVERT JUMPDEST DUP1 PUSH2 0x1940 PUSH32 0x360894A13BA1A3210667C828492DB98DCA3E2076CC3735A920A3CA505D382BBC PUSH1 0x0 SHL PUSH2 0x18B7 JUMP JUMPDEST PUSH1 0x0 ADD PUSH1 0x0 PUSH2 0x100 EXP DUP2 SLOAD DUP2 PUSH20 0xFFFFFFFFFFFFFFFFFFFFFFFFFFFFFFFFFFFFFFFF MUL NOT AND SWAP1 DUP4 PUSH20 0xFFFFFFFFFFFFFFFFFFFFFFFFFFFFFFFFFFFFFFFF AND MUL OR SWAP1 SSTORE POP POP JUMP JUMPDEST PUSH2 0x198D DUP4 PUSH2 0x1FBD JUMP JUMPDEST PUSH1 0x0 DUP3 MLOAD GT DUP1 PUSH2 0x199A JUMPI POP DUP1 JUMPDEST ISZERO PUSH2 0x19AB JUMPI PUSH2 0x19A9 DUP4 DUP4 PUSH2 0x200C JUMP JUMPDEST POP JUMPDEST POP POP POP JUMP JUMPDEST PUSH2 0x19B8 PUSH2 0xAFE JUMP JUMPDEST PUSH2 0x19F7 JUMPI PUSH1 0x40 MLOAD PUSH32 0x8C379A000000000000000000000000000000000000000000000000000000000 DUP2 MSTORE PUSH1 0x4 ADD PUSH2 0x19EE SWAP1 PUSH2 0x31AD JUMP JUMPDEST PUSH1 0x40 MLOAD DUP1 SWAP2 SUB SWAP1 REVERT JUMPDEST JUMP JUMPDEST PUSH2 0x1A01 PUSH2 0xAFE JUMP JUMPDEST ISZERO PUSH2 0x1A41 JUMPI PUSH1 0x40 MLOAD PUSH32 0x8C379A000000000000000000000000000000000000000000000000000000000 DUP2 MSTORE PUSH1 0x4 ADD PUSH2 0x1A38 SWAP1 PUSH2 0x3219 JUMP JUMPDEST PUSH1 0x40 MLOAD DUP1 SWAP2 SUB SWAP1 REVERT JUMPDEST JUMP JUMPDEST PUSH1 0x0 PUSH1 0x1 SWAP1 SLOAD SWAP1 PUSH2 0x100 EXP SWAP1 DIV PUSH1 0xFF AND PUSH2 0x1A92 JUMPI PUSH1 0x40 MLOAD PUSH32 0x8C379A000000000000000000000000000000000000000000000000000000000 DUP2 MSTORE PUSH1 0x4 ADD PUSH2 0x1A89 SWAP1 PUSH2 0x2F7F JUMP JUMPDEST PUSH1 0x40 MLOAD DUP1 SWAP2 SUB SWAP1 REVERT JUMPDEST JUMP JUMPDEST PUSH1 0x0 PUSH1 0x1 SWAP1 SLOAD SWAP1 PUSH2 0x100 EXP SWAP1 DIV PUSH1 0xFF AND PUSH2 0x1AE3 JUMPI PUSH1 0x40 MLOAD PUSH32 0x8C379A000000000000000000000000000000000000000000000000000000000 DUP2 MSTORE PUSH1 0x4 ADD PUSH2 0x1ADA SWAP1 PUSH2 0x2F7F JUMP JUMPDEST PUSH1 0x40 MLOAD DUP1 SWAP2 SUB SWAP1 REVERT JUMPDEST JUMP JUMPDEST PUSH1 0x0 PUSH1 0x1 SWAP1 SLOAD SWAP1 PUSH2 0x100 EXP SWAP1 DIV PUSH1 0xFF AND PUSH2 0x1B34 JUMPI PUSH1 0x40 MLOAD PUSH32 0x8C379A000000000000000000000000000000000000000000000000000000000 DUP2 MSTORE PUSH1 0x4 ADD PUSH2 0x1B2B SWAP1 PUSH2 0x2F7F JUMP JUMPDEST PUSH1 0x40 MLOAD DUP1 SWAP2 SUB SWAP1 REVERT JUMPDEST PUSH1 0x0 PUSH1 0xCB PUSH1 0x0 PUSH2 0x100 EXP DUP2 SLOAD DUP2 PUSH1 0xFF MUL NOT AND SWAP1 DUP4 ISZERO ISZERO MUL OR SWAP1 SSTORE POP JUMP JUMPDEST PUSH1 0x0 DUP1 PUSH1 0x1 SWAP1 SLOAD SWAP1 PUSH2 0x100 EXP SWAP1 DIV PUSH1 0xFF AND ISZERO SWAP1 POP DUP1 DUP1 ISZERO PUSH2 0x1B82 JUMPI POP PUSH1 0x1 PUSH1 0x0 DUP1 SLOAD SWAP1 PUSH2 0x100 EXP SWAP1 DIV PUSH1 0xFF AND PUSH1 0xFF AND LT JUMPDEST DUP1 PUSH2 0x1BAF JUMPI POP PUSH2 0x1B91 ADDRESS PUSH2 0x1651 JUMP JUMPDEST ISZERO DUP1 ISZERO PUSH2 0x1BAE JUMPI POP PUSH1 0x1 PUSH1 0x0 DUP1 SLOAD SWAP1 PUSH2 0x100 EXP SWAP1 DIV PUSH1 0xFF AND PUSH1 0xFF AND EQ JUMPDEST JUMPDEST PUSH2 0x1BEE JUMPI PUSH1 0x40 MLOAD PUSH32 0x8C379A000000000000000000000000000000000000000000000000000000000 DUP2 MSTORE PUSH1 0x4 ADD PUSH2 0x1BE5 SWAP1 PUSH2 0x2C32 JUMP JUMPDEST PUSH1 0x40 MLOAD DUP1 SWAP2 SUB SWAP1 REVERT JUMPDEST PUSH1 0x1 PUSH1 0x0 DUP1 PUSH2 0x100 EXP DUP2 SLOAD DUP2 PUSH1 0xFF MUL NOT AND SWAP1 DUP4 PUSH1 0xFF AND MUL OR SWAP1 SSTORE POP DUP1 ISZERO PUSH2 0x1C2B JUMPI PUSH1 0x1 PUSH1 0x0 PUSH1 0x1 PUSH2 0x100 EXP DUP2 SLOAD DUP2 PUSH1 0xFF MUL NOT AND SWAP1 DUP4 ISZERO ISZERO MUL OR SWAP1 SSTORE POP JUMPDEST PUSH2 0x1C38 PUSH1 0x0 DUP1 SHL DUP4 PUSH2 0x2039 JUMP JUMPDEST PUSH2 0x1C62 PUSH32 0x65D7A28E3265B37A6474929F336521B332C1681B933F6CB9F3376673440D862A DUP4 PUSH2 0x2039 JUMP JUMPDEST DUP1 ISZERO PUSH2 0x1CBB JUMPI PUSH1 0x0 DUP1 PUSH1 0x1 PUSH2 0x100 EXP DUP2 SLOAD DUP2 PUSH1 0xFF MUL NOT AND SWAP1 DUP4 ISZERO ISZERO MUL OR SWAP1 SSTORE POP PUSH32 0x7F26B83FF96E1F2B6A682F133852F6798A09C465DA95921460CEFB3847402498 PUSH1 0x1 PUSH1 0x40 MLOAD PUSH2 0x1CB2 SWAP2 SWAP1 PUSH2 0x2CA4 JUMP JUMPDEST PUSH1 0x40 MLOAD DUP1 SWAP2 SUB SWAP1 LOG1 JUMPDEST POP POP JUMP JUMPDEST PUSH1 0x0 PUSH1 0x1 SWAP1 SLOAD SWAP1 PUSH2 0x100 EXP SWAP1 DIV PUSH1 0xFF AND PUSH2 0x1D0E JUMPI PUSH1 0x40 MLOAD PUSH32 0x8C379A000000000000000000000000000000000000000000000000000000000 DUP2 MSTORE PUSH1 0x4 ADD PUSH2 0x1D05 SWAP1 PUSH2 0x2F7F JUMP JUMPDEST PUSH1 0x40 MLOAD DUP1 SWAP2 SUB SWAP1 REVERT JUMPDEST DUP2 PUSH1 0x67 SWAP1 DUP1 MLOAD SWAP1 PUSH1 0x20 ADD SWAP1 PUSH2 0x1D24 SWAP3 SWAP2 SWAP1 PUSH2 0x2193 JUMP JUMPDEST POP DUP1 PUSH1 0x68 SWAP1 DUP1 MLOAD SWAP1 PUSH1 0x20 ADD SWAP1 PUSH2 0x1D3B SWAP3 SWAP2 SWAP1 PUSH2 0x2193 JUMP JUMPDEST POP PUSH1 0x0 DUP1 SHL PUSH1 0x65 DUP2 SWAP1 SSTORE POP PUSH1 0x0 DUP1 SHL PUSH1 0x66 DUP2 SWAP1 SSTORE POP POP POP JUMP JUMPDEST PUSH1 0x60 PUSH2 0x1D7A DUP3 PUSH20 0xFFFFFFFFFFFFFFFFFFFFFFFFFFFFFFFFFFFFFFFF AND PUSH1 0x14 PUSH1 0xFF AND PUSH2 0x1D81 JUMP JUMPDEST SWAP1 POP SWAP2 SWAP1 POP JUMP JUMPDEST PUSH1 0x60 PUSH1 0x0 PUSH1 0x2 DUP4 PUSH1 0x2 PUSH2 0x1D94 SWAP2 SWAP1 PUSH2 0x3268 JUMP JUMPDEST PUSH2 0x1D9E SWAP2 SWAP1 PUSH2 0x32C2 JUMP JUMPDEST PUSH8 0xFFFFFFFFFFFFFFFF DUP2 GT ISZERO PUSH2 0x1DB7 JUMPI PUSH2 0x1DB6 PUSH2 0x24AC JUMP JUMPDEST JUMPDEST PUSH1 0x40 MLOAD SWAP1 DUP1 DUP3 MSTORE DUP1 PUSH1 0x1F ADD PUSH1 0x1F NOT AND PUSH1 0x20 ADD DUP3 ADD PUSH1 0x40 MSTORE DUP1 ISZERO PUSH2 0x1DE9 JUMPI DUP2 PUSH1 0x20 ADD PUSH1 0x1 DUP3 MUL DUP1 CALLDATASIZE DUP4 CALLDATACOPY DUP1 DUP3 ADD SWAP2 POP POP SWAP1 POP JUMPDEST POP SWAP1 POP PUSH32 0x3000000000000000000000000000000000000000000000000000000000000000 DUP2 PUSH1 0x0 DUP2 MLOAD DUP2 LT PUSH2 0x1E21 JUMPI PUSH2 0x1E20 PUSH2 0x3318 JUMP JUMPDEST JUMPDEST PUSH1 0x20 ADD ADD SWAP1 PUSH31 0xFFFFFFFFFFFFFFFFFFFFFFFFFFFFFFFFFFFFFFFFFFFFFFFFFFFFFFFFFFFFFF NOT AND SWAP1 DUP2 PUSH1 0x0 BYTE SWAP1 MSTORE8 POP PUSH32 0x7800000000000000000000000000000000000000000000000000000000000000 DUP2 PUSH1 0x1 DUP2 MLOAD DUP2 LT PUSH2 0x1E85 JUMPI PUSH2 0x1E84 PUSH2 0x3318 JUMP JUMPDEST JUMPDEST PUSH1 0x20 ADD ADD SWAP1 PUSH31 0xFFFFFFFFFFFFFFFFFFFFFFFFFFFFFFFFFFFFFFFFFFFFFFFFFFFFFFFFFFFFFF NOT AND SWAP1 DUP2 PUSH1 0x0 BYTE SWAP1 MSTORE8 POP PUSH1 0x0 PUSH1 0x1 DUP5 PUSH1 0x2 PUSH2 0x1EC5 SWAP2 SWAP1 PUSH2 0x3268 JUMP JUMPDEST PUSH2 0x1ECF SWAP2 SWAP1 PUSH2 0x32C2 JUMP JUMPDEST SWAP1 POP JUMPDEST PUSH1 0x1 DUP2 GT ISZERO PUSH2 0x1F6F JUMPI PUSH32 0x3031323334353637383961626364656600000000000000000000000000000000 PUSH1 0xF DUP7 AND PUSH1 0x10 DUP2 LT PUSH2 0x1F11 JUMPI PUSH2 0x1F10 PUSH2 0x3318 JUMP JUMPDEST JUMPDEST BYTE PUSH1 0xF8 SHL DUP3 DUP3 DUP2 MLOAD DUP2 LT PUSH2 0x1F28 JUMPI PUSH2 0x1F27 PUSH2 0x3318 JUMP JUMPDEST JUMPDEST PUSH1 0x20 ADD ADD SWAP1 PUSH31 0xFFFFFFFFFFFFFFFFFFFFFFFFFFFFFFFFFFFFFFFFFFFFFFFFFFFFFFFFFFFFFF NOT AND SWAP1 DUP2 PUSH1 0x0 BYTE SWAP1 MSTORE8 POP PUSH1 0x4 DUP6 SWAP1 SHR SWAP5 POP DUP1 PUSH2 0x1F68 SWAP1 PUSH2 0x3347 JUMP JUMPDEST SWAP1 POP PUSH2 0x1ED2 JUMP JUMPDEST POP PUSH1 0x0 DUP5 EQ PUSH2 0x1FB3 JUMPI PUSH1 0x40 MLOAD PUSH32 0x8C379A000000000000000000000000000000000000000000000000000000000 DUP2 MSTORE PUSH1 0x4 ADD PUSH2 0x1FAA SWAP1 PUSH2 0x33BD JUMP JUMPDEST PUSH1 0x40 MLOAD DUP1 SWAP2 SUB SWAP1 REVERT JUMPDEST DUP1 SWAP2 POP POP SWAP3 SWAP2 POP POP JUMP JUMPDEST PUSH2 0x1FC6 DUP2 PUSH2 0x18CB JUMP JUMPDEST DUP1 PUSH20 0xFFFFFFFFFFFFFFFFFFFFFFFFFFFFFFFFFFFFFFFF AND PUSH32 0xBC7CD75A20EE27FD9ADEBAB32041F755214DBC6BFFA90CC0225B39DA2E5C2D3B PUSH1 0x40 MLOAD PUSH1 0x40 MLOAD DUP1 SWAP2 SUB SWAP1 LOG2 POP JUMP JUMPDEST PUSH1 0x60 PUSH2 0x2031 DUP4 DUP4 PUSH1 0x40 MLOAD DUP1 PUSH1 0x60 ADD PUSH1 0x40 MSTORE DUP1 PUSH1 0x27 DUP2 MSTORE PUSH1 0x20 ADD PUSH2 0x34A8 PUSH1 0x27 SWAP2 CODECOPY PUSH2 0x2047 JUMP JUMPDEST SWAP1 POP SWAP3 SWAP2 POP POP JUMP JUMPDEST PUSH2 0x2043 DUP3 DUP3 PUSH2 0x1077 JUMP JUMPDEST POP POP JUMP JUMPDEST PUSH1 0x60 PUSH1 0x0 DUP1 DUP6 PUSH20 0xFFFFFFFFFFFFFFFFFFFFFFFFFFFFFFFFFFFFFFFF AND DUP6 PUSH1 0x40 MLOAD PUSH2 0x2071 SWAP2 SWAP1 PUSH2 0x3424 JUMP JUMPDEST PUSH1 0x0 PUSH1 0x40 MLOAD DUP1 DUP4 SUB DUP2 DUP6 GAS DELEGATECALL SWAP2 POP POP RETURNDATASIZE DUP1 PUSH1 0x0 DUP2 EQ PUSH2 0x20AC JUMPI PUSH1 0x40 MLOAD SWAP2 POP PUSH1 0x1F NOT PUSH1 0x3F RETURNDATASIZE ADD AND DUP3 ADD PUSH1 0x40 MSTORE RETURNDATASIZE DUP3 MSTORE RETURNDATASIZE PUSH1 0x0 PUSH1 0x20 DUP5 ADD RETURNDATACOPY PUSH2 0x20B1 JUMP JUMPDEST PUSH1 0x60 SWAP2 POP JUMPDEST POP SWAP2 POP SWAP2 POP PUSH2 0x20C2 DUP7 DUP4 DUP4 DUP8 PUSH2 0x20CD JUMP JUMPDEST SWAP3 POP POP POP SWAP4 SWAP3 POP POP POP JUMP JUMPDEST PUSH1 0x60 DUP4 ISZERO PUSH2 0x2130 JUMPI PUSH1 0x0 DUP4 MLOAD EQ ISZERO PUSH2 0x2128 JUMPI PUSH2 0x20E8 DUP6 PUSH2 0x1651 JUMP JUMPDEST PUSH2 0x2127 JUMPI PUSH1 0x40 MLOAD PUSH32 0x8C379A000000000000000000000000000000000000000000000000000000000 DUP2 MSTORE PUSH1 0x4 ADD PUSH2 0x211E SWAP1 PUSH2 0x3487 JUMP JUMPDEST PUSH1 0x40 MLOAD DUP1 SWAP2 SUB SWAP1 REVERT JUMPDEST JUMPDEST DUP3 SWAP1 POP PUSH2 0x213B JUMP JUMPDEST PUSH2 0x213A DUP4 DUP4 PUSH2 0x2143 JUMP JUMPDEST JUMPDEST SWAP5 SWAP4 POP POP POP POP JUMP JUMPDEST PUSH1 0x0 DUP3 MLOAD GT ISZERO PUSH2 0x2156 JUMPI DUP2 MLOAD DUP1 DUP4 PUSH1 0x20 ADD REVERT JUMPDEST DUP1 PUSH1 0x40 MLOAD PUSH32 0x8C379A000000000000000000000000000000000000000000000000000000000 DUP2 MSTORE PUSH1 0x4 ADD PUSH2 0x218A SWAP2 SWAP1 PUSH2 0x30AD JUMP JUMPDEST PUSH1 0x40 MLOAD DUP1 SWAP2 SUB SWAP1 REVERT JUMPDEST DUP3 DUP1 SLOAD PUSH2 0x219F SWAP1 PUSH2 0x2EDB JUMP JUMPDEST SWAP1 PUSH1 0x0 MSTORE PUSH1 0x20 PUSH1 0x0 KECCAK256 SWAP1 PUSH1 0x1F ADD PUSH1 0x20 SWAP1 DIV DUP2 ADD SWAP3 DUP3 PUSH2 0x21C1 JUMPI PUSH1 0x0 DUP6 SSTORE PUSH2 0x2208 JUMP JUMPDEST DUP3 PUSH1 0x1F LT PUSH2 0x21DA JUMPI DUP1 MLOAD PUSH1 0xFF NOT AND DUP4 DUP1 ADD OR DUP6 SSTORE PUSH2 0x2208 JUMP JUMPDEST DUP3 DUP1 ADD PUSH1 0x1 ADD DUP6 SSTORE DUP3 ISZERO PUSH2 0x2208 JUMPI SWAP2 DUP3 ADD JUMPDEST DUP3 DUP2 GT ISZERO PUSH2 0x2207 JUMPI DUP3 MLOAD DUP3 SSTORE SWAP2 PUSH1 0x20 ADD SWAP2 SWAP1 PUSH1 0x1 ADD SWAP1 PUSH2 0x21EC JUMP JUMPDEST JUMPDEST POP SWAP1 POP PUSH2 0x2215 SWAP2 SWAP1 PUSH2 0x2219 JUMP JUMPDEST POP SWAP1 JUMP JUMPDEST JUMPDEST DUP1 DUP3 GT ISZERO PUSH2 0x2232 JUMPI PUSH1 0x0 DUP2 PUSH1 0x0 SWAP1 SSTORE POP PUSH1 0x1 ADD PUSH2 0x221A JUMP JUMPDEST POP SWAP1 JUMP JUMPDEST PUSH1 0x0 PUSH1 0x40 MLOAD SWAP1 POP SWAP1 JUMP JUMPDEST PUSH1 0x0 DUP1 REVERT JUMPDEST PUSH1 0x0 DUP1 REVERT JUMPDEST PUSH1 0x0 PUSH32 0xFFFFFFFF00000000000000000000000000000000000000000000000000000000 DUP3 AND SWAP1 POP SWAP2 SWAP1 POP JUMP JUMPDEST PUSH2 0x227F DUP2 PUSH2 0x224A JUMP JUMPDEST DUP2 EQ PUSH2 0x228A JUMPI PUSH1 0x0 DUP1 REVERT JUMPDEST POP JUMP JUMPDEST PUSH1 0x0 DUP2 CALLDATALOAD SWAP1 POP PUSH2 0x229C DUP2 PUSH2 0x2276 JUMP JUMPDEST SWAP3 SWAP2 POP POP JUMP JUMPDEST PUSH1 0x0 PUSH1 0x20 DUP3 DUP5 SUB SLT ISZERO PUSH2 0x22B8 JUMPI PUSH2 0x22B7 PUSH2 0x2240 JUMP JUMPDEST JUMPDEST PUSH1 0x0 PUSH2 0x22C6 DUP5 DUP3 DUP6 ADD PUSH2 0x228D JUMP JUMPDEST SWAP2 POP POP SWAP3 SWAP2 POP POP JUMP JUMPDEST PUSH1 0x0 DUP2 ISZERO ISZERO SWAP1 POP SWAP2 SWAP1 POP JUMP JUMPDEST PUSH2 0x22E4 DUP2 PUSH2 0x22CF JUMP JUMPDEST DUP3 MSTORE POP POP JUMP JUMPDEST PUSH1 0x0 PUSH1 0x20 DUP3 ADD SWAP1 POP PUSH2 0x22FF PUSH1 0x0 DUP4 ADD DUP5 PUSH2 0x22DB JUMP JUMPDEST SWAP3 SWAP2 POP POP JUMP JUMPDEST PUSH1 0x0 PUSH20 0xFFFFFFFFFFFFFFFFFFFFFFFFFFFFFFFFFFFFFFFF DUP3 AND SWAP1 POP SWAP2 SWAP1 POP JUMP JUMPDEST PUSH1 0x0 PUSH2 0x2330 DUP3 PUSH2 0x2305 JUMP JUMPDEST SWAP1 POP SWAP2 SWAP1 POP JUMP JUMPDEST PUSH2 0x2340 DUP2 PUSH2 0x2325 JUMP JUMPDEST DUP2 EQ PUSH2 0x234B JUMPI PUSH1 0x0 DUP1 REVERT JUMPDEST POP JUMP JUMPDEST PUSH1 0x0 DUP2 CALLDATALOAD SWAP1 POP PUSH2 0x235D DUP2 PUSH2 0x2337 JUMP JUMPDEST SWAP3 SWAP2 POP POP JUMP JUMPDEST PUSH1 0x0 PUSH1 0x20 DUP3 DUP5 SUB SLT ISZERO PUSH2 0x2379 JUMPI PUSH2 0x2378 PUSH2 0x2240 JUMP JUMPDEST JUMPDEST PUSH1 0x0 PUSH2 0x2387 DUP5 DUP3 DUP6 ADD PUSH2 0x234E JUMP JUMPDEST SWAP2 POP POP SWAP3 SWAP2 POP POP JUMP JUMPDEST PUSH1 0x0 DUP2 SWAP1 POP SWAP2 SWAP1 POP JUMP JUMPDEST PUSH2 0x23A3 DUP2 PUSH2 0x2390 JUMP JUMPDEST DUP2 EQ PUSH2 0x23AE JUMPI PUSH1 0x0 DUP1 REVERT JUMPDEST POP JUMP JUMPDEST PUSH1 0x0 DUP2 CALLDATALOAD SWAP1 POP PUSH2 0x23C0 DUP2 PUSH2 0x239A JUMP JUMPDEST SWAP3 SWAP2 POP POP JUMP JUMPDEST PUSH1 0x0 PUSH1 0x20 DUP3 DUP5 SUB SLT ISZERO PUSH2 0x23DC JUMPI PUSH2 0x23DB PUSH2 0x2240 JUMP JUMPDEST JUMPDEST PUSH1 0x0 PUSH2 0x23EA DUP5 DUP3 DUP6 ADD PUSH2 0x23B1 JUMP JUMPDEST SWAP2 POP POP SWAP3 SWAP2 POP POP JUMP JUMPDEST PUSH2 0x23FC DUP2 PUSH2 0x2390 JUMP JUMPDEST DUP3 MSTORE POP POP JUMP JUMPDEST PUSH1 0x0 PUSH1 0x20 DUP3 ADD SWAP1 POP PUSH2 0x2417 PUSH1 0x0 DUP4 ADD DUP5 PUSH2 0x23F3 JUMP JUMPDEST SWAP3 SWAP2 POP POP JUMP JUMPDEST PUSH1 0x0 DUP1 PUSH1 0x40 DUP4 DUP6 SUB SLT ISZERO PUSH2 0x2434 JUMPI PUSH2 0x2433 PUSH2 0x2240 JUMP JUMPDEST JUMPDEST PUSH1 0x0 PUSH2 0x2442 DUP6 DUP3 DUP7 ADD PUSH2 0x23B1 JUMP JUMPDEST SWAP3 POP POP PUSH1 0x20 PUSH2 0x2453 DUP6 DUP3 DUP7 ADD PUSH2 0x234E JUMP JUMPDEST SWAP2 POP POP SWAP3 POP SWAP3 SWAP1 POP JUMP JUMPDEST PUSH1 0x0 DUP2 SWAP1 POP SWAP2 SWAP1 POP JUMP JUMPDEST PUSH2 0x2470 DUP2 PUSH2 0x245D JUMP JUMPDEST DUP3 MSTORE POP POP JUMP JUMPDEST PUSH1 0x0 PUSH1 0x20 DUP3 ADD SWAP1 POP PUSH2 0x248B PUSH1 0x0 DUP4 ADD DUP5 PUSH2 0x2467 JUMP JUMPDEST SWAP3 SWAP2 POP POP JUMP JUMPDEST PUSH1 0x0 DUP1 REVERT JUMPDEST PUSH1 0x0 DUP1 REVERT JUMPDEST PUSH1 0x0 PUSH1 0x1F NOT PUSH1 0x1F DUP4 ADD AND SWAP1 POP SWAP2 SWAP1 POP JUMP JUMPDEST PUSH32 0x4E487B7100000000000000000000000000000000000000000000000000000000 PUSH1 0x0 MSTORE PUSH1 0x41 PUSH1 0x4 MSTORE PUSH1 0x24 PUSH1 0x0 REVERT JUMPDEST PUSH2 0x24E4 DUP3 PUSH2 0x249B JUMP JUMPDEST DUP2 ADD DUP2 DUP2 LT PUSH8 0xFFFFFFFFFFFFFFFF DUP3 GT OR ISZERO PUSH2 0x2503 JUMPI PUSH2 0x2502 PUSH2 0x24AC JUMP JUMPDEST JUMPDEST DUP1 PUSH1 0x40 MSTORE POP POP POP JUMP JUMPDEST PUSH1 0x0 PUSH2 0x2516 PUSH2 0x2236 JUMP JUMPDEST SWAP1 POP PUSH2 0x2522 DUP3 DUP3 PUSH2 0x24DB JUMP JUMPDEST SWAP2 SWAP1 POP JUMP JUMPDEST PUSH1 0x0 PUSH8 0xFFFFFFFFFFFFFFFF DUP3 GT ISZERO PUSH2 0x2542 JUMPI PUSH2 0x2541 PUSH2 0x24AC JUMP JUMPDEST JUMPDEST PUSH2 0x254B DUP3 PUSH2 0x249B JUMP JUMPDEST SWAP1 POP PUSH1 0x20 DUP2 ADD SWAP1 POP SWAP2 SWAP1 POP JUMP JUMPDEST DUP3 DUP2 DUP4 CALLDATACOPY PUSH1 0x0 DUP4 DUP4 ADD MSTORE POP POP POP JUMP JUMPDEST PUSH1 0x0 PUSH2 0x257A PUSH2 0x2575 DUP5 PUSH2 0x2527 JUMP JUMPDEST PUSH2 0x250C JUMP JUMPDEST SWAP1 POP DUP3 DUP2 MSTORE PUSH1 0x20 DUP2 ADD DUP5 DUP5 DUP5 ADD GT ISZERO PUSH2 0x2596 JUMPI PUSH2 0x2595 PUSH2 0x2496 JUMP JUMPDEST JUMPDEST PUSH2 0x25A1 DUP5 DUP3 DUP6 PUSH2 0x2558 JUMP JUMPDEST POP SWAP4 SWAP3 POP POP POP JUMP JUMPDEST PUSH1 0x0 DUP3 PUSH1 0x1F DUP4 ADD SLT PUSH2 0x25BE JUMPI PUSH2 0x25BD PUSH2 0x2491 JUMP JUMPDEST JUMPDEST DUP2 CALLDATALOAD PUSH2 0x25CE DUP5 DUP3 PUSH1 0x20 DUP7 ADD PUSH2 0x2567 JUMP JUMPDEST SWAP2 POP POP SWAP3 SWAP2 POP POP JUMP JUMPDEST PUSH1 0x0 DUP1 PUSH1 0x40 DUP4 DUP6 SUB SLT ISZERO PUSH2 0x25EE JUMPI PUSH2 0x25ED PUSH2 0x2240 JUMP JUMPDEST JUMPDEST PUSH1 0x0 PUSH2 0x25FC DUP6 DUP3 DUP7 ADD PUSH2 0x234E JUMP JUMPDEST SWAP3 POP POP PUSH1 0x20 DUP4 ADD CALLDATALOAD PUSH8 0xFFFFFFFFFFFFFFFF DUP2 GT ISZERO PUSH2 0x261D JUMPI PUSH2 0x261C PUSH2 0x2245 JUMP JUMPDEST JUMPDEST PUSH2 0x2629 DUP6 DUP3 DUP7 ADD PUSH2 0x25A9 JUMP JUMPDEST SWAP2 POP POP SWAP3 POP SWAP3 SWAP1 POP JUMP JUMPDEST PUSH1 0x0 PUSH32 0xFF00000000000000000000000000000000000000000000000000000000000000 DUP3 AND SWAP1 POP SWAP2 SWAP1 POP JUMP JUMPDEST PUSH2 0x2668 DUP2 PUSH2 0x2633 JUMP JUMPDEST DUP3 MSTORE POP POP JUMP JUMPDEST PUSH1 0x0 DUP2 MLOAD SWAP1 POP SWAP2 SWAP1 POP JUMP JUMPDEST PUSH1 0x0 DUP3 DUP3 MSTORE PUSH1 0x20 DUP3 ADD SWAP1 POP SWAP3 SWAP2 POP POP JUMP JUMPDEST PUSH1 0x0 JUMPDEST DUP4 DUP2 LT ISZERO PUSH2 0x26A8 JUMPI DUP1 DUP3 ADD MLOAD DUP2 DUP5 ADD MSTORE PUSH1 0x20 DUP2 ADD SWAP1 POP PUSH2 0x268D JUMP JUMPDEST DUP4 DUP2 GT ISZERO PUSH2 0x26B7 JUMPI PUSH1 0x0 DUP5 DUP5 ADD MSTORE JUMPDEST POP POP POP POP JUMP JUMPDEST PUSH1 0x0 PUSH2 0x26C8 DUP3 PUSH2 0x266E JUMP JUMPDEST PUSH2 0x26D2 DUP2 DUP6 PUSH2 0x2679 JUMP JUMPDEST SWAP4 POP PUSH2 0x26E2 DUP2 DUP6 PUSH1 0x20 DUP7 ADD PUSH2 0x268A JUMP JUMPDEST PUSH2 0x26EB DUP2 PUSH2 0x249B JUMP JUMPDEST DUP5 ADD SWAP2 POP POP SWAP3 SWAP2 POP POP JUMP JUMPDEST PUSH2 0x26FF DUP2 PUSH2 0x2325 JUMP JUMPDEST DUP3 MSTORE POP POP JUMP JUMPDEST PUSH1 0x0 DUP2 MLOAD SWAP1 POP SWAP2 SWAP1 POP JUMP JUMPDEST PUSH1 0x0 DUP3 DUP3 MSTORE PUSH1 0x20 DUP3 ADD SWAP1 POP SWAP3 SWAP2 POP POP JUMP JUMPDEST PUSH1 0x0 DUP2 SWAP1 POP PUSH1 0x20 DUP3 ADD SWAP1 POP SWAP2 SWAP1 POP JUMP JUMPDEST PUSH2 0x273A DUP2 PUSH2 0x245D JUMP JUMPDEST DUP3 MSTORE POP POP JUMP JUMPDEST PUSH1 0x0 PUSH2 0x274C DUP4 DUP4 PUSH2 0x2731 JUMP JUMPDEST PUSH1 0x20 DUP4 ADD SWAP1 POP SWAP3 SWAP2 POP POP JUMP JUMPDEST PUSH1 0x0 PUSH1 0x20 DUP3 ADD SWAP1 POP SWAP2 SWAP1 POP JUMP JUMPDEST PUSH1 0x0 PUSH2 0x2770 DUP3 PUSH2 0x2705 JUMP JUMPDEST PUSH2 0x277A DUP2 DUP6 PUSH2 0x2710 JUMP JUMPDEST SWAP4 POP PUSH2 0x2785 DUP4 PUSH2 0x2721 JUMP JUMPDEST DUP1 PUSH1 0x0 JUMPDEST DUP4 DUP2 LT ISZERO PUSH2 0x27B6 JUMPI DUP2 MLOAD PUSH2 0x279D DUP9 DUP3 PUSH2 0x2740 JUMP JUMPDEST SWAP8 POP PUSH2 0x27A8 DUP4 PUSH2 0x2758 JUMP JUMPDEST SWAP3 POP POP PUSH1 0x1 DUP2 ADD SWAP1 POP PUSH2 0x2789 JUMP JUMPDEST POP DUP6 SWAP4 POP POP POP POP SWAP3 SWAP2 POP POP JUMP JUMPDEST PUSH1 0x0 PUSH1 0xE0 DUP3 ADD SWAP1 POP PUSH2 0x27D8 PUSH1 0x0 DUP4 ADD DUP11 PUSH2 0x265F JUMP JUMPDEST DUP2 DUP2 SUB PUSH1 0x20 DUP4 ADD MSTORE PUSH2 0x27EA DUP2 DUP10 PUSH2 0x26BD JUMP JUMPDEST SWAP1 POP DUP2 DUP2 SUB PUSH1 0x40 DUP4 ADD MSTORE PUSH2 0x27FE DUP2 DUP9 PUSH2 0x26BD JUMP JUMPDEST SWAP1 POP PUSH2 0x280D PUSH1 0x60 DUP4 ADD DUP8 PUSH2 0x2467 JUMP JUMPDEST PUSH2 0x281A PUSH1 0x80 DUP4 ADD DUP7 PUSH2 0x26F6 JUMP JUMPDEST PUSH2 0x2827 PUSH1 0xA0 DUP4 ADD DUP6 PUSH2 0x23F3 JUMP JUMPDEST DUP2 DUP2 SUB PUSH1 0xC0 DUP4 ADD MSTORE PUSH2 0x2839 DUP2 DUP5 PUSH2 0x2765 JUMP JUMPDEST SWAP1 POP SWAP9 SWAP8 POP POP POP POP POP POP POP POP JUMP JUMPDEST PUSH2 0x2850 DUP2 PUSH2 0x245D JUMP JUMPDEST DUP2 EQ PUSH2 0x285B JUMPI PUSH1 0x0 DUP1 REVERT JUMPDEST POP JUMP JUMPDEST PUSH1 0x0 DUP2 CALLDATALOAD SWAP1 POP PUSH2 0x286D DUP2 PUSH2 0x2847 JUMP JUMPDEST SWAP3 SWAP2 POP POP JUMP JUMPDEST PUSH1 0x0 PUSH1 0x20 DUP3 DUP5 SUB SLT ISZERO PUSH2 0x2889 JUMPI PUSH2 0x2888 PUSH2 0x2240 JUMP JUMPDEST JUMPDEST PUSH1 0x0 PUSH2 0x2897 DUP5 DUP3 DUP6 ADD PUSH2 0x285E JUMP JUMPDEST SWAP2 POP POP SWAP3 SWAP2 POP POP JUMP JUMPDEST PUSH32 0x416363657373436F6E74726F6C3A2063616E206F6E6C792072656E6F756E6365 PUSH1 0x0 DUP3 ADD MSTORE PUSH32 0x20726F6C657320666F722073656C660000000000000000000000000000000000 PUSH1 0x20 DUP3 ADD MSTORE POP JUMP JUMPDEST PUSH1 0x0 PUSH2 0x28FC PUSH1 0x2F DUP4 PUSH2 0x2679 JUMP JUMPDEST SWAP2 POP PUSH2 0x2907 DUP3 PUSH2 0x28A0 JUMP JUMPDEST PUSH1 0x40 DUP3 ADD SWAP1 POP SWAP2 SWAP1 POP JUMP JUMPDEST PUSH1 0x0 PUSH1 0x20 DUP3 ADD SWAP1 POP DUP2 DUP2 SUB PUSH1 0x0 DUP4 ADD MSTORE PUSH2 0x292B DUP2 PUSH2 0x28EF JUMP JUMPDEST SWAP1 POP SWAP2 SWAP1 POP JUMP JUMPDEST PUSH32 0x46756E6374696F6E206D7573742062652063616C6C6564207468726F75676820 PUSH1 0x0 DUP3 ADD MSTORE PUSH32 0x64656C656761746563616C6C0000000000000000000000000000000000000000 PUSH1 0x20 DUP3 ADD MSTORE POP JUMP JUMPDEST PUSH1 0x0 PUSH2 0x298E PUSH1 0x2C DUP4 PUSH2 0x2679 JUMP JUMPDEST SWAP2 POP PUSH2 0x2999 DUP3 PUSH2 0x2932 JUMP JUMPDEST PUSH1 0x40 DUP3 ADD SWAP1 POP SWAP2 SWAP1 POP JUMP JUMPDEST PUSH1 0x0 PUSH1 0x20 DUP3 ADD SWAP1 POP DUP2 DUP2 SUB PUSH1 0x0 DUP4 ADD MSTORE PUSH2 0x29BD DUP2 PUSH2 0x2981 JUMP JUMPDEST SWAP1 POP SWAP2 SWAP1 POP JUMP JUMPDEST PUSH32 0x46756E6374696F6E206D7573742062652063616C6C6564207468726F75676820 PUSH1 0x0 DUP3 ADD MSTORE PUSH32 0x6163746976652070726F78790000000000000000000000000000000000000000 PUSH1 0x20 DUP3 ADD MSTORE POP JUMP JUMPDEST PUSH1 0x0 PUSH2 0x2A20 PUSH1 0x2C DUP4 PUSH2 0x2679 JUMP JUMPDEST SWAP2 POP PUSH2 0x2A2B DUP3 PUSH2 0x29C4 JUMP JUMPDEST PUSH1 0x40 DUP3 ADD SWAP1 POP SWAP2 SWAP1 POP JUMP JUMPDEST PUSH1 0x0 PUSH1 0x20 DUP3 ADD SWAP1 POP DUP2 DUP2 SUB PUSH1 0x0 DUP4 ADD MSTORE PUSH2 0x2A4F DUP2 PUSH2 0x2A13 JUMP JUMPDEST SWAP1 POP SWAP2 SWAP1 POP JUMP JUMPDEST PUSH32 0x4F776E61626C655061757361626C653A206163636573732064656E6965640000 PUSH1 0x0 DUP3 ADD MSTORE POP JUMP JUMPDEST PUSH1 0x0 PUSH2 0x2A8C PUSH1 0x1E DUP4 PUSH2 0x2679 JUMP JUMPDEST SWAP2 POP PUSH2 0x2A97 DUP3 PUSH2 0x2A56 JUMP JUMPDEST PUSH1 0x20 DUP3 ADD SWAP1 POP SWAP2 SWAP1 POP JUMP JUMPDEST PUSH1 0x0 PUSH1 0x20 DUP3 ADD SWAP1 POP DUP2 DUP2 SUB PUSH1 0x0 DUP4 ADD MSTORE PUSH2 0x2ABB DUP2 PUSH2 0x2A7F JUMP JUMPDEST SWAP1 POP SWAP2 SWAP1 POP JUMP JUMPDEST PUSH32 0x555550535570677261646561626C653A206D757374206E6F742062652063616C PUSH1 0x0 DUP3 ADD MSTORE PUSH32 0x6C6564207468726F7567682064656C656761746563616C6C0000000000000000 PUSH1 0x20 DUP3 ADD MSTORE POP JUMP JUMPDEST PUSH1 0x0 PUSH2 0x2B1E PUSH1 0x38 DUP4 PUSH2 0x2679 JUMP JUMPDEST SWAP2 POP PUSH2 0x2B29 DUP3 PUSH2 0x2AC2 JUMP JUMPDEST PUSH1 0x40 DUP3 ADD SWAP1 POP SWAP2 SWAP1 POP JUMP JUMPDEST PUSH1 0x0 PUSH1 0x20 DUP3 ADD SWAP1 POP DUP2 DUP2 SUB PUSH1 0x0 DUP4 ADD MSTORE PUSH2 0x2B4D DUP2 PUSH2 0x2B11 JUMP JUMPDEST SWAP1 POP SWAP2 SWAP1 POP JUMP JUMPDEST PUSH32 0x4549503731323A20556E696E697469616C697A65640000000000000000000000 PUSH1 0x0 DUP3 ADD MSTORE POP JUMP JUMPDEST PUSH1 0x0 PUSH2 0x2B8A PUSH1 0x15 DUP4 PUSH2 0x2679 JUMP JUMPDEST SWAP2 POP PUSH2 0x2B95 DUP3 PUSH2 0x2B54 JUMP JUMPDEST PUSH1 0x20 DUP3 ADD SWAP1 POP SWAP2 SWAP1 POP JUMP JUMPDEST PUSH1 0x0 PUSH1 0x20 DUP3 ADD SWAP1 POP DUP2 DUP2 SUB PUSH1 0x0 DUP4 ADD MSTORE PUSH2 0x2BB9 DUP2 PUSH2 0x2B7D JUMP JUMPDEST SWAP1 POP SWAP2 SWAP1 POP JUMP JUMPDEST PUSH32 0x496E697469616C697A61626C653A20636F6E747261637420697320616C726561 PUSH1 0x0 DUP3 ADD MSTORE PUSH32 0x647920696E697469616C697A6564000000000000000000000000000000000000 PUSH1 0x20 DUP3 ADD MSTORE POP JUMP JUMPDEST PUSH1 0x0 PUSH2 0x2C1C PUSH1 0x2E DUP4 PUSH2 0x2679 JUMP JUMPDEST SWAP2 POP PUSH2 0x2C27 DUP3 PUSH2 0x2BC0 JUMP JUMPDEST PUSH1 0x40 DUP3 ADD SWAP1 POP SWAP2 SWAP1 POP JUMP JUMPDEST PUSH1 0x0 PUSH1 0x20 DUP3 ADD SWAP1 POP DUP2 DUP2 SUB PUSH1 0x0 DUP4 ADD MSTORE PUSH2 0x2C4B DUP2 PUSH2 0x2C0F JUMP JUMPDEST SWAP1 POP SWAP2 SWAP1 POP JUMP JUMPDEST PUSH1 0x0 DUP2 SWAP1 POP SWAP2 SWAP1 POP JUMP JUMPDEST PUSH1 0x0 PUSH1 0xFF DUP3 AND SWAP1 POP SWAP2 SWAP1 POP JUMP JUMPDEST PUSH1 0x0 DUP2 SWAP1 POP SWAP2 SWAP1 POP JUMP JUMPDEST PUSH1 0x0 PUSH2 0x2C8E PUSH2 0x2C89 PUSH2 0x2C84 DUP5 PUSH2 0x2C52 JUMP JUMPDEST PUSH2 0x2C69 JUMP JUMPDEST PUSH2 0x2C5C JUMP JUMPDEST SWAP1 POP SWAP2 SWAP1 POP JUMP JUMPDEST PUSH2 0x2C9E DUP2 PUSH2 0x2C73 JUMP JUMPDEST DUP3 MSTORE POP POP JUMP JUMPDEST PUSH1 0x0 PUSH1 0x20 DUP3 ADD SWAP1 POP PUSH2 0x2CB9 PUSH1 0x0 DUP4 ADD DUP5 PUSH2 0x2C95 JUMP JUMPDEST SWAP3 SWAP2 POP POP JUMP JUMPDEST PUSH32 0x4D6F726967696E4170703A20696E76616C69642076616C756521000000000000 PUSH1 0x0 DUP3 ADD MSTORE POP JUMP JUMPDEST PUSH1 0x0 PUSH2 0x2CF5 PUSH1 0x1A DUP4 PUSH2 0x2679 JUMP JUMPDEST SWAP2 POP PUSH2 0x2D00 DUP3 PUSH2 0x2CBF JUMP JUMPDEST PUSH1 0x20 DUP3 ADD SWAP1 POP SWAP2 SWAP1 POP JUMP JUMPDEST PUSH1 0x0 PUSH1 0x20 DUP3 ADD SWAP1 POP DUP2 DUP2 SUB PUSH1 0x0 DUP4 ADD MSTORE PUSH2 0x2D24 DUP2 PUSH2 0x2CE8 JUMP JUMPDEST SWAP1 POP SWAP2 SWAP1 POP JUMP JUMPDEST PUSH1 0x0 DUP2 MLOAD SWAP1 POP PUSH2 0x2D3A DUP2 PUSH2 0x239A JUMP JUMPDEST SWAP3 SWAP2 POP POP JUMP JUMPDEST PUSH1 0x0 PUSH1 0x20 DUP3 DUP5 SUB SLT ISZERO PUSH2 0x2D56 JUMPI PUSH2 0x2D55 PUSH2 0x2240 JUMP JUMPDEST JUMPDEST PUSH1 0x0 PUSH2 0x2D64 DUP5 DUP3 DUP6 ADD PUSH2 0x2D2B JUMP JUMPDEST SWAP2 POP POP SWAP3 SWAP2 POP POP JUMP JUMPDEST PUSH32 0x45524331393637557067726164653A206E657720696D706C656D656E74617469 PUSH1 0x0 DUP3 ADD MSTORE PUSH32 0x6F6E206973206E6F742055555053000000000000000000000000000000000000 PUSH1 0x20 DUP3 ADD MSTORE POP JUMP JUMPDEST PUSH1 0x0 PUSH2 0x2DC9 PUSH1 0x2E DUP4 PUSH2 0x2679 JUMP JUMPDEST SWAP2 POP PUSH2 0x2DD4 DUP3 PUSH2 0x2D6D JUMP JUMPDEST PUSH1 0x40 DUP3 ADD SWAP1 POP SWAP2 SWAP1 POP JUMP JUMPDEST PUSH1 0x0 PUSH1 0x20 DUP3 ADD SWAP1 POP DUP2 DUP2 SUB PUSH1 0x0 DUP4 ADD MSTORE PUSH2 0x2DF8 DUP2 PUSH2 0x2DBC JUMP JUMPDEST SWAP1 POP SWAP2 SWAP1 POP JUMP JUMPDEST PUSH32 0x45524331393637557067726164653A20756E737570706F727465642070726F78 PUSH1 0x0 DUP3 ADD MSTORE PUSH32 0x6961626C65555549440000000000000000000000000000000000000000000000 PUSH1 0x20 DUP3 ADD MSTORE POP JUMP JUMPDEST PUSH1 0x0 PUSH2 0x2E5B PUSH1 0x29 DUP4 PUSH2 0x2679 JUMP JUMPDEST SWAP2 POP PUSH2 0x2E66 DUP3 PUSH2 0x2DFF JUMP JUMPDEST PUSH1 0x40 DUP3 ADD SWAP1 POP SWAP2 SWAP1 POP JUMP JUMPDEST PUSH1 0x0 PUSH1 0x20 DUP3 ADD SWAP1 POP DUP2 DUP2 SUB PUSH1 0x0 DUP4 ADD MSTORE PUSH2 0x2E8A DUP2 PUSH2 0x2E4E JUMP JUMPDEST SWAP1 POP SWAP2 SWAP1 POP JUMP JUMPDEST PUSH1 0x0 PUSH1 0x20 DUP3 ADD SWAP1 POP PUSH2 0x2EA6 PUSH1 0x0 DUP4 ADD DUP5 PUSH2 0x26F6 JUMP JUMPDEST SWAP3 SWAP2 POP POP JUMP JUMPDEST PUSH32 0x4E487B7100000000000000000000000000000000000000000000000000000000 PUSH1 0x0 MSTORE PUSH1 0x22 PUSH1 0x4 MSTORE PUSH1 0x24 PUSH1 0x0 REVERT JUMPDEST PUSH1 0x0 PUSH1 0x2 DUP3 DIV SWAP1 POP PUSH1 0x1 DUP3 AND DUP1 PUSH2 0x2EF3 JUMPI PUSH1 0x7F DUP3 AND SWAP2 POP JUMPDEST PUSH1 0x20 DUP3 LT DUP2 EQ ISZERO PUSH2 0x2F07 JUMPI PUSH2 0x2F06 PUSH2 0x2EAC JUMP JUMPDEST JUMPDEST POP SWAP2 SWAP1 POP JUMP JUMPDEST PUSH32 0x496E697469616C697A61626C653A20636F6E7472616374206973206E6F742069 PUSH1 0x0 DUP3 ADD MSTORE PUSH32 0x6E697469616C697A696E67000000000000000000000000000000000000000000 PUSH1 0x20 DUP3 ADD MSTORE POP JUMP JUMPDEST PUSH1 0x0 PUSH2 0x2F69 PUSH1 0x2B DUP4 PUSH2 0x2679 JUMP JUMPDEST SWAP2 POP PUSH2 0x2F74 DUP3 PUSH2 0x2F0D JUMP JUMPDEST PUSH1 0x40 DUP3 ADD SWAP1 POP SWAP2 SWAP1 POP JUMP JUMPDEST PUSH1 0x0 PUSH1 0x20 DUP3 ADD SWAP1 POP DUP2 DUP2 SUB PUSH1 0x0 DUP4 ADD MSTORE PUSH2 0x2F98 DUP2 PUSH2 0x2F5C JUMP JUMPDEST SWAP1 POP SWAP2 SWAP1 POP JUMP JUMPDEST PUSH1 0x0 DUP2 SWAP1 POP SWAP3 SWAP2 POP POP JUMP JUMPDEST PUSH32 0x416363657373436F6E74726F6C3A206163636F756E7420000000000000000000 PUSH1 0x0 DUP3 ADD MSTORE POP JUMP JUMPDEST PUSH1 0x0 PUSH2 0x2FE0 PUSH1 0x17 DUP4 PUSH2 0x2F9F JUMP JUMPDEST SWAP2 POP PUSH2 0x2FEB DUP3 PUSH2 0x2FAA JUMP JUMPDEST PUSH1 0x17 DUP3 ADD SWAP1 POP SWAP2 SWAP1 POP JUMP JUMPDEST PUSH1 0x0 PUSH2 0x3001 DUP3 PUSH2 0x266E JUMP JUMPDEST PUSH2 0x300B DUP2 DUP6 PUSH2 0x2F9F JUMP JUMPDEST SWAP4 POP PUSH2 0x301B DUP2 DUP6 PUSH1 0x20 DUP7 ADD PUSH2 0x268A JUMP JUMPDEST DUP1 DUP5 ADD SWAP2 POP POP SWAP3 SWAP2 POP POP JUMP JUMPDEST PUSH32 0x206973206D697373696E6720726F6C6520000000000000000000000000000000 PUSH1 0x0 DUP3 ADD MSTORE POP JUMP JUMPDEST PUSH1 0x0 PUSH2 0x305D PUSH1 0x11 DUP4 PUSH2 0x2F9F JUMP JUMPDEST SWAP2 POP PUSH2 0x3068 DUP3 PUSH2 0x3027 JUMP JUMPDEST PUSH1 0x11 DUP3 ADD SWAP1 POP SWAP2 SWAP1 POP JUMP JUMPDEST PUSH1 0x0 PUSH2 0x307E DUP3 PUSH2 0x2FD3 JUMP JUMPDEST SWAP2 POP PUSH2 0x308A DUP3 DUP6 PUSH2 0x2FF6 JUMP JUMPDEST SWAP2 POP PUSH2 0x3095 DUP3 PUSH2 0x3050 JUMP JUMPDEST SWAP2 POP PUSH2 0x30A1 DUP3 DUP5 PUSH2 0x2FF6 JUMP JUMPDEST SWAP2 POP DUP2 SWAP1 POP SWAP4 SWAP3 POP POP POP JUMP JUMPDEST PUSH1 0x0 PUSH1 0x20 DUP3 ADD SWAP1 POP DUP2 DUP2 SUB PUSH1 0x0 DUP4 ADD MSTORE PUSH2 0x30C7 DUP2 DUP5 PUSH2 0x26BD JUMP JUMPDEST SWAP1 POP SWAP3 SWAP2 POP POP JUMP JUMPDEST PUSH32 0x455243313936373A206E657720696D706C656D656E746174696F6E206973206E PUSH1 0x0 DUP3 ADD MSTORE PUSH32 0x6F74206120636F6E747261637400000000000000000000000000000000000000 PUSH1 0x20 DUP3 ADD MSTORE POP JUMP JUMPDEST PUSH1 0x0 PUSH2 0x312B PUSH1 0x2D DUP4 PUSH2 0x2679 JUMP JUMPDEST SWAP2 POP PUSH2 0x3136 DUP3 PUSH2 0x30CF JUMP JUMPDEST PUSH1 0x40 DUP3 ADD SWAP1 POP SWAP2 SWAP1 POP JUMP JUMPDEST PUSH1 0x0 PUSH1 0x20 DUP3 ADD SWAP1 POP DUP2 DUP2 SUB PUSH1 0x0 DUP4 ADD MSTORE PUSH2 0x315A DUP2 PUSH2 0x311E JUMP JUMPDEST SWAP1 POP SWAP2 SWAP1 POP JUMP JUMPDEST PUSH32 0x5061757361626C653A206E6F7420706175736564000000000000000000000000 PUSH1 0x0 DUP3 ADD MSTORE POP JUMP JUMPDEST PUSH1 0x0 PUSH2 0x3197 PUSH1 0x14 DUP4 PUSH2 0x2679 JUMP JUMPDEST SWAP2 POP PUSH2 0x31A2 DUP3 PUSH2 0x3161 JUMP JUMPDEST PUSH1 0x20 DUP3 ADD SWAP1 POP SWAP2 SWAP1 POP JUMP JUMPDEST PUSH1 0x0 PUSH1 0x20 DUP3 ADD SWAP1 POP DUP2 DUP2 SUB PUSH1 0x0 DUP4 ADD MSTORE PUSH2 0x31C6 DUP2 PUSH2 0x318A JUMP JUMPDEST SWAP1 POP SWAP2 SWAP1 POP JUMP JUMPDEST PUSH32 0x5061757361626C653A2070617573656400000000000000000000000000000000 PUSH1 0x0 DUP3 ADD MSTORE POP JUMP JUMPDEST PUSH1 0x0 PUSH2 0x3203 PUSH1 0x10 DUP4 PUSH2 0x2679 JUMP JUMPDEST SWAP2 POP PUSH2 0x320E DUP3 PUSH2 0x31CD JUMP JUMPDEST PUSH1 0x20 DUP3 ADD SWAP1 POP SWAP2 SWAP1 POP JUMP JUMPDEST PUSH1 0x0 PUSH1 0x20 DUP3 ADD SWAP1 POP DUP2 DUP2 SUB PUSH1 0x0 DUP4 ADD MSTORE PUSH2 0x3232 DUP2 PUSH2 0x31F6 JUMP JUMPDEST SWAP1 POP SWAP2 SWAP1 POP JUMP JUMPDEST PUSH32 0x4E487B7100000000000000000000000000000000000000000000000000000000 PUSH1 0x0 MSTORE PUSH1 0x11 PUSH1 0x4 MSTORE PUSH1 0x24 PUSH1 0x0 REVERT JUMPDEST PUSH1 0x0 PUSH2 0x3273 DUP3 PUSH2 0x245D JUMP JUMPDEST SWAP2 POP PUSH2 0x327E DUP4 PUSH2 0x245D JUMP JUMPDEST SWAP3 POP DUP2 PUSH32 0xFFFFFFFFFFFFFFFFFFFFFFFFFFFFFFFFFFFFFFFFFFFFFFFFFFFFFFFFFFFFFFFF DIV DUP4 GT DUP3 ISZERO ISZERO AND ISZERO PUSH2 0x32B7 JUMPI PUSH2 0x32B6 PUSH2 0x3239 JUMP JUMPDEST JUMPDEST DUP3 DUP3 MUL SWAP1 POP SWAP3 SWAP2 POP POP JUMP JUMPDEST PUSH1 0x0 PUSH2 0x32CD DUP3 PUSH2 0x245D JUMP JUMPDEST SWAP2 POP PUSH2 0x32D8 DUP4 PUSH2 0x245D JUMP JUMPDEST SWAP3 POP DUP3 PUSH32 0xFFFFFFFFFFFFFFFFFFFFFFFFFFFFFFFFFFFFFFFFFFFFFFFFFFFFFFFFFFFFFFFF SUB DUP3 GT ISZERO PUSH2 0x330D JUMPI PUSH2 0x330C PUSH2 0x3239 JUMP JUMPDEST JUMPDEST DUP3 DUP3 ADD SWAP1 POP SWAP3 SWAP2 POP POP JUMP JUMPDEST PUSH32 0x4E487B7100000000000000000000000000000000000000000000000000000000 PUSH1 0x0 MSTORE PUSH1 0x32 PUSH1 0x4 MSTORE PUSH1 0x24 PUSH1 0x0 REVERT JUMPDEST PUSH1 0x0 PUSH2 0x3352 DUP3 PUSH2 0x245D JUMP JUMPDEST SWAP2 POP PUSH1 0x0 DUP3 EQ ISZERO PUSH2 0x3366 JUMPI PUSH2 0x3365 PUSH2 0x3239 JUMP JUMPDEST JUMPDEST PUSH1 0x1 DUP3 SUB SWAP1 POP SWAP2 SWAP1 POP JUMP JUMPDEST PUSH32 0x537472696E67733A20686578206C656E67746820696E73756666696369656E74 PUSH1 0x0 DUP3 ADD MSTORE POP JUMP JUMPDEST PUSH1 0x0 PUSH2 0x33A7 PUSH1 0x20 DUP4 PUSH2 0x2679 JUMP JUMPDEST SWAP2 POP PUSH2 0x33B2 DUP3 PUSH2 0x3371 JUMP JUMPDEST PUSH1 0x20 DUP3 ADD SWAP1 POP SWAP2 SWAP1 POP JUMP JUMPDEST PUSH1 0x0 PUSH1 0x20 DUP3 ADD SWAP1 POP DUP2 DUP2 SUB PUSH1 0x0 DUP4 ADD MSTORE PUSH2 0x33D6 DUP2 PUSH2 0x339A JUMP JUMPDEST SWAP1 POP SWAP2 SWAP1 POP JUMP JUMPDEST PUSH1 0x0 DUP2 MLOAD SWAP1 POP SWAP2 SWAP1 POP JUMP JUMPDEST PUSH1 0x0 DUP2 SWAP1 POP SWAP3 SWAP2 POP POP JUMP JUMPDEST PUSH1 0x0 PUSH2 0x33FE DUP3 PUSH2 0x33DD JUMP JUMPDEST PUSH2 0x3408 DUP2 DUP6 PUSH2 0x33E8 JUMP JUMPDEST SWAP4 POP PUSH2 0x3418 DUP2 DUP6 PUSH1 0x20 DUP7 ADD PUSH2 0x268A JUMP JUMPDEST DUP1 DUP5 ADD SWAP2 POP POP SWAP3 SWAP2 POP POP JUMP JUMPDEST PUSH1 0x0 PUSH2 0x3430 DUP3 DUP5 PUSH2 0x33F3 JUMP JUMPDEST SWAP2 POP DUP2 SWAP1 POP SWAP3 SWAP2 POP POP JUMP JUMPDEST PUSH32 0x416464726573733A2063616C6C20746F206E6F6E2D636F6E7472616374000000 PUSH1 0x0 DUP3 ADD MSTORE POP JUMP JUMPDEST PUSH1 0x0 PUSH2 0x3471 PUSH1 0x1D DUP4 PUSH2 0x2679 JUMP JUMPDEST SWAP2 POP PUSH2 0x347C DUP3 PUSH2 0x343B JUMP JUMPDEST PUSH1 0x20 DUP3 ADD SWAP1 POP SWAP2 SWAP1 POP JUMP JUMPDEST PUSH1 0x0 PUSH1 0x20 DUP3 ADD SWAP1 POP DUP2 DUP2 SUB PUSH1 0x0 DUP4 ADD MSTORE PUSH2 0x34A0 DUP2 PUSH2 0x3464 JUMP JUMPDEST SWAP1 POP SWAP2 SWAP1 POP JUMP INVALID COINBASE PUSH5 0x6472657373 GASPRICE KECCAK256 PUSH13 0x6F772D6C6576656C2064656C65 PUSH8 0x6174652063616C6C KECCAK256 PUSH7 0x61696C6564A264 PUSH10 0x70667358221220C72557 GASPRICE OR PUSH18 0xDBFB93014DFF31D838C00832F5729D107CE1 0x22 0xBA 0x5C 0xA7 0xD9 0xBD 0x21 PUSH23 0x64736F6C63430008090033000000000000000000000000 "},"methodIdentifiers":{"DEFAULT_ADMIN_ROLE()":"a217fddf","PAUSER_ROLE()":"e63ab1e9","addAdmin(address)":"70480275","addPauser(address)":"82dc1ec4","eip712Domain()":"84b0196e","getRoleAdmin(bytes32)":"248a9ca3","grantRole(bytes32,address)":"2f2ff15d","hasRole(bytes32,address)":"91d14854","initialize(address)":"c4d66de8","isAdmin(address)":"24d7806c","isPauser(address)":"46fbf68e","paginationSize()":"3d538ecf","pause()":"8456cb59","paused()":"5c975abb","proxiableUUID()":"52d1902d","removeAdmin(address)":"1785f53c","removePauser(address)":"6b2c0f55","renounceRole(bytes32,address)":"36568abe","revokeRole(bytes32,address)":"d547741f","setPaginationSize(uint256)":"f2407ca4","supportsInterface(bytes4)":"01ffc9a7","unpause()":"3f4ba83a","upgradeTo(address)":"3659cfe6","upgradeToAndCall(address,bytes)":"4f1ef286"}},"storageLayout":{"storage":[{"astId":851,"contract":"contracts/InterchainSwap.sol:InterchainSwap","label":"_initialized","offset":0,"slot":"0","type":"t_uint8"},{"astId":854,"contract":"contracts/InterchainSwap.sol:InterchainSwap","label":"_initializing","offset":1,"slot":"0","type":"t_bool"},{"astId":833,"contract":"contracts/InterchainSwap.sol:InterchainSwap","label":"__gap","offset":0,"slot":"1","type":"t_array(t_uint256)50_storage"},{"astId":1148,"contract":"contracts/InterchainSwap.sol:InterchainSwap","label":"__gap","offset":0,"slot":"51","type":"t_array(t_uint256)50_storage"},{"astId":2371,"contract":"contracts/InterchainSwap.sol:InterchainSwap","label":"_hashedName","offset":0,"slot":"101","type":"t_bytes32"},{"astId":2374,"contract":"contracts/InterchainSwap.sol:InterchainSwap","label":"_hashedVersion","offset":0,"slot":"102","type":"t_bytes32"},{"astId":2376,"contract":"contracts/InterchainSwap.sol:InterchainSwap","label":"_name","offset":0,"slot":"103","type":"t_string_storage"},{"astId":2378,"contract":"contracts/InterchainSwap.sol:InterchainSwap","label":"_version","offset":0,"slot":"104","type":"t_string_storage"},{"astId":2636,"contract":"contracts/InterchainSwap.sol:InterchainSwap","label":"__gap","offset":0,"slot":"105","type":"t_array(t_uint256)48_storage"},{"astId":1647,"contract":"contracts/InterchainSwap.sol:InterchainSwap","label":"__gap","offset":0,"slot":"153","type":"t_array(t_uint256)50_storage"},{"astId":1170,"contract":"contracts/InterchainSwap.sol:InterchainSwap","label":"_paused","offset":0,"slot":"203","type":"t_bool"},{"astId":1275,"contract":"contracts/InterchainSwap.sol:InterchainSwap","label":"__gap","offset":0,"slot":"204","type":"t_array(t_uint256)49_storage"},{"astId":2683,"contract":"contracts/InterchainSwap.sol:InterchainSwap","label":"__gap","offset":0,"slot":"253","type":"t_array(t_uint256)50_storage"},{"astId":85,"contract":"contracts/InterchainSwap.sol:InterchainSwap","label":"_roles","offset":0,"slot":"303","type":"t_mapping(t_bytes32,t_struct(RoleData)80_storage)"},{"astId":380,"contract":"contracts/InterchainSwap.sol:InterchainSwap","label":"__gap","offset":0,"slot":"304","type":"t_array(t_uint256)49_storage"},{"astId":4765,"contract":"contracts/InterchainSwap.sol:InterchainSwap","label":"paginationSize","offset":0,"slot":"353","type":"t_uint256"}],"types":{"t_address":{"encoding":"inplace","label":"address","numberOfBytes":"20"},"t_array(t_uint256)48_storage":{"base":"t_uint256","encoding":"inplace","label":"uint256[48]","numberOfBytes":"1536"},"t_array(t_uint256)49_storage":{"base":"t_uint256","encoding":"inplace","label":"uint256[49]","numberOfBytes":"1568"},"t_array(t_uint256)50_storage":{"base":"t_uint256","encoding":"inplace","label":"uint256[50]","numberOfBytes":"1600"},"t_bool":{"encoding":"inplace","label":"bool","numberOfBytes":"1"},"t_bytes32":{"encoding":"inplace","label":"bytes32","numberOfBytes":"32"},"t_mapping(t_address,t_bool)":{"encoding":"mapping","key":"t_address","label":"mapping(address => bool)","numberOfBytes":"32","value":"t_bool"},"t_mapping(t_bytes32,t_struct(RoleData)80_storage)":{"encoding":"mapping","key":"t_bytes32","label":"mapping(bytes32 => struct AccessControlUpgradeable.RoleData)","numberOfBytes":"32","value":"t_struct(RoleData)80_storage"},"t_string_storage":{"encoding":"bytes","label":"string","numberOfBytes":"32"},"t_struct(RoleData)80_storage":{"encoding":"inplace","label":"struct AccessControlUpgradeable.RoleData","members":[{"astId":77,"contract":"contracts/InterchainSwap.sol:InterchainSwap","label":"members","offset":0,"slot":"0","type":"t_mapping(t_address,t_bool)"},{"astId":79,"contract":"contracts/InterchainSwap.sol:InterchainSwap","label":"adminRole","offset":0,"slot":"1","type":"t_bytes32"}],"numberOfBytes":"64"},"t_uint256":{"encoding":"inplace","label":"uint256","numberOfBytes":"32"},"t_uint8":{"encoding":"inplace","label":"uint8","numberOfBytes":"1"}}}}}}