{
  "_format": "hh-sol-artifact-1",
  "contractName": "SideLzAppUpgradable",
  "sourceName": "contracts/lzApp/SideLzAppUpgradble.sol",
  "abi": [
    {
      "anonymous": false,
      "inputs": [
        {
          "indexed": false,
          "internalType": "uint8",
          "name": "version",
          "type": "uint8"
        }
      ],
      "name": "Initialized",
      "type": "event"
    },
    {
      "anonymous": false,
      "inputs": [
        {
          "indexed": false,
          "internalType": "uint16",
          "name": "_srcChainId",
          "type": "uint16"
        },
        {
          "indexed": false,
          "internalType": "bytes",
          "name": "_srcAddress",
          "type": "bytes"
        },
        {
          "indexed": false,
          "internalType": "uint64",
          "name": "_nonce",
          "type": "uint64"
        },
        {
          "indexed": false,
          "internalType": "bytes",
          "name": "_payload",
          "type": "bytes"
        },
        {
          "indexed": false,
          "internalType": "bytes",
          "name": "_reason",
          "type": "bytes"
        }
      ],
      "name": "MessageFailed",
      "type": "event"
    },
    {
      "anonymous": false,
      "inputs": [
        {
          "indexed": true,
          "internalType": "address",
          "name": "previousOwner",
          "type": "address"
        },
        {
          "indexed": true,
          "internalType": "address",
          "name": "newOwner",
          "type": "address"
        }
      ],
      "name": "OwnershipTransferred",
      "type": "event"
    },
    {
      "anonymous": false,
      "inputs": [
        {
          "indexed": false,
          "internalType": "uint16",
          "name": "_srcChainId",
          "type": "uint16"
        },
        {
          "indexed": false,
          "internalType": "bytes",
          "name": "_srcAddress",
          "type": "bytes"
        },
        {
          "indexed": false,
          "internalType": "uint64",
          "name": "_nonce",
          "type": "uint64"
        },
        {
          "indexed": false,
          "internalType": "bytes32",
          "name": "_payloadHash",
          "type": "bytes32"
        }
      ],
      "name": "RetryMessageSuccess",
      "type": "event"
    },
    {
      "anonymous": false,
      "inputs": [
        {
          "indexed": false,
          "internalType": "uint16",
          "name": "_dstChainId",
          "type": "uint16"
        },
        {
          "indexed": false,
          "internalType": "uint16",
          "name": "_type",
          "type": "uint16"
        },
        {
          "indexed": false,
          "internalType": "uint256",
          "name": "_minDstGas",
          "type": "uint256"
        }
      ],
      "name": "SetMinDstGas",
      "type": "event"
    },
    {
      "anonymous": false,
      "inputs": [
        {
          "indexed": false,
          "internalType": "address",
          "name": "precrime",
          "type": "address"
        }
      ],
      "name": "SetPrecrime",
      "type": "event"
    },
    {
      "anonymous": false,
      "inputs": [
        {
          "indexed": false,
          "internalType": "uint16",
          "name": "_remoteChainId",
          "type": "uint16"
        },
        {
          "indexed": false,
          "internalType": "bytes",
          "name": "_path",
          "type": "bytes"
        }
      ],
      "name": "SetTrustedRemote",
      "type": "event"
    },
    {
      "anonymous": false,
      "inputs": [
        {
          "indexed": false,
          "internalType": "uint16",
          "name": "_remoteChainId",
          "type": "uint16"
        },
        {
          "indexed": false,
          "internalType": "bytes",
          "name": "_remoteAddress",
          "type": "bytes"
        }
      ],
      "name": "SetTrustedRemoteAddress",
      "type": "event"
    },
    {
      "inputs": [],
      "name": "DEFAULT_PAYLOAD_SIZE_LIMIT",
      "outputs": [
        {
          "internalType": "uint256",
          "name": "",
          "type": "uint256"
        }
      ],
      "stateMutability": "view",
      "type": "function"
    },
    {
      "inputs": [
        {
          "internalType": "uint16",
          "name": "_dstChainId",
          "type": "uint16"
        },
        {
          "internalType": "bool",
          "name": "_useZro",
          "type": "bool"
        },
        {
          "internalType": "bytes",
          "name": "_adapterParams",
          "type": "bytes"
        },
        {
          "internalType": "bytes",
          "name": "_payload",
          "type": "bytes"
        }
      ],
      "name": "estimateFee",
      "outputs": [
        {
          "internalType": "uint256",
          "name": "nativeFee",
          "type": "uint256"
        },
        {
          "internalType": "uint256",
          "name": "zroFee",
          "type": "uint256"
        }
      ],
      "stateMutability": "view",
      "type": "function"
    },
    {
      "inputs": [
        {
          "internalType": "uint16",
          "name": "",
          "type": "uint16"
        },
        {
          "internalType": "bytes",
          "name": "",
          "type": "bytes"
        },
        {
          "internalType": "uint64",
          "name": "",
          "type": "uint64"
        }
      ],
      "name": "failedMessages",
      "outputs": [
        {
          "internalType": "bytes32",
          "name": "",
          "type": "bytes32"
        }
      ],
      "stateMutability": "view",
      "type": "function"
    },
    {
      "inputs": [
        {
          "internalType": "uint16",
          "name": "_srcChainId",
          "type": "uint16"
        },
        {
          "internalType": "bytes",
          "name": "_srcAddress",
          "type": "bytes"
        }
      ],
      "name": "forceResumeReceive",
      "outputs": [],
      "stateMutability": "nonpayable",
      "type": "function"
    },
    {
      "inputs": [
        {
          "internalType": "uint16",
          "name": "_version",
          "type": "uint16"
        },
        {
          "internalType": "uint16",
          "name": "_chainId",
          "type": "uint16"
        },
        {
          "internalType": "address",
          "name": "",
          "type": "address"
        },
        {
          "internalType": "uint256",
          "name": "_configType",
          "type": "uint256"
        }
      ],
      "name": "getConfig",
      "outputs": [
        {
          "internalType": "bytes",
          "name": "",
          "type": "bytes"
        }
      ],
      "stateMutability": "view",
      "type": "function"
    },
    {
      "inputs": [
        {
          "internalType": "uint16",
          "name": "_remoteChainId",
          "type": "uint16"
        }
      ],
      "name": "getTrustedRemoteAddress",
      "outputs": [
        {
          "internalType": "bytes",
          "name": "",
          "type": "bytes"
        }
      ],
      "stateMutability": "view",
      "type": "function"
    },
    {
      "inputs": [
        {
          "internalType": "address",
          "name": "admin",
          "type": "address"
        },
        {
          "internalType": "address",
          "name": "_endpoint",
          "type": "address"
        }
      ],
      "name": "initialize",
      "outputs": [],
      "stateMutability": "nonpayable",
      "type": "function"
    },
    {
      "inputs": [
        {
          "internalType": "uint16",
          "name": "_srcChainId",
          "type": "uint16"
        },
        {
          "internalType": "bytes",
          "name": "_srcAddress",
          "type": "bytes"
        }
      ],
      "name": "isTrustedRemote",
      "outputs": [
        {
          "internalType": "bool",
          "name": "",
          "type": "bool"
        }
      ],
      "stateMutability": "view",
      "type": "function"
    },
    {
      "inputs": [],
      "name": "lzEndpoint",
      "outputs": [
        {
          "internalType": "contract ILayerZeroEndpointUpgradeable",
          "name": "",
          "type": "address"
        }
      ],
      "stateMutability": "view",
      "type": "function"
    },
    {
      "inputs": [
        {
          "internalType": "uint16",
          "name": "_srcChainId",
          "type": "uint16"
        },
        {
          "internalType": "bytes",
          "name": "_srcAddress",
          "type": "bytes"
        },
        {
          "internalType": "uint64",
          "name": "_nonce",
          "type": "uint64"
        },
        {
          "internalType": "bytes",
          "name": "_payload",
          "type": "bytes"
        }
      ],
      "name": "lzReceive",
      "outputs": [],
      "stateMutability": "nonpayable",
      "type": "function"
    },
    {
      "inputs": [
        {
          "internalType": "uint16",
          "name": "",
          "type": "uint16"
        },
        {
          "internalType": "uint16",
          "name": "",
          "type": "uint16"
        }
      ],
      "name": "minDstGasLookup",
      "outputs": [
        {
          "internalType": "uint256",
          "name": "",
          "type": "uint256"
        }
      ],
      "stateMutability": "view",
      "type": "function"
    },
    {
      "inputs": [
        {
          "internalType": "uint16",
          "name": "_srcChainId",
          "type": "uint16"
        },
        {
          "internalType": "bytes",
          "name": "_srcAddress",
          "type": "bytes"
        },
        {
          "internalType": "uint64",
          "name": "_nonce",
          "type": "uint64"
        },
        {
          "internalType": "bytes",
          "name": "_payload",
          "type": "bytes"
        }
      ],
      "name": "nonblockingLzReceive",
      "outputs": [],
      "stateMutability": "nonpayable",
      "type": "function"
    },
    {
      "inputs": [],
      "name": "owner",
      "outputs": [
        {
          "internalType": "address",
          "name": "",
          "type": "address"
        }
      ],
      "stateMutability": "view",
      "type": "function"
    },
    {
      "inputs": [
        {
          "internalType": "uint16",
          "name": "",
          "type": "uint16"
        }
      ],
      "name": "payloadSizeLimitLookup",
      "outputs": [
        {
          "internalType": "uint256",
          "name": "",
          "type": "uint256"
        }
      ],
      "stateMutability": "view",
      "type": "function"
    },
    {
      "inputs": [],
      "name": "precrime",
      "outputs": [
        {
          "internalType": "address",
          "name": "",
          "type": "address"
        }
      ],
      "stateMutability": "view",
      "type": "function"
    },
    {
      "inputs": [],
      "name": "renounceOwnership",
      "outputs": [],
      "stateMutability": "nonpayable",
      "type": "function"
    },
    {
      "inputs": [
        {
          "internalType": "uint16",
          "name": "_srcChainId",
          "type": "uint16"
        },
        {
          "internalType": "bytes",
          "name": "_srcAddress",
          "type": "bytes"
        },
        {
          "internalType": "uint64",
          "name": "_nonce",
          "type": "uint64"
        },
        {
          "internalType": "bytes",
          "name": "_payload",
          "type": "bytes"
        }
      ],
      "name": "retryMessage",
      "outputs": [],
      "stateMutability": "payable",
      "type": "function"
    },
    {
      "inputs": [
        {
          "internalType": "uint16",
          "name": "_srcChainId",
          "type": "uint16"
        },
        {
          "internalType": "address payable",
          "name": "sender",
          "type": "address"
        },
        {
          "internalType": "bytes",
          "name": "_payload",
          "type": "bytes"
        }
      ],
      "name": "sendLzMsg",
      "outputs": [],
      "stateMutability": "payable",
      "type": "function"
    },
    {
      "inputs": [
        {
          "internalType": "uint16",
          "name": "_version",
          "type": "uint16"
        },
        {
          "internalType": "uint16",
          "name": "_chainId",
          "type": "uint16"
        },
        {
          "internalType": "uint256",
          "name": "_configType",
          "type": "uint256"
        },
        {
          "internalType": "bytes",
          "name": "_config",
          "type": "bytes"
        }
      ],
      "name": "setConfig",
      "outputs": [],
      "stateMutability": "nonpayable",
      "type": "function"
    },
    {
      "inputs": [
        {
          "internalType": "uint16",
          "name": "_dstChainId",
          "type": "uint16"
        },
        {
          "internalType": "uint16",
          "name": "_packetType",
          "type": "uint16"
        },
        {
          "internalType": "uint256",
          "name": "_minGas",
          "type": "uint256"
        }
      ],
      "name": "setMinDstGas",
      "outputs": [],
      "stateMutability": "nonpayable",
      "type": "function"
    },
    {
      "inputs": [
        {
          "internalType": "uint16",
          "name": "dstChainId",
          "type": "uint16"
        },
        {
          "internalType": "address",
          "name": "oracle",
          "type": "address"
        }
      ],
      "name": "setOracle",
      "outputs": [],
      "stateMutability": "nonpayable",
      "type": "function"
    },
    {
      "inputs": [
        {
          "internalType": "address",
          "name": "_atomicswap",
          "type": "address"
        },
        {
          "internalType": "address",
          "name": "_interchainswap",
          "type": "address"
        }
      ],
      "name": "setPacketReceivers",
      "outputs": [],
      "stateMutability": "nonpayable",
      "type": "function"
    },
    {
      "inputs": [
        {
          "internalType": "uint16",
          "name": "_dstChainId",
          "type": "uint16"
        },
        {
          "internalType": "uint256",
          "name": "_size",
          "type": "uint256"
        }
      ],
      "name": "setPayloadSizeLimit",
      "outputs": [],
      "stateMutability": "nonpayable",
      "type": "function"
    },
    {
      "inputs": [
        {
          "internalType": "address",
          "name": "_precrime",
          "type": "address"
        }
      ],
      "name": "setPrecrime",
      "outputs": [],
      "stateMutability": "nonpayable",
      "type": "function"
    },
    {
      "inputs": [
        {
          "internalType": "uint16",
          "name": "_version",
          "type": "uint16"
        }
      ],
      "name": "setReceiveVersion",
      "outputs": [],
      "stateMutability": "nonpayable",
      "type": "function"
    },
    {
      "inputs": [
        {
          "internalType": "uint16",
          "name": "_version",
          "type": "uint16"
        }
      ],
      "name": "setSendVersion",
      "outputs": [],
      "stateMutability": "nonpayable",
      "type": "function"
    },
    {
      "inputs": [
        {
          "internalType": "uint16",
          "name": "_srcChainId",
          "type": "uint16"
        },
        {
          "internalType": "bytes",
          "name": "_path",
          "type": "bytes"
        }
      ],
      "name": "setTrustedRemote",
      "outputs": [],
      "stateMutability": "nonpayable",
      "type": "function"
    },
    {
      "inputs": [
        {
          "internalType": "uint16",
          "name": "_remoteChainId",
          "type": "uint16"
        },
        {
          "internalType": "bytes",
          "name": "_remoteAddress",
          "type": "bytes"
        }
      ],
      "name": "setTrustedRemoteAddress",
      "outputs": [],
      "stateMutability": "nonpayable",
      "type": "function"
    },
    {
      "inputs": [
        {
          "internalType": "address",
          "name": "newOwner",
          "type": "address"
        }
      ],
      "name": "transferOwnership",
      "outputs": [],
      "stateMutability": "nonpayable",
      "type": "function"
    },
    {
      "inputs": [
        {
          "internalType": "uint16",
          "name": "",
          "type": "uint16"
        }
      ],
      "name": "trustedRemoteLookup",
      "outputs": [
        {
          "internalType": "bytes",
          "name": "",
          "type": "bytes"
        }
      ],
      "stateMutability": "view",
      "type": "function"
    }
  ],
  "bytecode": "0x608060405234801561001057600080fd5b50614165806100206000396000f3fe6080604052600436106101cc5760003560e01c80638cfd8f5c116100f7578063c446183411610095578063e4a8b2f911610064578063e4a8b2f914610671578063eb8d72b71461068d578063f2fde38b146106b6578063f5ecbdbc146106df576101cc565b8063c4461834146105d8578063cbed8b9c14610603578063d1deba1f1461062c578063df2a5b3b14610648576101cc565b80639f38369a116100d15780639f38369a1461051e578063a6c3d1651461055b578063b353aaa714610584578063baf3292d146105af576101cc565b80638cfd8f5c1461048b5780638da5cb5b146104c8578063950c8a74146104f3576101cc565b80633f1f4fa41161016f5780635b8c41e61161013e5780635b8c41e6146103d157806366ad5c8a1461040e578063715018a6146104375780637533d7881461044e576101cc565b80633f1f4fa41461031957806342d65a8d14610356578063485cc9551461037f578063492e527e146103a8576101cc565b80630df37483116101ab5780630df374831461026157806310ddb1371461028a5780631d01191b146102b35780633d8b38f6146102dc576101cc565b80621d3567146101d157806307e0db17146101fa5780630bd856fa14610223575b600080fd5b3480156101dd57600080fd5b506101f860048036038101906101f39190612733565b61071c565b005b34801561020657600080fd5b50610221600480360381019061021c91906127da565b610931565b005b34801561022f57600080fd5b5061024a6004803603810190610245919061283f565b6109c9565b6040516102589291906128ff565b60405180910390f35b34801561026d57600080fd5b5061028860048036038101906102839190612954565b610a91565b005b34801561029657600080fd5b506102b160048036038101906102ac91906127da565b610abd565b005b3480156102bf57600080fd5b506102da60048036038101906102d591906129f2565b610b55565b005b3480156102e857600080fd5b5061030360048036038101906102fe9190612a32565b610be3565b6040516103109190612aa1565b60405180910390f35b34801561032557600080fd5b50610340600480360381019061033b91906127da565b610cb7565b60405161034d9190612abc565b60405180910390f35b34801561036257600080fd5b5061037d60048036038101906103789190612a32565b610ccf565b005b34801561038b57600080fd5b506103a660048036038101906103a191906129f2565b610d6d565b005b3480156103b457600080fd5b506103cf60048036038101906103ca9190612ad7565b610ebf565b005b3480156103dd57600080fd5b506103f860048036038101906103f39190612c58565b61102e565b6040516104059190612ce0565b60405180910390f35b34801561041a57600080fd5b5061043560048036038101906104309190612733565b611076565b005b34801561044357600080fd5b5061044c611144565b005b34801561045a57600080fd5b50610475600480360381019061047091906127da565b611158565b6040516104829190612d83565b60405180910390f35b34801561049757600080fd5b506104b260048036038101906104ad9190612da5565b6111f8565b6040516104bf9190612abc565b60405180910390f35b3480156104d457600080fd5b506104dd61121d565b6040516104ea9190612df4565b60405180910390f35b3480156104ff57600080fd5b50610508611247565b6040516105159190612df4565b60405180910390f35b34801561052a57600080fd5b50610545600480360381019061054091906127da565b61126d565b6040516105529190612d83565b60405180910390f35b34801561056757600080fd5b50610582600480360381019061057d9190612a32565b611387565b005b34801561059057600080fd5b50610599611422565b6040516105a69190612e6e565b60405180910390f35b3480156105bb57600080fd5b506105d660048036038101906105d19190612e89565b611448565b005b3480156105e457600080fd5b506105ed6114cb565b6040516105fa9190612abc565b60405180910390f35b34801561060f57600080fd5b5061062a60048036038101906106259190612eb6565b6114d1565b005b61064660048036038101906106419190612733565b611575565b005b34801561065457600080fd5b5061066f600480360381019061066a9190612f3e565b611776565b005b61068b60048036038101906106869190612fcf565b61183a565b005b34801561069957600080fd5b506106b460048036038101906106af9190612a32565b61198a565b005b3480156106c257600080fd5b506106dd60048036038101906106d89190612e89565b6119fd565b005b3480156106eb57600080fd5b5061070660048036038101906107019190613043565b611a81565b6040516107139190612d83565b60405180910390f35b606560009054906101000a900473ffffffffffffffffffffffffffffffffffffffff1673ffffffffffffffffffffffffffffffffffffffff1661075d611b43565b73ffffffffffffffffffffffffffffffffffffffff16146107b3576040517f08c379a00000000000000000000000000000000000000000000000000000000081526004016107aa90613107565b60405180910390fd5b6000606660008861ffff1661ffff16815260200190815260200160002080546107db90613156565b80601f016020809104026020016040519081016040528092919081815260200182805461080790613156565b80156108545780601f1061082957610100808354040283529160200191610854565b820191906000526020600020905b81548152906001019060200180831161083757829003601f168201915b5050505050905080518686905014801561086f575060008151115b801561089857508080519060200120868660405161088e9291906131b8565b6040518091039020145b6108d7576040517f08c379a00000000000000000000000000000000000000000000000000000000081526004016108ce90613243565b60405180910390fd5b6109288787878080601f016020809104026020016040519081016040528093929190818152602001838380828437600081840152601f19601f82011690508083019250505050505050868686611b4b565b50505050505050565b610939611c5d565b606560009054906101000a900473ffffffffffffffffffffffffffffffffffffffff1673ffffffffffffffffffffffffffffffffffffffff166307e0db17826040518263ffffffff1660e01b81526004016109949190613272565b600060405180830381600087803b1580156109ae57600080fd5b505af11580156109c2573d6000803e3d6000fd5b5050505050565b600080606560009054906101000a900473ffffffffffffffffffffffffffffffffffffffff1673ffffffffffffffffffffffffffffffffffffffff166340a7bb10893087878c8c8c6040518863ffffffff1660e01b8152600401610a3397969594939291906132ba565b604080518083038186803b158015610a4a57600080fd5b505afa158015610a5e573d6000803e3d6000fd5b505050506040513d601f19601f82011682018060405250810190610a829190613334565b91509150965096945050505050565b610a99611c5d565b80606860008461ffff1661ffff168152602001908152602001600020819055505050565b610ac5611c5d565b606560009054906101000a900473ffffffffffffffffffffffffffffffffffffffff1673ffffffffffffffffffffffffffffffffffffffff166310ddb137826040518263ffffffff1660e01b8152600401610b209190613272565b600060405180830381600087803b158015610b3a57600080fd5b505af1158015610b4e573d6000803e3d6000fd5b5050505050565b610b5d611c5d565b8160c960006101000a81548173ffffffffffffffffffffffffffffffffffffffff021916908373ffffffffffffffffffffffffffffffffffffffff1602179055508060ca60006101000a81548173ffffffffffffffffffffffffffffffffffffffff021916908373ffffffffffffffffffffffffffffffffffffffff1602179055505050565b600080606660008661ffff1661ffff1681526020019081526020016000208054610c0c90613156565b80601f0160208091040260200160405190810160405280929190818152602001828054610c3890613156565b8015610c855780601f10610c5a57610100808354040283529160200191610c85565b820191906000526020600020905b815481529060010190602001808311610c6857829003601f168201915b505050505090508383604051610c9c9291906131b8565b60405180910390208180519060200120149150509392505050565b60686020528060005260406000206000915090505481565b610cd7611c5d565b606560009054906101000a900473ffffffffffffffffffffffffffffffffffffffff1673ffffffffffffffffffffffffffffffffffffffff166342d65a8d8484846040518463ffffffff1660e01b8152600401610d3693929190613374565b600060405180830381600087803b158015610d5057600080fd5b505af1158015610d64573d6000803e3d6000fd5b50505050505050565b60008060019054906101000a900460ff16159050808015610d9e5750600160008054906101000a900460ff1660ff16105b80610dcb5750610dad30611cdb565b158015610dca5750600160008054906101000a900460ff1660ff16145b5b610e0a576040517f08c379a0000000000000000000000000000000000000000000000000000000008152600401610e0190613418565b60405180910390fd5b60016000806101000a81548160ff021916908360ff1602179055508015610e47576001600060016101000a81548160ff0219169083151502179055505b610e4f611cfe565b610e58836119fd565b610e6182611d5f565b8015610eba5760008060016101000a81548160ff0219169083151502179055507f7f26b83ff96e1f2b6a682f133852f6798a09c465da95921460cefb38474024986001604051610eb19190613480565b60405180910390a15b505050565b610ec7611c5d565b600060069050606560009054906101000a900473ffffffffffffffffffffffffffffffffffffffff1673ffffffffffffffffffffffffffffffffffffffff1663cbed8b9c606560009054906101000a900473ffffffffffffffffffffffffffffffffffffffff1673ffffffffffffffffffffffffffffffffffffffff1663096568f6306040518263ffffffff1660e01b8152600401610f669190612df4565b60206040518083038186803b158015610f7e57600080fd5b505afa158015610f92573d6000803e3d6000fd5b505050506040513d601f19601f82011682018060405250810190610fb691906134b0565b858486604051602001610fc99190612df4565b6040516020818303038152906040526040518563ffffffff1660e01b8152600401610ff794939291906134dd565b600060405180830381600087803b15801561101157600080fd5b505af1158015611025573d6000803e3d6000fd5b50505050505050565b60976020528260005260406000208280516020810182018051848252602083016020850120818352809550505050505060205280600052604060002060009250925050505481565b3073ffffffffffffffffffffffffffffffffffffffff16611095611b43565b73ffffffffffffffffffffffffffffffffffffffff16146110eb576040517f08c379a00000000000000000000000000000000000000000000000000000000081526004016110e29061359b565b60405180910390fd5b61113c8686868080601f016020809104026020016040519081016040528093929190818152602001838380828437600081840152601f19601f82011690508083019250505050505050858585611dc2565b505050505050565b61114c611c5d565b6111566000611f4a565b565b6066602052806000526040600020600091509050805461117790613156565b80601f01602080910402602001604051908101604052809291908181526020018280546111a390613156565b80156111f05780601f106111c5576101008083540402835291602001916111f0565b820191906000526020600020905b8154815290600101906020018083116111d357829003601f168201915b505050505081565b6067602052816000526040600020602052806000526040600020600091509150505481565b6000603360009054906101000a900473ffffffffffffffffffffffffffffffffffffffff16905090565b606960009054906101000a900473ffffffffffffffffffffffffffffffffffffffff1681565b60606000606660008461ffff1661ffff168152602001908152602001600020805461129790613156565b80601f01602080910402602001604051908101604052809291908181526020018280546112c390613156565b80156113105780601f106112e557610100808354040283529160200191611310565b820191906000526020600020905b8154815290600101906020018083116112f357829003601f168201915b5050505050905060008151141561135c576040517f08c379a000000000000000000000000000000000000000000000000000000000815260040161135390613607565b60405180910390fd5b61137f60006014835161136f9190613656565b836120109092919063ffffffff16565b915050919050565b61138f611c5d565b8181306040516020016113a4939291906136d2565b604051602081830303815290604052606660008561ffff1661ffff16815260200190815260200160002090805190602001906113e1929190612517565b507f8c0400cfe2d1199b1a725c78960bcc2a344d869b80590d0f2bd005db15a572ce83838360405161141593929190613374565b60405180910390a1505050565b606560009054906101000a900473ffffffffffffffffffffffffffffffffffffffff1681565b611450611c5d565b80606960006101000a81548173ffffffffffffffffffffffffffffffffffffffff021916908373ffffffffffffffffffffffffffffffffffffffff1602179055507f5db758e995a17ec1ad84bdef7e8c3293a0bd6179bcce400dff5d4c3d87db726b816040516114c09190612df4565b60405180910390a150565b61271081565b6114d9611c5d565b606560009054906101000a900473ffffffffffffffffffffffffffffffffffffffff1673ffffffffffffffffffffffffffffffffffffffff1663cbed8b9c86868686866040518663ffffffff1660e01b815260040161153c9594939291906136fc565b600060405180830381600087803b15801561155657600080fd5b505af115801561156a573d6000803e3d6000fd5b505050505050505050565b6000609760008861ffff1661ffff16815260200190815260200160002086866040516115a29291906131b8565b908152602001604051809103902060008567ffffffffffffffff1667ffffffffffffffff1681526020019081526020016000205490506000801b81141561161e576040517f08c379a0000000000000000000000000000000000000000000000000000000008152600401611615906137bc565b60405180910390fd5b80838360405161162f9291906131b8565b604051809103902014611677576040517f08c379a000000000000000000000000000000000000000000000000000000000815260040161166e9061384e565b60405180910390fd5b6000801b609760008961ffff1661ffff16815260200190815260200160002087876040516116a69291906131b8565b908152602001604051809103902060008667ffffffffffffffff1667ffffffffffffffff1681526020019081526020016000208190555061172e8787878080601f016020809104026020016040519081016040528093929190818152602001838380828437600081840152601f19601f82011690508083019250505050505050868686611dc2565b7fc264d91f3adc5588250e1551f547752ca0cfa8f6b530d243b9f9f4cab10ea8e5878787878560405161176595949392919061387d565b60405180910390a150505050505050565b61177e611c5d565b600081116117c1576040517f08c379a00000000000000000000000000000000000000000000000000000000081526004016117b890613917565b60405180910390fd5b80606760008561ffff1661ffff16815260200190815260200160002060008461ffff1661ffff168152602001908152602001600020819055507f9d5c7c0b934da8fefa9c7760c98383778a12dfbfc0c3b3106518f43fb9508ac083838360405161182d93929190613937565b60405180910390a1505050565b60c960009054906101000a900473ffffffffffffffffffffffffffffffffffffffff1673ffffffffffffffffffffffffffffffffffffffff163373ffffffffffffffffffffffffffffffffffffffff1614806118e3575060ca60009054906101000a900473ffffffffffffffffffffffffffffffffffffffff1673ffffffffffffffffffffffffffffffffffffffff163373ffffffffffffffffffffffffffffffffffffffff16145b611922576040517f08c379a0000000000000000000000000000000000000000000000000000000008152600401611919906139ba565b60405180910390fd5b6119848483838080601f016020809104026020016040519081016040528093929190818152602001838380828437600081840152601f19601f82011690508083019250505050505050856000604051806020016040528060008152503461212e565b50505050565b611992611c5d565b8181606660008661ffff1661ffff16815260200190815260200160002091906119bc92919061259d565b507ffa41487ad5d6728f0b19276fa1eddc16558578f5109fc39d2dc33c3230470dab8383836040516119f093929190613374565b60405180910390a1505050565b611a05611c5d565b600073ffffffffffffffffffffffffffffffffffffffff168173ffffffffffffffffffffffffffffffffffffffff161415611a75576040517f08c379a0000000000000000000000000000000000000000000000000000000008152600401611a6c90613a4c565b60405180910390fd5b611a7e81611f4a565b50565b6060606560009054906101000a900473ffffffffffffffffffffffffffffffffffffffff1673ffffffffffffffffffffffffffffffffffffffff1663f5ecbdbc868630866040518563ffffffff1660e01b8152600401611ae49493929190613a6c565b60006040518083038186803b158015611afc57600080fd5b505afa158015611b10573d6000803e3d6000fd5b505050506040513d6000823e3d601f19601f82011682018060405250810190611b399190613b21565b9050949350505050565b600033905090565b600080611bf95a60966366ad5c8a60e01b8a8a8a8a8a604051602401611b75959493929190613b6a565b604051602081830303815290604052907bffffffffffffffffffffffffffffffffffffffffffffffffffffffff19166020820180517bffffffffffffffffffffffffffffffffffffffffffffffffffffffff83818316178352505050503073ffffffffffffffffffffffffffffffffffffffff166122c7909392919063ffffffff16565b9150915081611c5457611c5387878787878080601f016020809104026020016040519081016040528093929190818152602001838380828437600081840152601f19601f820116905080830192505050505050508561235f565b5b50505050505050565b611c65611b43565b73ffffffffffffffffffffffffffffffffffffffff16611c8361121d565b73ffffffffffffffffffffffffffffffffffffffff1614611cd9576040517f08c379a0000000000000000000000000000000000000000000000000000000008152600401611cd090613c0b565b60405180910390fd5b565b6000808273ffffffffffffffffffffffffffffffffffffffff163b119050919050565b600060019054906101000a900460ff16611d4d576040517f08c379a0000000000000000000000000000000000000000000000000000000008152600401611d4490613c9d565b60405180910390fd5b611d5d611d58611b43565b611f4a565b565b600060019054906101000a900460ff16611dae576040517f08c379a0000000000000000000000000000000000000000000000000000000008152600401611da590613c9d565b60405180910390fd5b611db6611cfe565b611dbf8161240d565b50565b60008282600090602092611dd893929190613cc7565b90611de39190613d1a565b90506000801b811415611e9b5760c960009054906101000a900473ffffffffffffffffffffffffffffffffffffffff1673ffffffffffffffffffffffffffffffffffffffff166340d7185c87878787876020908092611e4493929190613cc7565b6040518663ffffffff1660e01b8152600401611e64959493929190613d79565b600060405180830381600087803b158015611e7e57600080fd5b505af1158015611e92573d6000803e3d6000fd5b50505050611f42565b60ca60009054906101000a900473ffffffffffffffffffffffffffffffffffffffff1673ffffffffffffffffffffffffffffffffffffffff166340d7185c87878787876020908092611eef93929190613cc7565b6040518663ffffffff1660e01b8152600401611f0f959493929190613d79565b600060405180830381600087803b158015611f2957600080fd5b505af1158015611f3d573d6000803e3d6000fd5b505050505b505050505050565b6000603360009054906101000a900473ffffffffffffffffffffffffffffffffffffffff16905081603360006101000a81548173ffffffffffffffffffffffffffffffffffffffff021916908373ffffffffffffffffffffffffffffffffffffffff1602179055508173ffffffffffffffffffffffffffffffffffffffff168173ffffffffffffffffffffffffffffffffffffffff167f8be0079c531659141344cd1fd0a4f28419497f9722a3daafe3b4186f6b6457e060405160405180910390a35050565b606081601f836120209190613dce565b1015612061576040517f08c379a000000000000000000000000000000000000000000000000000000000815260040161205890613e70565b60405180910390fd5b818361206d9190613dce565b845110156120b0576040517f08c379a00000000000000000000000000000000000000000000000000000000081526004016120a790613edc565b60405180910390fd5b60608215600081146120d15760405191506000825260208201604052612122565b6040519150601f8416801560200281840101858101878315602002848b0101015b8183101561210f57805183526020830192506020810190506120f2565b50868552601f19601f8301166040525050505b50809150509392505050565b6000606660008861ffff1661ffff168152602001908152602001600020805461215690613156565b80601f016020809104026020016040519081016040528092919081815260200182805461218290613156565b80156121cf5780601f106121a4576101008083540402835291602001916121cf565b820191906000526020600020905b8154815290600101906020018083116121b257829003601f168201915b5050505050905060008151141561221b576040517f08c379a000000000000000000000000000000000000000000000000000000000815260040161221290613f6e565b60405180910390fd5b6122268787516124a0565b606560009054906101000a900473ffffffffffffffffffffffffffffffffffffffff1673ffffffffffffffffffffffffffffffffffffffff1663c58031008389848a8a8a8a6040518863ffffffff1660e01b815260040161228c96959493929190613f9d565b6000604051808303818588803b1580156122a557600080fd5b505af11580156122b9573d6000803e3d6000fd5b505050505050505050505050565b6000606060008060008661ffff1667ffffffffffffffff8111156122ee576122ed612b2d565b5b6040519080825280601f01601f1916602001820160405280156123205781602001600182028036833780820191505090505b50905060008087516020890160008d8df191503d925086831115612342578692505b828152826000602083013e81819450945050505094509492505050565b8180519060200120609760008761ffff1661ffff168152602001908152602001600020856040516123909190614044565b908152602001604051809103902060008567ffffffffffffffff1667ffffffffffffffff168152602001908152602001600020819055507fe183f33de2837795525b4792ca4cd60535bd77c53b7e7030060bfcf5734d6b0c85858585856040516123fe95949392919061405b565b60405180910390a15050505050565b600060019054906101000a900460ff1661245c576040517f08c379a000000000000000000000000000000000000000000000000000000000815260040161245390613c9d565b60405180910390fd5b80606560006101000a81548173ffffffffffffffffffffffffffffffffffffffff021916908373ffffffffffffffffffffffffffffffffffffffff16021790555050565b6000606860008461ffff1661ffff16815260200190815260200160002054905060008114156124cf5761271090505b80821115612512576040517f08c379a00000000000000000000000000000000000000000000000000000000081526004016125099061410f565b60405180910390fd5b505050565b82805461252390613156565b90600052602060002090601f016020900481019282612545576000855561258c565b82601f1061255e57805160ff191683800117855561258c565b8280016001018555821561258c579182015b8281111561258b578251825591602001919060010190612570565b5b5090506125999190612623565b5090565b8280546125a990613156565b90600052602060002090601f0160209004810192826125cb5760008555612612565b82601f106125e457803560ff1916838001178555612612565b82800160010185558215612612579182015b828111156126115782358255916020019190600101906125f6565b5b50905061261f9190612623565b5090565b5b8082111561263c576000816000905550600101612624565b5090565b6000604051905090565b600080fd5b600080fd5b600061ffff82169050919050565b61266b81612654565b811461267657600080fd5b50565b60008135905061268881612662565b92915050565b600080fd5b600080fd5b600080fd5b60008083601f8401126126b3576126b261268e565b5b8235905067ffffffffffffffff8111156126d0576126cf612693565b5b6020830191508360018202830111156126ec576126eb612698565b5b9250929050565b600067ffffffffffffffff82169050919050565b612710816126f3565b811461271b57600080fd5b50565b60008135905061272d81612707565b92915050565b600080600080600080608087890312156127505761274f61264a565b5b600061275e89828a01612679565b965050602087013567ffffffffffffffff81111561277f5761277e61264f565b5b61278b89828a0161269d565b9550955050604061279e89828a0161271e565b935050606087013567ffffffffffffffff8111156127bf576127be61264f565b5b6127cb89828a0161269d565b92509250509295509295509295565b6000602082840312156127f0576127ef61264a565b5b60006127fe84828501612679565b91505092915050565b60008115159050919050565b61281c81612807565b811461282757600080fd5b50565b60008135905061283981612813565b92915050565b6000806000806000806080878903121561285c5761285b61264a565b5b600061286a89828a01612679565b965050602061287b89828a0161282a565b955050604087013567ffffffffffffffff81111561289c5761289b61264f565b5b6128a889828a0161269d565b9450945050606087013567ffffffffffffffff8111156128cb576128ca61264f565b5b6128d789828a0161269d565b92509250509295509295509295565b6000819050919050565b6128f9816128e6565b82525050565b600060408201905061291460008301856128f0565b61292160208301846128f0565b9392505050565b612931816128e6565b811461293c57600080fd5b50565b60008135905061294e81612928565b92915050565b6000806040838503121561296b5761296a61264a565b5b600061297985828601612679565b925050602061298a8582860161293f565b9150509250929050565b600073ffffffffffffffffffffffffffffffffffffffff82169050919050565b60006129bf82612994565b9050919050565b6129cf816129b4565b81146129da57600080fd5b50565b6000813590506129ec816129c6565b92915050565b60008060408385031215612a0957612a0861264a565b5b6000612a17858286016129dd565b9250506020612a28858286016129dd565b9150509250929050565b600080600060408486031215612a4b57612a4a61264a565b5b6000612a5986828701612679565b935050602084013567ffffffffffffffff811115612a7a57612a7961264f565b5b612a868682870161269d565b92509250509250925092565b612a9b81612807565b82525050565b6000602082019050612ab66000830184612a92565b92915050565b6000602082019050612ad160008301846128f0565b92915050565b60008060408385031215612aee57612aed61264a565b5b6000612afc85828601612679565b9250506020612b0d858286016129dd565b9150509250929050565b600080fd5b6000601f19601f8301169050919050565b7f4e487b7100000000000000000000000000000000000000000000000000000000600052604160045260246000fd5b612b6582612b1c565b810181811067ffffffffffffffff82111715612b8457612b83612b2d565b5b80604052505050565b6000612b97612640565b9050612ba38282612b5c565b919050565b600067ffffffffffffffff821115612bc357612bc2612b2d565b5b612bcc82612b1c565b9050602081019050919050565b82818337600083830152505050565b6000612bfb612bf684612ba8565b612b8d565b905082815260208101848484011115612c1757612c16612b17565b5b612c22848285612bd9565b509392505050565b600082601f830112612c3f57612c3e61268e565b5b8135612c4f848260208601612be8565b91505092915050565b600080600060608486031215612c7157612c7061264a565b5b6000612c7f86828701612679565b935050602084013567ffffffffffffffff811115612ca057612c9f61264f565b5b612cac86828701612c2a565b9250506040612cbd8682870161271e565b9150509250925092565b6000819050919050565b612cda81612cc7565b82525050565b6000602082019050612cf56000830184612cd1565b92915050565b600081519050919050565b600082825260208201905092915050565b60005b83811015612d35578082015181840152602081019050612d1a565b83811115612d44576000848401525b50505050565b6000612d5582612cfb565b612d5f8185612d06565b9350612d6f818560208601612d17565b612d7881612b1c565b840191505092915050565b60006020820190508181036000830152612d9d8184612d4a565b905092915050565b60008060408385031215612dbc57612dbb61264a565b5b6000612dca85828601612679565b9250506020612ddb85828601612679565b9150509250929050565b612dee816129b4565b82525050565b6000602082019050612e096000830184612de5565b92915050565b6000819050919050565b6000612e34612e2f612e2a84612994565b612e0f565b612994565b9050919050565b6000612e4682612e19565b9050919050565b6000612e5882612e3b565b9050919050565b612e6881612e4d565b82525050565b6000602082019050612e836000830184612e5f565b92915050565b600060208284031215612e9f57612e9e61264a565b5b6000612ead848285016129dd565b91505092915050565b600080600080600060808688031215612ed257612ed161264a565b5b6000612ee088828901612679565b9550506020612ef188828901612679565b9450506040612f028882890161293f565b935050606086013567ffffffffffffffff811115612f2357612f2261264f565b5b612f2f8882890161269d565b92509250509295509295909350565b600080600060608486031215612f5757612f5661264a565b5b6000612f6586828701612679565b9350506020612f7686828701612679565b9250506040612f878682870161293f565b9150509250925092565b6000612f9c82612994565b9050919050565b612fac81612f91565b8114612fb757600080fd5b50565b600081359050612fc981612fa3565b92915050565b60008060008060608587031215612fe957612fe861264a565b5b6000612ff787828801612679565b945050602061300887828801612fba565b935050604085013567ffffffffffffffff8111156130295761302861264f565b5b6130358782880161269d565b925092505092959194509250565b6000806000806080858703121561305d5761305c61264a565b5b600061306b87828801612679565b945050602061307c87828801612679565b935050604061308d878288016129dd565b925050606061309e8782880161293f565b91505092959194509250565b600082825260208201905092915050565b7f4c7a4170703a20696e76616c696420656e64706f696e742063616c6c65720000600082015250565b60006130f1601e836130aa565b91506130fc826130bb565b602082019050919050565b60006020820190508181036000830152613120816130e4565b9050919050565b7f4e487b7100000000000000000000000000000000000000000000000000000000600052602260045260246000fd5b6000600282049050600182168061316e57607f821691505b6020821081141561318257613181613127565b5b50919050565b600081905092915050565b600061319f8385613188565b93506131ac838584612bd9565b82840190509392505050565b60006131c5828486613193565b91508190509392505050565b7f4c7a4170703a20696e76616c696420736f757263652073656e64696e6720636f60008201527f6e74726163740000000000000000000000000000000000000000000000000000602082015250565b600061322d6026836130aa565b9150613238826131d1565b604082019050919050565b6000602082019050818103600083015261325c81613220565b9050919050565b61326c81612654565b82525050565b60006020820190506132876000830184613263565b92915050565b60006132998385612d06565b93506132a6838584612bd9565b6132af83612b1c565b840190509392505050565b600060a0820190506132cf600083018a613263565b6132dc6020830189612de5565b81810360408301526132ef81878961328d565b90506132fe6060830186612a92565b818103608083015261331181848661328d565b905098975050505050505050565b60008151905061332e81612928565b92915050565b6000806040838503121561334b5761334a61264a565b5b60006133598582860161331f565b925050602061336a8582860161331f565b9150509250929050565b60006040820190506133896000830186613263565b818103602083015261339c81848661328d565b9050949350505050565b7f496e697469616c697a61626c653a20636f6e747261637420697320616c72656160008201527f647920696e697469616c697a6564000000000000000000000000000000000000602082015250565b6000613402602e836130aa565b915061340d826133a6565b604082019050919050565b60006020820190508181036000830152613431816133f5565b9050919050565b6000819050919050565b600060ff82169050919050565b600061346a61346561346084613438565b612e0f565b613442565b9050919050565b61347a8161344f565b82525050565b60006020820190506134956000830184613471565b92915050565b6000815190506134aa81612662565b92915050565b6000602082840312156134c6576134c561264a565b5b60006134d48482850161349b565b91505092915050565b60006080820190506134f26000830187613263565b6134ff6020830186613263565b61350c60408301856128f0565b818103606083015261351e8184612d4a565b905095945050505050565b7f4e6f6e626c6f636b696e674c7a4170703a2063616c6c6572206d75737420626560008201527f204c7a4170700000000000000000000000000000000000000000000000000000602082015250565b60006135856026836130aa565b915061359082613529565b604082019050919050565b600060208201905081810360008301526135b481613578565b9050919050565b7f4c7a4170703a206e6f20747275737465642070617468207265636f7264000000600082015250565b60006135f1601d836130aa565b91506135fc826135bb565b602082019050919050565b60006020820190508181036000830152613620816135e4565b9050919050565b7f4e487b7100000000000000000000000000000000000000000000000000000000600052601160045260246000fd5b6000613661826128e6565b915061366c836128e6565b92508282101561367f5761367e613627565b5b828203905092915050565b60008160601b9050919050565b60006136a28261368a565b9050919050565b60006136b482613697565b9050919050565b6136cc6136c7826129b4565b6136a9565b82525050565b60006136df828587613193565b91506136eb82846136bb565b601482019150819050949350505050565b60006080820190506137116000830188613263565b61371e6020830187613263565b61372b60408301866128f0565b818103606083015261373e81848661328d565b90509695505050505050565b7f4e6f6e626c6f636b696e674c7a4170703a206e6f2073746f726564206d65737360008201527f6167650000000000000000000000000000000000000000000000000000000000602082015250565b60006137a66023836130aa565b91506137b18261374a565b604082019050919050565b600060208201905081810360008301526137d581613799565b9050919050565b7f4e6f6e626c6f636b696e674c7a4170703a20696e76616c6964207061796c6f6160008201527f6400000000000000000000000000000000000000000000000000000000000000602082015250565b60006138386021836130aa565b9150613843826137dc565b604082019050919050565b600060208201905081810360008301526138678161382b565b9050919050565b613877816126f3565b82525050565b60006080820190506138926000830188613263565b81810360208301526138a581868861328d565b90506138b4604083018561386e565b6138c16060830184612cd1565b9695505050505050565b7f4c7a4170703a20696e76616c6964206d696e4761730000000000000000000000600082015250565b60006139016015836130aa565b915061390c826138cb565b602082019050919050565b60006020820190508181036000830152613930816138f4565b9050919050565b600060608201905061394c6000830186613263565b6139596020830185613263565b61396660408301846128f0565b949350505050565b7f4e6f207065726d697373696f6e20746f20757365000000000000000000000000600082015250565b60006139a46014836130aa565b91506139af8261396e565b602082019050919050565b600060208201905081810360008301526139d381613997565b9050919050565b7f4f776e61626c653a206e6577206f776e657220697320746865207a65726f206160008201527f6464726573730000000000000000000000000000000000000000000000000000602082015250565b6000613a366026836130aa565b9150613a41826139da565b604082019050919050565b60006020820190508181036000830152613a6581613a29565b9050919050565b6000608082019050613a816000830187613263565b613a8e6020830186613263565b613a9b6040830185612de5565b613aa860608301846128f0565b95945050505050565b6000613ac4613abf84612ba8565b612b8d565b905082815260208101848484011115613ae057613adf612b17565b5b613aeb848285612d17565b509392505050565b600082601f830112613b0857613b0761268e565b5b8151613b18848260208601613ab1565b91505092915050565b600060208284031215613b3757613b3661264a565b5b600082015167ffffffffffffffff811115613b5557613b5461264f565b5b613b6184828501613af3565b91505092915050565b6000608082019050613b7f6000830188613263565b8181036020830152613b918187612d4a565b9050613ba0604083018661386e565b8181036060830152613bb381848661328d565b90509695505050505050565b7f4f776e61626c653a2063616c6c6572206973206e6f7420746865206f776e6572600082015250565b6000613bf56020836130aa565b9150613c0082613bbf565b602082019050919050565b60006020820190508181036000830152613c2481613be8565b9050919050565b7f496e697469616c697a61626c653a20636f6e7472616374206973206e6f74206960008201527f6e697469616c697a696e67000000000000000000000000000000000000000000602082015250565b6000613c87602b836130aa565b9150613c9282613c2b565b604082019050919050565b60006020820190508181036000830152613cb681613c7a565b9050919050565b600080fd5b600080fd5b60008085851115613cdb57613cda613cbd565b5b83861115613cec57613ceb613cc2565b5b6001850283019150848603905094509492505050565b600082905092915050565b600082821b905092915050565b6000613d268383613d02565b82613d318135612cc7565b92506020821015613d7157613d6c7fffffffffffffffffffffffffffffffffffffffffffffffffffffffffffffffff83602003600802613d0d565b831692505b505092915050565b6000608082019050613d8e6000830188613263565b8181036020830152613da08187612d4a565b9050613daf604083018661386e565b8181036060830152613dc281848661328d565b90509695505050505050565b6000613dd9826128e6565b9150613de4836128e6565b9250827fffffffffffffffffffffffffffffffffffffffffffffffffffffffffffffffff03821115613e1957613e18613627565b5b828201905092915050565b7f736c6963655f6f766572666c6f77000000000000000000000000000000000000600082015250565b6000613e5a600e836130aa565b9150613e6582613e24565b602082019050919050565b60006020820190508181036000830152613e8981613e4d565b9050919050565b7f736c6963655f6f75744f66426f756e6473000000000000000000000000000000600082015250565b6000613ec66011836130aa565b9150613ed182613e90565b602082019050919050565b60006020820190508181036000830152613ef581613eb9565b9050919050565b7f4c7a4170703a2064657374696e6174696f6e20636861696e206973206e6f742060008201527f61207472757374656420736f7572636500000000000000000000000000000000602082015250565b6000613f586030836130aa565b9150613f6382613efc565b604082019050919050565b60006020820190508181036000830152613f8781613f4b565b9050919050565b613f9781612f91565b82525050565b600060c082019050613fb26000830189613263565b8181036020830152613fc48188612d4a565b90508181036040830152613fd88187612d4a565b9050613fe76060830186613f8e565b613ff46080830185612de5565b81810360a08301526140068184612d4a565b9050979650505050505050565b600061401e82612cfb565b6140288185613188565b9350614038818560208601612d17565b80840191505092915050565b60006140508284614013565b915081905092915050565b600060a0820190506140706000830188613263565b81810360208301526140828187612d4a565b9050614091604083018661386e565b81810360608301526140a38185612d4a565b905081810360808301526140b78184612d4a565b90509695505050505050565b7f4c7a4170703a207061796c6f61642073697a6520697320746f6f206c61726765600082015250565b60006140f96020836130aa565b9150614104826140c3565b602082019050919050565b60006020820190508181036000830152614128816140ec565b905091905056fea26469706673582212202308ec42e71e1e41bc1e654227a492bdd3ecd81734787eced0a16e18c2d3465764736f6c63430008090033",
  "linkReferences": {},
  "deployedLinkReferences": {}
}