{
  "_format": "hh-sol-artifact-1",
  "contractName": "MockToken",
  "sourceName": "contracts/mocks/MockToken.sol",
  "abi": [
    {
      "inputs": [
        {
          "internalType": "string",
          "name": "name",
          "type": "string"
        },
        {
          "internalType": "string",
          "name": "symbol",
          "type": "string"
        }
      ],
      "stateMutability": "nonpayable",
      "type": "constructor"
    },
    {
      "anonymous": false,
      "inputs": [
        {
          "indexed": true,
          "internalType": "address",
          "name": "owner",
          "type": "address"
        },
        {
          "indexed": true,
          "internalType": "address",
          "name": "spender",
          "type": "address"
        },
        {
          "indexed": false,
          "internalType": "uint256",
          "name": "value",
          "type": "uint256"
        }
      ],
      "name": "Approval",
      "type": "event"
    },
    {
      "anonymous": false,
      "inputs": [
        {
          "indexed": true,
          "internalType": "address",
          "name": "from",
          "type": "address"
        },
        {
          "indexed": true,
          "internalType": "address",
          "name": "to",
          "type": "address"
        },
        {
          "indexed": false,
          "internalType": "uint256",
          "name": "value",
          "type": "uint256"
        }
      ],
      "name": "Transfer",
      "type": "event"
    },
    {
      "inputs": [
        {
          "internalType": "address",
          "name": "owner",
          "type": "address"
        },
        {
          "internalType": "address",
          "name": "spender",
          "type": "address"
        }
      ],
      "name": "allowance",
      "outputs": [
        {
          "internalType": "uint256",
          "name": "",
          "type": "uint256"
        }
      ],
      "stateMutability": "view",
      "type": "function"
    },
    {
      "inputs": [
        {
          "internalType": "address",
          "name": "spender",
          "type": "address"
        },
        {
          "internalType": "uint256",
          "name": "amount",
          "type": "uint256"
        }
      ],
      "name": "approve",
      "outputs": [
        {
          "internalType": "bool",
          "name": "",
          "type": "bool"
        }
      ],
      "stateMutability": "nonpayable",
      "type": "function"
    },
    {
      "inputs": [
        {
          "internalType": "address",
          "name": "account",
          "type": "address"
        }
      ],
      "name": "balanceOf",
      "outputs": [
        {
          "internalType": "uint256",
          "name": "",
          "type": "uint256"
        }
      ],
      "stateMutability": "view",
      "type": "function"
    },
    {
      "inputs": [],
      "name": "decimals",
      "outputs": [
        {
          "internalType": "uint8",
          "name": "",
          "type": "uint8"
        }
      ],
      "stateMutability": "view",
      "type": "function"
    },
    {
      "inputs": [
        {
          "internalType": "address",
          "name": "spender",
          "type": "address"
        },
        {
          "internalType": "uint256",
          "name": "subtractedValue",
          "type": "uint256"
        }
      ],
      "name": "decreaseAllowance",
      "outputs": [
        {
          "internalType": "bool",
          "name": "",
          "type": "bool"
        }
      ],
      "stateMutability": "nonpayable",
      "type": "function"
    },
    {
      "inputs": [],
      "name": "failTransferFrom",
      "outputs": [
        {
          "internalType": "bool",
          "name": "",
          "type": "bool"
        }
      ],
      "stateMutability": "view",
      "type": "function"
    },
    {
      "inputs": [
        {
          "internalType": "address",
          "name": "spender",
          "type": "address"
        },
        {
          "internalType": "uint256",
          "name": "addedValue",
          "type": "uint256"
        }
      ],
      "name": "increaseAllowance",
      "outputs": [
        {
          "internalType": "bool",
          "name": "",
          "type": "bool"
        }
      ],
      "stateMutability": "nonpayable",
      "type": "function"
    },
    {
      "inputs": [
        {
          "internalType": "address",
          "name": "to",
          "type": "address"
        },
        {
          "internalType": "uint256",
          "name": "amount",
          "type": "uint256"
        }
      ],
      "name": "mint",
      "outputs": [],
      "stateMutability": "nonpayable",
      "type": "function"
    },
    {
      "inputs": [],
      "name": "name",
      "outputs": [
        {
          "internalType": "string",
          "name": "",
          "type": "string"
        }
      ],
      "stateMutability": "view",
      "type": "function"
    },
    {
      "inputs": [
        {
          "internalType": "bool",
          "name": "_value",
          "type": "bool"
        }
      ],
      "name": "setFailTransferFrom",
      "outputs": [],
      "stateMutability": "nonpayable",
      "type": "function"
    },
    {
      "inputs": [],
      "name": "symbol",
      "outputs": [
        {
          "internalType": "string",
          "name": "",
          "type": "string"
        }
      ],
      "stateMutability": "view",
      "type": "function"
    },
    {
      "inputs": [],
      "name": "totalSupply",
      "outputs": [
        {
          "internalType": "uint256",
          "name": "",
          "type": "uint256"
        }
      ],
      "stateMutability": "view",
      "type": "function"
    },
    {
      "inputs": [
        {
          "internalType": "address",
          "name": "to",
          "type": "address"
        },
        {
          "internalType": "uint256",
          "name": "amount",
          "type": "uint256"
        }
      ],
      "name": "transfer",
      "outputs": [
        {
          "internalType": "bool",
          "name": "",
          "type": "bool"
        }
      ],
      "stateMutability": "nonpayable",
      "type": "function"
    },
    {
      "inputs": [
        {
          "internalType": "address",
          "name": "sender",
          "type": "address"
        },
        {
          "internalType": "address",
          "name": "recipient",
          "type": "address"
        },
        {
          "internalType": "uint256",
          "name": "amount",
          "type": "uint256"
        }
      ],
      "name": "transferFrom",
      "outputs": [
        {
          "internalType": "bool",
          "name": "",
          "type": "bool"
        }
      ],
      "stateMutability": "nonpayable",
      "type": "function"
    }
  ],
  "bytecode": "0x60806040526000600560006101000a81548160ff0219169083151502179055503480156200002c57600080fd5b5060405162001a9638038062001a968339818101604052810190620000529190620002fc565b818181600390805190602001906200006c929190620000af565b50806004908051906020019062000085929190620000af565b505050620000a4670fab5d1f4bd8d69a60c01b620000ac60201b60201c565b5050620003e6565b50565b828054620000bd90620003b0565b90600052602060002090601f016020900481019282620000e157600085556200012d565b82601f10620000fc57805160ff19168380011785556200012d565b828001600101855582156200012d579182015b828111156200012c5782518255916020019190600101906200010f565b5b5090506200013c919062000140565b5090565b5b808211156200015b57600081600090555060010162000141565b5090565b6000604051905090565b600080fd5b600080fd5b600080fd5b600080fd5b6000601f19601f8301169050919050565b7f4e487b7100000000000000000000000000000000000000000000000000000000600052604160045260246000fd5b620001c8826200017d565b810181811067ffffffffffffffff82111715620001ea57620001e96200018e565b5b80604052505050565b6000620001ff6200015f565b90506200020d8282620001bd565b919050565b600067ffffffffffffffff82111562000230576200022f6200018e565b5b6200023b826200017d565b9050602081019050919050565b60005b83811015620002685780820151818401526020810190506200024b565b8381111562000278576000848401525b50505050565b6000620002956200028f8462000212565b620001f3565b905082815260208101848484011115620002b457620002b362000178565b5b620002c184828562000248565b509392505050565b600082601f830112620002e157620002e062000173565b5b8151620002f38482602086016200027e565b91505092915050565b6000806040838503121562000316576200031562000169565b5b600083015167ffffffffffffffff8111156200033757620003366200016e565b5b6200034585828601620002c9565b925050602083015167ffffffffffffffff8111156200036957620003686200016e565b5b6200037785828601620002c9565b9150509250929050565b7f4e487b7100000000000000000000000000000000000000000000000000000000600052602260045260246000fd5b60006002820490506001821680620003c957607f821691505b60208210811415620003e057620003df62000381565b5b50919050565b6116a080620003f66000396000f3fe608060405234801561001057600080fd5b50600436106100ea5760003560e01c806340c10f191161008c578063a457c2d711610066578063a457c2d71461025f578063a9059cbb1461028f578063d17c8d43146102bf578063dd62ed3e146102dd576100ea565b806340c10f19146101f557806370a082311461021157806395d89b4114610241576100ea565b806323b872dd116100c857806323b872dd1461015b578063313ce5671461018b57806339509351146101a95780633c57c565146101d9576100ea565b806306fdde03146100ef578063095ea7b31461010d57806318160ddd1461013d575b600080fd5b6100f761030d565b6040516101049190610e95565b60405180910390f35b61012760048036038101906101229190610f50565b61039f565b6040516101349190610fab565b60405180910390f35b6101456103c2565b6040516101529190610fd5565b60405180910390f35b61017560048036038101906101709190610ff0565b6103cc565b6040516101829190610fab565b60405180910390f35b6101936104b5565b6040516101a0919061105f565b60405180910390f35b6101c360048036038101906101be9190610f50565b6104be565b6040516101d09190610fab565b60405180910390f35b6101f360048036038101906101ee91906110a6565b6104f5565b005b61020f600480360381019061020a9190610f50565b61053a565b005b61022b600480360381019061022691906110d3565b610584565b6040516102389190610fd5565b60405180910390f35b6102496105cc565b6040516102569190610e95565b60405180910390f35b61027960048036038101906102749190610f50565b61065e565b6040516102869190610fab565b60405180910390f35b6102a960048036038101906102a49190610f50565b6106d5565b6040516102b69190610fab565b60405180910390f35b6102c76106f8565b6040516102d49190610fab565b60405180910390f35b6102f760048036038101906102f29190611100565b61070b565b6040516103049190610fd5565b60405180910390f35b60606003805461031c9061116f565b80601f01602080910402602001604051908101604052809291908181526020018280546103489061116f565b80156103955780601f1061036a57610100808354040283529160200191610395565b820191906000526020600020905b81548152906001019060200180831161037857829003601f168201915b5050505050905090565b6000806103aa610792565b90506103b781858561079a565b600191505092915050565b6000600254905090565b60006103e2679e2bc5c76a6b942160c01b610965565b6103f667ca617568d59597b760c01b610965565b61040a6709f534d41508e79c60c01b610965565b600560009054906101000a900460ff16156104645761043367cd28aec9b5bd34ce60c01b610965565b61044767add5c66921fa7b4560c01b610965565b61045b67922c356381c40ff460c01b610965565b600090506104ae565b61047867db3c7e37bff1adfa60c01b610965565b61048c6798ad53f34bc59f1260c01b610965565b6104a067eadeb1a8d1904c7060c01b610965565b6104ab848484610968565b90505b9392505050565b60006012905090565b6000806104c9610792565b90506104ea8185856104db858961070b565b6104e591906111d0565b61079a565b600191505092915050565b610509674912e73cb5c1e80f60c01b610965565b61051d67cf9b7adb410dddba60c01b610965565b80600560006101000a81548160ff02191690831515021790555050565b61054e67567ac8547d3abafe60c01b610965565b610562671d0497947b0c29a760c01b610965565b6105766798047adff808b6ab60c01b610965565b6105808282610997565b5050565b60008060008373ffffffffffffffffffffffffffffffffffffffff1673ffffffffffffffffffffffffffffffffffffffff168152602001908152602001600020549050919050565b6060600480546105db9061116f565b80601f01602080910402602001604051908101604052809291908181526020018280546106079061116f565b80156106545780601f1061062957610100808354040283529160200191610654565b820191906000526020600020905b81548152906001019060200180831161063757829003601f168201915b5050505050905090565b600080610669610792565b90506000610677828661070b565b9050838110156106bc576040517f08c379a00000000000000000000000000000000000000000000000000000000081526004016106b390611298565b60405180910390fd5b6106c9828686840361079a565b60019250505092915050565b6000806106e0610792565b90506106ed818585610aee565b600191505092915050565b600560009054906101000a900460ff1681565b6000600160008473ffffffffffffffffffffffffffffffffffffffff1673ffffffffffffffffffffffffffffffffffffffff16815260200190815260200160002060008373ffffffffffffffffffffffffffffffffffffffff1673ffffffffffffffffffffffffffffffffffffffff16815260200190815260200160002054905092915050565b600033905090565b600073ffffffffffffffffffffffffffffffffffffffff168373ffffffffffffffffffffffffffffffffffffffff16141561080a576040517f08c379a00000000000000000000000000000000000000000000000000000000081526004016108019061132a565b60405180910390fd5b600073ffffffffffffffffffffffffffffffffffffffff168273ffffffffffffffffffffffffffffffffffffffff16141561087a576040517f08c379a0000000000000000000000000000000000000000000000000000000008152600401610871906113bc565b60405180910390fd5b80600160008573ffffffffffffffffffffffffffffffffffffffff1673ffffffffffffffffffffffffffffffffffffffff16815260200190815260200160002060008473ffffffffffffffffffffffffffffffffffffffff1673ffffffffffffffffffffffffffffffffffffffff168152602001908152602001600020819055508173ffffffffffffffffffffffffffffffffffffffff168373ffffffffffffffffffffffffffffffffffffffff167f8c5be1e5ebec7d5bd14f71427d1e84f3dd0314c0f7b2291e5b200ac8c7c3b925836040516109589190610fd5565b60405180910390a3505050565b50565b600080610973610792565b9050610980858285610d66565b61098b858585610aee565b60019150509392505050565b600073ffffffffffffffffffffffffffffffffffffffff168273ffffffffffffffffffffffffffffffffffffffff161415610a07576040517f08c379a00000000000000000000000000000000000000000000000000000000081526004016109fe90611428565b60405180910390fd5b610a1360008383610df2565b8060026000828254610a2591906111d0565b92505081905550806000808473ffffffffffffffffffffffffffffffffffffffff1673ffffffffffffffffffffffffffffffffffffffff168152602001908152602001600020600082825401925050819055508173ffffffffffffffffffffffffffffffffffffffff16600073ffffffffffffffffffffffffffffffffffffffff167fddf252ad1be2c89b69c2b068fc378daa952ba7f163c4a11628f55a4df523b3ef83604051610ad69190610fd5565b60405180910390a3610aea60008383610df7565b5050565b600073ffffffffffffffffffffffffffffffffffffffff168373ffffffffffffffffffffffffffffffffffffffff161415610b5e576040517f08c379a0000000000000000000000000000000000000000000000000000000008152600401610b55906114ba565b60405180910390fd5b600073ffffffffffffffffffffffffffffffffffffffff168273ffffffffffffffffffffffffffffffffffffffff161415610bce576040517f08c379a0000000000000000000000000000000000000000000000000000000008152600401610bc59061154c565b60405180910390fd5b610bd9838383610df2565b60008060008573ffffffffffffffffffffffffffffffffffffffff1673ffffffffffffffffffffffffffffffffffffffff16815260200190815260200160002054905081811015610c5f576040517f08c379a0000000000000000000000000000000000000000000000000000000008152600401610c56906115de565b60405180910390fd5b8181036000808673ffffffffffffffffffffffffffffffffffffffff1673ffffffffffffffffffffffffffffffffffffffff16815260200190815260200160002081905550816000808573ffffffffffffffffffffffffffffffffffffffff1673ffffffffffffffffffffffffffffffffffffffff168152602001908152602001600020600082825401925050819055508273ffffffffffffffffffffffffffffffffffffffff168473ffffffffffffffffffffffffffffffffffffffff167fddf252ad1be2c89b69c2b068fc378daa952ba7f163c4a11628f55a4df523b3ef84604051610d4d9190610fd5565b60405180910390a3610d60848484610df7565b50505050565b6000610d72848461070b565b90507fffffffffffffffffffffffffffffffffffffffffffffffffffffffffffffffff8114610dec5781811015610dde576040517f08c379a0000000000000000000000000000000000000000000000000000000008152600401610dd59061164a565b60405180910390fd5b610deb848484840361079a565b5b50505050565b505050565b505050565b600081519050919050565b600082825260208201905092915050565b60005b83811015610e36578082015181840152602081019050610e1b565b83811115610e45576000848401525b50505050565b6000601f19601f8301169050919050565b6000610e6782610dfc565b610e718185610e07565b9350610e81818560208601610e18565b610e8a81610e4b565b840191505092915050565b60006020820190508181036000830152610eaf8184610e5c565b905092915050565b600080fd5b600073ffffffffffffffffffffffffffffffffffffffff82169050919050565b6000610ee782610ebc565b9050919050565b610ef781610edc565b8114610f0257600080fd5b50565b600081359050610f1481610eee565b92915050565b6000819050919050565b610f2d81610f1a565b8114610f3857600080fd5b50565b600081359050610f4a81610f24565b92915050565b60008060408385031215610f6757610f66610eb7565b5b6000610f7585828601610f05565b9250506020610f8685828601610f3b565b9150509250929050565b60008115159050919050565b610fa581610f90565b82525050565b6000602082019050610fc06000830184610f9c565b92915050565b610fcf81610f1a565b82525050565b6000602082019050610fea6000830184610fc6565b92915050565b60008060006060848603121561100957611008610eb7565b5b600061101786828701610f05565b935050602061102886828701610f05565b925050604061103986828701610f3b565b9150509250925092565b600060ff82169050919050565b61105981611043565b82525050565b60006020820190506110746000830184611050565b92915050565b61108381610f90565b811461108e57600080fd5b50565b6000813590506110a08161107a565b92915050565b6000602082840312156110bc576110bb610eb7565b5b60006110ca84828501611091565b91505092915050565b6000602082840312156110e9576110e8610eb7565b5b60006110f784828501610f05565b91505092915050565b6000806040838503121561111757611116610eb7565b5b600061112585828601610f05565b925050602061113685828601610f05565b9150509250929050565b7f4e487b7100000000000000000000000000000000000000000000000000000000600052602260045260246000fd5b6000600282049050600182168061118757607f821691505b6020821081141561119b5761119a611140565b5b50919050565b7f4e487b7100000000000000000000000000000000000000000000000000000000600052601160045260246000fd5b60006111db82610f1a565b91506111e683610f1a565b9250827fffffffffffffffffffffffffffffffffffffffffffffffffffffffffffffffff0382111561121b5761121a6111a1565b5b828201905092915050565b7f45524332303a2064656372656173656420616c6c6f77616e63652062656c6f7760008201527f207a65726f000000000000000000000000000000000000000000000000000000602082015250565b6000611282602583610e07565b915061128d82611226565b604082019050919050565b600060208201905081810360008301526112b181611275565b9050919050565b7f45524332303a20617070726f76652066726f6d20746865207a65726f2061646460008201527f7265737300000000000000000000000000000000000000000000000000000000602082015250565b6000611314602483610e07565b915061131f826112b8565b604082019050919050565b6000602082019050818103600083015261134381611307565b9050919050565b7f45524332303a20617070726f766520746f20746865207a65726f20616464726560008201527f7373000000000000000000000000000000000000000000000000000000000000602082015250565b60006113a6602283610e07565b91506113b18261134a565b604082019050919050565b600060208201905081810360008301526113d581611399565b9050919050565b7f45524332303a206d696e7420746f20746865207a65726f206164647265737300600082015250565b6000611412601f83610e07565b915061141d826113dc565b602082019050919050565b6000602082019050818103600083015261144181611405565b9050919050565b7f45524332303a207472616e736665722066726f6d20746865207a65726f20616460008201527f6472657373000000000000000000000000000000000000000000000000000000602082015250565b60006114a4602583610e07565b91506114af82611448565b604082019050919050565b600060208201905081810360008301526114d381611497565b9050919050565b7f45524332303a207472616e7366657220746f20746865207a65726f206164647260008201527f6573730000000000000000000000000000000000000000000000000000000000602082015250565b6000611536602383610e07565b9150611541826114da565b604082019050919050565b6000602082019050818103600083015261156581611529565b9050919050565b7f45524332303a207472616e7366657220616d6f756e742065786365656473206260008201527f616c616e63650000000000000000000000000000000000000000000000000000602082015250565b60006115c8602683610e07565b91506115d38261156c565b604082019050919050565b600060208201905081810360008301526115f7816115bb565b9050919050565b7f45524332303a20696e73756666696369656e7420616c6c6f77616e6365000000600082015250565b6000611634601d83610e07565b915061163f826115fe565b602082019050919050565b6000602082019050818103600083015261166381611627565b905091905056fea2646970667358221220781aed6d8f9e72a41060ce68e98f75494a03f2a47e32dbabd7f9eae927eea32364736f6c63430008090033",
  "linkReferences": {},
  "deployedLinkReferences": {}
}