{
  "_format": "hh-sol-artifact-1",
  "contractName": "LZEndpointMock",
  "sourceName": "contracts/mocks/LZEndpointMock.sol",
  "abi": [
    {
      "inputs": [
        {
          "internalType": "uint16",
          "name": "_chainId",
          "type": "uint16"
        }
      ],
      "stateMutability": "nonpayable",
      "type": "constructor"
    },
    {
      "anonymous": false,
      "inputs": [
        {
          "indexed": false,
          "internalType": "uint16",
          "name": "srcChainId",
          "type": "uint16"
        },
        {
          "indexed": false,
          "internalType": "bytes",
          "name": "srcAddress",
          "type": "bytes"
        },
        {
          "indexed": false,
          "internalType": "uint64",
          "name": "nonce",
          "type": "uint64"
        },
        {
          "indexed": false,
          "internalType": "address",
          "name": "dstAddress",
          "type": "address"
        }
      ],
      "name": "PayloadCleared",
      "type": "event"
    },
    {
      "anonymous": false,
      "inputs": [
        {
          "indexed": false,
          "internalType": "uint16",
          "name": "srcChainId",
          "type": "uint16"
        },
        {
          "indexed": false,
          "internalType": "bytes",
          "name": "srcAddress",
          "type": "bytes"
        },
        {
          "indexed": false,
          "internalType": "address",
          "name": "dstAddress",
          "type": "address"
        },
        {
          "indexed": false,
          "internalType": "uint64",
          "name": "nonce",
          "type": "uint64"
        },
        {
          "indexed": false,
          "internalType": "bytes",
          "name": "payload",
          "type": "bytes"
        },
        {
          "indexed": false,
          "internalType": "bytes",
          "name": "reason",
          "type": "bytes"
        }
      ],
      "name": "PayloadStored",
      "type": "event"
    },
    {
      "anonymous": false,
      "inputs": [
        {
          "indexed": false,
          "internalType": "uint16",
          "name": "chainId",
          "type": "uint16"
        },
        {
          "indexed": false,
          "internalType": "bytes",
          "name": "srcAddress",
          "type": "bytes"
        }
      ],
      "name": "UaForceResumeReceive",
      "type": "event"
    },
    {
      "anonymous": false,
      "inputs": [
        {
          "indexed": true,
          "internalType": "address",
          "name": "to",
          "type": "address"
        },
        {
          "indexed": true,
          "internalType": "uint256",
          "name": "quantity",
          "type": "uint256"
        }
      ],
      "name": "ValueTransferFailed",
      "type": "event"
    },
    {
      "inputs": [],
      "name": "blockNextMsg",
      "outputs": [],
      "stateMutability": "nonpayable",
      "type": "function"
    },
    {
      "inputs": [],
      "name": "defaultAdapterParams",
      "outputs": [
        {
          "internalType": "bytes",
          "name": "",
          "type": "bytes"
        }
      ],
      "stateMutability": "view",
      "type": "function"
    },
    {
      "inputs": [
        {
          "internalType": "uint16",
          "name": "_dstChainId",
          "type": "uint16"
        },
        {
          "internalType": "address",
          "name": "_userApplication",
          "type": "address"
        },
        {
          "internalType": "bytes",
          "name": "_payload",
          "type": "bytes"
        },
        {
          "internalType": "bool",
          "name": "_payInZRO",
          "type": "bool"
        },
        {
          "internalType": "bytes",
          "name": "_adapterParams",
          "type": "bytes"
        }
      ],
      "name": "estimateFees",
      "outputs": [
        {
          "internalType": "uint256",
          "name": "nativeFee",
          "type": "uint256"
        },
        {
          "internalType": "uint256",
          "name": "zroFee",
          "type": "uint256"
        }
      ],
      "stateMutability": "view",
      "type": "function"
    },
    {
      "inputs": [
        {
          "internalType": "uint16",
          "name": "_srcChainId",
          "type": "uint16"
        },
        {
          "internalType": "bytes",
          "name": "_path",
          "type": "bytes"
        }
      ],
      "name": "forceResumeReceive",
      "outputs": [],
      "stateMutability": "nonpayable",
      "type": "function"
    },
    {
      "inputs": [],
      "name": "getChainId",
      "outputs": [
        {
          "internalType": "uint16",
          "name": "",
          "type": "uint16"
        }
      ],
      "stateMutability": "view",
      "type": "function"
    },
    {
      "inputs": [
        {
          "internalType": "uint16",
          "name": "",
          "type": "uint16"
        },
        {
          "internalType": "uint16",
          "name": "",
          "type": "uint16"
        },
        {
          "internalType": "address",
          "name": "",
          "type": "address"
        },
        {
          "internalType": "uint256",
          "name": "",
          "type": "uint256"
        }
      ],
      "name": "getConfig",
      "outputs": [
        {
          "internalType": "bytes",
          "name": "",
          "type": "bytes"
        }
      ],
      "stateMutability": "pure",
      "type": "function"
    },
    {
      "inputs": [
        {
          "internalType": "uint16",
          "name": "_chainID",
          "type": "uint16"
        },
        {
          "internalType": "bytes",
          "name": "_path",
          "type": "bytes"
        }
      ],
      "name": "getInboundNonce",
      "outputs": [
        {
          "internalType": "uint64",
          "name": "",
          "type": "uint64"
        }
      ],
      "stateMutability": "view",
      "type": "function"
    },
    {
      "inputs": [
        {
          "internalType": "uint16",
          "name": "_srcChainId",
          "type": "uint16"
        },
        {
          "internalType": "bytes",
          "name": "_srcAddress",
          "type": "bytes"
        }
      ],
      "name": "getLengthOfQueue",
      "outputs": [
        {
          "internalType": "uint256",
          "name": "",
          "type": "uint256"
        }
      ],
      "stateMutability": "view",
      "type": "function"
    },
    {
      "inputs": [
        {
          "internalType": "uint16",
          "name": "_chainID",
          "type": "uint16"
        },
        {
          "internalType": "address",
          "name": "_srcAddress",
          "type": "address"
        }
      ],
      "name": "getOutboundNonce",
      "outputs": [
        {
          "internalType": "uint64",
          "name": "",
          "type": "uint64"
        }
      ],
      "stateMutability": "view",
      "type": "function"
    },
    {
      "inputs": [
        {
          "internalType": "address",
          "name": "",
          "type": "address"
        }
      ],
      "name": "getReceiveLibraryAddress",
      "outputs": [
        {
          "internalType": "address",
          "name": "",
          "type": "address"
        }
      ],
      "stateMutability": "view",
      "type": "function"
    },
    {
      "inputs": [
        {
          "internalType": "address",
          "name": "",
          "type": "address"
        }
      ],
      "name": "getReceiveVersion",
      "outputs": [
        {
          "internalType": "uint16",
          "name": "",
          "type": "uint16"
        }
      ],
      "stateMutability": "pure",
      "type": "function"
    },
    {
      "inputs": [
        {
          "internalType": "address",
          "name": "",
          "type": "address"
        }
      ],
      "name": "getSendLibraryAddress",
      "outputs": [
        {
          "internalType": "address",
          "name": "",
          "type": "address"
        }
      ],
      "stateMutability": "view",
      "type": "function"
    },
    {
      "inputs": [
        {
          "internalType": "address",
          "name": "",
          "type": "address"
        }
      ],
      "name": "getSendVersion",
      "outputs": [
        {
          "internalType": "uint16",
          "name": "",
          "type": "uint16"
        }
      ],
      "stateMutability": "pure",
      "type": "function"
    },
    {
      "inputs": [
        {
          "internalType": "uint16",
          "name": "_srcChainId",
          "type": "uint16"
        },
        {
          "internalType": "bytes",
          "name": "_path",
          "type": "bytes"
        }
      ],
      "name": "hasStoredPayload",
      "outputs": [
        {
          "internalType": "bool",
          "name": "",
          "type": "bool"
        }
      ],
      "stateMutability": "view",
      "type": "function"
    },
    {
      "inputs": [
        {
          "internalType": "uint16",
          "name": "",
          "type": "uint16"
        },
        {
          "internalType": "bytes",
          "name": "",
          "type": "bytes"
        }
      ],
      "name": "inboundNonce",
      "outputs": [
        {
          "internalType": "uint64",
          "name": "",
          "type": "uint64"
        }
      ],
      "stateMutability": "view",
      "type": "function"
    },
    {
      "inputs": [],
      "name": "isReceivingPayload",
      "outputs": [
        {
          "internalType": "bool",
          "name": "",
          "type": "bool"
        }
      ],
      "stateMutability": "view",
      "type": "function"
    },
    {
      "inputs": [],
      "name": "isSendingPayload",
      "outputs": [
        {
          "internalType": "bool",
          "name": "",
          "type": "bool"
        }
      ],
      "stateMutability": "view",
      "type": "function"
    },
    {
      "inputs": [
        {
          "internalType": "address",
          "name": "",
          "type": "address"
        }
      ],
      "name": "lzEndpointLookup",
      "outputs": [
        {
          "internalType": "address",
          "name": "",
          "type": "address"
        }
      ],
      "stateMutability": "view",
      "type": "function"
    },
    {
      "inputs": [],
      "name": "mockChainId",
      "outputs": [
        {
          "internalType": "uint16",
          "name": "",
          "type": "uint16"
        }
      ],
      "stateMutability": "view",
      "type": "function"
    },
    {
      "inputs": [
        {
          "internalType": "uint16",
          "name": "",
          "type": "uint16"
        },
        {
          "internalType": "bytes",
          "name": "",
          "type": "bytes"
        },
        {
          "internalType": "uint256",
          "name": "",
          "type": "uint256"
        }
      ],
      "name": "msgsToDeliver",
      "outputs": [
        {
          "internalType": "address",
          "name": "dstAddress",
          "type": "address"
        },
        {
          "internalType": "uint64",
          "name": "nonce",
          "type": "uint64"
        },
        {
          "internalType": "bytes",
          "name": "payload",
          "type": "bytes"
        }
      ],
      "stateMutability": "view",
      "type": "function"
    },
    {
      "inputs": [],
      "name": "nextMsgBlocked",
      "outputs": [
        {
          "internalType": "bool",
          "name": "",
          "type": "bool"
        }
      ],
      "stateMutability": "view",
      "type": "function"
    },
    {
      "inputs": [],
      "name": "oracleFee",
      "outputs": [
        {
          "internalType": "uint256",
          "name": "",
          "type": "uint256"
        }
      ],
      "stateMutability": "view",
      "type": "function"
    },
    {
      "inputs": [
        {
          "internalType": "uint16",
          "name": "",
          "type": "uint16"
        },
        {
          "internalType": "address",
          "name": "",
          "type": "address"
        }
      ],
      "name": "outboundNonce",
      "outputs": [
        {
          "internalType": "uint64",
          "name": "",
          "type": "uint64"
        }
      ],
      "stateMutability": "view",
      "type": "function"
    },
    {
      "inputs": [],
      "name": "protocolFeeConfig",
      "outputs": [
        {
          "internalType": "uint256",
          "name": "zroFee",
          "type": "uint256"
        },
        {
          "internalType": "uint256",
          "name": "nativeBP",
          "type": "uint256"
        }
      ],
      "stateMutability": "view",
      "type": "function"
    },
    {
      "inputs": [
        {
          "internalType": "uint16",
          "name": "_srcChainId",
          "type": "uint16"
        },
        {
          "internalType": "bytes",
          "name": "_path",
          "type": "bytes"
        },
        {
          "internalType": "address",
          "name": "_dstAddress",
          "type": "address"
        },
        {
          "internalType": "uint64",
          "name": "_nonce",
          "type": "uint64"
        },
        {
          "internalType": "uint256",
          "name": "_gasLimit",
          "type": "uint256"
        },
        {
          "internalType": "bytes",
          "name": "_payload",
          "type": "bytes"
        }
      ],
      "name": "receivePayload",
      "outputs": [],
      "stateMutability": "nonpayable",
      "type": "function"
    },
    {
      "inputs": [],
      "name": "relayerFeeConfig",
      "outputs": [
        {
          "internalType": "uint128",
          "name": "dstPriceRatio",
          "type": "uint128"
        },
        {
          "internalType": "uint128",
          "name": "dstGasPriceInWei",
          "type": "uint128"
        },
        {
          "internalType": "uint128",
          "name": "dstNativeAmtCap",
          "type": "uint128"
        },
        {
          "internalType": "uint64",
          "name": "baseGas",
          "type": "uint64"
        },
        {
          "internalType": "uint64",
          "name": "gasPerByte",
          "type": "uint64"
        }
      ],
      "stateMutability": "view",
      "type": "function"
    },
    {
      "inputs": [
        {
          "internalType": "uint16",
          "name": "_srcChainId",
          "type": "uint16"
        },
        {
          "internalType": "bytes",
          "name": "_path",
          "type": "bytes"
        },
        {
          "internalType": "bytes",
          "name": "_payload",
          "type": "bytes"
        }
      ],
      "name": "retryPayload",
      "outputs": [],
      "stateMutability": "nonpayable",
      "type": "function"
    },
    {
      "inputs": [
        {
          "internalType": "uint16",
          "name": "_chainId",
          "type": "uint16"
        },
        {
          "internalType": "bytes",
          "name": "_path",
          "type": "bytes"
        },
        {
          "internalType": "bytes",
          "name": "_payload",
          "type": "bytes"
        },
        {
          "internalType": "address payable",
          "name": "_refundAddress",
          "type": "address"
        },
        {
          "internalType": "address",
          "name": "_zroPaymentAddress",
          "type": "address"
        },
        {
          "internalType": "bytes",
          "name": "_adapterParams",
          "type": "bytes"
        }
      ],
      "name": "send",
      "outputs": [],
      "stateMutability": "payable",
      "type": "function"
    },
    {
      "inputs": [
        {
          "internalType": "uint16",
          "name": "",
          "type": "uint16"
        },
        {
          "internalType": "uint16",
          "name": "",
          "type": "uint16"
        },
        {
          "internalType": "uint256",
          "name": "",
          "type": "uint256"
        },
        {
          "internalType": "bytes",
          "name": "",
          "type": "bytes"
        }
      ],
      "name": "setConfig",
      "outputs": [],
      "stateMutability": "nonpayable",
      "type": "function"
    },
    {
      "inputs": [
        {
          "internalType": "bytes",
          "name": "_adapterParams",
          "type": "bytes"
        }
      ],
      "name": "setDefaultAdapterParams",
      "outputs": [],
      "stateMutability": "nonpayable",
      "type": "function"
    },
    {
      "inputs": [
        {
          "internalType": "address",
          "name": "destAddr",
          "type": "address"
        },
        {
          "internalType": "address",
          "name": "lzEndpointAddr",
          "type": "address"
        }
      ],
      "name": "setDestLzEndpoint",
      "outputs": [],
      "stateMutability": "nonpayable",
      "type": "function"
    },
    {
      "inputs": [
        {
          "internalType": "uint256",
          "name": "_oracleFee",
          "type": "uint256"
        }
      ],
      "name": "setOracleFee",
      "outputs": [],
      "stateMutability": "nonpayable",
      "type": "function"
    },
    {
      "inputs": [
        {
          "internalType": "uint256",
          "name": "_zroFee",
          "type": "uint256"
        },
        {
          "internalType": "uint256",
          "name": "_nativeBP",
          "type": "uint256"
        }
      ],
      "name": "setProtocolFee",
      "outputs": [],
      "stateMutability": "nonpayable",
      "type": "function"
    },
    {
      "inputs": [
        {
          "internalType": "uint16",
          "name": "",
          "type": "uint16"
        }
      ],
      "name": "setReceiveVersion",
      "outputs": [],
      "stateMutability": "nonpayable",
      "type": "function"
    },
    {
      "inputs": [
        {
          "internalType": "uint128",
          "name": "_dstPriceRatio",
          "type": "uint128"
        },
        {
          "internalType": "uint128",
          "name": "_dstGasPriceInWei",
          "type": "uint128"
        },
        {
          "internalType": "uint128",
          "name": "_dstNativeAmtCap",
          "type": "uint128"
        },
        {
          "internalType": "uint64",
          "name": "_baseGas",
          "type": "uint64"
        },
        {
          "internalType": "uint64",
          "name": "_gasPerByte",
          "type": "uint64"
        }
      ],
      "name": "setRelayerPrice",
      "outputs": [],
      "stateMutability": "nonpayable",
      "type": "function"
    },
    {
      "inputs": [
        {
          "internalType": "uint16",
          "name": "",
          "type": "uint16"
        }
      ],
      "name": "setSendVersion",
      "outputs": [],
      "stateMutability": "nonpayable",
      "type": "function"
    },
    {
      "inputs": [
        {
          "internalType": "uint16",
          "name": "",
          "type": "uint16"
        },
        {
          "internalType": "bytes",
          "name": "",
          "type": "bytes"
        }
      ],
      "name": "storedPayload",
      "outputs": [
        {
          "internalType": "uint64",
          "name": "payloadLength",
          "type": "uint64"
        },
        {
          "internalType": "address",
          "name": "dstAddress",
          "type": "address"
        },
        {
          "internalType": "bytes32",
          "name": "payloadHash",
          "type": "bytes32"
        }
      ],
      "stateMutability": "view",
      "type": "function"
    }
  ],
  "bytecode": "0x60806040526001600c60006101000a81548160ff021916908360ff1602179055506001600c60016101000a81548160ff021916908360ff1602179055503480156200004957600080fd5b5060405162004f0e38038062004f0e83398181016040528101906200006f9190620003d1565b80600160006101000a81548161ffff021916908361ffff1602179055506040518060a001604052806402540be4006fffffffffffffffffffffffffffffffff1681526020016402540be4006fffffffffffffffffffffffffffffffff168152602001678ac7230489e800006fffffffffffffffffffffffffffffffff168152602001606467ffffffffffffffff168152602001600167ffffffffffffffff16815250600260008201518160000160006101000a8154816fffffffffffffffffffffffffffffffff02191690836fffffffffffffffffffffffffffffffff16021790555060208201518160000160106101000a8154816fffffffffffffffffffffffffffffffff02191690836fffffffffffffffffffffffffffffffff16021790555060408201518160010160006101000a8154816fffffffffffffffffffffffffffffffff02191690836fffffffffffffffffffffffffffffffff16021790555060608201518160010160106101000a81548167ffffffffffffffff021916908367ffffffffffffffff16021790555060808201518160010160186101000a81548167ffffffffffffffff021916908367ffffffffffffffff1602179055509050506040518060400160405280670de0b6b3a764000081526020016103e881525060046000820151816000015560208201518160010155905050662386f26fc100006006819055506200029062030d40620002af60201b620026d51760201c565b60079080519060200190620002a7929190620002dd565b505062000503565b6060600182604051602001620002c79291906200046e565b6040516020818303038152906040529050919050565b828054620002eb90620004cd565b90600052602060002090601f0160209004810192826200030f57600085556200035b565b82601f106200032a57805160ff19168380011785556200035b565b828001600101855582156200035b579182015b828111156200035a5782518255916020019190600101906200033d565b5b5090506200036a91906200036e565b5090565b5b80821115620003895760008160009055506001016200036f565b5090565b600080fd5b600061ffff82169050919050565b620003ab8162000392565b8114620003b757600080fd5b50565b600081519050620003cb81620003a0565b92915050565b600060208284031215620003ea57620003e96200038d565b5b6000620003fa84828501620003ba565b91505092915050565b60008160f01b9050919050565b60006200041d8262000403565b9050919050565b62000439620004338262000392565b62000410565b82525050565b6000819050919050565b6000819050919050565b6200046862000462826200043f565b62000449565b82525050565b60006200047c828562000424565b6002820191506200048e828462000453565b6020820191508190509392505050565b7f4e487b7100000000000000000000000000000000000000000000000000000000600052602260045260246000fd5b60006002820490506001821680620004e657607f821691505b60208210811415620004fd57620004fc6200049e565b5b50919050565b6149fb80620005136000396000f3fe60806040526004361061021a5760003560e01c80639924d33b11610123578063ca066b35116100ab578063e97a448a1161006f578063e97a448a1461083c578063f5ecbdbc14610867578063f9cd3ceb146108a4578063fbba623b146108cf578063fdc07c70146108f85761021a565b8063ca066b3514610769578063cbed8b9c14610794578063d23104f1146107bd578063da1a7c9a146107d4578063db14f305146108115761021a565b8063b6d9ef60116100f2578063b6d9ef6014610695578063c08f15a1146106be578063c2fa4813146106e7578063c580310014610710578063c81b383a1461072c5761021a565b80639924d33b146105b55780639c729da1146105f2578063aaff5f161461062f578063b2086499146106585761021a565b80633408e470116101a657806371ba2fd61161017557806371ba2fd61461049057806376a386dc146104cd5780637a1457481461050c5780637f6df8e614610549578063907c5e7e146105865761021a565b80633408e470146103d35780633e0dd83e146103fe57806340a7bb101461042957806342d65a8d146104675761021a565b806310ddb137116101ed57806310ddb137146102ee57806312a9ee6b14610317578063240de27714610356578063272bd3841461037f5780632c365e25146103aa5761021a565b806307d3277f1461021f57806307e0db171461024b578063096568f6146102745780630eaf6ea6146102b1575b600080fd5b34801561022b57600080fd5b50610234610935565b604051610242929190612ee4565b60405180910390f35b34801561025757600080fd5b50610272600480360381019061026d9190612f5b565b610947565b005b34801561028057600080fd5b5061029b60048036038101906102969190612fe6565b61094a565b6040516102a89190613022565b60405180910390f35b3480156102bd57600080fd5b506102d860048036038101906102d391906130a2565b610955565b6040516102e5919061311d565b60405180910390f35b3480156102fa57600080fd5b5061031560048036038101906103109190612f5b565b6109a8565b005b34801561032357600080fd5b5061033e600480360381019061033991906132a5565b6109ab565b60405161034d939291906133ce565b60405180910390f35b34801561036257600080fd5b5061037d6004803603810190610378919061340c565b610ad1565b005b34801561038b57600080fd5b50610394610ae9565b6040516103a1919061344c565b60405180910390f35b3480156103b657600080fd5b506103d160048036038101906103cc91906134e2565b610b77565b005b3480156103df57600080fd5b506103e8610c8a565b6040516103f59190613022565b60405180910390f35b34801561040a57600080fd5b50610413610ca2565b604051610420919061311d565b60405180910390f35b34801561043557600080fd5b50610450600480360381019061044b9190613589565b610cb5565b60405161045e929190612ee4565b60405180910390f35b34801561047357600080fd5b5061048e600480360381019061048991906130a2565b610db6565b005b34801561049c57600080fd5b506104b760048036038101906104b29190612fe6565b610f97565b6040516104c4919061363c565b60405180910390f35b3480156104d957600080fd5b506104f460048036038101906104ef9190613657565b610fa1565b604051610503939291906136cc565b60405180910390f35b34801561051857600080fd5b50610533600480360381019061052e9190613703565b611022565b6040516105409190613743565b60405180910390f35b34801561055557600080fd5b50610570600480360381019061056b91906130a2565b611099565b60405161057d919061375e565b60405180910390f35b34801561059257600080fd5b5061059b6110e1565b6040516105ac959493929190613788565b60405180910390f35b3480156105c157600080fd5b506105dc60048036038101906105d79190613657565b611181565b6040516105e99190613743565b60405180910390f35b3480156105fe57600080fd5b5061061960048036038101906106149190612fe6565b6111cd565b604051610626919061363c565b60405180910390f35b34801561063b57600080fd5b50610656600480360381019061065191906137db565b6111d7565b005b34801561066457600080fd5b5061067f600480360381019061067a9190613703565b61149f565b60405161068c9190613743565b60405180910390f35b3480156106a157600080fd5b506106bc60048036038101906106b79190613870565b6114d5565b005b3480156106ca57600080fd5b506106e560048036038101906106e0919061389d565b6114df565b005b3480156106f357600080fd5b5061070e600480360381019061070991906138dd565b611560565b005b61072a600480360381019061072591906139ea565b611f2f565b005b34801561073857600080fd5b50610753600480360381019061074e9190612fe6565b61258c565b604051610760919061363c565b60405180910390f35b34801561077557600080fd5b5061077e6125bf565b60405161078b919061311d565b60405180910390f35b3480156107a057600080fd5b506107bb60048036038101906107b69190613ad1565b6125df565b005b3480156107c957600080fd5b506107d26125e5565b005b3480156107e057600080fd5b506107fb60048036038101906107f69190612fe6565b612601565b6040516108089190613022565b60405180910390f35b34801561081d57600080fd5b5061082661260c565b6040516108339190613022565b60405180910390f35b34801561084857600080fd5b50610851612620565b60405161085e919061311d565b60405180910390f35b34801561087357600080fd5b5061088e60048036038101906108899190613b54565b612640565b60405161089b919061344c565b60405180910390f35b3480156108b057600080fd5b506108b961265c565b6040516108c6919061375e565b60405180910390f35b3480156108db57600080fd5b506108f660048036038101906108f19190613bbb565b612662565b005b34801561090457600080fd5b5061091f600480360381019061091a91906130a2565b61267c565b60405161092c9190613743565b60405180910390f35b60048060000154908060010154905082565b50565b600060019050919050565b600080600a60008661ffff1661ffff1681526020019081526020016000208484604051610983929190613c34565b908152602001604051809103902090506000801b816001015414159150509392505050565b50565b600b6020528260005260406000208280516020810182018051848252602083016020850120818352809550505050505081815481106109e957600080fd5b906000526020600020906002020160009250925050508060000160009054906101000a900473ffffffffffffffffffffffffffffffffffffffff16908060000160149054906101000a900467ffffffffffffffff1690806001018054610a4e90613c7c565b80601f0160208091040260200160405190810160405280929190818152602001828054610a7a90613c7c565b8015610ac75780601f10610a9c57610100808354040283529160200191610ac7565b820191906000526020600020905b815481529060010190602001808311610aaa57829003601f168201915b5050505050905083565b81600460000181905550806004600101819055505050565b60078054610af690613c7c565b80601f0160208091040260200160405190810160405280929190818152602001828054610b2290613c7c565b8015610b6f5780601f10610b4457610100808354040283529160200191610b6f565b820191906000526020600020905b815481529060010190602001808311610b5257829003601f168201915b505050505081565b84600260000160006101000a8154816fffffffffffffffffffffffffffffffff02191690836fffffffffffffffffffffffffffffffff16021790555083600260000160106101000a8154816fffffffffffffffffffffffffffffffff02191690836fffffffffffffffffffffffffffffffff16021790555082600260010160006101000a8154816fffffffffffffffffffffffffffffffff02191690836fffffffffffffffffffffffffffffffff16021790555081600260010160106101000a81548167ffffffffffffffff021916908367ffffffffffffffff16021790555080600260010160186101000a81548167ffffffffffffffff021916908367ffffffffffffffff1602179055505050505050565b6000600160009054906101000a900461ffff16905090565b600160029054906101000a900460ff1681565b600080600080845111610d525760078054610ccf90613c7c565b80601f0160208091040260200160405190810160405280929190818152602001828054610cfb90613c7c565b8015610d485780601f10610d1d57610100808354040283529160200191610d48565b820191906000526020600020905b815481529060010190602001808311610d2b57829003601f168201915b5050505050610d54565b835b90506000610d678960018a8a5186612701565b90506000610d788783600654612948565b905086610d885780945084610d8d565b809350835b506006548286610d9d9190613cdd565b610da79190613cdd565b94505050509550959350505050565b6000600a60008561ffff1661ffff1681526020019081526020016000208383604051610de3929190613c34565b908152602001604051809103902090506000801b81600101541415610e3d576040517f08c379a0000000000000000000000000000000000000000000000000000000008152600401610e3490613d90565b60405180910390fd5b3373ffffffffffffffffffffffffffffffffffffffff168160000160089054906101000a900473ffffffffffffffffffffffffffffffffffffffff1673ffffffffffffffffffffffffffffffffffffffff1614610ecf576040517f08c379a0000000000000000000000000000000000000000000000000000000008152600401610ec690613dfc565b60405180910390fd5b60008160000160006101000a81548167ffffffffffffffff021916908367ffffffffffffffff16021790555060008160000160086101000a81548173ffffffffffffffffffffffffffffffffffffffff021916908373ffffffffffffffffffffffffffffffffffffffff1602179055506000801b81600101819055507f23d2684f396e92a6e2ff2d16f98e6fea00d50cb27a64b531bc0748f730211f98848484604051610f7e93929190613e49565b60405180910390a1610f91848484612990565b50505050565b6000309050919050565b600a60205281600052604060002081805160208101820180518482526020830160208501208183528095505050505050600091509150508060000160009054906101000a900467ffffffffffffffff16908060000160089054906101000a900473ffffffffffffffffffffffffffffffffffffffff16908060010154905083565b6000600960008461ffff1661ffff16815260200190815260200160002060008373ffffffffffffffffffffffffffffffffffffffff1673ffffffffffffffffffffffffffffffffffffffff16815260200190815260200160002060009054906101000a900467ffffffffffffffff16905092915050565b6000600b60008561ffff1661ffff16815260200190815260200160002083836040516110c6929190613c34565b90815260200160405180910390208054905090509392505050565b60028060000160009054906101000a90046fffffffffffffffffffffffffffffffff16908060000160109054906101000a90046fffffffffffffffffffffffffffffffff16908060010160009054906101000a90046fffffffffffffffffffffffffffffffff16908060010160109054906101000a900467ffffffffffffffff16908060010160189054906101000a900467ffffffffffffffff16905085565b6008602052816000526040600020818051602081018201805184825260208301602085012081835280955050505050506000915091509054906101000a900467ffffffffffffffff1681565b6000309050919050565b6000600a60008761ffff1661ffff1681526020019081526020016000208585604051611204929190613c34565b908152602001604051809103902090506000801b8160010154141561125e576040517f08c379a000000000000000000000000000000000000000000000000000000000815260040161125590613d90565b60405180910390fd5b8060000160009054906101000a900467ffffffffffffffff1667ffffffffffffffff16838390501480156112ac5750806001015483836040516112a2929190613c34565b6040518091039020145b6112eb576040517f08c379a00000000000000000000000000000000000000000000000000000000081526004016112e290613ec7565b60405180910390fd5b60008160000160089054906101000a900473ffffffffffffffffffffffffffffffffffffffff16905060008260000160006101000a81548167ffffffffffffffff021916908367ffffffffffffffff16021790555060008260000160086101000a81548173ffffffffffffffffffffffffffffffffffffffff021916908373ffffffffffffffffffffffffffffffffffffffff1602179055506000801b82600101819055506000600860008961ffff1661ffff16815260200190815260200160002087876040516113bd929190613c34565b908152602001604051809103902060009054906101000a900467ffffffffffffffff1690508173ffffffffffffffffffffffffffffffffffffffff16621d3567898989858a8a6040518763ffffffff1660e01b815260040161142496959493929190613ee7565b600060405180830381600087803b15801561143e57600080fd5b505af1158015611452573d6000803e3d6000fd5b505050507f612434f39581c8e7d99746c9c20c6eb0ce8c0eb99f007c5719d620841370957d888888848660405161148d959493929190613f3e565b60405180910390a15050505050505050565b60096020528160005260406000206020528060005260406000206000915091509054906101000a900467ffffffffffffffff1681565b8060068190555050565b806000808473ffffffffffffffffffffffffffffffffffffffff1673ffffffffffffffffffffffffffffffffffffffff16815260200190815260200160002060006101000a81548173ffffffffffffffffffffffffffffffffffffffff021916908373ffffffffffffffffffffffffffffffffffffffff1602179055505050565b600160ff16600c60019054906101000a900460ff1660ff16146115b8576040517f08c379a00000000000000000000000000000000000000000000000000000000081526004016115af90613ffe565b60405180910390fd5b6002600c60016101000a81548160ff021916908360ff1602179055506000600a60008a61ffff1661ffff1681526020019081526020016000208888604051611601929190613c34565b90815260200160405180910390209050600860008a61ffff1661ffff168152602001908152602001600020888860405161163c929190613c34565b9081526020016040518091039020600081819054906101000a900467ffffffffffffffff1661166a9061401e565b91906101000a81548167ffffffffffffffff021916908367ffffffffffffffff160217905567ffffffffffffffff168567ffffffffffffffff16146116e4576040517f08c379a00000000000000000000000000000000000000000000000000000000081526004016116db9061409b565b60405180910390fd5b6000801b816001015414611b4f576000600b60008b61ffff1661ffff168152602001908152602001600020898960405161171f929190613c34565b90815260200160405180910390209050600060405180606001604052808973ffffffffffffffffffffffffffffffffffffffff1681526020018867ffffffffffffffff16815260200186868080601f016020809104026020016040519081016040528093929190818152602001838380828437600081840152601f19601f820116905080830192505050505050508152509050600082805490501115611a87578181908060018154018082558091505060019003906000526020600020906002020160009091909190915060008201518160000160006101000a81548173ffffffffffffffffffffffffffffffffffffffff021916908373ffffffffffffffffffffffffffffffffffffffff16021790555060208201518160000160146101000a81548167ffffffffffffffff021916908367ffffffffffffffff160217905550604082015181600101908051906020019061187c929190612d5b565b50505060005b6001838054905061189391906140bb565b8110156119c8578281815481106118ad576118ac6140ef565b5b9060005260206000209060020201836001836118c99190613cdd565b815481106118da576118d96140ef565b5b90600052602060002090600202016000820160009054906101000a900473ffffffffffffffffffffffffffffffffffffffff168160000160006101000a81548173ffffffffffffffffffffffffffffffffffffffff021916908373ffffffffffffffffffffffffffffffffffffffff1602179055506000820160149054906101000a900467ffffffffffffffff168160000160146101000a81548167ffffffffffffffff021916908367ffffffffffffffff16021790555060018201816001019080546119a690613c7c565b6119b1929190612de1565b5090505080806119c09061411e565b915050611882565b5080826000815481106119de576119dd6140ef565b5b906000526020600020906002020160008201518160000160006101000a81548173ffffffffffffffffffffffffffffffffffffffff021916908373ffffffffffffffffffffffffffffffffffffffff16021790555060208201518160000160146101000a81548167ffffffffffffffff021916908367ffffffffffffffff1602179055506040820151816001019080519060200190611a7e929190612d5b565b50905050611b48565b8181908060018154018082558091505060019003906000526020600020906002020160009091909190915060008201518160000160006101000a81548173ffffffffffffffffffffffffffffffffffffffff021916908373ffffffffffffffffffffffffffffffffffffffff16021790555060208201518160000160146101000a81548167ffffffffffffffff021916908367ffffffffffffffff1602179055506040820151816001019080519060200190611b44929190612d5b565b5050505b5050611f08565b600160029054906101000a900460ff1615611ce95760405180606001604052808484905067ffffffffffffffff1681526020018773ffffffffffffffffffffffffffffffffffffffff1681526020018484604051611bae929190613c34565b6040518091039020815250600a60008b61ffff1661ffff1681526020019081526020016000208989604051611be4929190613c34565b908152602001604051809103902060008201518160000160006101000a81548167ffffffffffffffff021916908367ffffffffffffffff16021790555060208201518160000160086101000a81548173ffffffffffffffffffffffffffffffffffffffff021916908373ffffffffffffffffffffffffffffffffffffffff160217905550604082015181600101559050507f0f9e4d95b62f08222d612b5ab92039cd8fbbbea550a95e8df9f927436bbdf5db8989898989888860405180602001604052806000815250604051611cc1989796959493929190614167565b60405180910390a16000600160026101000a81548160ff021916908315150217905550611f07565b8573ffffffffffffffffffffffffffffffffffffffff16621d3567858b8b8b8a89896040518863ffffffff1660e01b8152600401611d2c96959493929190613ee7565b600060405180830381600088803b158015611d4657600080fd5b5087f193505050508015611d58575060015b611f05573d8060008114611d88576040519150601f19603f3d011682016040523d82523d6000602084013e611d8d565b606091505b5060405180606001604052808585905067ffffffffffffffff1681526020018873ffffffffffffffffffffffffffffffffffffffff1681526020018585604051611dd8929190613c34565b6040518091039020815250600a60008c61ffff1661ffff1681526020019081526020016000208a8a604051611e0e929190613c34565b908152602001604051809103902060008201518160000160006101000a81548167ffffffffffffffff021916908367ffffffffffffffff16021790555060208201518160000160086101000a81548173ffffffffffffffffffffffffffffffffffffffff021916908373ffffffffffffffffffffffffffffffffffffffff160217905550604082015181600101559050507f0f9e4d95b62f08222d612b5ab92039cd8fbbbea550a95e8df9f927436bbdf5db8a8a8a8a8a898988604051611edc989796959493929190614167565b60405180910390a16000600160026101000a81548160ff02191690831515021790555050611f06565b5b5b5b506001600c60016101000a81548160ff021916908360ff1602179055505050505050505050565b600160ff16600c60009054906101000a900460ff1660ff1614611f87576040517f08c379a0000000000000000000000000000000000000000000000000000000008152600401611f7e90614253565b60405180910390fd5b6002600c60006101000a81548160ff021916908360ff1602179055506028865114611fe7576040517f08c379a0000000000000000000000000000000000000000000000000000000008152600401611fde906142e5565b60405180910390fd5b60006014870151905060008060008373ffffffffffffffffffffffffffffffffffffffff1673ffffffffffffffffffffffffffffffffffffffff16815260200190815260200160002060009054906101000a900473ffffffffffffffffffffffffffffffffffffffff169050600073ffffffffffffffffffffffffffffffffffffffff168173ffffffffffffffffffffffffffffffffffffffff1614156120c3576040517f08c379a00000000000000000000000000000000000000000000000000000000081526004016120ba90614377565b60405180910390fd5b60008084511161215d57600780546120da90613c7c565b80601f016020809104026020016040519081016040528092919081815260200182805461210690613c7c565b80156121535780601f1061212857610100808354040283529160200191612153565b820191906000526020600020905b81548152906001019060200180831161213657829003601f168201915b505050505061215f565b835b905060006121e48b338b8b8080601f016020809104026020016040519081016040528093929190818152602001838380828437600081840152601f19601f82011690508083019250505050505050600073ffffffffffffffffffffffffffffffffffffffff168a73ffffffffffffffffffffffffffffffffffffffff16141586610cb5565b5090508034101561222a576040517f08c379a000000000000000000000000000000000000000000000000000000000815260040161222190614409565b60405180910390fd5b6000600960008d61ffff1661ffff16815260200190815260200160002060003373ffffffffffffffffffffffffffffffffffffffff1673ffffffffffffffffffffffffffffffffffffffff168152602001908152602001600020600081819054906101000a900467ffffffffffffffff166122a49061401e565b91906101000a81548167ffffffffffffffff021916908367ffffffffffffffff16021790559050600082346122d991906140bb565b905060008111156123925760008973ffffffffffffffffffffffffffffffffffffffff168260405161230a9061444f565b60006040518083038185875af1925050503d8060008114612347576040519150601f19603f3d011682016040523d82523d6000602084013e61234c565b606091505b5050905080612390576040517f08c379a0000000000000000000000000000000000000000000000000000000008152600401612387906144b0565b60405180910390fd5b505b60008060006123a087612c3b565b9350935093505060008211156124685760008173ffffffffffffffffffffffffffffffffffffffff16836040516123d69061444f565b60006040518083038185875af1925050503d8060008114612413576040519150601f19603f3d011682016040523d82523d6000602084013e612418565b606091505b505090508061246657828273ffffffffffffffffffffffffffffffffffffffff167f2c7a964ca3de5ec1d42d9822f9bbd0eb142a59cc9f855e9d93813b773192c7a360405160405180910390a35b505b6000338a60405160200161247d929190614518565b604051602081830303815290604052905060008f8f8080601f016020809104026020016040519081016040528093929190818152602001838380828437600081840152601f19601f8201169050808301925050505050505090508973ffffffffffffffffffffffffffffffffffffffff1663c2fa4813600160009054906101000a900461ffff16848e8b8a876040518763ffffffff1660e01b815260040161252a96959493929190614544565b600060405180830381600087803b15801561254457600080fd5b505af1158015612558573d6000803e3d6000fd5b5050505050505050505050505050506001600c60006101000a81548160ff021916908360ff16021790555050505050505050565b60006020528060005260406000206000915054906101000a900473ffffffffffffffffffffffffffffffffffffffff1681565b6000600260ff16600c60019054906101000a900460ff1660ff1614905090565b50505050565b60018060026101000a81548160ff021916908315150217905550565b600060019050919050565b600160009054906101000a900461ffff1681565b6000600260ff16600c60009054906101000a900460ff1660ff1614905090565b6060604051806020016040528060008152509050949350505050565b60065481565b8060079080519060200190612678929190612d5b565b5050565b6000600860008561ffff1661ffff16815260200190815260200160002083836040516126a9929190613c34565b908152602001604051809103902060009054906101000a900467ffffffffffffffff1690509392505050565b60606001826040516020016126eb92919061460a565b6040516020818303038152906040529050919050565b60008060008061271085612c3b565b50925092509250600060028461ffff1614156127ab5781600260010160009054906101000a90046fffffffffffffffffffffffffffffffff166fffffffffffffffffffffffffffffffff16101561279c576040517f08c379a0000000000000000000000000000000000000000000000000000000008152600401612793906146a8565b60405180910390fd5b81816127a89190613cdd565b90505b600083600260010160109054906101000a900467ffffffffffffffff1667ffffffffffffffff166127dc9190613cdd565b600260000160109054906101000a90046fffffffffffffffffffffffffffffffff166fffffffffffffffffffffffffffffffff1661281a91906146c8565b905080826128289190613cdd565b915060006402540be400600260000160009054906101000a90046fffffffffffffffffffffffffffffffff166fffffffffffffffffffffffffffffffff168461287191906146c8565b61287b9190614751565b905060006402540be400600260000160009054906101000a90046fffffffffffffffffffffffffffffffff16600260010160189054906101000a900467ffffffffffffffff1667ffffffffffffffff16600260000160109054906101000a90046fffffffffffffffffffffffffffffffff166128f79190614782565b6129019190614782565b61290b91906147cc565b6fffffffffffffffffffffffffffffffff169050808a61292b91906146c8565b826129369190613cdd565b97505050505050505095945050505050565b6000831561295d576004600001549050612989565b61271060046001015483856129729190613cdd565b61297c91906146c8565b6129869190614751565b90505b9392505050565b6000600b60008561ffff1661ffff16815260200190815260200160002083836040516129bd929190613c34565b908152602001604051809103902090505b600081805490501115612c3557600081600183805490506129ef91906140bb565b81548110612a00576129ff6140ef565b5b90600052602060002090600202016040518060600160405290816000820160009054906101000a900473ffffffffffffffffffffffffffffffffffffffff1673ffffffffffffffffffffffffffffffffffffffff1673ffffffffffffffffffffffffffffffffffffffff1681526020016000820160149054906101000a900467ffffffffffffffff1667ffffffffffffffff1667ffffffffffffffff168152602001600182018054612ab190613c7c565b80601f0160208091040260200160405190810160405280929190818152602001828054612add90613c7c565b8015612b2a5780601f10612aff57610100808354040283529160200191612b2a565b820191906000526020600020905b815481529060010190602001808311612b0d57829003601f168201915b5050505050815250509050806000015173ffffffffffffffffffffffffffffffffffffffff16621d3567868686856020015186604001516040518663ffffffff1660e01b8152600401612b819594939291906147fd565b600060405180830381600087803b158015612b9b57600080fd5b505af1158015612baf573d6000803e3d6000fd5b5050505081805480612bc457612bc3614852565b5b6001900381819060005260206000209060020201600080820160006101000a81549073ffffffffffffffffffffffffffffffffffffffff02191690556000820160146101000a81549067ffffffffffffffff0219169055600182016000612c2b9190612e6e565b50509055506129ce565b50505050565b600080600080602285511480612c52575060428551115b612c91576040517f08c379a0000000000000000000000000000000000000000000000000000000008152600401612c88906148cd565b60405180910390fd5b600285015193506022850151925060018461ffff161480612cb6575060028461ffff16145b612cf5576040517f08c379a0000000000000000000000000000000000000000000000000000000008152600401612cec90614939565b60405180910390fd5b60008311612d38576040517f08c379a0000000000000000000000000000000000000000000000000000000008152600401612d2f906149a5565b60405180910390fd5b60028461ffff161415612d545760428501519150605685015190505b9193509193565b828054612d6790613c7c565b90600052602060002090601f016020900481019282612d895760008555612dd0565b82601f10612da257805160ff1916838001178555612dd0565b82800160010185558215612dd0579182015b82811115612dcf578251825591602001919060010190612db4565b5b509050612ddd9190612eae565b5090565b828054612ded90613c7c565b90600052602060002090601f016020900481019282612e0f5760008555612e5d565b82601f10612e205780548555612e5d565b82800160010185558215612e5d57600052602060002091601f016020900482015b82811115612e5c578254825591600101919060010190612e41565b5b509050612e6a9190612eae565b5090565b508054612e7a90613c7c565b6000825580601f10612e8c5750612eab565b601f016020900490600052602060002090810190612eaa9190612eae565b5b50565b5b80821115612ec7576000816000905550600101612eaf565b5090565b6000819050919050565b612ede81612ecb565b82525050565b6000604082019050612ef96000830185612ed5565b612f066020830184612ed5565b9392505050565b6000604051905090565b600080fd5b600080fd5b600061ffff82169050919050565b612f3881612f21565b8114612f4357600080fd5b50565b600081359050612f5581612f2f565b92915050565b600060208284031215612f7157612f70612f17565b5b6000612f7f84828501612f46565b91505092915050565b600073ffffffffffffffffffffffffffffffffffffffff82169050919050565b6000612fb382612f88565b9050919050565b612fc381612fa8565b8114612fce57600080fd5b50565b600081359050612fe081612fba565b92915050565b600060208284031215612ffc57612ffb612f17565b5b600061300a84828501612fd1565b91505092915050565b61301c81612f21565b82525050565b60006020820190506130376000830184613013565b92915050565b600080fd5b600080fd5b600080fd5b60008083601f8401126130625761306161303d565b5b8235905067ffffffffffffffff81111561307f5761307e613042565b5b60208301915083600182028301111561309b5761309a613047565b5b9250929050565b6000806000604084860312156130bb576130ba612f17565b5b60006130c986828701612f46565b935050602084013567ffffffffffffffff8111156130ea576130e9612f1c565b5b6130f68682870161304c565b92509250509250925092565b60008115159050919050565b61311781613102565b82525050565b6000602082019050613132600083018461310e565b92915050565b600080fd5b6000601f19601f8301169050919050565b7f4e487b7100000000000000000000000000000000000000000000000000000000600052604160045260246000fd5b6131868261313d565b810181811067ffffffffffffffff821117156131a5576131a461314e565b5b80604052505050565b60006131b8612f0d565b90506131c4828261317d565b919050565b600067ffffffffffffffff8211156131e4576131e361314e565b5b6131ed8261313d565b9050602081019050919050565b82818337600083830152505050565b600061321c613217846131c9565b6131ae565b90508281526020810184848401111561323857613237613138565b5b6132438482856131fa565b509392505050565b600082601f8301126132605761325f61303d565b5b8135613270848260208601613209565b91505092915050565b61328281612ecb565b811461328d57600080fd5b50565b60008135905061329f81613279565b92915050565b6000806000606084860312156132be576132bd612f17565b5b60006132cc86828701612f46565b935050602084013567ffffffffffffffff8111156132ed576132ec612f1c565b5b6132f98682870161324b565b925050604061330a86828701613290565b9150509250925092565b61331d81612fa8565b82525050565b600067ffffffffffffffff82169050919050565b61334081613323565b82525050565b600081519050919050565b600082825260208201905092915050565b60005b83811015613380578082015181840152602081019050613365565b8381111561338f576000848401525b50505050565b60006133a082613346565b6133aa8185613351565b93506133ba818560208601613362565b6133c38161313d565b840191505092915050565b60006060820190506133e36000830186613314565b6133f06020830185613337565b81810360408301526134028184613395565b9050949350505050565b6000806040838503121561342357613422612f17565b5b600061343185828601613290565b925050602061344285828601613290565b9150509250929050565b600060208201905081810360008301526134668184613395565b905092915050565b60006fffffffffffffffffffffffffffffffff82169050919050565b6134938161346e565b811461349e57600080fd5b50565b6000813590506134b08161348a565b92915050565b6134bf81613323565b81146134ca57600080fd5b50565b6000813590506134dc816134b6565b92915050565b600080600080600060a086880312156134fe576134fd612f17565b5b600061350c888289016134a1565b955050602061351d888289016134a1565b945050604061352e888289016134a1565b935050606061353f888289016134cd565b9250506080613550888289016134cd565b9150509295509295909350565b61356681613102565b811461357157600080fd5b50565b6000813590506135838161355d565b92915050565b600080600080600060a086880312156135a5576135a4612f17565b5b60006135b388828901612f46565b95505060206135c488828901612fd1565b945050604086013567ffffffffffffffff8111156135e5576135e4612f1c565b5b6135f18882890161324b565b935050606061360288828901613574565b925050608086013567ffffffffffffffff81111561362357613622612f1c565b5b61362f8882890161324b565b9150509295509295909350565b60006020820190506136516000830184613314565b92915050565b6000806040838503121561366e5761366d612f17565b5b600061367c85828601612f46565b925050602083013567ffffffffffffffff81111561369d5761369c612f1c565b5b6136a98582860161324b565b9150509250929050565b6000819050919050565b6136c6816136b3565b82525050565b60006060820190506136e16000830186613337565b6136ee6020830185613314565b6136fb60408301846136bd565b949350505050565b6000806040838503121561371a57613719612f17565b5b600061372885828601612f46565b925050602061373985828601612fd1565b9150509250929050565b60006020820190506137586000830184613337565b92915050565b60006020820190506137736000830184612ed5565b92915050565b6137828161346e565b82525050565b600060a08201905061379d6000830188613779565b6137aa6020830187613779565b6137b76040830186613779565b6137c46060830185613337565b6137d16080830184613337565b9695505050505050565b6000806000806000606086880312156137f7576137f6612f17565b5b600061380588828901612f46565b955050602086013567ffffffffffffffff81111561382657613825612f1c565b5b6138328882890161304c565b9450945050604086013567ffffffffffffffff81111561385557613854612f1c565b5b6138618882890161304c565b92509250509295509295909350565b60006020828403121561388657613885612f17565b5b600061389484828501613290565b91505092915050565b600080604083850312156138b4576138b3612f17565b5b60006138c285828601612fd1565b92505060206138d385828601612fd1565b9150509250929050565b60008060008060008060008060c0898b0312156138fd576138fc612f17565b5b600061390b8b828c01612f46565b985050602089013567ffffffffffffffff81111561392c5761392b612f1c565b5b6139388b828c0161304c565b9750975050604061394b8b828c01612fd1565b955050606061395c8b828c016134cd565b945050608061396d8b828c01613290565b93505060a089013567ffffffffffffffff81111561398e5761398d612f1c565b5b61399a8b828c0161304c565b92509250509295985092959890939650565b60006139b782612f88565b9050919050565b6139c7816139ac565b81146139d257600080fd5b50565b6000813590506139e4816139be565b92915050565b600080600080600080600060c0888a031215613a0957613a08612f17565b5b6000613a178a828b01612f46565b975050602088013567ffffffffffffffff811115613a3857613a37612f1c565b5b613a448a828b0161324b565b965050604088013567ffffffffffffffff811115613a6557613a64612f1c565b5b613a718a828b0161304c565b95509550506060613a848a828b016139d5565b9350506080613a958a828b01612fd1565b92505060a088013567ffffffffffffffff811115613ab657613ab5612f1c565b5b613ac28a828b0161324b565b91505092959891949750929550565b60008060008060808587031215613aeb57613aea612f17565b5b6000613af987828801612f46565b9450506020613b0a87828801612f46565b9350506040613b1b87828801613290565b925050606085013567ffffffffffffffff811115613b3c57613b3b612f1c565b5b613b488782880161324b565b91505092959194509250565b60008060008060808587031215613b6e57613b6d612f17565b5b6000613b7c87828801612f46565b9450506020613b8d87828801612f46565b9350506040613b9e87828801612fd1565b9250506060613baf87828801613290565b91505092959194509250565b600060208284031215613bd157613bd0612f17565b5b600082013567ffffffffffffffff811115613bef57613bee612f1c565b5b613bfb8482850161324b565b91505092915050565b600081905092915050565b6000613c1b8385613c04565b9350613c288385846131fa565b82840190509392505050565b6000613c41828486613c0f565b91508190509392505050565b7f4e487b7100000000000000000000000000000000000000000000000000000000600052602260045260246000fd5b60006002820490506001821680613c9457607f821691505b60208210811415613ca857613ca7613c4d565b5b50919050565b7f4e487b7100000000000000000000000000000000000000000000000000000000600052601160045260246000fd5b6000613ce882612ecb565b9150613cf383612ecb565b9250827fffffffffffffffffffffffffffffffffffffffffffffffffffffffffffffffff03821115613d2857613d27613cae565b5b828201905092915050565b600082825260208201905092915050565b7f4c617965725a65726f4d6f636b3a206e6f2073746f726564207061796c6f6164600082015250565b6000613d7a602083613d33565b9150613d8582613d44565b602082019050919050565b60006020820190508181036000830152613da981613d6d565b9050919050565b7f4c617965725a65726f4d6f636b3a20696e76616c69642063616c6c6572000000600082015250565b6000613de6601d83613d33565b9150613df182613db0565b602082019050919050565b60006020820190508181036000830152613e1581613dd9565b9050919050565b6000613e288385613351565b9350613e358385846131fa565b613e3e8361313d565b840190509392505050565b6000604082019050613e5e6000830186613013565b8181036020830152613e71818486613e1c565b9050949350505050565b7f4c617965725a65726f4d6f636b3a20696e76616c6964207061796c6f61640000600082015250565b6000613eb1601e83613d33565b9150613ebc82613e7b565b602082019050919050565b60006020820190508181036000830152613ee081613ea4565b9050919050565b6000608082019050613efc6000830189613013565b8181036020830152613f0f818789613e1c565b9050613f1e6040830186613337565b8181036060830152613f31818486613e1c565b9050979650505050505050565b6000608082019050613f536000830188613013565b8181036020830152613f66818688613e1c565b9050613f756040830185613337565b613f826060830184613314565b9695505050505050565b7f4c617965725a65726f4d6f636b3a206e6f2072656365697665207265656e747260008201527f616e637900000000000000000000000000000000000000000000000000000000602082015250565b6000613fe8602483613d33565b9150613ff382613f8c565b604082019050919050565b6000602082019050818103600083015261401781613fdb565b9050919050565b600061402982613323565b915067ffffffffffffffff82141561404457614043613cae565b5b600182019050919050565b7f4c617965725a65726f4d6f636b3a2077726f6e67206e6f6e6365000000000000600082015250565b6000614085601a83613d33565b91506140908261404f565b602082019050919050565b600060208201905081810360008301526140b481614078565b9050919050565b60006140c682612ecb565b91506140d183612ecb565b9250828210156140e4576140e3613cae565b5b828203905092915050565b7f4e487b7100000000000000000000000000000000000000000000000000000000600052603260045260246000fd5b600061412982612ecb565b91507fffffffffffffffffffffffffffffffffffffffffffffffffffffffffffffffff82141561415c5761415b613cae565b5b600182019050919050565b600060c08201905061417c600083018b613013565b818103602083015261418f81898b613e1c565b905061419e6040830188613314565b6141ab6060830187613337565b81810360808301526141be818587613e1c565b905081810360a08301526141d28184613395565b90509998505050505050505050565b7f4c617965725a65726f4d6f636b3a206e6f2073656e64207265656e7472616e6360008201527f7900000000000000000000000000000000000000000000000000000000000000602082015250565b600061423d602183613d33565b9150614248826141e1565b604082019050919050565b6000602082019050818103600083015261426c81614230565b9050919050565b7f4c617965725a65726f4d6f636b3a20696e636f72726563742072656d6f74652060008201527f616464726573732073697a650000000000000000000000000000000000000000602082015250565b60006142cf602c83613d33565b91506142da82614273565b604082019050919050565b600060208201905081810360008301526142fe816142c2565b9050919050565b7f4c617965725a65726f4d6f636b3a2064657374696e6174696f6e204c6179657260008201527f5a65726f20456e64706f696e74206e6f7420666f756e64000000000000000000602082015250565b6000614361603783613d33565b915061436c82614305565b604082019050919050565b6000602082019050818103600083015261439081614354565b9050919050565b7f4c617965725a65726f4d6f636b3a206e6f7420656e6f756768206e617469766560008201527f20666f7220666565730000000000000000000000000000000000000000000000602082015250565b60006143f3602983613d33565b91506143fe82614397565b604082019050919050565b60006020820190508181036000830152614422816143e6565b9050919050565b50565b6000614439600083613c04565b915061444482614429565b600082019050919050565b600061445a8261442c565b9150819050919050565b7f4c617965725a65726f4d6f636b3a206661696c656420746f20726566756e6400600082015250565b600061449a601f83613d33565b91506144a582614464565b602082019050919050565b600060208201905081810360008301526144c98161448d565b9050919050565b60008160601b9050919050565b60006144e8826144d0565b9050919050565b60006144fa826144dd565b9050919050565b61451261450d82612fa8565b6144ef565b82525050565b60006145248285614501565b6014820191506145348284614501565b6014820191508190509392505050565b600060c0820190506145596000830189613013565b818103602083015261456b8188613395565b905061457a6040830187613314565b6145876060830186613337565b6145946080830185612ed5565b81810360a08301526145a68184613395565b9050979650505050505050565b60008160f01b9050919050565b60006145cb826145b3565b9050919050565b6145e36145de82612f21565b6145c0565b82525050565b6000819050919050565b6146046145ff82612ecb565b6145e9565b82525050565b600061461682856145d2565b60028201915061462682846145f3565b6020820191508190509392505050565b7f4c617965725a65726f4d6f636b3a206473744e6174697665416d7420746f6f2060008201527f6c61726765200000000000000000000000000000000000000000000000000000602082015250565b6000614692602683613d33565b915061469d82614636565b604082019050919050565b600060208201905081810360008301526146c181614685565b9050919050565b60006146d382612ecb565b91506146de83612ecb565b9250817fffffffffffffffffffffffffffffffffffffffffffffffffffffffffffffffff048311821515161561471757614716613cae565b5b828202905092915050565b7f4e487b7100000000000000000000000000000000000000000000000000000000600052601260045260246000fd5b600061475c82612ecb565b915061476783612ecb565b92508261477757614776614722565b5b828204905092915050565b600061478d8261346e565b91506147988361346e565b9250816fffffffffffffffffffffffffffffffff04831182151516156147c1576147c0613cae565b5b828202905092915050565b60006147d78261346e565b91506147e28361346e565b9250826147f2576147f1614722565b5b828204905092915050565b60006080820190506148126000830188613013565b8181036020830152614825818688613e1c565b90506148346040830185613337565b81810360608301526148468184613395565b90509695505050505050565b7f4e487b7100000000000000000000000000000000000000000000000000000000600052603160045260246000fd5b7f496e76616c69642061646170746572506172616d730000000000000000000000600082015250565b60006148b7601583613d33565b91506148c282614881565b602082019050919050565b600060208201905081810360008301526148e6816148aa565b9050919050565b7f556e737570706f72746564207478547970650000000000000000000000000000600082015250565b6000614923601283613d33565b915061492e826148ed565b602082019050919050565b6000602082019050818103600083015261495281614916565b9050919050565b7f47617320746f6f206c6f77000000000000000000000000000000000000000000600082015250565b600061498f600b83613d33565b915061499a82614959565b602082019050919050565b600060208201905081810360008301526149be81614982565b905091905056fea2646970667358221220eb4a3ee327c90b383e8dd0f457cc9983af4c0873d8091056c45ffaa42f6c7e8f64736f6c63430008090033",
  "linkReferences": {},
  "deployedLinkReferences": {}
}