{
  "_format": "hh-sol-artifact-1",
  "contractName": "AtomicSwapV2",
  "sourceName": "contracts/v2/AtomicSwapV2.sol",
  "abi": [
    {
      "inputs": [],
      "name": "AlreadyCompleted",
      "type": "error"
    },
    {
      "inputs": [],
      "name": "AlreadyExistPool",
      "type": "error"
    },
    {
      "inputs": [],
      "name": "InvalidBidAmount",
      "type": "error"
    },
    {
      "inputs": [
        {
          "internalType": "address",
          "name": "real",
          "type": "address"
        },
        {
          "internalType": "address",
          "name": "expected",
          "type": "address"
        }
      ],
      "name": "InvalidBidder",
      "type": "error"
    },
    {
      "inputs": [],
      "name": "InvalidTokenPair",
      "type": "error"
    },
    {
      "inputs": [],
      "name": "NoPermissionToAccept",
      "type": "error"
    },
    {
      "inputs": [],
      "name": "NoPermissionToCancel",
      "type": "error"
    },
    {
      "inputs": [],
      "name": "NoPermissionToTake",
      "type": "error"
    },
    {
      "inputs": [
        {
          "internalType": "enum IAtomicSwap.BidStatus",
          "name": "status",
          "type": "uint8"
        }
      ],
      "name": "NoPlaceStatusOfBid",
      "type": "error"
    },
    {
      "inputs": [],
      "name": "NonExistPool",
      "type": "error"
    },
    {
      "inputs": [],
      "name": "NotAllowedAmount",
      "type": "error"
    },
    {
      "inputs": [],
      "name": "NotOwnerOfToken",
      "type": "error"
    },
    {
      "inputs": [],
      "name": "TokenTransferFailed",
      "type": "error"
    },
    {
      "inputs": [],
      "name": "WrongBidder",
      "type": "error"
    },
    {
      "inputs": [],
      "name": "ZeroTokenAddress",
      "type": "error"
    },
    {
      "anonymous": false,
      "inputs": [
        {
          "indexed": false,
          "internalType": "string",
          "name": "msg",
          "type": "string"
        }
      ],
      "name": "ASSERT",
      "type": "event"
    },
    {
      "anonymous": false,
      "inputs": [
        {
          "indexed": true,
          "internalType": "bytes32",
          "name": "id",
          "type": "bytes32"
        }
      ],
      "name": "AtomicSwapOrderCanceled",
      "type": "event"
    },
    {
      "anonymous": false,
      "inputs": [
        {
          "indexed": true,
          "internalType": "bytes32",
          "name": "id",
          "type": "bytes32"
        }
      ],
      "name": "AtomicSwapOrderCreated",
      "type": "event"
    },
    {
      "anonymous": false,
      "inputs": [
        {
          "indexed": true,
          "internalType": "address",
          "name": "maker",
          "type": "address"
        },
        {
          "indexed": true,
          "internalType": "address",
          "name": "taker",
          "type": "address"
        },
        {
          "indexed": true,
          "internalType": "bytes32",
          "name": "id",
          "type": "bytes32"
        }
      ],
      "name": "AtomicSwapOrderTook",
      "type": "event"
    },
    {
      "anonymous": false,
      "inputs": [
        {
          "indexed": false,
          "internalType": "uint8",
          "name": "version",
          "type": "uint8"
        }
      ],
      "name": "Initialized",
      "type": "event"
    },
    {
      "anonymous": false,
      "inputs": [
        {
          "indexed": true,
          "internalType": "address",
          "name": "previousOwner",
          "type": "address"
        },
        {
          "indexed": true,
          "internalType": "address",
          "name": "newOwner",
          "type": "address"
        }
      ],
      "name": "OwnershipTransferred",
      "type": "event"
    },
    {
      "anonymous": false,
      "inputs": [
        {
          "indexed": true,
          "internalType": "address",
          "name": "payer",
          "type": "address"
        },
        {
          "indexed": false,
          "internalType": "uint256",
          "name": "amount",
          "type": "uint256"
        },
        {
          "indexed": false,
          "internalType": "uint256",
          "name": "daoShare",
          "type": "uint256"
        },
        {
          "indexed": false,
          "internalType": "uint256",
          "name": "burned",
          "type": "uint256"
        }
      ],
      "name": "PaymentReceived",
      "type": "event"
    },
    {
      "inputs": [
        {
          "internalType": "bytes32",
          "name": "_orderID",
          "type": "bytes32"
        },
        {
          "internalType": "address",
          "name": "_bidder",
          "type": "address"
        }
      ],
      "name": "acceptBid",
      "outputs": [],
      "stateMutability": "payable",
      "type": "function"
    },
    {
      "inputs": [
        {
          "internalType": "bytes32",
          "name": "",
          "type": "bytes32"
        },
        {
          "internalType": "address",
          "name": "",
          "type": "address"
        }
      ],
      "name": "bids",
      "outputs": [
        {
          "internalType": "uint256",
          "name": "amount",
          "type": "uint256"
        },
        {
          "internalType": "bytes32",
          "name": "order",
          "type": "bytes32"
        },
        {
          "internalType": "enum IAtomicSwap.BidStatus",
          "name": "status",
          "type": "uint8"
        },
        {
          "internalType": "address",
          "name": "bidder",
          "type": "address"
        },
        {
          "internalType": "address",
          "name": "bidderReceiver",
          "type": "address"
        },
        {
          "internalType": "uint256",
          "name": "receiveTimestamp",
          "type": "uint256"
        },
        {
          "internalType": "uint256",
          "name": "expireTimestamp",
          "type": "uint256"
        }
      ],
      "stateMutability": "view",
      "type": "function"
    },
    {
      "inputs": [],
      "name": "bridge",
      "outputs": [
        {
          "internalType": "contract ISideLzAppUpgradable",
          "name": "",
          "type": "address"
        }
      ],
      "stateMutability": "view",
      "type": "function"
    },
    {
      "inputs": [
        {
          "components": [
            {
              "internalType": "bytes32",
              "name": "orderID",
              "type": "bytes32"
            }
          ],
          "internalType": "struct IAtomicSwap.CancelSwapMsg",
          "name": "cancelswap",
          "type": "tuple"
        }
      ],
      "name": "cancelSwap",
      "outputs": [],
      "stateMutability": "payable",
      "type": "function"
    },
    {
      "inputs": [
        {
          "internalType": "address",
          "name": "admin",
          "type": "address"
        },
        {
          "internalType": "uint16",
          "name": "_chainID",
          "type": "uint16"
        },
        {
          "internalType": "address",
          "name": "_bridge",
          "type": "address"
        }
      ],
      "name": "initialize",
      "outputs": [],
      "stateMutability": "nonpayable",
      "type": "function"
    },
    {
      "inputs": [
        {
          "components": [
            {
              "components": [
                {
                  "internalType": "address",
                  "name": "token",
                  "type": "address"
                },
                {
                  "internalType": "uint256",
                  "name": "amount",
                  "type": "uint256"
                }
              ],
              "internalType": "struct IAtomicSwap.Coin",
              "name": "sellToken",
              "type": "tuple"
            },
            {
              "components": [
                {
                  "internalType": "address",
                  "name": "token",
                  "type": "address"
                },
                {
                  "internalType": "uint256",
                  "name": "amount",
                  "type": "uint256"
                }
              ],
              "internalType": "struct IAtomicSwap.Coin",
              "name": "buyToken",
              "type": "tuple"
            },
            {
              "internalType": "address",
              "name": "makerSender",
              "type": "address"
            },
            {
              "internalType": "address",
              "name": "makerReceiver",
              "type": "address"
            },
            {
              "internalType": "address",
              "name": "desiredTaker",
              "type": "address"
            },
            {
              "internalType": "uint256",
              "name": "expireAt",
              "type": "uint256"
            },
            {
              "internalType": "uint16",
              "name": "dstChainID",
              "type": "uint16"
            },
            {
              "internalType": "enum IAtomicSwap.PoolType",
              "name": "poolType",
              "type": "uint8"
            }
          ],
          "internalType": "struct IAtomicSwap.MakeSwapMsg",
          "name": "makeswap",
          "type": "tuple"
        }
      ],
      "name": "makeSwap",
      "outputs": [],
      "stateMutability": "payable",
      "type": "function"
    },
    {
      "inputs": [
        {
          "internalType": "uint16",
          "name": "_srcChainID",
          "type": "uint16"
        },
        {
          "internalType": "bytes",
          "name": "_srcAddress",
          "type": "bytes"
        },
        {
          "internalType": "uint64",
          "name": "_nonce",
          "type": "uint64"
        },
        {
          "internalType": "bytes",
          "name": "_payload",
          "type": "bytes"
        }
      ],
      "name": "onReceivePacket",
      "outputs": [],
      "stateMutability": "nonpayable",
      "type": "function"
    },
    {
      "inputs": [],
      "name": "owner",
      "outputs": [
        {
          "internalType": "address",
          "name": "",
          "type": "address"
        }
      ],
      "stateMutability": "view",
      "type": "function"
    },
    {
      "inputs": [
        {
          "components": [
            {
              "internalType": "address",
              "name": "bidder",
              "type": "address"
            },
            {
              "internalType": "uint256",
              "name": "bidAmount",
              "type": "uint256"
            },
            {
              "internalType": "bytes32",
              "name": "orderID",
              "type": "bytes32"
            },
            {
              "internalType": "address",
              "name": "bidderReceiver",
              "type": "address"
            },
            {
              "internalType": "uint256",
              "name": "expireTimestamp",
              "type": "uint256"
            }
          ],
          "internalType": "struct IAtomicSwap.PlaceBidMsg",
          "name": "placeBidMsg",
          "type": "tuple"
        }
      ],
      "name": "placeBid",
      "outputs": [],
      "stateMutability": "payable",
      "type": "function"
    },
    {
      "inputs": [],
      "name": "renounceOwnership",
      "outputs": [],
      "stateMutability": "nonpayable",
      "type": "function"
    },
    {
      "inputs": [
        {
          "internalType": "bytes32",
          "name": "",
          "type": "bytes32"
        }
      ],
      "name": "swapOrderBuyToken",
      "outputs": [
        {
          "internalType": "address",
          "name": "token",
          "type": "address"
        },
        {
          "internalType": "uint256",
          "name": "amount",
          "type": "uint256"
        }
      ],
      "stateMutability": "view",
      "type": "function"
    },
    {
      "inputs": [
        {
          "internalType": "bytes32",
          "name": "",
          "type": "bytes32"
        }
      ],
      "name": "swapOrderID",
      "outputs": [
        {
          "internalType": "bytes32",
          "name": "id",
          "type": "bytes32"
        },
        {
          "internalType": "uint16",
          "name": "srcChainID",
          "type": "uint16"
        },
        {
          "internalType": "uint16",
          "name": "dstChainID",
          "type": "uint16"
        },
        {
          "internalType": "enum IAtomicSwap.PoolType",
          "name": "poolType",
          "type": "uint8"
        }
      ],
      "stateMutability": "view",
      "type": "function"
    },
    {
      "inputs": [
        {
          "internalType": "bytes32",
          "name": "",
          "type": "bytes32"
        }
      ],
      "name": "swapOrderOperators",
      "outputs": [
        {
          "internalType": "address",
          "name": "maker",
          "type": "address"
        },
        {
          "internalType": "address",
          "name": "taker",
          "type": "address"
        },
        {
          "internalType": "address",
          "name": "makerReceiver",
          "type": "address"
        },
        {
          "internalType": "address",
          "name": "takerReceiver",
          "type": "address"
        }
      ],
      "stateMutability": "view",
      "type": "function"
    },
    {
      "inputs": [
        {
          "internalType": "bytes32",
          "name": "",
          "type": "bytes32"
        }
      ],
      "name": "swapOrderSellToken",
      "outputs": [
        {
          "internalType": "address",
          "name": "token",
          "type": "address"
        },
        {
          "internalType": "uint256",
          "name": "amount",
          "type": "uint256"
        }
      ],
      "stateMutability": "view",
      "type": "function"
    },
    {
      "inputs": [
        {
          "internalType": "bytes32",
          "name": "",
          "type": "bytes32"
        }
      ],
      "name": "swapOrderStatus",
      "outputs": [
        {
          "internalType": "enum IAtomicSwap.Side",
          "name": "side",
          "type": "uint8"
        },
        {
          "internalType": "enum IAtomicSwap.Status",
          "name": "status",
          "type": "uint8"
        },
        {
          "internalType": "uint256",
          "name": "createdAt",
          "type": "uint256"
        },
        {
          "internalType": "uint256",
          "name": "canceledAt",
          "type": "uint256"
        },
        {
          "internalType": "uint256",
          "name": "completedAt",
          "type": "uint256"
        }
      ],
      "stateMutability": "view",
      "type": "function"
    },
    {
      "inputs": [
        {
          "components": [
            {
              "internalType": "bytes32",
              "name": "orderID",
              "type": "bytes32"
            },
            {
              "internalType": "address",
              "name": "takerReceiver",
              "type": "address"
            }
          ],
          "internalType": "struct IAtomicSwap.TakeSwapMsg",
          "name": "takeswap",
          "type": "tuple"
        }
      ],
      "name": "takeSwap",
      "outputs": [],
      "stateMutability": "payable",
      "type": "function"
    },
    {
      "inputs": [
        {
          "internalType": "address",
          "name": "newOwner",
          "type": "address"
        }
      ],
      "name": "transferOwnership",
      "outputs": [],
      "stateMutability": "nonpayable",
      "type": "function"
    }
  ],
  "bytecode": "0x608060405234801561001057600080fd5b50615275806100206000396000f3fe6080604052600436106100fe5760003560e01c8063708c0db911610095578063888a793411610064578063888a7934146103405780638da5cb5b1461035c578063a381b0d214610387578063e78cea92146103a3578063f2fde38b146103ce576100fe565b8063708c0db9146102a4578063715018a6146102cd5780638373fd53146102e457806385c6ae8e14610300576100fe565b806337be0022116100d157806337be0022146101de57806340d7185c146101fa578063483b32d91461022357806366e929bf14610261576100fe565b806306be619c146101035780631d2d85961461011f578063298b5e57146101605780633336e342146101a0575b600080fd5b61011d600480360381019061011891906136a0565b6103f7565b005b34801561012b57600080fd5b5061014660048036038101906101419190613703565b610a0a565b604051610157959493929190613808565b60405180910390f35b34801561016c57600080fd5b5061018760048036038101906101829190613703565b610a5a565b604051610197949392919061389c565b60405180910390f35b3480156101ac57600080fd5b506101c760048036038101906101c29190613703565b610b0a565b6040516101d59291906138e1565b60405180910390f35b6101f860048036038101906101f39190613929565b610b4e565b005b34801561020657600080fd5b50610221600480360381019061021c9190613b76565b6110ad565b005b34801561022f57600080fd5b5061024a60048036038101906102459190613703565b61152e565b6040516102589291906138e1565b60405180910390f35b34801561026d57600080fd5b5061028860048036038101906102839190613c46565b611572565b60405161029b9796959493929190613cdd565b60405180910390f35b3480156102b057600080fd5b506102cb60048036038101906102c69190613d4c565b61160e565b005b3480156102d957600080fd5b506102e26117b6565b005b6102fe60048036038101906102f99190613dbf565b6117ca565b005b34801561030c57600080fd5b5061032760048036038101906103229190613703565b611d0d565b6040516103379493929190613e44565b60405180910390f35b61035a60048036038101906103559190613c46565b611d66565b005b34801561036857600080fd5b506103716123f9565b60405161037e9190613e89565b60405180910390f35b6103a1600480360381019061039c9190613ec3565b612423565b005b3480156103af57600080fd5b506103b861286f565b6040516103c59190613f4f565b60405180910390f35b3480156103da57600080fd5b506103f560048036038101906103f09190613f6a565b612895565b005b6103ff612919565b80600001356000801b60986000838152602001908152602001600020600001541415610457576040517f21b490ba00000000000000000000000000000000000000000000000000000000815260040160405180910390fd5b6000609a60008460000135815260200190815260200160002090506000609960008560000135815260200190815260200160002090503373ffffffffffffffffffffffffffffffffffffffff168260010160009054906101000a900473ffffffffffffffffffffffffffffffffffffffff1673ffffffffffffffffffffffffffffffffffffffff161461051f576040517f08c379a000000000000000000000000000000000000000000000000000000000815260040161051690613ff4565b60405180910390fd5b60048081111561053257610531613730565b5b8160000160019054906101000a900460ff16600481111561055657610555613730565b5b1415610597576040517f08c379a000000000000000000000000000000000000000000000000000000000815260040161058e90614060565b60405180910390fd5b6000609c60008660000135815260200190815260200160002090506000349050600073ffffffffffffffffffffffffffffffffffffffff168260000160009054906101000a900473ffffffffffffffffffffffffffffffffffffffff1673ffffffffffffffffffffffffffffffffffffffff1614156106dc5781600101543411610656576040517f08c379a000000000000000000000000000000000000000000000000000000000815260040161064d906140cc565b60405180910390fd5b8360020160009054906101000a900473ffffffffffffffffffffffffffffffffffffffff1673ffffffffffffffffffffffffffffffffffffffff166108fc83600101549081150290604051600060405180830381858888f193505050501580156106c4573d6000803e3d6000fd5b508160010154346106d5919061411b565b90506107fd565b60008260000160009054906101000a900473ffffffffffffffffffffffffffffffffffffffff1690508073ffffffffffffffffffffffffffffffffffffffff166323b872dd338760020160009054906101000a900473ffffffffffffffffffffffffffffffffffffffff1686600101546040518463ffffffff1660e01b815260040161076a9392919061414f565b602060405180830381600087803b15801561078457600080fd5b505af1158015610798573d6000803e3d6000fd5b505050506040513d601f19601f820116820180604052508101906107bc91906141be565b6107fb576040517f08c379a00000000000000000000000000000000000000000000000000000000081526004016107f290614237565b60405180910390fd5b505b6001808111156108105761080f613730565b5b609860008860000135815260200190815260200160002060010160049054906101000a900460ff16600181111561084a57610849613730565b5b141561091d5760008060018860405160200161086893929190614372565b6040516020818303038152906040529050609760009054906101000a900473ffffffffffffffffffffffffffffffffffffffff1673ffffffffffffffffffffffffffffffffffffffff1663e4a8b2f983609f60009054906101000a900461ffff1633856040518563ffffffff1660e01b81526004016108e993929190614452565b6000604051808303818588803b15801561090257600080fd5b505af1158015610916573d6000803e3d6000fd5b5050505050505b60048360000160016101000a81548160ff0219169083600481111561094557610944613730565b5b021790555042836003018190555085600001358460010160009054906101000a900473ffffffffffffffffffffffffffffffffffffffff1673ffffffffffffffffffffffffffffffffffffffff168560000160009054906101000a900473ffffffffffffffffffffffffffffffffffffffff1673ffffffffffffffffffffffffffffffffffffffff167f6bf7309f141d1b44e414f1fc04d98491cd0acf98f0f1e5ad885d0a7ce164e6fa60405160405180910390a45050505050610a07612969565b50565b60996020528060005260406000206000915090508060000160009054906101000a900460ff16908060000160019054906101000a900460ff16908060010154908060020154908060030154905085565b609a6020528060005260406000206000915090508060000160009054906101000a900473ffffffffffffffffffffffffffffffffffffffff16908060010160009054906101000a900473ffffffffffffffffffffffffffffffffffffffff16908060020160009054906101000a900473ffffffffffffffffffffffffffffffffffffffff16908060030160009054906101000a900473ffffffffffffffffffffffffffffffffffffffff16905084565b609c6020528060005260406000206000915090508060000160009054906101000a900473ffffffffffffffffffffffffffffffffffffffff16908060010154905082565b610b56612919565b80600001356000801b60986000838152602001908152602001600020600001541415610bae576040517f21b490ba00000000000000000000000000000000000000000000000000000000815260040160405180910390fd5b6000826000013590506000609a60008381526020019081526020016000206040518060800160405290816000820160009054906101000a900473ffffffffffffffffffffffffffffffffffffffff1673ffffffffffffffffffffffffffffffffffffffff1673ffffffffffffffffffffffffffffffffffffffff1681526020016001820160009054906101000a900473ffffffffffffffffffffffffffffffffffffffff1673ffffffffffffffffffffffffffffffffffffffff1673ffffffffffffffffffffffffffffffffffffffff1681526020016002820160009054906101000a900473ffffffffffffffffffffffffffffffffffffffff1673ffffffffffffffffffffffffffffffffffffffff1673ffffffffffffffffffffffffffffffffffffffff1681526020016003820160009054906101000a900473ffffffffffffffffffffffffffffffffffffffff1673ffffffffffffffffffffffffffffffffffffffff1673ffffffffffffffffffffffffffffffffffffffff168152505090503373ffffffffffffffffffffffffffffffffffffffff16816000015173ffffffffffffffffffffffffffffffffffffffff1614610d9a576040517f2bc8de4500000000000000000000000000000000000000000000000000000000815260040160405180910390fd5b60026099600084815260200190815260200160002060000160016101000a81548160ff02191690836004811115610dd457610dd3613730565b5b02179055506000609b600084815260200190815260200160002060000160009054906101000a900473ffffffffffffffffffffffffffffffffffffffff1690506000609c6000858152602001908152602001600020600101549050600073ffffffffffffffffffffffffffffffffffffffff168273ffffffffffffffffffffffffffffffffffffffff161415610eb0573373ffffffffffffffffffffffffffffffffffffffff166108fc829081150290604051600060405180830381858888f19350505050158015610eaa573d6000803e3d6000fd5b50610f45565b60008290508073ffffffffffffffffffffffffffffffffffffffff1663a9059cbb33846040518363ffffffff1660e01b8152600401610ef09291906138e1565b602060405180830381600087803b158015610f0a57600080fd5b505af1158015610f1e573d6000803e3d6000fd5b505050506040513d601f19601f82011682018060405250810190610f4291906141be565b50505b60006098600086815260200190815260200160002060010160049054906101000a900460ff169050610f7685612973565b600180811115610f8957610f88613730565b5b816001811115610f9c57610f9b613730565b5b141561106f57600080600287604051602001610fba93929190614490565b6040516020818303038152906040529050609760009054906101000a900473ffffffffffffffffffffffffffffffffffffffff1673ffffffffffffffffffffffffffffffffffffffff1663e4a8b2f934609f60009054906101000a900461ffff1633856040518563ffffffff1660e01b815260040161103b93929190614452565b6000604051808303818588803b15801561105457600080fd5b505af1158015611068573d6000803e3d6000fd5b5050505050505b847ff68aeec8f55d67a9b2cf2b6caea31e11f2c14e09da250170575d63911f26aa6e60405160405180910390a25050505050506110aa612969565b50565b600082826000906020926110c3939291906144d1565b8101906110d09190614531565b9050600060048111156110e6576110e5613730565b5b8160048111156110f9576110f8613730565b5b14156111635760008383602090604092611115939291906144d1565b906111209190614576565b9050600084846040908092611137939291906144d1565b8101906111449190614747565b905061115c82611153896129d2565b8360008c6129e0565b5050611526565b6001600481111561117757611176613730565b5b81600481111561118a57611189613730565b5b14156111fd576000838360209080926111a5939291906144d1565b8101906111b291906147c5565b90506004609960008360000151815260200190815260200160002060000160016101000a81548160ff021916908360048111156111f2576111f1613730565b5b021790555050611525565b6002600481111561121157611210613730565b5b81600481111561122457611223613730565b5b141561125b5760008383602090809261123f939291906144d1565b9061124a9190614576565b905061125581612973565b50611524565b6003600481111561126f5761126e613730565b5b81600481111561128257611281613730565b5b14156112bb5760008383602090809261129d939291906144d1565b8101906112aa919061487e565b90506112b581612ff3565b50611523565b6004808111156112ce576112cd613730565b5b8160048111156112e1576112e0613730565b5b1415611522576000838360209080926112fc939291906144d1565b81019061130991906148fb565b90506000816000015190506000826020015190506000609d600084815260200190815260200160002060008373ffffffffffffffffffffffffffffffffffffffff1673ffffffffffffffffffffffffffffffffffffffff16815260200190815260200160002090506000609c600085815260200190815260200160002090506000609a600086815260200190815260200160002060020160009054906101000a900473ffffffffffffffffffffffffffffffffffffffff169050600073ffffffffffffffffffffffffffffffffffffffff168260000160009054906101000a900473ffffffffffffffffffffffffffffffffffffffff1673ffffffffffffffffffffffffffffffffffffffff16146114535761144e8260000160009054906101000a900473ffffffffffffffffffffffffffffffffffffffff168285600001546131c2565b61149f565b8073ffffffffffffffffffffffffffffffffffffffff166108fc84600001549081150290604051600060405180830381858888f1935050505015801561149d573d6000803e3d6000fd5b505b6003609d600087815260200190815260200160002060008673ffffffffffffffffffffffffffffffffffffffff1673ffffffffffffffffffffffffffffffffffffffff16815260200190815260200160002060020160006101000a81548160ff0219169083600481111561151657611515613730565b5b02179055505050505050505b5b5b5b5b505050505050565b609b6020528060005260406000206000915090508060000160009054906101000a900473ffffffffffffffffffffffffffffffffffffffff16908060010154905082565b609d602052816000526040600020602052806000526040600020600091509150508060000154908060010154908060020160009054906101000a900460ff16908060020160019054906101000a900473ffffffffffffffffffffffffffffffffffffffff16908060030160009054906101000a900473ffffffffffffffffffffffffffffffffffffffff16908060040154908060050154905087565b60008060019054906101000a900460ff1615905080801561163f5750600160008054906101000a900460ff1660ff16105b8061166c575061164e30613299565b15801561166b5750600160008054906101000a900460ff1660ff16145b5b6116ab576040517f08c379a00000000000000000000000000000000000000000000000000000000081526004016116a29061499a565b60405180910390fd5b60016000806101000a81548160ff021916908360ff16021790555080156116e8576001600060016101000a81548160ff0219169083151502179055505b6116f06132bc565b6116f984612895565b81609760006101000a81548173ffffffffffffffffffffffffffffffffffffffff021916908373ffffffffffffffffffffffffffffffffffffffff16021790555082609f60006101000a81548161ffff021916908361ffff16021790555080156117b05760008060016101000a81548160ff0219169083151502179055507f7f26b83ff96e1f2b6a682f133852f6798a09c465da95921460cefb384740249860016040516117a791906149f5565b60405180910390a15b50505050565b6117be61331d565b6117c8600061339b565b565b600073ffffffffffffffffffffffffffffffffffffffff168160000160000160208101906117f89190613f6a565b73ffffffffffffffffffffffffffffffffffffffff1614158015611871575080604001600001602081019061182d9190613f6a565b73ffffffffffffffffffffffffffffffffffffffff168160000160000160208101906118599190613f6a565b73ffffffffffffffffffffffffffffffffffffffff16145b156118a8576040517f8686656d00000000000000000000000000000000000000000000000000000000815260040160405180910390fd5b3373ffffffffffffffffffffffffffffffffffffffff168160800160208101906118d29190613f6a565b73ffffffffffffffffffffffffffffffffffffffff161461191f576040517f4c084f1400000000000000000000000000000000000000000000000000000000815260040160405180910390fd5b6000349050600073ffffffffffffffffffffffffffffffffffffffff168260000160000160208101906119529190613f6a565b73ffffffffffffffffffffffffffffffffffffffff1614156119d157816000016020013534116119b7576040517f08c379a00000000000000000000000000000000000000000000000000000000081526004016119ae90614a5c565b60405180910390fd5b8160000160200135816119ca919061411b565b9050611b8d565b60008260000160000160208101906119e99190613f6a565b905082600001602001358173ffffffffffffffffffffffffffffffffffffffff1663dd62ed3e33306040518363ffffffff1660e01b8152600401611a2e929190614a7c565b60206040518083038186803b158015611a4657600080fd5b505afa158015611a5a573d6000803e3d6000fd5b505050506040513d601f19601f82011682018060405250810190611a7e9190614aba565b1015611ab6576040517fe359de1000000000000000000000000000000000000000000000000000000000815260040160405180910390fd5b8073ffffffffffffffffffffffffffffffffffffffff166323b872dd333086600001602001356040518463ffffffff1660e01b8152600401611afa9392919061414f565b602060405180830381600087803b158015611b1457600080fd5b505af1158015611b28573d6000803e3d6000fd5b505050506040513d601f19601f82011682018060405250810190611b4c91906141be565b611b8b576040517f08c379a0000000000000000000000000000000000000000000000000000000008152600401611b8290614b33565b60405180910390fd5b505b6000611bac3384610100016020810190611ba79190614b53565b613461565b9050611bcd813385803603810190611bc49190614747565b600160006129e0565b600180811115611be057611bdf613730565b5b83610120016020810190611bf49190614b80565b6001811115611c0657611c05613730565b5b1415611cdb5760008060008386604051602001611c269493929190614d4f565b6040516020818303038152906040529050609760009054906101000a900473ffffffffffffffffffffffffffffffffffffffff1673ffffffffffffffffffffffffffffffffffffffff1663e4a8b2f984609f60009054906101000a900461ffff1633856040518563ffffffff1660e01b8152600401611ca793929190614452565b6000604051808303818588803b158015611cc057600080fd5b505af1158015611cd4573d6000803e3d6000fd5b5050505050505b807f8b82d32987f9a4ae1bc7868a6f104edb711227ec3c9fccb0416a14fcc29bec5a60405160405180910390a2505050565b60986020528060005260406000206000915090508060000154908060010160009054906101000a900461ffff16908060010160029054906101000a900461ffff16908060010160049054906101000a900460ff16905084565b611d6e612919565b816000801b60986000838152602001908152602001600020600001541415611dc2576040517f21b490ba00000000000000000000000000000000000000000000000000000000815260040160405180910390fd5b6000609a600085815260200190815260200160002060000160009054906101000a900473ffffffffffffffffffffffffffffffffffffffff1690506000609a600086815260200190815260200160002060020160009054906101000a900473ffffffffffffffffffffffffffffffffffffffff1690506000609d600087815260200190815260200160002060008673ffffffffffffffffffffffffffffffffffffffff1673ffffffffffffffffffffffffffffffffffffffff16815260200190815260200160002060030160009054906101000a900473ffffffffffffffffffffffffffffffffffffffff1690503373ffffffffffffffffffffffffffffffffffffffff168373ffffffffffffffffffffffffffffffffffffffff1614611f15576040517f60aca13200000000000000000000000000000000000000000000000000000000815260040160405180910390fd5b6000609d600088815260200190815260200160002060008773ffffffffffffffffffffffffffffffffffffffff1673ffffffffffffffffffffffffffffffffffffffff16815260200190815260200160002090508573ffffffffffffffffffffffffffffffffffffffff168160020160019054906101000a900473ffffffffffffffffffffffffffffffffffffffff1673ffffffffffffffffffffffffffffffffffffffff1614611ff2576040517f36b96f5600000000000000000000000000000000000000000000000000000000815260040160405180910390fd5b60048081111561200557612004613730565b5b8160020160009054906101000a900460ff16600481111561202957612028613730565b5b1461207c578060020160009054906101000a900460ff166040517f4f1404470000000000000000000000000000000000000000000000000000000081526004016120739190614d95565b60405180910390fd5b60038160020160006101000a81548160ff021916908360048111156120a4576120a3613730565b5b02179055506000609b600089815260200190815260200160002090506000609c60008a81526020019081526020016000209050600073ffffffffffffffffffffffffffffffffffffffff168260000160009054906101000a900473ffffffffffffffffffffffffffffffffffffffff1673ffffffffffffffffffffffffffffffffffffffff1614612167576121628260000160009054906101000a900473ffffffffffffffffffffffffffffffffffffffff168584600101546131c2565b6121b3565b8373ffffffffffffffffffffffffffffffffffffffff166108fc83600101549081150290604051600060405180830381858888f193505050501580156121b1573d6000803e3d6000fd5b505b6000609860008b815260200190815260200160002060010160049054906101000a900460ff1690506001808111156121ee576121ed613730565b5b81600181111561220157612200613730565b5b141561230857600060405180604001604052808c81526020018b73ffffffffffffffffffffffffffffffffffffffff16815250905060008060048360405160200161224e93929190614ddf565b6040516020818303038152906040529050609760009054906101000a900473ffffffffffffffffffffffffffffffffffffffff1673ffffffffffffffffffffffffffffffffffffffff1663e4a8b2f934609f60009054906101000a900461ffff1633856040518563ffffffff1660e01b81526004016122cf93929190614452565b6000604051808303818588803b1580156122e857600080fd5b505af11580156122fc573d6000803e3d6000fd5b505050505050506123e5565b600073ffffffffffffffffffffffffffffffffffffffff168260000160009054906101000a900473ffffffffffffffffffffffffffffffffffffffff1673ffffffffffffffffffffffffffffffffffffffff1614612398576123938260000160009054906101000a900473ffffffffffffffffffffffffffffffffffffffff168786600001546131c2565b6123e4565b8573ffffffffffffffffffffffffffffffffffffffff166108fc85600001549081150290604051600060405180830381858888f193505050501580156123e2573d6000803e3d6000fd5b505b5b50505050505050506123f5612969565b5050565b6000603360009054906101000a900473ffffffffffffffffffffffffffffffffffffffff16905090565b61242b612919565b80604001356000801b60986000838152602001908152602001600020600001541415612483576040517f21b490ba00000000000000000000000000000000000000000000000000000000815260040160405180910390fd5b3373ffffffffffffffffffffffffffffffffffffffff168260000160208101906124ad9190613f6a565b73ffffffffffffffffffffffffffffffffffffffff161461251957338260000160208101906124dc9190613f6a565b6040517fa34b935d000000000000000000000000000000000000000000000000000000008152600401612510929190614a7c565b60405180910390fd5b6000826040013590506000836020013590506000609c6000848152602001908152602001600020905060006098600085815260200190815260200160002060010160049054906101000a900460ff1690506000609d600086815260200190815260200160002060003373ffffffffffffffffffffffffffffffffffffffff1673ffffffffffffffffffffffffffffffffffffffff168152602001908152602001600020905080600001548410156125fc576040517fe83664ea00000000000000000000000000000000000000000000000000000000815260040160405180910390fd5b6000609c60008781526020019081526020016000206001015490506000826000015486612629919061411b565b9050600073ffffffffffffffffffffffffffffffffffffffff168560000160009054906101000a900473ffffffffffffffffffffffffffffffffffffffff1673ffffffffffffffffffffffffffffffffffffffff16146126fb57818610156126c6576040517f08c379a00000000000000000000000000000000000000000000000000000000081526004016126bd90614e62565b60405180910390fd5b6126f68560000160009054906101000a900473ffffffffffffffffffffffffffffffffffffffff163330846134c2565b61273f565b8134101561273e576040517f08c379a000000000000000000000000000000000000000000000000000000000815260040161273590614e62565b60405180910390fd5b5b61275889803603810190612753919061487e565b612ff3565b60018081111561276b5761276a613730565b5b84600181111561277e5761277d613730565b5b141561285c5760008060038b60405160200161279c93929190614f12565b6040516020818303038152906040529050609760009054906101000a900473ffffffffffffffffffffffffffffffffffffffff1673ffffffffffffffffffffffffffffffffffffffff1663e4a8b2f983346127f7919061411b565b609f60009054906101000a900461ffff1633856040518563ffffffff1660e01b815260040161282893929190614452565b6000604051808303818588803b15801561284157600080fd5b505af1158015612855573d6000803e3d6000fd5b5050505050505b505050505050505061286c612969565b50565b609760009054906101000a900473ffffffffffffffffffffffffffffffffffffffff1681565b61289d61331d565b600073ffffffffffffffffffffffffffffffffffffffff168173ffffffffffffffffffffffffffffffffffffffff16141561290d576040517f08c379a000000000000000000000000000000000000000000000000000000000815260040161290490614fbb565b60405180910390fd5b6129168161339b565b50565b6002606554141561295f576040517f08c379a000000000000000000000000000000000000000000000000000000000815260040161295690615027565b60405180910390fd5b6002606581905550565b6001606581905550565b609860008281526020019081526020016000206000808201600090556001820160006101000a81549061ffff02191690556001820160026101000a81549061ffff02191690556001820160046101000a81549060ff0219169055505050565b600060148201519050919050565b6000801b609860008781526020019081526020016000206000015414612a32576040517f86c8139e00000000000000000000000000000000000000000000000000000000815260040160405180910390fd5b60006040518060800160405280878152602001609f60009054906101000a900461ffff1661ffff1681526020018560c0015161ffff1681526020018560e001516001811115612a8457612a83613730565b5b815250905060006040518060800160405280866040015173ffffffffffffffffffffffffffffffffffffffff168152602001866080015173ffffffffffffffffffffffffffffffffffffffff168152602001866060015173ffffffffffffffffffffffffffffffffffffffff168152602001866080015173ffffffffffffffffffffffffffffffffffffffff16815250905060006040518060a00160405280866001811115612b3657612b35613730565b5b815260200160016004811115612b4f57612b4e613730565b5b8152602001428152602001600081526020016000815250905060006001811115612b7c57612b7b613730565b5b856001811115612b8f57612b8e613730565b5b1415612c8457609f60009054906101000a900461ffff16836020019061ffff16908161ffff168152505083836040019061ffff16908161ffff16815250508160200151609a60008a815260200190815260200160002060010160006101000a81548173ffffffffffffffffffffffffffffffffffffffff021916908373ffffffffffffffffffffffffffffffffffffffff1602179055508160400151609a60008a815260200190815260200160002060020160006101000a81548173ffffffffffffffffffffffffffffffffffffffff021916908373ffffffffffffffffffffffffffffffffffffffff160217905550612eb9565b81609a60008a815260200190815260200160002060008201518160000160006101000a81548173ffffffffffffffffffffffffffffffffffffffff021916908373ffffffffffffffffffffffffffffffffffffffff16021790555060208201518160010160006101000a81548173ffffffffffffffffffffffffffffffffffffffff021916908373ffffffffffffffffffffffffffffffffffffffff16021790555060408201518160020160006101000a81548173ffffffffffffffffffffffffffffffffffffffff021916908373ffffffffffffffffffffffffffffffffffffffff16021790555060608201518160030160006101000a81548173ffffffffffffffffffffffffffffffffffffffff021916908373ffffffffffffffffffffffffffffffffffffffff1602179055509050508560000151609b60008a815260200190815260200160002060008201518160000160006101000a81548173ffffffffffffffffffffffffffffffffffffffff021916908373ffffffffffffffffffffffffffffffffffffffff1602179055506020820151816001015590505080609960008a815260200190815260200160002060008201518160000160006101000a81548160ff02191690836001811115612e6257612e61613730565b5b021790555060208201518160000160016101000a81548160ff02191690836004811115612e9257612e91613730565b5b02179055506040820151816001015560608201518160020155608082015181600301559050505b82609860008a81526020019081526020016000206000820151816000015560208201518160010160006101000a81548161ffff021916908361ffff16021790555060408201518160010160026101000a81548161ffff021916908361ffff16021790555060608201518160010160046101000a81548160ff02191690836001811115612f4857612f47613730565b5b02179055509050508560200151609c60008a815260200190815260200160002060008201518160000160006101000a81548173ffffffffffffffffffffffffffffffffffffffff021916908373ffffffffffffffffffffffffffffffffffffffff16021790555060208201518160010155905050877f8b82d32987f9a4ae1bc7868a6f104edb711227ec3c9fccb0416a14fcc29bec5a60405160405180910390a25050505050505050565b60006040518060e00160405280836020015181526020018360400151815260200160048081111561302757613026613730565b5b8152602001836000015173ffffffffffffffffffffffffffffffffffffffff168152602001836060015173ffffffffffffffffffffffffffffffffffffffff1681526020014281526020018360800151815250905080609d6000846040015181526020019081526020016000206000846000015173ffffffffffffffffffffffffffffffffffffffff1673ffffffffffffffffffffffffffffffffffffffff168152602001908152602001600020600082015181600001556020820151816001015560408201518160020160006101000a81548160ff0219169083600481111561311457613113613730565b5b021790555060608201518160020160016101000a81548173ffffffffffffffffffffffffffffffffffffffff021916908373ffffffffffffffffffffffffffffffffffffffff16021790555060808201518160030160006101000a81548173ffffffffffffffffffffffffffffffffffffffff021916908373ffffffffffffffffffffffffffffffffffffffff16021790555060a0820151816004015560c082015181600501559050505050565b60008390508073ffffffffffffffffffffffffffffffffffffffff1663a9059cbb84846040518363ffffffff1660e01b81526004016132029291906138e1565b602060405180830381600087803b15801561321c57600080fd5b505af1158015613230573d6000803e3d6000fd5b505050506040513d601f19601f8201168201806040525081019061325491906141be565b613293576040517f08c379a000000000000000000000000000000000000000000000000000000000815260040161328a90615093565b60405180910390fd5b50505050565b6000808273ffffffffffffffffffffffffffffffffffffffff163b119050919050565b600060019054906101000a900460ff1661330b576040517f08c379a000000000000000000000000000000000000000000000000000000000815260040161330290615125565b60405180910390fd5b61331b613316613660565b61339b565b565b613325613660565b73ffffffffffffffffffffffffffffffffffffffff166133436123f9565b73ffffffffffffffffffffffffffffffffffffffff1614613399576040517f08c379a000000000000000000000000000000000000000000000000000000000815260040161339090615191565b60405180910390fd5b565b6000603360009054906101000a900473ffffffffffffffffffffffffffffffffffffffff16905081603360006101000a81548173ffffffffffffffffffffffffffffffffffffffff021916908373ffffffffffffffffffffffffffffffffffffffff1602179055508173ffffffffffffffffffffffffffffffffffffffff168173ffffffffffffffffffffffffffffffffffffffff167f8be0079c531659141344cd1fd0a4f28419497f9722a3daafe3b4186f6b6457e060405160405180910390a35050565b6000609f60009054906101000a900461ffff168284609e5460405160200161348c94939291906151b1565b604051602081830303815290604052805190602001209050609e60008154809291906134b7906151f6565b919050555092915050565b6000849050818173ffffffffffffffffffffffffffffffffffffffff1663dd62ed3e33306040518363ffffffff1660e01b8152600401613503929190614a7c565b60206040518083038186803b15801561351b57600080fd5b505afa15801561352f573d6000803e3d6000fd5b505050506040513d601f19601f820116820180604052508101906135539190614aba565b101561358b576040517fe359de1000000000000000000000000000000000000000000000000000000000815260040160405180910390fd5b8073ffffffffffffffffffffffffffffffffffffffff166323b872dd8585856040518463ffffffff1660e01b81526004016135c89392919061414f565b602060405180830381600087803b1580156135e257600080fd5b505af11580156135f6573d6000803e3d6000fd5b505050506040513d601f19601f8201168201806040525081019061361a91906141be565b613659576040517f08c379a000000000000000000000000000000000000000000000000000000000815260040161365090615093565b60405180910390fd5b5050505050565b600033905090565b6000604051905090565b600080fd5b600080fd5b600080fd5b6000604082840312156136975761369661367c565b5b81905092915050565b6000604082840312156136b6576136b5613672565b5b60006136c484828501613681565b91505092915050565b6000819050919050565b6136e0816136cd565b81146136eb57600080fd5b50565b6000813590506136fd816136d7565b92915050565b60006020828403121561371957613718613672565b5b6000613727848285016136ee565b91505092915050565b7f4e487b7100000000000000000000000000000000000000000000000000000000600052602160045260246000fd5b600281106137705761376f613730565b5b50565b60008190506137818261375f565b919050565b600061379182613773565b9050919050565b6137a181613786565b82525050565b600581106137b8576137b7613730565b5b50565b60008190506137c9826137a7565b919050565b60006137d9826137bb565b9050919050565b6137e9816137ce565b82525050565b6000819050919050565b613802816137ef565b82525050565b600060a08201905061381d6000830188613798565b61382a60208301876137e0565b61383760408301866137f9565b61384460608301856137f9565b61385160808301846137f9565b9695505050505050565b600073ffffffffffffffffffffffffffffffffffffffff82169050919050565b60006138868261385b565b9050919050565b6138968161387b565b82525050565b60006080820190506138b1600083018761388d565b6138be602083018661388d565b6138cb604083018561388d565b6138d8606083018461388d565b95945050505050565b60006040820190506138f6600083018561388d565b61390360208301846137f9565b9392505050565b6000602082840312156139205761391f61367c565b5b81905092915050565b60006020828403121561393f5761393e613672565b5b600061394d8482850161390a565b91505092915050565b600061ffff82169050919050565b61396d81613956565b811461397857600080fd5b50565b60008135905061398a81613964565b92915050565b600080fd5b600080fd5b6000601f19601f8301169050919050565b7f4e487b7100000000000000000000000000000000000000000000000000000000600052604160045260246000fd5b6139e38261399a565b810181811067ffffffffffffffff82111715613a0257613a016139ab565b5b80604052505050565b6000613a15613668565b9050613a2182826139da565b919050565b600067ffffffffffffffff821115613a4157613a406139ab565b5b613a4a8261399a565b9050602081019050919050565b82818337600083830152505050565b6000613a79613a7484613a26565b613a0b565b905082815260208101848484011115613a9557613a94613995565b5b613aa0848285613a57565b509392505050565b600082601f830112613abd57613abc613990565b5b8135613acd848260208601613a66565b91505092915050565b600067ffffffffffffffff82169050919050565b613af381613ad6565b8114613afe57600080fd5b50565b600081359050613b1081613aea565b92915050565b600080fd5b600080fd5b60008083601f840112613b3657613b35613990565b5b8235905067ffffffffffffffff811115613b5357613b52613b16565b5b602083019150836001820283011115613b6f57613b6e613b1b565b5b9250929050565b600080600080600060808688031215613b9257613b91613672565b5b6000613ba08882890161397b565b955050602086013567ffffffffffffffff811115613bc157613bc0613677565b5b613bcd88828901613aa8565b9450506040613bde88828901613b01565b935050606086013567ffffffffffffffff811115613bff57613bfe613677565b5b613c0b88828901613b20565b92509250509295509295909350565b613c238161387b565b8114613c2e57600080fd5b50565b600081359050613c4081613c1a565b92915050565b60008060408385031215613c5d57613c5c613672565b5b6000613c6b858286016136ee565b9250506020613c7c85828601613c31565b9150509250929050565b613c8f816136cd565b82525050565b60058110613ca657613ca5613730565b5b50565b6000819050613cb782613c95565b919050565b6000613cc782613ca9565b9050919050565b613cd781613cbc565b82525050565b600060e082019050613cf2600083018a6137f9565b613cff6020830189613c86565b613d0c6040830188613cce565b613d19606083018761388d565b613d26608083018661388d565b613d3360a08301856137f9565b613d4060c08301846137f9565b98975050505050505050565b600080600060608486031215613d6557613d64613672565b5b6000613d7386828701613c31565b9350506020613d848682870161397b565b9250506040613d9586828701613c31565b9150509250925092565b60006101408284031215613db657613db561367c565b5b81905092915050565b60006101408284031215613dd657613dd5613672565b5b6000613de484828501613d9f565b91505092915050565b613df681613956565b82525050565b60028110613e0d57613e0c613730565b5b50565b6000819050613e1e82613dfc565b919050565b6000613e2e82613e10565b9050919050565b613e3e81613e23565b82525050565b6000608082019050613e596000830187613c86565b613e666020830186613ded565b613e736040830185613ded565b613e806060830184613e35565b95945050505050565b6000602082019050613e9e600083018461388d565b92915050565b600060a08284031215613eba57613eb961367c565b5b81905092915050565b600060a08284031215613ed957613ed8613672565b5b6000613ee784828501613ea4565b91505092915050565b6000819050919050565b6000613f15613f10613f0b8461385b565b613ef0565b61385b565b9050919050565b6000613f2782613efa565b9050919050565b6000613f3982613f1c565b9050919050565b613f4981613f2e565b82525050565b6000602082019050613f646000830184613f40565b92915050565b600060208284031215613f8057613f7f613672565b5b6000613f8e84828501613c31565b91505092915050565b600082825260208201905092915050565b7f4e6f5065726d697373696f6e546f54616b650000000000000000000000000000600082015250565b6000613fde601283613f97565b9150613fe982613fa8565b602082019050919050565b6000602082019050818103600083015261400d81613fd1565b9050919050565b7f416c7265616479436f6d706c6574656400000000000000000000000000000000600082015250565b600061404a601083613f97565b915061405582614014565b602082019050919050565b600060208201905081810360008301526140798161403d565b9050919050565b7f4e6f7420656e6f7567682066756e647320746f20627579000000000000000000600082015250565b60006140b6601783613f97565b91506140c182614080565b602082019050919050565b600060208201905081810360008301526140e5816140a9565b9050919050565b7f4e487b7100000000000000000000000000000000000000000000000000000000600052601160045260246000fd5b6000614126826137ef565b9150614131836137ef565b925082821015614144576141436140ec565b5b828203905092915050565b6000606082019050614164600083018661388d565b614171602083018561388d565b61417e60408301846137f9565b949350505050565b60008115159050919050565b61419b81614186565b81146141a657600080fd5b50565b6000815190506141b881614192565b92915050565b6000602082840312156141d4576141d3613672565b5b60006141e2848285016141a9565b91505092915050565b7f4661696c656420696e20746f6b656e207472616e736665720000000000000000600082015250565b6000614221601883613f97565b915061422c826141eb565b602082019050919050565b6000602082019050818103600083015261425081614214565b9050919050565b6000819050919050565b600060ff82169050919050565b600061428961428461427f84614257565b613ef0565b614261565b9050919050565b6142998161426e565b82525050565b600581106142b0576142af613730565b5b50565b60008190506142c18261429f565b919050565b60006142d1826142b3565b9050919050565b6142e1816142c6565b82525050565b60006142f660208401846136ee565b905092915050565b614307816136cd565b82525050565b600061431c6020840184613c31565b905092915050565b61432d8161387b565b82525050565b6040820161434460008301836142e7565b61435160008501826142fe565b5061435f602083018361430d565b61436c6020850182614324565b50505050565b60006080820190506143876000830186614290565b61439460208301856142d8565b6143a16040830184614333565b949350505050565b60006143b48261385b565b9050919050565b6143c4816143a9565b82525050565b600081519050919050565b600082825260208201905092915050565b60005b838110156144045780820151818401526020810190506143e9565b83811115614413576000848401525b50505050565b6000614424826143ca565b61442e81856143d5565b935061443e8185602086016143e6565b6144478161399a565b840191505092915050565b60006060820190506144676000830186613ded565b61447460208301856143bb565b81810360408301526144868184614419565b9050949350505050565b60006060820190506144a56000830186614290565b6144b260208301856142d8565b6144bf6040830184613c86565b949350505050565b600080fd5b600080fd5b600080858511156144e5576144e46144c7565b5b838611156144f6576144f56144cc565b5b6001850283019150848603905094509492505050565b6005811061451957600080fd5b50565b60008135905061452b8161450c565b92915050565b60006020828403121561454757614546613672565b5b60006145558482850161451c565b91505092915050565b600082905092915050565b600082821b905092915050565b6000614582838361455e565b8261458d81356136cd565b925060208210156145cd576145c87fffffffffffffffffffffffffffffffffffffffffffffffffffffffffffffffff83602003600802614569565b831692505b505092915050565b600080fd5b6145e3816137ef565b81146145ee57600080fd5b50565b600081359050614600816145da565b92915050565b60006040828403121561461c5761461b6145d5565b5b6146266040613a0b565b9050600061463684828501613c31565b600083015250602061464a848285016145f1565b60208301525092915050565b6002811061466357600080fd5b50565b60008135905061467581614656565b92915050565b60006101408284031215614692576146916145d5565b5b61469d610100613a0b565b905060006146ad84828501614606565b60008301525060406146c184828501614606565b60208301525060806146d584828501613c31565b60408301525060a06146e984828501613c31565b60608301525060c06146fd84828501613c31565b60808301525060e0614711848285016145f1565b60a0830152506101006147268482850161397b565b60c08301525061012061473b84828501614666565b60e08301525092915050565b6000610140828403121561475e5761475d613672565b5b600061476c8482850161467b565b91505092915050565b60006040828403121561478b5761478a6145d5565b5b6147956040613a0b565b905060006147a5848285016136ee565b60008301525060206147b984828501613c31565b60208301525092915050565b6000604082840312156147db576147da613672565b5b60006147e984828501614775565b91505092915050565b600060a08284031215614808576148076145d5565b5b61481260a0613a0b565b9050600061482284828501613c31565b6000830152506020614836848285016145f1565b602083015250604061484a848285016136ee565b604083015250606061485e84828501613c31565b6060830152506080614872848285016145f1565b60808301525092915050565b600060a0828403121561489457614893613672565b5b60006148a2848285016147f2565b91505092915050565b6000604082840312156148c1576148c06145d5565b5b6148cb6040613a0b565b905060006148db848285016136ee565b60008301525060206148ef84828501613c31565b60208301525092915050565b60006040828403121561491157614910613672565b5b600061491f848285016148ab565b91505092915050565b7f496e697469616c697a61626c653a20636f6e747261637420697320616c72656160008201527f647920696e697469616c697a6564000000000000000000000000000000000000602082015250565b6000614984602e83613f97565b915061498f82614928565b604082019050919050565b600060208201905081810360008301526149b381614977565b9050919050565b6000819050919050565b60006149df6149da6149d5846149ba565b613ef0565b614261565b9050919050565b6149ef816149c4565b82525050565b6000602082019050614a0a60008301846149e6565b92915050565b7f4e6f7420656e6f75676820657468657200000000000000000000000000000000600082015250565b6000614a46601083613f97565b9150614a5182614a10565b602082019050919050565b60006020820190508181036000830152614a7581614a39565b9050919050565b6000604082019050614a91600083018561388d565b614a9e602083018461388d565b9392505050565b600081519050614ab4816145da565b92915050565b600060208284031215614ad057614acf613672565b5b6000614ade84828501614aa5565b91505092915050565b7f4661696c656420696e204c6f636b20746f6b656e000000000000000000000000600082015250565b6000614b1d601483613f97565b9150614b2882614ae7565b602082019050919050565b60006020820190508181036000830152614b4c81614b10565b9050919050565b600060208284031215614b6957614b68613672565b5b6000614b778482850161397b565b91505092915050565b600060208284031215614b9657614b95613672565b5b6000614ba484828501614666565b91505092915050565b600082905092915050565b6000614bc760208401846145f1565b905092915050565b614bd8816137ef565b82525050565b60408201614bef600083018361430d565b614bfc6000850182614324565b50614c0a6020830183614bb8565b614c176020850182614bcf565b50505050565b6000614c2c602084018461397b565b905092915050565b614c3d81613956565b82525050565b6000614c526020840184614666565b905092915050565b614c6381613e23565b82525050565b6101408201614c7b6000830183614bad565b614c886000850182614bde565b50614c966040830183614bad565b614ca36040850182614bde565b50614cb1608083018361430d565b614cbe6080850182614324565b50614ccc60a083018361430d565b614cd960a0850182614324565b50614ce760c083018361430d565b614cf460c0850182614324565b50614d0260e0830183614bb8565b614d0f60e0850182614bcf565b50614d1e610100830183614c1d565b614d2c610100850182614c34565b50614d3b610120830183614c43565b614d49610120850182614c5a565b50505050565b60006101a082019050614d656000830187614290565b614d7260208301866142d8565b614d7f6040830185613c86565b614d8c6060830184614c69565b95945050505050565b6000602082019050614daa6000830184613cce565b92915050565b604082016000820151614dc660008501826142fe565b506020820151614dd96020850182614324565b50505050565b6000608082019050614df46000830186614290565b614e0160208301856142d8565b614e0e6040830184614db0565b949350505050565b7f4e6f7420656e6f7567682066756e6420746f2062696400000000000000000000600082015250565b6000614e4c601683613f97565b9150614e5782614e16565b602082019050919050565b60006020820190508181036000830152614e7b81614e3f565b9050919050565b60a08201614e93600083018361430d565b614ea06000850182614324565b50614eae6020830183614bb8565b614ebb6020850182614bcf565b50614ec960408301836142e7565b614ed660408501826142fe565b50614ee4606083018361430d565b614ef16060850182614324565b50614eff6080830183614bb8565b614f0c6080850182614bcf565b50505050565b600060e082019050614f276000830186614290565b614f3460208301856142d8565b614f416040830184614e82565b949350505050565b7f4f776e61626c653a206e6577206f776e657220697320746865207a65726f206160008201527f6464726573730000000000000000000000000000000000000000000000000000602082015250565b6000614fa5602683613f97565b9150614fb082614f49565b604082019050919050565b60006020820190508181036000830152614fd481614f98565b9050919050565b7f5265656e7472616e637947756172643a207265656e7472616e742063616c6c00600082015250565b6000615011601f83613f97565b915061501c82614fdb565b602082019050919050565b6000602082019050818103600083015261504081615004565b9050919050565b7f4661696c656420746f207472616e736665722066726f6d000000000000000000600082015250565b600061507d601783613f97565b915061508882615047565b602082019050919050565b600060208201905081810360008301526150ac81615070565b9050919050565b7f496e697469616c697a61626c653a20636f6e7472616374206973206e6f74206960008201527f6e697469616c697a696e67000000000000000000000000000000000000000000602082015250565b600061510f602b83613f97565b915061511a826150b3565b604082019050919050565b6000602082019050818103600083015261513e81615102565b9050919050565b7f4f776e61626c653a2063616c6c6572206973206e6f7420746865206f776e6572600082015250565b600061517b602083613f97565b915061518682615145565b602082019050919050565b600060208201905081810360008301526151aa8161516e565b9050919050565b60006080820190506151c66000830187613ded565b6151d36020830186613ded565b6151e0604083018561388d565b6151ed60608301846137f9565b95945050505050565b6000615201826137ef565b91507fffffffffffffffffffffffffffffffffffffffffffffffffffffffffffffffff821415615234576152336140ec565b5b60018201905091905056fea26469706673582212205dd157a1fd9458b13c4988e002b09201e5a084d88445ea050871c90e4824a1b364736f6c63430008090033",
  "linkReferences": {},
  "deployedLinkReferences": {}
}