{
  "_format": "hh-sol-artifact-1",
  "contractName": "AtomicSwapV2",
  "sourceName": "contracts/v2/AtomicSwapV2.sol",
  "abi": [
    {
      "anonymous": false,
      "inputs": [
        {
          "indexed": false,
          "internalType": "string",
          "name": "msg",
          "type": "string"
        }
      ],
      "name": "ASSERT",
      "type": "event"
    },
    {
      "anonymous": false,
      "inputs": [
        {
          "indexed": false,
          "internalType": "address",
          "name": "previousAdmin",
          "type": "address"
        },
        {
          "indexed": false,
          "internalType": "address",
          "name": "newAdmin",
          "type": "address"
        }
      ],
      "name": "AdminChanged",
      "type": "event"
    },
    {
      "anonymous": false,
      "inputs": [
        {
          "indexed": true,
          "internalType": "address",
          "name": "beacon",
          "type": "address"
        }
      ],
      "name": "BeaconUpgraded",
      "type": "event"
    },
    {
      "anonymous": false,
      "inputs": [],
      "name": "EIP712DomainChanged",
      "type": "event"
    },
    {
      "anonymous": false,
      "inputs": [
        {
          "indexed": false,
          "internalType": "uint8",
          "name": "version",
          "type": "uint8"
        }
      ],
      "name": "Initialized",
      "type": "event"
    },
    {
      "anonymous": false,
      "inputs": [
        {
          "indexed": false,
          "internalType": "address",
          "name": "account",
          "type": "address"
        }
      ],
      "name": "Paused",
      "type": "event"
    },
    {
      "anonymous": false,
      "inputs": [
        {
          "indexed": true,
          "internalType": "address",
          "name": "payer",
          "type": "address"
        },
        {
          "indexed": false,
          "internalType": "uint256",
          "name": "amount",
          "type": "uint256"
        },
        {
          "indexed": false,
          "internalType": "uint256",
          "name": "daoShare",
          "type": "uint256"
        },
        {
          "indexed": false,
          "internalType": "uint256",
          "name": "burned",
          "type": "uint256"
        }
      ],
      "name": "PaymentReceived",
      "type": "event"
    },
    {
      "anonymous": false,
      "inputs": [
        {
          "indexed": true,
          "internalType": "bytes32",
          "name": "role",
          "type": "bytes32"
        },
        {
          "indexed": true,
          "internalType": "bytes32",
          "name": "previousAdminRole",
          "type": "bytes32"
        },
        {
          "indexed": true,
          "internalType": "bytes32",
          "name": "newAdminRole",
          "type": "bytes32"
        }
      ],
      "name": "RoleAdminChanged",
      "type": "event"
    },
    {
      "anonymous": false,
      "inputs": [
        {
          "indexed": true,
          "internalType": "bytes32",
          "name": "role",
          "type": "bytes32"
        },
        {
          "indexed": true,
          "internalType": "address",
          "name": "account",
          "type": "address"
        },
        {
          "indexed": true,
          "internalType": "address",
          "name": "sender",
          "type": "address"
        }
      ],
      "name": "RoleGranted",
      "type": "event"
    },
    {
      "anonymous": false,
      "inputs": [
        {
          "indexed": true,
          "internalType": "bytes32",
          "name": "role",
          "type": "bytes32"
        },
        {
          "indexed": true,
          "internalType": "address",
          "name": "account",
          "type": "address"
        },
        {
          "indexed": true,
          "internalType": "address",
          "name": "sender",
          "type": "address"
        }
      ],
      "name": "RoleRevoked",
      "type": "event"
    },
    {
      "anonymous": false,
      "inputs": [
        {
          "indexed": false,
          "internalType": "address",
          "name": "account",
          "type": "address"
        }
      ],
      "name": "Unpaused",
      "type": "event"
    },
    {
      "anonymous": false,
      "inputs": [
        {
          "indexed": true,
          "internalType": "address",
          "name": "implementation",
          "type": "address"
        }
      ],
      "name": "Upgraded",
      "type": "event"
    },
    {
      "inputs": [],
      "name": "DEFAULT_ADMIN_ROLE",
      "outputs": [
        {
          "internalType": "bytes32",
          "name": "",
          "type": "bytes32"
        }
      ],
      "stateMutability": "view",
      "type": "function"
    },
    {
      "inputs": [],
      "name": "DOMAIN_SEPARATOR",
      "outputs": [
        {
          "internalType": "bytes32",
          "name": "",
          "type": "bytes32"
        }
      ],
      "stateMutability": "view",
      "type": "function"
    },
    {
      "inputs": [],
      "name": "EIP712_DOMAIN_TYPEHASH",
      "outputs": [
        {
          "internalType": "string",
          "name": "",
          "type": "string"
        }
      ],
      "stateMutability": "view",
      "type": "function"
    },
    {
      "inputs": [],
      "name": "PAUSER_ROLE",
      "outputs": [
        {
          "internalType": "bytes32",
          "name": "",
          "type": "bytes32"
        }
      ],
      "stateMutability": "view",
      "type": "function"
    },
    {
      "inputs": [],
      "name": "PAYMENT_TYPEHASH",
      "outputs": [
        {
          "internalType": "bytes32",
          "name": "",
          "type": "bytes32"
        }
      ],
      "stateMutability": "view",
      "type": "function"
    },
    {
      "inputs": [
        {
          "internalType": "address",
          "name": "_account",
          "type": "address"
        }
      ],
      "name": "addAdmin",
      "outputs": [],
      "stateMutability": "nonpayable",
      "type": "function"
    },
    {
      "inputs": [
        {
          "internalType": "address",
          "name": "_account",
          "type": "address"
        }
      ],
      "name": "addPauser",
      "outputs": [],
      "stateMutability": "nonpayable",
      "type": "function"
    },
    {
      "inputs": [
        {
          "components": [
            {
              "internalType": "bytes32",
              "name": "order_id",
              "type": "bytes32"
            },
            {
              "internalType": "address",
              "name": "maker",
              "type": "address"
            },
            {
              "internalType": "uint256",
              "name": "created_at",
              "type": "uint256"
            }
          ],
          "internalType": "struct IAtomicSwap.CancelSwapMsg",
          "name": "makeswap",
          "type": "tuple"
        }
      ],
      "name": "cancelSwap",
      "outputs": [],
      "stateMutability": "payable",
      "type": "function"
    },
    {
      "inputs": [],
      "name": "eip712Domain",
      "outputs": [
        {
          "internalType": "bytes1",
          "name": "fields",
          "type": "bytes1"
        },
        {
          "internalType": "string",
          "name": "name",
          "type": "string"
        },
        {
          "internalType": "string",
          "name": "version",
          "type": "string"
        },
        {
          "internalType": "uint256",
          "name": "chainId",
          "type": "uint256"
        },
        {
          "internalType": "address",
          "name": "verifyingContract",
          "type": "address"
        },
        {
          "internalType": "bytes32",
          "name": "salt",
          "type": "bytes32"
        },
        {
          "internalType": "uint256[]",
          "name": "extensions",
          "type": "uint256[]"
        }
      ],
      "stateMutability": "view",
      "type": "function"
    },
    {
      "inputs": [
        {
          "internalType": "bytes32",
          "name": "role",
          "type": "bytes32"
        }
      ],
      "name": "getRoleAdmin",
      "outputs": [
        {
          "internalType": "bytes32",
          "name": "",
          "type": "bytes32"
        }
      ],
      "stateMutability": "view",
      "type": "function"
    },
    {
      "inputs": [
        {
          "internalType": "bytes32",
          "name": "role",
          "type": "bytes32"
        },
        {
          "internalType": "address",
          "name": "account",
          "type": "address"
        }
      ],
      "name": "grantRole",
      "outputs": [],
      "stateMutability": "nonpayable",
      "type": "function"
    },
    {
      "inputs": [
        {
          "internalType": "bytes32",
          "name": "role",
          "type": "bytes32"
        },
        {
          "internalType": "address",
          "name": "account",
          "type": "address"
        }
      ],
      "name": "hasRole",
      "outputs": [
        {
          "internalType": "bool",
          "name": "",
          "type": "bool"
        }
      ],
      "stateMutability": "view",
      "type": "function"
    },
    {
      "inputs": [
        {
          "internalType": "address",
          "name": "_admin",
          "type": "address"
        }
      ],
      "name": "initialize",
      "outputs": [],
      "stateMutability": "nonpayable",
      "type": "function"
    },
    {
      "inputs": [
        {
          "internalType": "address",
          "name": "_account",
          "type": "address"
        }
      ],
      "name": "isAdmin",
      "outputs": [
        {
          "internalType": "bool",
          "name": "",
          "type": "bool"
        }
      ],
      "stateMutability": "view",
      "type": "function"
    },
    {
      "inputs": [
        {
          "internalType": "address",
          "name": "_account",
          "type": "address"
        }
      ],
      "name": "isPauser",
      "outputs": [
        {
          "internalType": "bool",
          "name": "",
          "type": "bool"
        }
      ],
      "stateMutability": "view",
      "type": "function"
    },
    {
      "inputs": [
        {
          "components": [
            {
              "components": [
                {
                  "internalType": "address",
                  "name": "token",
                  "type": "address"
                },
                {
                  "internalType": "address",
                  "name": "amount",
                  "type": "address"
                }
              ],
              "internalType": "struct IAtomicSwap.Coin",
              "name": "sell_token",
              "type": "tuple"
            },
            {
              "components": [
                {
                  "internalType": "address",
                  "name": "token",
                  "type": "address"
                },
                {
                  "internalType": "address",
                  "name": "amount",
                  "type": "address"
                }
              ],
              "internalType": "struct IAtomicSwap.Coin",
              "name": "buy_token",
              "type": "tuple"
            },
            {
              "internalType": "address",
              "name": "maker_sender",
              "type": "address"
            },
            {
              "internalType": "address",
              "name": "maker_receiver",
              "type": "address"
            },
            {
              "internalType": "address",
              "name": "desired_taker",
              "type": "address"
            },
            {
              "internalType": "uint256",
              "name": "created_at",
              "type": "uint256"
            },
            {
              "internalType": "uint256",
              "name": "expire_at",
              "type": "uint256"
            }
          ],
          "internalType": "struct IAtomicSwap.MakeSwapMsg",
          "name": "makeswap",
          "type": "tuple"
        }
      ],
      "name": "makeSwap",
      "outputs": [],
      "stateMutability": "payable",
      "type": "function"
    },
    {
      "inputs": [
        {
          "internalType": "address",
          "name": "",
          "type": "address"
        }
      ],
      "name": "nonces",
      "outputs": [
        {
          "internalType": "uint256",
          "name": "",
          "type": "uint256"
        }
      ],
      "stateMutability": "view",
      "type": "function"
    },
    {
      "inputs": [],
      "name": "paginationSize",
      "outputs": [
        {
          "internalType": "uint256",
          "name": "",
          "type": "uint256"
        }
      ],
      "stateMutability": "view",
      "type": "function"
    },
    {
      "inputs": [],
      "name": "pause",
      "outputs": [],
      "stateMutability": "nonpayable",
      "type": "function"
    },
    {
      "inputs": [],
      "name": "paused",
      "outputs": [
        {
          "internalType": "bool",
          "name": "",
          "type": "bool"
        }
      ],
      "stateMutability": "view",
      "type": "function"
    },
    {
      "inputs": [],
      "name": "proxiableUUID",
      "outputs": [
        {
          "internalType": "bytes32",
          "name": "",
          "type": "bytes32"
        }
      ],
      "stateMutability": "view",
      "type": "function"
    },
    {
      "inputs": [
        {
          "internalType": "address",
          "name": "_account",
          "type": "address"
        }
      ],
      "name": "removeAdmin",
      "outputs": [],
      "stateMutability": "nonpayable",
      "type": "function"
    },
    {
      "inputs": [
        {
          "internalType": "address",
          "name": "_account",
          "type": "address"
        }
      ],
      "name": "removePauser",
      "outputs": [],
      "stateMutability": "nonpayable",
      "type": "function"
    },
    {
      "inputs": [
        {
          "internalType": "bytes32",
          "name": "role",
          "type": "bytes32"
        },
        {
          "internalType": "address",
          "name": "account",
          "type": "address"
        }
      ],
      "name": "renounceRole",
      "outputs": [],
      "stateMutability": "nonpayable",
      "type": "function"
    },
    {
      "inputs": [
        {
          "internalType": "bytes32",
          "name": "role",
          "type": "bytes32"
        },
        {
          "internalType": "address",
          "name": "account",
          "type": "address"
        }
      ],
      "name": "revokeRole",
      "outputs": [],
      "stateMutability": "nonpayable",
      "type": "function"
    },
    {
      "inputs": [
        {
          "internalType": "uint256",
          "name": "_paginationSize",
          "type": "uint256"
        }
      ],
      "name": "setPaginationSize",
      "outputs": [],
      "stateMutability": "nonpayable",
      "type": "function"
    },
    {
      "inputs": [
        {
          "internalType": "bytes4",
          "name": "interfaceId",
          "type": "bytes4"
        }
      ],
      "name": "supportsInterface",
      "outputs": [
        {
          "internalType": "bool",
          "name": "",
          "type": "bool"
        }
      ],
      "stateMutability": "view",
      "type": "function"
    },
    {
      "inputs": [
        {
          "components": [
            {
              "internalType": "bytes32",
              "name": "order_id",
              "type": "bytes32"
            },
            {
              "components": [
                {
                  "internalType": "address",
                  "name": "token",
                  "type": "address"
                },
                {
                  "internalType": "address",
                  "name": "amount",
                  "type": "address"
                }
              ],
              "internalType": "struct IAtomicSwap.Coin",
              "name": "sell_token",
              "type": "tuple"
            },
            {
              "internalType": "address",
              "name": "taker",
              "type": "address"
            },
            {
              "internalType": "address",
              "name": "taker_receiving_address",
              "type": "address"
            },
            {
              "internalType": "address",
              "name": "created_at",
              "type": "address"
            }
          ],
          "internalType": "struct IAtomicSwap.TakeSwapMsg",
          "name": "makeswap",
          "type": "tuple"
        }
      ],
      "name": "takeSwap",
      "outputs": [],
      "stateMutability": "payable",
      "type": "function"
    },
    {
      "inputs": [],
      "name": "unpause",
      "outputs": [],
      "stateMutability": "nonpayable",
      "type": "function"
    },
    {
      "inputs": [
        {
          "internalType": "address",
          "name": "newImplementation",
          "type": "address"
        }
      ],
      "name": "upgradeTo",
      "outputs": [],
      "stateMutability": "nonpayable",
      "type": "function"
    },
    {
      "inputs": [
        {
          "internalType": "address",
          "name": "newImplementation",
          "type": "address"
        },
        {
          "internalType": "bytes",
          "name": "data",
          "type": "bytes"
        }
      ],
      "name": "upgradeToAndCall",
      "outputs": [],
      "stateMutability": "payable",
      "type": "function"
    }
  ],
  "bytecode": "0x60a06040523073ffffffffffffffffffffffffffffffffffffffff1660809073ffffffffffffffffffffffffffffffffffffffff1681525034801561004357600080fd5b5060805161386161007b6000396000818161087a0152818161090901528181610abb01528181610b4a0152610bfa01526138616000f3fe6080604052600436106101d85760003560e01c80635c975abb1161010257806391d1485411610095578063d547741f11610064578063d547741f14610673578063d55a57781461069c578063e63ab1e9146106b8578063f2407ca4146106e3576101d8565b806391d14854146105b7578063a217fddf146105f4578063c4d66de81461061f578063c7977be714610648576101d8565b80637ecebe00116100d15780637ecebe001461050957806382dc1ec4146105465780638456cb591461056f57806384b0196e14610586576101d8565b80635c975abb146104615780636b2c0f551461048c5780636d3298cb146104b557806370480275146104e0576101d8565b80633659cfe61161017a57806346fbf68e1161014957806346fbf68e146103c15780634f1ef286146103fe57806352d1902d1461041a5780635752c59a14610445576101d8565b80633659cfe61461033a5780633d17cac7146103635780633d538ecf1461037f5780633f4ba83a146103aa576101d8565b806324d7806c116101b657806324d7806c146102805780632f2ff15d146102bd5780633644e515146102e657806336568abe14610311576101d8565b806301ffc9a7146101dd5780631785f53c1461021a578063248a9ca314610243575b600080fd5b3480156101e957600080fd5b5061020460048036038101906101ff91906124c2565b61070c565b604051610211919061250a565b60405180910390f35b34801561022657600080fd5b50610241600480360381019061023c9190612583565b610786565b005b34801561024f57600080fd5b5061026a600480360381019061026591906125e6565b610796565b6040516102779190612622565b60405180910390f35b34801561028c57600080fd5b506102a760048036038101906102a29190612583565b6107b7565b6040516102b4919061250a565b60405180910390f35b3480156102c957600080fd5b506102e460048036038101906102df919061263d565b6107cd565b005b3480156102f257600080fd5b506102fb6107ee565b6040516103089190612622565b60405180910390f35b34801561031d57600080fd5b506103386004803603810190610333919061263d565b6107f5565b005b34801561034657600080fd5b50610361600480360381019061035c9190612583565b610878565b005b61037d600480360381019061037891906126a1565b610a01565b005b34801561038b57600080fd5b50610394610a0c565b6040516103a191906126e7565b60405180910390f35b3480156103b657600080fd5b506103bf610a13565b005b3480156103cd57600080fd5b506103e860048036038101906103e39190612583565b610a86565b6040516103f5919061250a565b60405180910390f35b61041860048036038101906104139190612848565b610ab9565b005b34801561042657600080fd5b5061042f610bf6565b60405161043c9190612622565b60405180910390f35b61045f600480360381019061045a91906128c3565b610caf565b005b34801561046d57600080fd5b50610476610cba565b604051610483919061250a565b60405180910390f35b34801561049857600080fd5b506104b360048036038101906104ae9190612583565b610cd1565b005b3480156104c157600080fd5b506104ca610cfe565b6040516104d79190612622565b60405180910390f35b3480156104ec57600080fd5b5061050760048036038101906105029190612583565b610d22565b005b34801561051557600080fd5b50610530600480360381019061052b9190612583565b610d32565b60405161053d91906126e7565b60405180910390f35b34801561055257600080fd5b5061056d60048036038101906105689190612583565b610d4b565b005b34801561057b57600080fd5b50610584610d78565b005b34801561059257600080fd5b5061059b610deb565b6040516105ae9796959493929190612a80565b60405180910390f35b3480156105c357600080fd5b506105de60048036038101906105d9919061263d565b610eec565b6040516105eb919061250a565b60405180910390f35b34801561060057600080fd5b50610609610f58565b6040516106169190612622565b60405180910390f35b34801561062b57600080fd5b5061064660048036038101906106419190612583565b610f5f565b005b34801561065457600080fd5b5061065d611113565b60405161066a9190612b04565b60405180910390f35b34801561067f57600080fd5b5061069a6004803603810190610695919061263d565b61112f565b005b6106b660048036038101906106b19190612b46565b611150565b005b3480156106c457600080fd5b506106cd61115b565b6040516106da9190612622565b60405180910390f35b3480156106ef57600080fd5b5061070a60048036038101906107059190612ba0565b61117f565b005b60007f7965db0b000000000000000000000000000000000000000000000000000000007bffffffffffffffffffffffffffffffffffffffffffffffffffffffff1916827bffffffffffffffffffffffffffffffffffffffffffffffffffffffff1916148061077f575061077e82611219565b5b9050919050565b6107936000801b8261112f565b50565b600061012f6000838152602001908152602001600020600101549050919050565b60006107c66000801b83610eec565b9050919050565b6107d682610796565b6107df81611283565b6107e98383611297565b505050565b6101655481565b6107fd611379565b73ffffffffffffffffffffffffffffffffffffffff168173ffffffffffffffffffffffffffffffffffffffff161461086a576040517f08c379a000000000000000000000000000000000000000000000000000000000815260040161086190612c3f565b60405180910390fd5b6108748282611381565b5050565b7f000000000000000000000000000000000000000000000000000000000000000073ffffffffffffffffffffffffffffffffffffffff163073ffffffffffffffffffffffffffffffffffffffff161415610907576040517f08c379a00000000000000000000000000000000000000000000000000000000081526004016108fe90612cd1565b60405180910390fd5b7f000000000000000000000000000000000000000000000000000000000000000073ffffffffffffffffffffffffffffffffffffffff16610946611464565b73ffffffffffffffffffffffffffffffffffffffff161461099c576040517f08c379a000000000000000000000000000000000000000000000000000000000815260040161099390612d63565b60405180910390fd5b6109a5816114bb565b6109fe81600067ffffffffffffffff8111156109c4576109c361271d565b5b6040519080825280601f01601f1916602001820160405280156109f65781602001600182028036833780820191505090505b50600061150a565b50565b610a09611687565b50565b6101615481565b610a3d7f65d7a28e3265b37a6474929f336521b332c1681b933f6cb9f3376673440d862a33610eec565b610a7c576040517f08c379a0000000000000000000000000000000000000000000000000000000008152600401610a7390612dcf565b60405180910390fd5b610a846116d1565b565b6000610ab27f65d7a28e3265b37a6474929f336521b332c1681b933f6cb9f3376673440d862a83610eec565b9050919050565b7f000000000000000000000000000000000000000000000000000000000000000073ffffffffffffffffffffffffffffffffffffffff163073ffffffffffffffffffffffffffffffffffffffff161415610b48576040517f08c379a0000000000000000000000000000000000000000000000000000000008152600401610b3f90612cd1565b60405180910390fd5b7f000000000000000000000000000000000000000000000000000000000000000073ffffffffffffffffffffffffffffffffffffffff16610b87611464565b73ffffffffffffffffffffffffffffffffffffffff1614610bdd576040517f08c379a0000000000000000000000000000000000000000000000000000000008152600401610bd490612d63565b60405180910390fd5b610be6826114bb565b610bf28282600161150a565b5050565b60007f000000000000000000000000000000000000000000000000000000000000000073ffffffffffffffffffffffffffffffffffffffff163073ffffffffffffffffffffffffffffffffffffffff1614610c86576040517f08c379a0000000000000000000000000000000000000000000000000000000008152600401610c7d90612e61565b60405180910390fd5b7f360894a13ba1a3210667c828492db98dca3e2076cc3735a920a3ca505d382bbc60001b905090565b610cb7611687565b50565b600060cb60009054906101000a900460ff16905090565b610cfb7f65d7a28e3265b37a6474929f336521b332c1681b933f6cb9f3376673440d862a8261112f565b50565b7f7271d42ac43a92de4c013ad7baaac1c52a4b3b8b6c855f239cf9e6efaf0a6b7681565b610d2f6000801b826107cd565b50565b6101666020528060005260406000206000915090505481565b610d757f65d7a28e3265b37a6474929f336521b332c1681b933f6cb9f3376673440d862a826107cd565b50565b610da27f65d7a28e3265b37a6474929f336521b332c1681b933f6cb9f3376673440d862a33610eec565b610de1576040517f08c379a0000000000000000000000000000000000000000000000000000000008152600401610dd890612dcf565b60405180910390fd5b610de9611734565b565b6000606080600080600060606000801b606554148015610e0f57506000801b606654145b610e4e576040517f08c379a0000000000000000000000000000000000000000000000000000000008152600401610e4590612ecd565b60405180910390fd5b610e56611797565b610e5e611829565b46306000801b600067ffffffffffffffff811115610e7f57610e7e61271d565b5b604051908082528060200260200182016040528015610ead5781602001602082028036833780820191505090505b507f0f00000000000000000000000000000000000000000000000000000000000000959493929190965096509650965096509650965090919293949596565b600061012f600084815260200190815260200160002060000160008373ffffffffffffffffffffffffffffffffffffffff1673ffffffffffffffffffffffffffffffffffffffff16815260200190815260200160002060009054906101000a900460ff16905092915050565b6000801b81565b60008060019054906101000a900460ff16159050808015610f905750600160008054906101000a900460ff1660ff16105b80610fbd5750610f9f306118bb565b158015610fbc5750600160008054906101000a900460ff1660ff16145b5b610ffc576040517f08c379a0000000000000000000000000000000000000000000000000000000008152600401610ff390612f5f565b60405180910390fd5b60016000806101000a81548160ff021916908360ff1602179055508015611039576001600060016101000a81548160ff0219169083151502179055505b611042826118de565b6110b66040518060400160405280600a81526020017f41544f4d494353574150000000000000000000000000000000000000000000008152506040518060400160405280600181526020017f3100000000000000000000000000000000000000000000000000000000000000815250611a3f565b801561110f5760008060016101000a81548160ff0219169083151502179055507f7f26b83ff96e1f2b6a682f133852f6798a09c465da95921460cefb384740249860016040516111069190612fd1565b60405180910390a15b5050565b6040518060800160405280605281526020016137b36052913981565b61113882610796565b61114181611283565b61114b8383611381565b505050565b611158611687565b50565b7f65d7a28e3265b37a6474929f336521b332c1681b933f6cb9f3376673440d862a81565b61118c6000801b33610eec565b6111cb576040517f08c379a00000000000000000000000000000000000000000000000000000000081526004016111c290612dcf565b60405180910390fd5b6000811161120e576040517f08c379a000000000000000000000000000000000000000000000000000000000815260040161120590613038565b60405180910390fd5b806101618190555050565b60007f01ffc9a7000000000000000000000000000000000000000000000000000000007bffffffffffffffffffffffffffffffffffffffffffffffffffffffff1916827bffffffffffffffffffffffffffffffffffffffffffffffffffffffff1916149050919050565b6112948161128f611379565b611a9c565b50565b6112a18282610eec565b61137557600161012f600084815260200190815260200160002060000160008373ffffffffffffffffffffffffffffffffffffffff1673ffffffffffffffffffffffffffffffffffffffff16815260200190815260200160002060006101000a81548160ff02191690831515021790555061131a611379565b73ffffffffffffffffffffffffffffffffffffffff168173ffffffffffffffffffffffffffffffffffffffff16837f2f8788117e7eff1d82e926ec794901d17c78024a50270940304540a733656f0d60405160405180910390a45b5050565b600033905090565b61138b8282610eec565b1561146057600061012f600084815260200190815260200160002060000160008373ffffffffffffffffffffffffffffffffffffffff1673ffffffffffffffffffffffffffffffffffffffff16815260200190815260200160002060006101000a81548160ff021916908315150217905550611405611379565b73ffffffffffffffffffffffffffffffffffffffff168173ffffffffffffffffffffffffffffffffffffffff16837ff6391f5c32d9c69d2a47ea670b442974b53935d1edc7fd64eb21e047a839171b60405160405180910390a45b5050565b60006114927f360894a13ba1a3210667c828492db98dca3e2076cc3735a920a3ca505d382bbc60001b611b21565b60000160009054906101000a900473ffffffffffffffffffffffffffffffffffffffff16905090565b6114c86000801b33610eec565b611507576040517f08c379a00000000000000000000000000000000000000000000000000000000081526004016114fe90612dcf565b60405180910390fd5b50565b6115367f4910fdfa16fed3260ed0e7147f7cc6da11a60208b5b9406d12a635614ffd914360001b611b2b565b60000160009054906101000a900460ff161561155a5761155583611b35565b611682565b8273ffffffffffffffffffffffffffffffffffffffff166352d1902d6040518163ffffffff1660e01b815260040160206040518083038186803b1580156115a057600080fd5b505afa9250505080156115d157506040513d601f19601f820116820180604052508101906115ce919061306d565b60015b611610576040517f08c379a00000000000000000000000000000000000000000000000000000000081526004016116079061310c565b60405180910390fd5b7f360894a13ba1a3210667c828492db98dca3e2076cc3735a920a3ca505d382bbc60001b8114611675576040517f08c379a000000000000000000000000000000000000000000000000000000000815260040161166c9061319e565b60405180910390fd5b50611681838383611bee565b5b505050565b61168f610cba565b156116cf576040517f08c379a00000000000000000000000000000000000000000000000000000000081526004016116c69061320a565b60405180910390fd5b565b6116d9611c1a565b600060cb60006101000a81548160ff0219169083151502179055507f5db9ee0a495bf2e6ff9c91a7834c1ba4fdd244a5e8aa4e537bd38aeae4b073aa61171d611379565b60405161172a919061322a565b60405180910390a1565b61173c611687565b600160cb60006101000a81548160ff0219169083151502179055507f62e78cea01bee320cd4e420270b5ea74000d11b0c9f74754ebdbfc544b05a258611780611379565b60405161178d919061322a565b60405180910390a1565b6060606780546117a690613274565b80601f01602080910402602001604051908101604052809291908181526020018280546117d290613274565b801561181f5780601f106117f45761010080835404028352916020019161181f565b820191906000526020600020905b81548152906001019060200180831161180257829003601f168201915b5050505050905090565b60606068805461183890613274565b80601f016020809104026020016040519081016040528092919081815260200182805461186490613274565b80156118b15780601f10611886576101008083540402835291602001916118b1565b820191906000526020600020905b81548152906001019060200180831161189457829003601f168201915b5050505050905090565b6000808273ffffffffffffffffffffffffffffffffffffffff163b119050919050565b60008060019054906101000a900460ff1615905080801561190f5750600160008054906101000a900460ff1660ff16105b8061193c575061191e306118bb565b15801561193b5750600160008054906101000a900460ff1660ff16145b5b61197b576040517f08c379a000000000000000000000000000000000000000000000000000000000815260040161197290612f5f565b60405180910390fd5b60016000806101000a81548160ff021916908360ff16021790555080156119b8576001600060016101000a81548160ff0219169083151502179055505b6119c0611c63565b6119c8611cb4565b6119d0611d05565b6119d982611d71565b6064610161819055508015611a3b5760008060016101000a81548160ff0219169083151502179055507f7f26b83ff96e1f2b6a682f133852f6798a09c465da95921460cefb38474024986001604051611a329190612fd1565b60405180910390a15b5050565b600060019054906101000a900460ff16611a8e576040517f08c379a0000000000000000000000000000000000000000000000000000000008152600401611a8590613318565b60405180910390fd5b611a988282611edf565b5050565b611aa68282610eec565b611b1d57611ab381611f74565b611ac18360001c6020611fa1565b604051602001611ad292919061340c565b6040516020818303038152906040526040517f08c379a0000000000000000000000000000000000000000000000000000000008152600401611b149190612b04565b60405180910390fd5b5050565b6000819050919050565b6000819050919050565b611b3e816118bb565b611b7d576040517f08c379a0000000000000000000000000000000000000000000000000000000008152600401611b74906134b8565b60405180910390fd5b80611baa7f360894a13ba1a3210667c828492db98dca3e2076cc3735a920a3ca505d382bbc60001b611b21565b60000160006101000a81548173ffffffffffffffffffffffffffffffffffffffff021916908373ffffffffffffffffffffffffffffffffffffffff16021790555050565b611bf7836121dd565b600082511180611c045750805b15611c1557611c13838361222c565b505b505050565b611c22610cba565b611c61576040517f08c379a0000000000000000000000000000000000000000000000000000000008152600401611c5890613524565b60405180910390fd5b565b600060019054906101000a900460ff16611cb2576040517f08c379a0000000000000000000000000000000000000000000000000000000008152600401611ca990613318565b60405180910390fd5b565b600060019054906101000a900460ff16611d03576040517f08c379a0000000000000000000000000000000000000000000000000000000008152600401611cfa90613318565b60405180910390fd5b565b600060019054906101000a900460ff16611d54576040517f08c379a0000000000000000000000000000000000000000000000000000000008152600401611d4b90613318565b60405180910390fd5b600060cb60006101000a81548160ff021916908315150217905550565b60008060019054906101000a900460ff16159050808015611da25750600160008054906101000a900460ff1660ff16105b80611dcf5750611db1306118bb565b158015611dce5750600160008054906101000a900460ff1660ff16145b5b611e0e576040517f08c379a0000000000000000000000000000000000000000000000000000000008152600401611e0590612f5f565b60405180910390fd5b60016000806101000a81548160ff021916908360ff1602179055508015611e4b576001600060016101000a81548160ff0219169083151502179055505b611e586000801b83612259565b611e827f65d7a28e3265b37a6474929f336521b332c1681b933f6cb9f3376673440d862a83612259565b8015611edb5760008060016101000a81548160ff0219169083151502179055507f7f26b83ff96e1f2b6a682f133852f6798a09c465da95921460cefb38474024986001604051611ed29190612fd1565b60405180910390a15b5050565b600060019054906101000a900460ff16611f2e576040517f08c379a0000000000000000000000000000000000000000000000000000000008152600401611f2590613318565b60405180910390fd5b8160679080519060200190611f449291906123b3565b508060689080519060200190611f5b9291906123b3565b506000801b6065819055506000801b6066819055505050565b6060611f9a8273ffffffffffffffffffffffffffffffffffffffff16601460ff16611fa1565b9050919050565b606060006002836002611fb49190613573565b611fbe91906135cd565b67ffffffffffffffff811115611fd757611fd661271d565b5b6040519080825280601f01601f1916602001820160405280156120095781602001600182028036833780820191505090505b5090507f30000000000000000000000000000000000000000000000000000000000000008160008151811061204157612040613623565b5b60200101907effffffffffffffffffffffffffffffffffffffffffffffffffffffffffffff1916908160001a9053507f7800000000000000000000000000000000000000000000000000000000000000816001815181106120a5576120a4613623565b5b60200101907effffffffffffffffffffffffffffffffffffffffffffffffffffffffffffff1916908160001a905350600060018460026120e59190613573565b6120ef91906135cd565b90505b600181111561218f577f3031323334353637383961626364656600000000000000000000000000000000600f86166010811061213157612130613623565b5b1a60f81b82828151811061214857612147613623565b5b60200101907effffffffffffffffffffffffffffffffffffffffffffffffffffffffffffff1916908160001a905350600485901c94508061218890613652565b90506120f2565b50600084146121d3576040517f08c379a00000000000000000000000000000000000000000000000000000000081526004016121ca906136c8565b60405180910390fd5b8091505092915050565b6121e681611b35565b8073ffffffffffffffffffffffffffffffffffffffff167fbc7cd75a20ee27fd9adebab32041f755214dbc6bffa90cc0225b39da2e5c2d3b60405160405180910390a250565b6060612251838360405180606001604052806027815260200161380560279139612267565b905092915050565b6122638282611297565b5050565b60606000808573ffffffffffffffffffffffffffffffffffffffff1685604051612291919061372f565b600060405180830381855af49150503d80600081146122cc576040519150601f19603f3d011682016040523d82523d6000602084013e6122d1565b606091505b50915091506122e2868383876122ed565b925050509392505050565b606083156123505760008351141561234857612308856118bb565b612347576040517f08c379a000000000000000000000000000000000000000000000000000000000815260040161233e90613792565b60405180910390fd5b5b82905061235b565b61235a8383612363565b5b949350505050565b6000825111156123765781518083602001fd5b806040517f08c379a00000000000000000000000000000000000000000000000000000000081526004016123aa9190612b04565b60405180910390fd5b8280546123bf90613274565b90600052602060002090601f0160209004810192826123e15760008555612428565b82601f106123fa57805160ff1916838001178555612428565b82800160010185558215612428579182015b8281111561242757825182559160200191906001019061240c565b5b5090506124359190612439565b5090565b5b8082111561245257600081600090555060010161243a565b5090565b6000604051905090565b600080fd5b600080fd5b60007fffffffff0000000000000000000000000000000000000000000000000000000082169050919050565b61249f8161246a565b81146124aa57600080fd5b50565b6000813590506124bc81612496565b92915050565b6000602082840312156124d8576124d7612460565b5b60006124e6848285016124ad565b91505092915050565b60008115159050919050565b612504816124ef565b82525050565b600060208201905061251f60008301846124fb565b92915050565b600073ffffffffffffffffffffffffffffffffffffffff82169050919050565b600061255082612525565b9050919050565b61256081612545565b811461256b57600080fd5b50565b60008135905061257d81612557565b92915050565b60006020828403121561259957612598612460565b5b60006125a78482850161256e565b91505092915050565b6000819050919050565b6125c3816125b0565b81146125ce57600080fd5b50565b6000813590506125e0816125ba565b92915050565b6000602082840312156125fc576125fb612460565b5b600061260a848285016125d1565b91505092915050565b61261c816125b0565b82525050565b60006020820190506126376000830184612613565b92915050565b6000806040838503121561265457612653612460565b5b6000612662858286016125d1565b92505060206126738582860161256e565b9150509250929050565b600080fd5b600060c082840312156126985761269761267d565b5b81905092915050565b600060c082840312156126b7576126b6612460565b5b60006126c584828501612682565b91505092915050565b6000819050919050565b6126e1816126ce565b82525050565b60006020820190506126fc60008301846126d8565b92915050565b600080fd5b600080fd5b6000601f19601f8301169050919050565b7f4e487b7100000000000000000000000000000000000000000000000000000000600052604160045260246000fd5b6127558261270c565b810181811067ffffffffffffffff821117156127745761277361271d565b5b80604052505050565b6000612787612456565b9050612793828261274c565b919050565b600067ffffffffffffffff8211156127b3576127b261271d565b5b6127bc8261270c565b9050602081019050919050565b82818337600083830152505050565b60006127eb6127e684612798565b61277d565b90508281526020810184848401111561280757612806612707565b5b6128128482856127c9565b509392505050565b600082601f83011261282f5761282e612702565b5b813561283f8482602086016127d8565b91505092915050565b6000806040838503121561285f5761285e612460565b5b600061286d8582860161256e565b925050602083013567ffffffffffffffff81111561288e5761288d612465565b5b61289a8582860161281a565b9150509250929050565b6000606082840312156128ba576128b961267d565b5b81905092915050565b6000606082840312156128d9576128d8612460565b5b60006128e7848285016128a4565b91505092915050565b60007fff0000000000000000000000000000000000000000000000000000000000000082169050919050565b612925816128f0565b82525050565b600081519050919050565b600082825260208201905092915050565b60005b8381101561296557808201518184015260208101905061294a565b83811115612974576000848401525b50505050565b60006129858261292b565b61298f8185612936565b935061299f818560208601612947565b6129a88161270c565b840191505092915050565b6129bc81612545565b82525050565b600081519050919050565b600082825260208201905092915050565b6000819050602082019050919050565b6129f7816126ce565b82525050565b6000612a0983836129ee565b60208301905092915050565b6000602082019050919050565b6000612a2d826129c2565b612a3781856129cd565b9350612a42836129de565b8060005b83811015612a73578151612a5a88826129fd565b9750612a6583612a15565b925050600181019050612a46565b5085935050505092915050565b600060e082019050612a95600083018a61291c565b8181036020830152612aa7818961297a565b90508181036040830152612abb818861297a565b9050612aca60608301876126d8565b612ad760808301866129b3565b612ae460a0830185612613565b81810360c0830152612af68184612a22565b905098975050505050505050565b60006020820190508181036000830152612b1e818461297a565b905092915050565b60006101208284031215612b3d57612b3c61267d565b5b81905092915050565b60006101208284031215612b5d57612b5c612460565b5b6000612b6b84828501612b26565b91505092915050565b612b7d816126ce565b8114612b8857600080fd5b50565b600081359050612b9a81612b74565b92915050565b600060208284031215612bb657612bb5612460565b5b6000612bc484828501612b8b565b91505092915050565b7f416363657373436f6e74726f6c3a2063616e206f6e6c792072656e6f756e636560008201527f20726f6c657320666f722073656c660000000000000000000000000000000000602082015250565b6000612c29602f83612936565b9150612c3482612bcd565b604082019050919050565b60006020820190508181036000830152612c5881612c1c565b9050919050565b7f46756e6374696f6e206d7573742062652063616c6c6564207468726f7567682060008201527f64656c656761746563616c6c0000000000000000000000000000000000000000602082015250565b6000612cbb602c83612936565b9150612cc682612c5f565b604082019050919050565b60006020820190508181036000830152612cea81612cae565b9050919050565b7f46756e6374696f6e206d7573742062652063616c6c6564207468726f7567682060008201527f6163746976652070726f78790000000000000000000000000000000000000000602082015250565b6000612d4d602c83612936565b9150612d5882612cf1565b604082019050919050565b60006020820190508181036000830152612d7c81612d40565b9050919050565b7f4f776e61626c655061757361626c653a206163636573732064656e6965640000600082015250565b6000612db9601e83612936565b9150612dc482612d83565b602082019050919050565b60006020820190508181036000830152612de881612dac565b9050919050565b7f555550535570677261646561626c653a206d757374206e6f742062652063616c60008201527f6c6564207468726f7567682064656c656761746563616c6c0000000000000000602082015250565b6000612e4b603883612936565b9150612e5682612def565b604082019050919050565b60006020820190508181036000830152612e7a81612e3e565b9050919050565b7f4549503731323a20556e696e697469616c697a65640000000000000000000000600082015250565b6000612eb7601583612936565b9150612ec282612e81565b602082019050919050565b60006020820190508181036000830152612ee681612eaa565b9050919050565b7f496e697469616c697a61626c653a20636f6e747261637420697320616c72656160008201527f647920696e697469616c697a6564000000000000000000000000000000000000602082015250565b6000612f49602e83612936565b9150612f5482612eed565b604082019050919050565b60006020820190508181036000830152612f7881612f3c565b9050919050565b6000819050919050565b600060ff82169050919050565b6000819050919050565b6000612fbb612fb6612fb184612f7f565b612f96565b612f89565b9050919050565b612fcb81612fa0565b82525050565b6000602082019050612fe66000830184612fc2565b92915050565b7f4d6f726967696e4170703a20696e76616c69642076616c756521000000000000600082015250565b6000613022601a83612936565b915061302d82612fec565b602082019050919050565b6000602082019050818103600083015261305181613015565b9050919050565b600081519050613067816125ba565b92915050565b60006020828403121561308357613082612460565b5b600061309184828501613058565b91505092915050565b7f45524331393637557067726164653a206e657720696d706c656d656e7461746960008201527f6f6e206973206e6f742055555053000000000000000000000000000000000000602082015250565b60006130f6602e83612936565b91506131018261309a565b604082019050919050565b60006020820190508181036000830152613125816130e9565b9050919050565b7f45524331393637557067726164653a20756e737570706f727465642070726f7860008201527f6961626c65555549440000000000000000000000000000000000000000000000602082015250565b6000613188602983612936565b91506131938261312c565b604082019050919050565b600060208201905081810360008301526131b78161317b565b9050919050565b7f5061757361626c653a2070617573656400000000000000000000000000000000600082015250565b60006131f4601083612936565b91506131ff826131be565b602082019050919050565b60006020820190508181036000830152613223816131e7565b9050919050565b600060208201905061323f60008301846129b3565b92915050565b7f4e487b7100000000000000000000000000000000000000000000000000000000600052602260045260246000fd5b6000600282049050600182168061328c57607f821691505b602082108114156132a05761329f613245565b5b50919050565b7f496e697469616c697a61626c653a20636f6e7472616374206973206e6f74206960008201527f6e697469616c697a696e67000000000000000000000000000000000000000000602082015250565b6000613302602b83612936565b915061330d826132a6565b604082019050919050565b60006020820190508181036000830152613331816132f5565b9050919050565b600081905092915050565b7f416363657373436f6e74726f6c3a206163636f756e7420000000000000000000600082015250565b6000613379601783613338565b915061338482613343565b601782019050919050565b600061339a8261292b565b6133a48185613338565b93506133b4818560208601612947565b80840191505092915050565b7f206973206d697373696e6720726f6c6520000000000000000000000000000000600082015250565b60006133f6601183613338565b9150613401826133c0565b601182019050919050565b60006134178261336c565b9150613423828561338f565b915061342e826133e9565b915061343a828461338f565b91508190509392505050565b7f455243313936373a206e657720696d706c656d656e746174696f6e206973206e60008201527f6f74206120636f6e747261637400000000000000000000000000000000000000602082015250565b60006134a2602d83612936565b91506134ad82613446565b604082019050919050565b600060208201905081810360008301526134d181613495565b9050919050565b7f5061757361626c653a206e6f7420706175736564000000000000000000000000600082015250565b600061350e601483612936565b9150613519826134d8565b602082019050919050565b6000602082019050818103600083015261353d81613501565b9050919050565b7f4e487b7100000000000000000000000000000000000000000000000000000000600052601160045260246000fd5b600061357e826126ce565b9150613589836126ce565b9250817fffffffffffffffffffffffffffffffffffffffffffffffffffffffffffffffff04831182151516156135c2576135c1613544565b5b828202905092915050565b60006135d8826126ce565b91506135e3836126ce565b9250827fffffffffffffffffffffffffffffffffffffffffffffffffffffffffffffffff0382111561361857613617613544565b5b828201905092915050565b7f4e487b7100000000000000000000000000000000000000000000000000000000600052603260045260246000fd5b600061365d826126ce565b9150600082141561367157613670613544565b5b600182039050919050565b7f537472696e67733a20686578206c656e67746820696e73756666696369656e74600082015250565b60006136b2602083612936565b91506136bd8261367c565b602082019050919050565b600060208201905081810360008301526136e1816136a5565b9050919050565b600081519050919050565b600081905092915050565b6000613709826136e8565b61371381856136f3565b9350613723818560208601612947565b80840191505092915050565b600061373b82846136fe565b915081905092915050565b7f416464726573733a2063616c6c20746f206e6f6e2d636f6e7472616374000000600082015250565b600061377c601d83612936565b915061378782613746565b602082019050919050565b600060208201905081810360008301526137ab8161376f565b905091905056fe454950373132446f6d61696e28737472696e67206e616d652c737472696e672076657273696f6e2c75696e7432353620636861696e49642c6164647265737320766572696679696e67436f6e747261637429416464726573733a206c6f772d6c6576656c2064656c65676174652063616c6c206661696c6564a26469706673582212209f1959a494d9d8f876f1a5a83d7a4878527d0b2d19b3677b5e32c9f6db3ad10b64736f6c63430008090033",
  "linkReferences": {},
  "deployedLinkReferences": {}
}