{
  "_format": "hh-sol-artifact-1",
  "contractName": "AtomicSwap",
  "sourceName": "contracts/AtomicSwap.sol",
  "abi": [
    {
      "inputs": [],
      "name": "AlreadyCompleted",
      "type": "error"
    },
    {
      "inputs": [],
      "name": "AlreadyExistPool",
      "type": "error"
    },
    {
      "inputs": [],
      "name": "InvalidTokenPair",
      "type": "error"
    },
    {
      "inputs": [],
      "name": "NoPermissionToCancel",
      "type": "error"
    },
    {
      "inputs": [],
      "name": "NoPermissionToTake",
      "type": "error"
    },
    {
      "inputs": [],
      "name": "NonExistPool",
      "type": "error"
    },
    {
      "inputs": [],
      "name": "NotAllowedAmount",
      "type": "error"
    },
    {
      "inputs": [],
      "name": "NotOwnerOfToken",
      "type": "error"
    },
    {
      "inputs": [],
      "name": "ZeroTokenAddress",
      "type": "error"
    },
    {
      "anonymous": false,
      "inputs": [
        {
          "indexed": true,
          "internalType": "bytes32",
          "name": "id",
          "type": "bytes32"
        }
      ],
      "name": "AtomicSwapOrderCreated",
      "type": "event"
    },
    {
      "anonymous": false,
      "inputs": [
        {
          "indexed": true,
          "internalType": "address",
          "name": "maker",
          "type": "address"
        },
        {
          "indexed": true,
          "internalType": "address",
          "name": "taker",
          "type": "address"
        },
        {
          "indexed": true,
          "internalType": "bytes32",
          "name": "id",
          "type": "bytes32"
        }
      ],
      "name": "AtomicSwapOrderTook",
      "type": "event"
    },
    {
      "anonymous": false,
      "inputs": [
        {
          "indexed": false,
          "internalType": "uint8",
          "name": "version",
          "type": "uint8"
        }
      ],
      "name": "Initialized",
      "type": "event"
    },
    {
      "anonymous": false,
      "inputs": [
        {
          "indexed": true,
          "internalType": "address",
          "name": "previousOwner",
          "type": "address"
        },
        {
          "indexed": true,
          "internalType": "address",
          "name": "newOwner",
          "type": "address"
        }
      ],
      "name": "OwnershipTransferred",
      "type": "event"
    },
    {
      "anonymous": false,
      "inputs": [
        {
          "indexed": true,
          "internalType": "address",
          "name": "payer",
          "type": "address"
        },
        {
          "indexed": false,
          "internalType": "uint256",
          "name": "amount",
          "type": "uint256"
        },
        {
          "indexed": false,
          "internalType": "uint256",
          "name": "daoShare",
          "type": "uint256"
        },
        {
          "indexed": false,
          "internalType": "uint256",
          "name": "burned",
          "type": "uint256"
        }
      ],
      "name": "PaymentReceived",
      "type": "event"
    },
    {
      "inputs": [],
      "name": "bridge",
      "outputs": [
        {
          "internalType": "contract ISideLzAppUpgradable",
          "name": "",
          "type": "address"
        }
      ],
      "stateMutability": "view",
      "type": "function"
    },
    {
      "inputs": [
        {
          "components": [
            {
              "internalType": "bytes32",
              "name": "orderID",
              "type": "bytes32"
            }
          ],
          "internalType": "struct IAtomicSwap.CancelSwapMsg",
          "name": "cancelswap",
          "type": "tuple"
        }
      ],
      "name": "cancelSwap",
      "outputs": [],
      "stateMutability": "payable",
      "type": "function"
    },
    {
      "inputs": [
        {
          "internalType": "address",
          "name": "admin",
          "type": "address"
        },
        {
          "internalType": "uint16",
          "name": "_chainID",
          "type": "uint16"
        },
        {
          "internalType": "address",
          "name": "_bridge",
          "type": "address"
        }
      ],
      "name": "initialize",
      "outputs": [],
      "stateMutability": "nonpayable",
      "type": "function"
    },
    {
      "inputs": [
        {
          "components": [
            {
              "components": [
                {
                  "internalType": "address",
                  "name": "token",
                  "type": "address"
                },
                {
                  "internalType": "uint256",
                  "name": "amount",
                  "type": "uint256"
                }
              ],
              "internalType": "struct IAtomicSwap.Coin",
              "name": "sellToken",
              "type": "tuple"
            },
            {
              "components": [
                {
                  "internalType": "address",
                  "name": "token",
                  "type": "address"
                },
                {
                  "internalType": "uint256",
                  "name": "amount",
                  "type": "uint256"
                }
              ],
              "internalType": "struct IAtomicSwap.Coin",
              "name": "buyToken",
              "type": "tuple"
            },
            {
              "internalType": "address",
              "name": "makerSender",
              "type": "address"
            },
            {
              "internalType": "address",
              "name": "makerReceiver",
              "type": "address"
            },
            {
              "internalType": "address",
              "name": "desiredTaker",
              "type": "address"
            },
            {
              "internalType": "uint256",
              "name": "expireAt",
              "type": "uint256"
            },
            {
              "internalType": "uint16",
              "name": "dstChainID",
              "type": "uint16"
            },
            {
              "internalType": "enum IAtomicSwap.PoolType",
              "name": "poolType",
              "type": "uint8"
            }
          ],
          "internalType": "struct IAtomicSwap.MakeSwapMsg",
          "name": "makeswap",
          "type": "tuple"
        }
      ],
      "name": "makeSwap",
      "outputs": [],
      "stateMutability": "payable",
      "type": "function"
    },
    {
      "inputs": [
        {
          "internalType": "uint16",
          "name": "_srcChainID",
          "type": "uint16"
        },
        {
          "internalType": "bytes",
          "name": "_srcAddress",
          "type": "bytes"
        },
        {
          "internalType": "uint64",
          "name": "_nonce",
          "type": "uint64"
        },
        {
          "internalType": "bytes",
          "name": "_payload",
          "type": "bytes"
        }
      ],
      "name": "onReceivePacket",
      "outputs": [],
      "stateMutability": "nonpayable",
      "type": "function"
    },
    {
      "inputs": [],
      "name": "owner",
      "outputs": [
        {
          "internalType": "address",
          "name": "",
          "type": "address"
        }
      ],
      "stateMutability": "view",
      "type": "function"
    },
    {
      "inputs": [],
      "name": "renounceOwnership",
      "outputs": [],
      "stateMutability": "nonpayable",
      "type": "function"
    },
    {
      "inputs": [
        {
          "internalType": "bytes32",
          "name": "",
          "type": "bytes32"
        }
      ],
      "name": "swapOrderBuyToken",
      "outputs": [
        {
          "internalType": "address",
          "name": "token",
          "type": "address"
        },
        {
          "internalType": "uint256",
          "name": "amount",
          "type": "uint256"
        }
      ],
      "stateMutability": "view",
      "type": "function"
    },
    {
      "inputs": [
        {
          "internalType": "bytes32",
          "name": "",
          "type": "bytes32"
        }
      ],
      "name": "swapOrderID",
      "outputs": [
        {
          "internalType": "bytes32",
          "name": "id",
          "type": "bytes32"
        },
        {
          "internalType": "uint16",
          "name": "srcChainID",
          "type": "uint16"
        },
        {
          "internalType": "uint16",
          "name": "dstChainID",
          "type": "uint16"
        },
        {
          "internalType": "enum IAtomicSwap.PoolType",
          "name": "poolType",
          "type": "uint8"
        }
      ],
      "stateMutability": "view",
      "type": "function"
    },
    {
      "inputs": [
        {
          "internalType": "bytes32",
          "name": "",
          "type": "bytes32"
        }
      ],
      "name": "swapOrderOperators",
      "outputs": [
        {
          "internalType": "address",
          "name": "maker",
          "type": "address"
        },
        {
          "internalType": "address",
          "name": "taker",
          "type": "address"
        },
        {
          "internalType": "address",
          "name": "makerReceiver",
          "type": "address"
        },
        {
          "internalType": "address",
          "name": "takerReceiver",
          "type": "address"
        }
      ],
      "stateMutability": "view",
      "type": "function"
    },
    {
      "inputs": [
        {
          "internalType": "bytes32",
          "name": "",
          "type": "bytes32"
        }
      ],
      "name": "swapOrderSellToken",
      "outputs": [
        {
          "internalType": "address",
          "name": "token",
          "type": "address"
        },
        {
          "internalType": "uint256",
          "name": "amount",
          "type": "uint256"
        }
      ],
      "stateMutability": "view",
      "type": "function"
    },
    {
      "inputs": [
        {
          "internalType": "bytes32",
          "name": "",
          "type": "bytes32"
        }
      ],
      "name": "swapOrderStatus",
      "outputs": [
        {
          "internalType": "enum IAtomicSwap.Side",
          "name": "side",
          "type": "uint8"
        },
        {
          "internalType": "enum IAtomicSwap.Status",
          "name": "status",
          "type": "uint8"
        },
        {
          "internalType": "uint256",
          "name": "createdAt",
          "type": "uint256"
        },
        {
          "internalType": "uint256",
          "name": "canceledAt",
          "type": "uint256"
        },
        {
          "internalType": "uint256",
          "name": "completedAt",
          "type": "uint256"
        }
      ],
      "stateMutability": "view",
      "type": "function"
    },
    {
      "inputs": [
        {
          "components": [
            {
              "internalType": "bytes32",
              "name": "orderID",
              "type": "bytes32"
            },
            {
              "internalType": "address",
              "name": "takerReceiver",
              "type": "address"
            }
          ],
          "internalType": "struct IAtomicSwap.TakeSwapMsg",
          "name": "takeswap",
          "type": "tuple"
        }
      ],
      "name": "takeSwap",
      "outputs": [],
      "stateMutability": "payable",
      "type": "function"
    },
    {
      "inputs": [
        {
          "internalType": "address",
          "name": "newOwner",
          "type": "address"
        }
      ],
      "name": "transferOwnership",
      "outputs": [],
      "stateMutability": "nonpayable",
      "type": "function"
    }
  ],
  "bytecode": "0x608060405234801561001057600080fd5b506137d9806100206000396000f3fe6080604052600436106100dd5760003560e01c8063708c0db91161007f57806385c6ae8e1161005957806385c6ae8e1461029c5780638da5cb5b146102dc578063e78cea9214610307578063f2fde38b14610332576100dd565b8063708c0db914610240578063715018a6146102695780638373fd5314610280576100dd565b80633336e342116100bb5780633336e3421461017f57806337be0022146101bd57806340d7185c146101d9578063483b32d914610202576100dd565b806306be619c146100e25780631d2d8596146100fe578063298b5e571461013f575b600080fd5b6100fc60048036038101906100f79190612215565b61035b565b005b34801561010a57600080fd5b5061012560048036038101906101209190612278565b610b2e565b60405161013695949392919061237d565b60405180910390f35b34801561014b57600080fd5b5061016660048036038101906101619190612278565b610b7e565b6040516101769493929190612411565b60405180910390f35b34801561018b57600080fd5b506101a660048036038101906101a19190612278565b610c2e565b6040516101b4929190612456565b60405180910390f35b6101d760048036038101906101d2919061249e565b610c72565b005b3480156101e557600080fd5b5061020060048036038101906101fb91906126eb565b610fc9565b005b34801561020e57600080fd5b5061022960048036038101906102249190612278565b6111b2565b604051610237929190612456565b60405180910390f35b34801561024c57600080fd5b50610267600480360381019061026291906127bb565b6111f6565b005b34801561027557600080fd5b5061027e61139e565b005b61029a6004803603810190610295919061282e565b6113b2565b005b3480156102a857600080fd5b506102c360048036038101906102be9190612278565b6118bb565b6040516102d394939291906128c2565b60405180910390f35b3480156102e857600080fd5b506102f1611914565b6040516102fe9190612907565b60405180910390f35b34801561031357600080fd5b5061031c61193e565b6040516103299190612981565b60405180910390f35b34801561033e57600080fd5b506103596004803603810190610354919061299c565b611964565b005b80600001356000801b606660008381526020019081526020016000206000015414156103b3576040517f21b490ba00000000000000000000000000000000000000000000000000000000815260040160405180910390fd5b6000606860008460000135815260200190815260200160002090506000606760008560000135815260200190815260200160002090503373ffffffffffffffffffffffffffffffffffffffff168260010160009054906101000a900473ffffffffffffffffffffffffffffffffffffffff1673ffffffffffffffffffffffffffffffffffffffff161461047b576040517f08c379a000000000000000000000000000000000000000000000000000000000815260040161047290612a26565b60405180910390fd5b60048081111561048e5761048d6122a5565b5b8160000160019054906101000a900460ff1660048111156104b2576104b16122a5565b5b14156104f3576040517f08c379a00000000000000000000000000000000000000000000000000000000081526004016104ea90612a92565b60405180910390fd5b60048160000160016101000a81548160ff0219169083600481111561051b5761051a6122a5565b5b021790555060008060018660405160200161053893929190612bcd565b604051602081830303815290604052905060018081111561055c5761055b6122a5565b5b606660008760000135815260200190815260200160002060010160049054906101000a900460ff166001811115610596576105956122a5565b5b141561064657606560009054906101000a900473ffffffffffffffffffffffffffffffffffffffff1673ffffffffffffffffffffffffffffffffffffffff1663e4a8b2f934606c60009054906101000a900461ffff1633856040518563ffffffff1660e01b815260040161060c93929190612cad565b6000604051808303818588803b15801561062557600080fd5b505af1158015610639573d6000803e3d6000fd5b5050505050505050610b2a565b6000606a600087600001358152602001908152602001600020905060008160000160009054906101000a900473ffffffffffffffffffffffffffffffffffffffff16905081600101548173ffffffffffffffffffffffffffffffffffffffff1663dd62ed3e33306040518363ffffffff1660e01b81526004016106ca929190612ceb565b60206040518083038186803b1580156106e257600080fd5b505afa1580156106f6573d6000803e3d6000fd5b505050506040513d601f19601f8201168201806040525081019061071a9190612d40565b1015610752576040517fe359de1000000000000000000000000000000000000000000000000000000000815260040160405180910390fd5b8073ffffffffffffffffffffffffffffffffffffffff166323b872dd338760020160009054906101000a900473ffffffffffffffffffffffffffffffffffffffff1685600101546040518463ffffffff1660e01b81526004016107b793929190612d6d565b602060405180830381600087803b1580156107d157600080fd5b505af11580156107e5573d6000803e3d6000fd5b505050506040513d601f19601f820116820180604052508101906108099190612ddc565b610848576040517f08c379a000000000000000000000000000000000000000000000000000000000815260040161083f90612e55565b60405180910390fd5b60018081111561085b5761085a6122a5565b5b606660008960000135815260200190815260200160002060010160049054906101000a900460ff166001811115610895576108946122a5565b5b141561094257606560009054906101000a900473ffffffffffffffffffffffffffffffffffffffff1673ffffffffffffffffffffffffffffffffffffffff1663e4a8b2f934606c60009054906101000a900461ffff1633876040518563ffffffff1660e01b815260040161090b93929190612cad565b6000604051808303818588803b15801561092457600080fd5b505af1158015610938573d6000803e3d6000fd5b5050505050610a7d565b60006069600089600001358152602001908152602001600020905060008160000160009054906101000a900473ffffffffffffffffffffffffffffffffffffffff1690508073ffffffffffffffffffffffffffffffffffffffff1663a9059cbb8860030160009054906101000a900473ffffffffffffffffffffffffffffffffffffffff1684600101546040518363ffffffff1660e01b81526004016109e9929190612456565b602060405180830381600087803b158015610a0357600080fd5b505af1158015610a17573d6000803e3d6000fd5b505050506040513d601f19601f82011682018060405250810190610a3b9190612ddc565b610a7a576040517f08c379a0000000000000000000000000000000000000000000000000000000008152600401610a7190612e55565b60405180910390fd5b50505b86600001358560010160009054906101000a900473ffffffffffffffffffffffffffffffffffffffff1673ffffffffffffffffffffffffffffffffffffffff168660000160009054906101000a900473ffffffffffffffffffffffffffffffffffffffff1673ffffffffffffffffffffffffffffffffffffffff167f6bf7309f141d1b44e414f1fc04d98491cd0acf98f0f1e5ad885d0a7ce164e6fa60405160405180910390a450505050505b5050565b60676020528060005260406000206000915090508060000160009054906101000a900460ff16908060000160019054906101000a900460ff16908060010154908060020154908060030154905085565b60686020528060005260406000206000915090508060000160009054906101000a900473ffffffffffffffffffffffffffffffffffffffff16908060010160009054906101000a900473ffffffffffffffffffffffffffffffffffffffff16908060020160009054906101000a900473ffffffffffffffffffffffffffffffffffffffff16908060030160009054906101000a900473ffffffffffffffffffffffffffffffffffffffff16905084565b606a6020528060005260406000206000915090508060000160009054906101000a900473ffffffffffffffffffffffffffffffffffffffff16908060010154905082565b80600001356000801b60666000838152602001908152602001600020600001541415610cca576040517f21b490ba00000000000000000000000000000000000000000000000000000000815260040160405180910390fd5b600060686000846000013581526020019081526020016000206040518060800160405290816000820160009054906101000a900473ffffffffffffffffffffffffffffffffffffffff1673ffffffffffffffffffffffffffffffffffffffff1673ffffffffffffffffffffffffffffffffffffffff1681526020016001820160009054906101000a900473ffffffffffffffffffffffffffffffffffffffff1673ffffffffffffffffffffffffffffffffffffffff1673ffffffffffffffffffffffffffffffffffffffff1681526020016002820160009054906101000a900473ffffffffffffffffffffffffffffffffffffffff1673ffffffffffffffffffffffffffffffffffffffff1673ffffffffffffffffffffffffffffffffffffffff1681526020016003820160009054906101000a900473ffffffffffffffffffffffffffffffffffffffff1673ffffffffffffffffffffffffffffffffffffffff1673ffffffffffffffffffffffffffffffffffffffff168152505090503373ffffffffffffffffffffffffffffffffffffffff16816000015173ffffffffffffffffffffffffffffffffffffffff1614610eb1576040517f2bc8de4500000000000000000000000000000000000000000000000000000000815260040160405180910390fd5b6002606760008560000135815260200190815260200160002060000160016101000a81548160ff02191690836004811115610eef57610eee6122a5565b5b021790555060008060028560000135604051602001610f1093929190612e75565b6040516020818303038152906040529050606560009054906101000a900473ffffffffffffffffffffffffffffffffffffffff1673ffffffffffffffffffffffffffffffffffffffff1663e4a8b2f934606c60009054906101000a900461ffff1633856040518563ffffffff1660e01b8152600401610f9193929190612cad565b6000604051808303818588803b158015610faa57600080fd5b505af1158015610fbe573d6000803e3d6000fd5b505050505050505050565b60008282600090602092610fdf93929190612eb6565b810190610fec9190612f16565b905060006002811115611002576110016122a5565b5b816002811115611015576110146122a5565b5b141561107f576000838360209060409261103193929190612eb6565b9061103c9190612f5b565b905060008484604090809261105393929190612eb6565b8101906110609190613115565b90506110788261106f896119e8565b8360008c6119f6565b50506111aa565b60016002811115611093576110926122a5565b5b8160028111156110a6576110a56122a5565b5b1415611119576000838360209080926110c193929190612eb6565b8101906110ce9190613193565b90506004606760008360000151815260200190815260200160002060000160016101000a81548160ff0219169083600481111561110e5761110d6122a5565b5b0217905550506111a9565b60028081111561112c5761112b6122a5565b5b81600281111561113f5761113e6122a5565b5b14156111a85760008383602090809261115a93929190612eb6565b906111659190612f5b565b905060026067600083815260200190815260200160002060000160016101000a81548160ff021916908360048111156111a1576111a06122a5565b5b0217905550505b5b5b505050505050565b60696020528060005260406000206000915090508060000160009054906101000a900473ffffffffffffffffffffffffffffffffffffffff16908060010154905082565b60008060019054906101000a900460ff161590508080156112275750600160008054906101000a900460ff1660ff16105b80611254575061123630611fac565b1580156112535750600160008054906101000a900460ff1660ff16145b5b611293576040517f08c379a000000000000000000000000000000000000000000000000000000000815260040161128a90613232565b60405180910390fd5b60016000806101000a81548160ff021916908360ff16021790555080156112d0576001600060016101000a81548160ff0219169083151502179055505b6112d8611fcf565b6112e184611964565b81606560006101000a81548173ffffffffffffffffffffffffffffffffffffffff021916908373ffffffffffffffffffffffffffffffffffffffff16021790555082606c60006101000a81548161ffff021916908361ffff16021790555080156113985760008060016101000a81548160ff0219169083151502179055507f7f26b83ff96e1f2b6a682f133852f6798a09c465da95921460cefb3847402498600160405161138f919061328d565b60405180910390a15b50505050565b6113a6612030565b6113b060006120ae565b565b8060400160000160208101906113c8919061299c565b73ffffffffffffffffffffffffffffffffffffffff168160000160000160208101906113f4919061299c565b73ffffffffffffffffffffffffffffffffffffffff161415611442576040517f8686656d00000000000000000000000000000000000000000000000000000000815260040160405180910390fd5b600073ffffffffffffffffffffffffffffffffffffffff16816000016000016020810190611470919061299c565b73ffffffffffffffffffffffffffffffffffffffff1614806114d35750600073ffffffffffffffffffffffffffffffffffffffff168160400160000160208101906114bb919061299c565b73ffffffffffffffffffffffffffffffffffffffff16145b1561150a576040517f6b093aad00000000000000000000000000000000000000000000000000000000815260040160405180910390fd5b3373ffffffffffffffffffffffffffffffffffffffff16816080016020810190611534919061299c565b73ffffffffffffffffffffffffffffffffffffffff1614611581576040517f4c084f1400000000000000000000000000000000000000000000000000000000815260040160405180910390fd5b6000816000016000016020810190611599919061299c565b905081600001602001358173ffffffffffffffffffffffffffffffffffffffff1663dd62ed3e33306040518363ffffffff1660e01b81526004016115de929190612ceb565b60206040518083038186803b1580156115f657600080fd5b505afa15801561160a573d6000803e3d6000fd5b505050506040513d601f19601f8201168201806040525081019061162e9190612d40565b1015611666576040517fe359de1000000000000000000000000000000000000000000000000000000000815260040160405180910390fd5b8073ffffffffffffffffffffffffffffffffffffffff166323b872dd333085600001602001356040518463ffffffff1660e01b81526004016116aa93929190612d6d565b602060405180830381600087803b1580156116c457600080fd5b505af11580156116d8573d6000803e3d6000fd5b505050506040513d601f19601f820116820180604052508101906116fc9190612ddc565b61173b576040517f08c379a0000000000000000000000000000000000000000000000000000000008152600401611732906132f4565b60405180910390fd5b600061175a33846101000160208101906117559190613314565b612174565b905061177b8133858036038101906117729190613115565b600160006119f6565b6000806000838660405160200161179594939291906134e3565b60405160208183030381529060405290506001808111156117b9576117b86122a5565b5b846101200160208101906117cd9190613529565b60018111156117df576117de6122a5565b5b141561188857606560009054906101000a900473ffffffffffffffffffffffffffffffffffffffff1673ffffffffffffffffffffffffffffffffffffffff1663e4a8b2f934606c60009054906101000a900461ffff1633856040518563ffffffff1660e01b815260040161185593929190612cad565b6000604051808303818588803b15801561186e57600080fd5b505af1158015611882573d6000803e3d6000fd5b50505050505b817f8b82d32987f9a4ae1bc7868a6f104edb711227ec3c9fccb0416a14fcc29bec5a60405160405180910390a250505050565b60666020528060005260406000206000915090508060000154908060010160009054906101000a900461ffff16908060010160029054906101000a900461ffff16908060010160049054906101000a900460ff16905084565b6000603360009054906101000a900473ffffffffffffffffffffffffffffffffffffffff16905090565b606560009054906101000a900473ffffffffffffffffffffffffffffffffffffffff1681565b61196c612030565b600073ffffffffffffffffffffffffffffffffffffffff168173ffffffffffffffffffffffffffffffffffffffff1614156119dc576040517f08c379a00000000000000000000000000000000000000000000000000000000081526004016119d3906135c8565b60405180910390fd5b6119e5816120ae565b50565b600060148201519050919050565b6000801b606660008781526020019081526020016000206000015414611a48576040517f86c8139e00000000000000000000000000000000000000000000000000000000815260040160405180910390fd5b60006040518060800160405280878152602001606c60009054906101000a900461ffff1661ffff1681526020018560c0015161ffff1681526020018560e001516001811115611a9a57611a996122a5565b5b8152509050600060405180608001604052808773ffffffffffffffffffffffffffffffffffffffff168152602001866080015173ffffffffffffffffffffffffffffffffffffffff168152602001866060015173ffffffffffffffffffffffffffffffffffffffff168152602001866080015173ffffffffffffffffffffffffffffffffffffffff16815250905060006040518060a00160405280866001811115611b4857611b476122a5565b5b815260200160016004811115611b6157611b606122a5565b5b8152602001428152602001600081526020016000815250905060006001811115611b8e57611b8d6122a5565b5b856001811115611ba157611ba06122a5565b5b1415611c3d57606c60009054906101000a900461ffff16836020019061ffff16908161ffff168152505083836040019061ffff16908161ffff16815250508160200151606860008a815260200190815260200160002060010160006101000a81548173ffffffffffffffffffffffffffffffffffffffff021916908373ffffffffffffffffffffffffffffffffffffffff160217905550611e72565b81606860008a815260200190815260200160002060008201518160000160006101000a81548173ffffffffffffffffffffffffffffffffffffffff021916908373ffffffffffffffffffffffffffffffffffffffff16021790555060208201518160010160006101000a81548173ffffffffffffffffffffffffffffffffffffffff021916908373ffffffffffffffffffffffffffffffffffffffff16021790555060408201518160020160006101000a81548173ffffffffffffffffffffffffffffffffffffffff021916908373ffffffffffffffffffffffffffffffffffffffff16021790555060608201518160030160006101000a81548173ffffffffffffffffffffffffffffffffffffffff021916908373ffffffffffffffffffffffffffffffffffffffff1602179055509050508560000151606960008a815260200190815260200160002060008201518160000160006101000a81548173ffffffffffffffffffffffffffffffffffffffff021916908373ffffffffffffffffffffffffffffffffffffffff1602179055506020820151816001015590505080606760008a815260200190815260200160002060008201518160000160006101000a81548160ff02191690836001811115611e1b57611e1a6122a5565b5b021790555060208201518160000160016101000a81548160ff02191690836004811115611e4b57611e4a6122a5565b5b02179055506040820151816001015560608201518160020155608082015181600301559050505b82606660008a81526020019081526020016000206000820151816000015560208201518160010160006101000a81548161ffff021916908361ffff16021790555060408201518160010160026101000a81548161ffff021916908361ffff16021790555060608201518160010160046101000a81548160ff02191690836001811115611f0157611f006122a5565b5b02179055509050508560200151606a60008a815260200190815260200160002060008201518160000160006101000a81548173ffffffffffffffffffffffffffffffffffffffff021916908373ffffffffffffffffffffffffffffffffffffffff16021790555060208201518160010155905050877f8b82d32987f9a4ae1bc7868a6f104edb711227ec3c9fccb0416a14fcc29bec5a60405160405180910390a25050505050505050565b6000808273ffffffffffffffffffffffffffffffffffffffff163b119050919050565b600060019054906101000a900460ff1661201e576040517f08c379a00000000000000000000000000000000000000000000000000000000081526004016120159061365a565b60405180910390fd5b61202e6120296121d5565b6120ae565b565b6120386121d5565b73ffffffffffffffffffffffffffffffffffffffff16612056611914565b73ffffffffffffffffffffffffffffffffffffffff16146120ac576040517f08c379a00000000000000000000000000000000000000000000000000000000081526004016120a3906136c6565b60405180910390fd5b565b6000603360009054906101000a900473ffffffffffffffffffffffffffffffffffffffff16905081603360006101000a81548173ffffffffffffffffffffffffffffffffffffffff021916908373ffffffffffffffffffffffffffffffffffffffff1602179055508173ffffffffffffffffffffffffffffffffffffffff168173ffffffffffffffffffffffffffffffffffffffff167f8be0079c531659141344cd1fd0a4f28419497f9722a3daafe3b4186f6b6457e060405160405180910390a35050565b6000606c60009054906101000a900461ffff168284606b5460405160200161219f94939291906136e6565b604051602081830303815290604052805190602001209050606b60008154809291906121ca9061375a565b919050555092915050565b600033905090565b6000604051905090565b600080fd5b600080fd5b600080fd5b60006040828403121561220c5761220b6121f1565b5b81905092915050565b60006040828403121561222b5761222a6121e7565b5b6000612239848285016121f6565b91505092915050565b6000819050919050565b61225581612242565b811461226057600080fd5b50565b6000813590506122728161224c565b92915050565b60006020828403121561228e5761228d6121e7565b5b600061229c84828501612263565b91505092915050565b7f4e487b7100000000000000000000000000000000000000000000000000000000600052602160045260246000fd5b600281106122e5576122e46122a5565b5b50565b60008190506122f6826122d4565b919050565b6000612306826122e8565b9050919050565b612316816122fb565b82525050565b6005811061232d5761232c6122a5565b5b50565b600081905061233e8261231c565b919050565b600061234e82612330565b9050919050565b61235e81612343565b82525050565b6000819050919050565b61237781612364565b82525050565b600060a082019050612392600083018861230d565b61239f6020830187612355565b6123ac604083018661236e565b6123b9606083018561236e565b6123c6608083018461236e565b9695505050505050565b600073ffffffffffffffffffffffffffffffffffffffff82169050919050565b60006123fb826123d0565b9050919050565b61240b816123f0565b82525050565b60006080820190506124266000830187612402565b6124336020830186612402565b6124406040830185612402565b61244d6060830184612402565b95945050505050565b600060408201905061246b6000830185612402565b612478602083018461236e565b9392505050565b600060208284031215612495576124946121f1565b5b81905092915050565b6000602082840312156124b4576124b36121e7565b5b60006124c28482850161247f565b91505092915050565b600061ffff82169050919050565b6124e2816124cb565b81146124ed57600080fd5b50565b6000813590506124ff816124d9565b92915050565b600080fd5b600080fd5b6000601f19601f8301169050919050565b7f4e487b7100000000000000000000000000000000000000000000000000000000600052604160045260246000fd5b6125588261250f565b810181811067ffffffffffffffff8211171561257757612576612520565b5b80604052505050565b600061258a6121dd565b9050612596828261254f565b919050565b600067ffffffffffffffff8211156125b6576125b5612520565b5b6125bf8261250f565b9050602081019050919050565b82818337600083830152505050565b60006125ee6125e98461259b565b612580565b90508281526020810184848401111561260a5761260961250a565b5b6126158482856125cc565b509392505050565b600082601f83011261263257612631612505565b5b81356126428482602086016125db565b91505092915050565b600067ffffffffffffffff82169050919050565b6126688161264b565b811461267357600080fd5b50565b6000813590506126858161265f565b92915050565b600080fd5b600080fd5b60008083601f8401126126ab576126aa612505565b5b8235905067ffffffffffffffff8111156126c8576126c761268b565b5b6020830191508360018202830111156126e4576126e3612690565b5b9250929050565b600080600080600060808688031215612707576127066121e7565b5b6000612715888289016124f0565b955050602086013567ffffffffffffffff811115612736576127356121ec565b5b6127428882890161261d565b945050604061275388828901612676565b935050606086013567ffffffffffffffff811115612774576127736121ec565b5b61278088828901612695565b92509250509295509295909350565b612798816123f0565b81146127a357600080fd5b50565b6000813590506127b58161278f565b92915050565b6000806000606084860312156127d4576127d36121e7565b5b60006127e2868287016127a6565b93505060206127f3868287016124f0565b9250506040612804868287016127a6565b9150509250925092565b60006101408284031215612825576128246121f1565b5b81905092915050565b60006101408284031215612845576128446121e7565b5b60006128538482850161280e565b91505092915050565b61286581612242565b82525050565b612874816124cb565b82525050565b6002811061288b5761288a6122a5565b5b50565b600081905061289c8261287a565b919050565b60006128ac8261288e565b9050919050565b6128bc816128a1565b82525050565b60006080820190506128d7600083018761285c565b6128e4602083018661286b565b6128f1604083018561286b565b6128fe60608301846128b3565b95945050505050565b600060208201905061291c6000830184612402565b92915050565b6000819050919050565b600061294761294261293d846123d0565b612922565b6123d0565b9050919050565b60006129598261292c565b9050919050565b600061296b8261294e565b9050919050565b61297b81612960565b82525050565b60006020820190506129966000830184612972565b92915050565b6000602082840312156129b2576129b16121e7565b5b60006129c0848285016127a6565b91505092915050565b600082825260208201905092915050565b7f4e6f5065726d697373696f6e546f54616b650000000000000000000000000000600082015250565b6000612a106012836129c9565b9150612a1b826129da565b602082019050919050565b60006020820190508181036000830152612a3f81612a03565b9050919050565b7f416c7265616479436f6d706c6574656400000000000000000000000000000000600082015250565b6000612a7c6010836129c9565b9150612a8782612a46565b602082019050919050565b60006020820190508181036000830152612aab81612a6f565b9050919050565b6000819050919050565b600060ff82169050919050565b6000612ae4612adf612ada84612ab2565b612922565b612abc565b9050919050565b612af481612ac9565b82525050565b60038110612b0b57612b0a6122a5565b5b50565b6000819050612b1c82612afa565b919050565b6000612b2c82612b0e565b9050919050565b612b3c81612b21565b82525050565b6000612b516020840184612263565b905092915050565b612b6281612242565b82525050565b6000612b7760208401846127a6565b905092915050565b612b88816123f0565b82525050565b60408201612b9f6000830183612b42565b612bac6000850182612b59565b50612bba6020830183612b68565b612bc76020850182612b7f565b50505050565b6000608082019050612be26000830186612aeb565b612bef6020830185612b33565b612bfc6040830184612b8e565b949350505050565b6000612c0f826123d0565b9050919050565b612c1f81612c04565b82525050565b600081519050919050565b600082825260208201905092915050565b60005b83811015612c5f578082015181840152602081019050612c44565b83811115612c6e576000848401525b50505050565b6000612c7f82612c25565b612c898185612c30565b9350612c99818560208601612c41565b612ca28161250f565b840191505092915050565b6000606082019050612cc2600083018661286b565b612ccf6020830185612c16565b8181036040830152612ce18184612c74565b9050949350505050565b6000604082019050612d006000830185612402565b612d0d6020830184612402565b9392505050565b612d1d81612364565b8114612d2857600080fd5b50565b600081519050612d3a81612d14565b92915050565b600060208284031215612d5657612d556121e7565b5b6000612d6484828501612d2b565b91505092915050565b6000606082019050612d826000830186612402565b612d8f6020830185612402565b612d9c604083018461236e565b949350505050565b60008115159050919050565b612db981612da4565b8114612dc457600080fd5b50565b600081519050612dd681612db0565b92915050565b600060208284031215612df257612df16121e7565b5b6000612e0084828501612dc7565b91505092915050565b7f4661696c656420696e20746f6b656e207472616e736665720000000000000000600082015250565b6000612e3f6018836129c9565b9150612e4a82612e09565b602082019050919050565b60006020820190508181036000830152612e6e81612e32565b9050919050565b6000606082019050612e8a6000830186612aeb565b612e976020830185612b33565b612ea4604083018461285c565b949350505050565b600080fd5b600080fd5b60008085851115612eca57612ec9612eac565b5b83861115612edb57612eda612eb1565b5b6001850283019150848603905094509492505050565b60038110612efe57600080fd5b50565b600081359050612f1081612ef1565b92915050565b600060208284031215612f2c57612f2b6121e7565b5b6000612f3a84828501612f01565b91505092915050565b600082905092915050565b600082821b905092915050565b6000612f678383612f43565b82612f728135612242565b92506020821015612fb257612fad7fffffffffffffffffffffffffffffffffffffffffffffffffffffffffffffffff83602003600802612f4e565b831692505b505092915050565b600080fd5b600081359050612fce81612d14565b92915050565b600060408284031215612fea57612fe9612fba565b5b612ff46040612580565b90506000613004848285016127a6565b600083015250602061301884828501612fbf565b60208301525092915050565b6002811061303157600080fd5b50565b60008135905061304381613024565b92915050565b600061014082840312156130605761305f612fba565b5b61306b610100612580565b9050600061307b84828501612fd4565b600083015250604061308f84828501612fd4565b60208301525060806130a3848285016127a6565b60408301525060a06130b7848285016127a6565b60608301525060c06130cb848285016127a6565b60808301525060e06130df84828501612fbf565b60a0830152506101006130f4848285016124f0565b60c08301525061012061310984828501613034565b60e08301525092915050565b6000610140828403121561312c5761312b6121e7565b5b600061313a84828501613049565b91505092915050565b60006040828403121561315957613158612fba565b5b6131636040612580565b9050600061317384828501612263565b6000830152506020613187848285016127a6565b60208301525092915050565b6000604082840312156131a9576131a86121e7565b5b60006131b784828501613143565b91505092915050565b7f496e697469616c697a61626c653a20636f6e747261637420697320616c72656160008201527f647920696e697469616c697a6564000000000000000000000000000000000000602082015250565b600061321c602e836129c9565b9150613227826131c0565b604082019050919050565b6000602082019050818103600083015261324b8161320f565b9050919050565b6000819050919050565b600061327761327261326d84613252565b612922565b612abc565b9050919050565b6132878161325c565b82525050565b60006020820190506132a2600083018461327e565b92915050565b7f4661696c656420696e204c6f636b20746f6b656e000000000000000000000000600082015250565b60006132de6014836129c9565b91506132e9826132a8565b602082019050919050565b6000602082019050818103600083015261330d816132d1565b9050919050565b60006020828403121561332a576133296121e7565b5b6000613338848285016124f0565b91505092915050565b600082905092915050565b600061335b6020840184612fbf565b905092915050565b61336c81612364565b82525050565b604082016133836000830183612b68565b6133906000850182612b7f565b5061339e602083018361334c565b6133ab6020850182613363565b50505050565b60006133c060208401846124f0565b905092915050565b6133d1816124cb565b82525050565b60006133e66020840184613034565b905092915050565b6133f7816128a1565b82525050565b610140820161340f6000830183613341565b61341c6000850182613372565b5061342a6040830183613341565b6134376040850182613372565b506134456080830183612b68565b6134526080850182612b7f565b5061346060a0830183612b68565b61346d60a0850182612b7f565b5061347b60c0830183612b68565b61348860c0850182612b7f565b5061349660e083018361334c565b6134a360e0850182613363565b506134b26101008301836133b1565b6134c06101008501826133c8565b506134cf6101208301836133d7565b6134dd6101208501826133ee565b50505050565b60006101a0820190506134f96000830187612aeb565b6135066020830186612b33565b613513604083018561285c565b61352060608301846133fd565b95945050505050565b60006020828403121561353f5761353e6121e7565b5b600061354d84828501613034565b91505092915050565b7f4f776e61626c653a206e6577206f776e657220697320746865207a65726f206160008201527f6464726573730000000000000000000000000000000000000000000000000000602082015250565b60006135b26026836129c9565b91506135bd82613556565b604082019050919050565b600060208201905081810360008301526135e1816135a5565b9050919050565b7f496e697469616c697a61626c653a20636f6e7472616374206973206e6f74206960008201527f6e697469616c697a696e67000000000000000000000000000000000000000000602082015250565b6000613644602b836129c9565b915061364f826135e8565b604082019050919050565b6000602082019050818103600083015261367381613637565b9050919050565b7f4f776e61626c653a2063616c6c6572206973206e6f7420746865206f776e6572600082015250565b60006136b06020836129c9565b91506136bb8261367a565b602082019050919050565b600060208201905081810360008301526136df816136a3565b9050919050565b60006080820190506136fb600083018761286b565b613708602083018661286b565b6137156040830185612402565b613722606083018461236e565b95945050505050565b7f4e487b7100000000000000000000000000000000000000000000000000000000600052601160045260246000fd5b600061376582612364565b91507fffffffffffffffffffffffffffffffffffffffffffffffffffffffffffffffff8214156137985761379761372b565b5b60018201905091905056fea2646970667358221220d5d9d27f82ee59154ba9321f559e1cd6c14fb1acd2563097712b252aa4ce378264736f6c63430008090033",
  "linkReferences": {},
  "deployedLinkReferences": {}
}